:020000040800F2
:100000008887002045010008050A000865090008E6
:10001000010A00087D0700086D11000800000000BB
:10002000000000000000000000000000250D000896
:100030008107000800000000070A0008190E0008E8
:100040005F0100085F0100085F010008650B000800
:100050005F0100085F01000885070008B507000878
:100060005F0100085F0100085F0100085F010008F0
:100070005F0100085F0100085F0100085F010008E0
:100080005F0100085F0100085F0100085F010008D0
:100090005F0100085F0100085F010008E107000838
:1000A0005F0100085F0100085F0100085F010008B0
:1000B0005F0100085F0100085F0100085F010008A0
:1000C0005F0100085F0100085F0100085F01000890
:1000D0005F0100085F0100085F0100085F01000880
:1000E000B10700085F0100085F0100085F01000818
:1000F0005F0100085F0100085F0100085F01000860
:100100005F0100085F0100085F0100085F0100084F
:100110005F0100085F0100085F0100085F0100083F
:100120005F0100085F0100085F0100085F0100082F
:10013000DFF80CD000F07EFA0048004711460008B6
:10014000888700200648804706480047FEE7FEE70C
:10015000FEE7FEE7FEE7FEE7FEE7FEE7FEE7FEE777
:100160004D0E00083101000840EA01039B0703D04F
:1001700009E008C9121F08C0042AFAD203E011F8E6
:10018000013B00F8013B521EF9D27047D2B201E0A8
:1001900000F8012B491EFBD270470022F6E710B58C
:1001A00004460846114602462046FFF7EFFF204668
:1001B00010BD30B50B46014600202022012409E085
:1001C00021FA02F59D4205D303FA02F5491B04FA10
:1001D00002F52844151EA2F10102F1DC30BD2DE923
:1001E000F05F0546002092469B46884606468146BB
:1001F00040241DE0284641464746224600F03BFA8F
:10020000B0EB0A0052465B4671EB0B0110D310466F
:100210001946224600F020FA2D1A67EB01084F46D6
:1002200022460120002100F017FA17EB00094E4189
:10023000201EA4F10104DDDC484631462A4643462F
:10024000BDE8F09F014900F003B800005C83002086
:1002500030B50246084613683C22B3FBF2F102FBBC
:1002600011330360B1FBF2F302FB13111824416058
:10027000B3FBF4F104FB113282600A1D0723B2FBC9
:10028000F3F403FB1422890001F66C3140F2B555FA
:10029000B1FBF5F405FB1411826104F144028908F5
:1002A0004261C1613B2902D3920700D0491C002260
:1002B000064C13460261E25C8A4203D8891A5B1C31
:1002C0000361F8E7491CC16030BD0000A8B1000817
:1002D0002DE9FE4F074681EA0300C00F0E4601904C
:1002E00021F0004123F00044B81AA14105D238465C
:1002F000314617461E460B46024623F00040104387
:1003000004D13846314603B0BDE8F08F350DC5F352
:100310000A00C3F30A510290401A0090402867DA9D
:10032000C3F3130040F4801B0198924620B10023D0
:10033000D2EB030A63EB0B0B00985946C0F1400265
:10034000504600F089F980460C4650465946009ABE
:1003500000F0A1F9C0197141EF1785EA11533B4331
:100360003FD0019A4AB3009A012A11DC0022801A78
:1003700061EB05514FF0004303EA0555CDE9002537
:10038000801841F580114246234600F0A3F9BAE7F0
:100390002E050025401B61EB0601401941F5801236
:1003A000001852412818A6F5001343EB020140EA59
:1003B000D47018EB0808644113E064084FEA380869
:1003C0004FF0000244EAC0744FEA0553801A61EB13
:1003D0000301801841F5801149084FEA3000801868
:1003E00059414246234603B0BDE8F04F00F065B9DD
:1003F0000198012240000023D0EB020263EBE0737E
:1004000001984FEAE074381A66EB0401EBE783F0D9
:1004100000435DE781F000415AE72DE9FE4F81EA94
:10042000030421F0004504F0004423F000414FF0A4
:10043000000A009450EA050302D052EA010304D1F5
:100440000020014603B0BDE8F08FC1F30A53C5F3A5
:100450000A542344A3F2F3330193A0FB02B3C5F380
:10046000130545F4801CC1F3130141F480180CFB03
:10047000023300FB083E810A930A41EA8C5143EAA9
:100480008853A1FB03474FEA9C2505FB03734FEA02
:10049000982601FB06373D05260545EA1435BBEBDA
:1004A00006016EEB0503850E920E45EA8C1542EAB5
:1004B0008812A5FB0206261E67EB00070C0D44EA16
:1004C0000334A61947EB1350C1F313044FF0000394
:1004D0001946E5FB02014FEA033545EA1455019B35
:1004E0004FEA0432009CA3F10C03CDE900A445EAD5
:1004F000060502932B4600F0EDF8A3E72DE9F04D39
:1005000081EA030404F0004B21F0004714464FF049
:10051000000A23F0004150EA070220D054EA010209
:100520001DD0C1F30A550246C1F31300C7F30A56A2
:10053000C7F3130340F4801143F48013A6EB0508BE
:10054000101BD64608F2FD3873EB010002D308F108
:10055000010801E092185B41B8F1000F03DA0020B6
:100560000146BDE8F08D00204FF480150646074691
:100570000EE0B2EB040C73EB010C04D3121B064328
:1005800063EB01032F436D084FEA300092185B4183
:1005900050EA050CEDD152EA030012D082EA0400C1
:1005A00083EA0105284303D100224FF0004308E00D
:1005B000101B8B4102D20122002302E06FF00102E6
:1005C00053101AEB060047EB085110EB0A0041EB01
:1005D0000B01BDE8F04D00F070B8C1F30A52C1F351
:1005E000130140F2FF3341F480119A4202DA0020F5
:1005F0000146704740F233439A42A2F2334202DC92
:10060000524200F038B800F027B8000030B5002999
:1006100004DB4FF00044404264EB0101002B04DB9B
:100620004FF00044524264EB0303994208BF9042EA
:1006300030BD0000064C074D06E0E06840F00103C5
:1006400094E8070098471034AC42F6D3FFF774FDE6
:100650001CB200083CB20008202A04DB203A00FA51
:1006600002F1002070479140C2F1200320FA03F309
:10067000194390407047202A04DB203A21FA02F007
:100680000021704721FA02F3D040C2F120029140CC
:10069000084319467047202A06DBCB17203A41FA57
:1006A00002F043EAE07306E041FA02F3D040C2F1FF
:1006B0002002914008431946704710B5002B08DA14
:1006C000401C41F1000192185B411A4301D120F016
:1006D000010010BD2DE9FF4D934611B1B1FA81F231
:1006E00002E0B0FA80F220329246FFF7B5FF039A9B
:1006F0000746884640EA0B0011435B46084304D195
:100700003846414604B0BDE8F08D114653EA020078
:1007100016D0CAF140025846FFF7ADFF04460D4619
:100720004FF00106584652460399FFF795FF0843DC
:1007300000D10026344345EAE675274345EA080818
:100740000E984FF00005A0EB0A014FEAD7200A31BE
:100750004FEA47532A4640EA48504FEAD82402D588
:1007600000200146CEE7281844EB0151DDE90C4595
:10077000001904B06941BDE8F04D9EE700BFFEE7F7
:100780007047000010B5022000F032F801280AD1AD
:10079000054800686FEA00000449C1F80C044FF0F6
:1007A000400000F01FF810BD0C1401400010014083
:1007B00000BFFEE710B5022000F01AF801280AD1A8
:1007C000054800686FEA00000449C1F80C044FF0C6
:1007D000020000F007F810BD0C14014000100140A9
:1007E00000BFFEE7014908607047000014040140A3
:1007F000014600200022074B1B6803EA0102064B5A
:10080000D3F814340B4202D00AB1012000E00020DA
:1008100070470000000401400000014008B50121BC
:10082000082000F0F1F80220ADF8000003208DF858
:10083000020010208DF803006946024800F004F819
:1008400008BD0000000C01402DE9F04102460025E2
:100850000026002000230024002791F803C00CF09C
:100860000F0591F803C01CF0100F03D091F802C0DF
:100870004CEA0505B1F800C01CF0FF0F31D0146838
:1008800000202BE04FF0010C0CFA00F3B1F800C08F
:100890000CEA03069E4220D183004FF00F0C0CFAA5
:1008A00003F7BC4305FA03FC4CEA040491F803C0C7
:1008B000BCF1280F06D14FF0010C0CFA00FCC2F875
:1008C00014C00AE091F803C0BCF1480F05D14FF005
:1008D000010C0CFA00FCC2F810C0401C0828D1D34F
:1008E0001460B1F800C0BCF1FF0F34DD5468002083
:1008F0002EE000F1080C4FF0010808FA0CF3B1F8F3
:1009000000C00CEA03069E4221D183004FF00F0C79
:100910000CFA03F7BC4305FA03FC4CEA040491F813
:1009200003C0BCF1280F05D100F1080C08FA0CF83F
:10093000C2F8148091F803C0BCF1480F07D100F150
:10094000080C4FF0010808FA0CF8C2F81080401C9F
:100950000828CED35460BDE8F08141617047016141
:100960007047000002A000F003FC00BFFEE700009B
:1009700020766F696420486172644661756C745FAB
:1009800048616E646C657228766F69642920000086
:1009900000B589B014A103C9CDE9040103F00AFE32
:1009A000134802F029FA08906FF0FF0002F024FAD1
:1009B00007900F48C01F02F01FFA069004A800F02D
:1009C0001BFA0C4B0C4A00218DE80E0006AB07AA5F
:1009D00008A90A4804F038FB084804F055FC074809
:1009E00004F0D0FD09B000BD0000000000010000CF
:1009F0000801A8C019280008352900082C83002008
:100A000000BFFEE77047704729B1064A926902436A
:100A1000044B9A6104E0034A92698243014B9A6154
:100A2000704700000010024030B500210022002471
:100A300000232D4D6D6805F00C0121B1042905D06E
:100A4000082923D105E0294D056022E0274D0560E6
:100A50001FE0254D6D6805F47012234D6D6805F497
:100A60008034022505EB92421CB9214D55430560A7
:100A70000BE01D4D6D6815F4003F03D01C4D554330
:100A8000056002E0194D5543056002E0174D056011
:100A900000BF00BF144D6D6805F0F0010909154D48
:100AA0006B5C0568DD4045600F4D6D6805F4E061E5
:100AB000090A104D6B5C4568DD4085600A4D6D6824
:100AC00005F46051C90A0B4D6B5C4568DD40C5609B
:100AD000054D6D6805F44041890B074D6B5CC56899
:100AE000B5FBF3F5056130BD0010024000127A003D
:100AF00000093D0020000020300000200549098841
:100B00006FEA000292B201EA0201034AA2F8041855
:100B100070470000042800400020004000210448E5
:100B200001880448B0F8180841EA00407047000006
:100B30001C2800400020004001460020074A12887F
:100B400002EA0102D0B2064AB2F800280A4202D0F4
:100B500008B1012000E00020704700000428004098
:100B60000020004010B50120FFF7E6FFB8B10120DA
:100B7000FFF7C4FF0A480078012807D1022109487D
:100B8000FFF7EBFE00200649087006E00221054849
:100B9000FFF7E5FE01200249087000F0BBF910BD27
:100BA00010000020000C014000B587B001210803AF
:100BB000FFF72AFF01213C20FFF726FF1020ADF8A8
:100BC000040003208DF8060010208DF8070001A90D
:100BD0002648FFF739FE4FF47060ADF8040003209B
:100BE0008DF8060010208DF8070001A92048FFF7B6
:100BF0002BFEE020ADF8040003208DF8060018203D
:100C00008DF8070001A91B48FFF71EFE4020ADF834
:100C1000040048208DF8070001A91648FFF714FECC
:100C20000020ADF808004FF48270ADF80A000020F3
:100C3000ADF80C00ADF80E00ADF810004FF40070E8
:100C4000ADF812000820ADF814000020ADF8160031
:100C50000720ADF8180002A9074800F045F8012167
:100C6000054800F027F807B000BD00000010014063
:100C700000140140000801400030014010B5044656
:100C800000BF02210A4800F021F80028F9D02146CF
:100C9000074800F027F800BF0121054800F016F8CA
:100CA0000028F9D0024800F01AF8C0B210BD0000C8
:100CB0000030014021B1028842F04002028004E08D
:100CC00002884FF6BF731A40028070470246002028
:100CD00013890B4201D0012000E00020704701463B
:100CE000888970478181704710B50022028802F41C
:100CF00041520B884C8823438C882343CC88234360
:100D00000C8923434C8923438C892343CC89234377
:100D10001A430280838B4FF2FF74234083830B8A34
:100D2000038210BD704710B500F002F810BD00003E
:100D3000002100202E4A126842F480322C4B1A60A7
:100D400000BF2B4A126802F40030491C10B9B1F5FB
:100D5000A06FF6D1264A126812F4003F01D001209C
:100D600000E00020012842D1224A126842F010021D
:100D7000204B1A601A46126822F003021A601A46C3
:100D8000126842F002021A60194A5268184B5A60FF
:100D90001A4652685A601A46526842F480625A6093
:100DA0001A46526822F47C125A601A46526842F47B
:100DB000E8125A601A46126842F080721A6000BF48
:100DC0000B4A126812F0007FFAD0094A526822F0EA
:100DD0000302074B5A601A46526842F002025A60F8
:100DE00000BF034A526802F00C02082AF9D170478A
:100DF00000100240002002400178064A117041783C
:100E0000517081789170C178D170017911714179F7
:100E100051717047E0000020094801680068401CDB
:100E2000074A1060B1F57A7F09D9002011460860A1
:100E30000448006880F400700349C1F80C0470474E
:100E40001C0000200C1401400010014010B5134894
:100E5000006840F0010011490860084640681049E8
:100E600008400E494860084600680E4908400B4992
:100E700008600846006820F4802008600846406842
:100E800020F4FE0048604FF41F008860FFF74BFF1E
:100E90004FF000600449086010BD000000100240DF
:100EA0000000FFF8FFFFF6FE08ED00E010B5FFF7C9
:100EB000CDFFFFF7B3FC00F071F806A000F058F981
:100EC00005A000F055F908A000F052F9FFF76CFEFC
:100ED00010BD00000D0A00004C574950204E4F5FD6
:100EE000535953202020000043616E2070696E67C3
:100EF0000D0A000073B5054601A8FFF7A3F90446E3
:100F0000606900F26C7060612C2221462846FFF770
:100F10002BF97CBD00B58FB004A800F021F8DDE905
:100F20000431069ACDE901130092DDE90730421C35
:100F300002A0099900F01CF90FB000BD54696D655D
:100F40003A2025642D25642D25642020202530326B
:100F5000643A253032643A25303264200D0A0000AC
:100F600030B58BB00446FFF7D9FD054629466846E3
:100F7000FFF7C0FF2C2269462046FFF7F5F80BB0BB
:100F800030BD21B1828942F40052828104E082891D
:100F90004DF6FF731A4082817047000000B585B09E
:100FA000012144F20400FFF72FFD4FF40070ADF86B
:100FB000100018208DF8130004A91948FFF744FC0D
:100FC0004FF48060ADF8100004208DF8130004A9E0
:100FD0001348FFF739FC4FF4E13000900020ADF8E2
:100FE0000400ADF80600ADF80800ADF80C000C20C8
:100FF000ADF80A0069460B4800F048F8012240F2BB
:101000002551084800F01DF8012240F227710548DB
:1010100000F017F801210348FFF7B3FF05B000BD4A
:10102000000801400038014002460020B1F5007F71
:1010300000D100BF13880B4201D0012000E0002046
:101040007047F0B503460024002600250020A1F5D6
:1010500010676A3F00D100BF1846C1F3421401F087
:101060001F06012707FA06F5012C01D10C3004E018
:10107000022C01D1103000E014301AB107682F4360
:10108000076002E00768AF430760F0BD2DE9F04755
:1010900086B005460E460024A24600BFA1460027A2
:1010A000B08900B100BF2F462C8A4CF6FF70044077
:1010B000F08804432C82AC894EF6F3100440B088CB
:1010C00031890843718908430443AC81AC8A4FF6E7
:1010D000FF400440B0890443AC8201A8FFF7A4FCA0
:1010E0001F48874202D1DDF810A001E0DDF80CA016
:1010F000A88910F4004F08D00AEBCA0000EB0A10D0
:1011000031684900B0FBF1F807E00AEBCA0000EBD8
:101110000A1031688900B0FBF1F86420B8FBF0F0E8
:1011200004012009642101FB1089A88910F4004FF3
:1011300008D0322000EBC900B0FBF1F000F007004E
:10114000044308E0322000EB09106421B0FBF1F009
:1011500000F00F0004432C8106B0BDE8F0870000CA
:1011600000380140C1F308028280704700BFFEE7EB
:101170000FB4054B10B503A9044A029800F0C2F859
:1011800010BC5DF814FB0000ED2C0008F0000020FE
:1011900002E008C8121F08C1002AFAD17047704740
:1011A000002001E001C1121F002AFBD1704700009E
:1011B0002DE9FF5FDDE90210020DDDF838B00143D3
:1011C0000FD10F9801244AA3012807D000980F9A45
:1011D000C0E90031C0E90242BDE8FF9F6FEA0B01A0
:1011E000F4E7A2F2FF3244F61050424315140F9870
:1011F00001280FD0A5EB0B00401C4FF000043D4E22
:10120000DFF8F490B0F1000AA046C0F1000717DB48
:10121000074615E0CBF10000EFE7F80707D02246BC
:10122000334640464946FFF7F8F88046894622464D
:10123000334620463146FFF7F0F804460E467F104D
:10124000002FEAD1DDE90201BAF1000F42464B4618
:1012500002DAFFF7E2F801E0FFF750F904460E4624
:101260000022264BFFF7D2F903D84FF0FF3001469A
:1012700007E00022224B20463146FFF729F8FFF70E
:10128000ACF9102409E0002C0ADB0A220023FEF747
:10129000A6FF019B30321A55641E50EA0102F2D1BA
:1012A000641C019AC4F1110314440F9A012A07D057
:1012B0000122084301D15B450DDD00226D1C0DE0CC
:1012C000084303D1A3EB0B056D1E09E000204FF08E
:1012D000110B0F908BE701DA00226D1E002A86D0D9
:1012E00000980F99C0E90231C0E9004574E7000099
:1012F00030000000000024400000F03F0000F043F8
:101300000000E03F2DE9FF4F95B006469A460F4694
:101310000025F2E1252878D10024761CFB4AA0465E
:10132000012106943378203B01FA03F0104202D0E9
:101330000443761CF6E730782A2811D06FF02F028C
:101340003078A0F13001092915D8069944F002043B
:1013500001EB810102EB41010844761C0690EFE7A6
:1013600001CF0690002803DA404244F4005406906E
:1013700044F00204761C30782E2817D116F8010F9D
:1013800044F004042A280ED06FF02F023078A0F128
:10139000300109290AD808EB880102EB410100EB72
:1013A0000108761CF2E757F8048B761C30786C281D
:1013B0000FD006DC4C2817D068280DD06A2814D12D
:1013C00004E0742810D07A280FD10DE044F4001402
:1013D0000AE044F4801401E044F44014717881423E
:1013E00002D1761C04F58014761C30788646662877
:1013F0000AD012DC582872D008DC80B3452803D00C
:10140000462801D047281AD196E118E0632832D047
:10141000642875D0652812D18EE170286ED008DC62
:1014200067286CD069286BD06E280DD06F2806D144
:10143000A9E0732828D075286FD078286ED052463E
:10144000179990476D1C56E1C4F30250022807D04B
:1014500003280BD0042801CF0BD005604BE150E1ED
:1014600001CF4FEAE571C0E9005144E101CF0580A9
:1014700041E105703FE101CF8DF8000000208DF8BB
:101480000100EB46012003E057F804BB4FF0FF30AA
:1014900061074FF0000102D40DE009F10101894616
:1014A00041450FDA8145F8DB1BF809100029F4D11A
:1014B00008E009F1010189468142FADB1BF80910B5
:1014C0000029F6D106985346A0EB09008046214634
:1014D000179A00F094FA284400EB090505E047E06C
:1014E0001BF8010B524617999047B9F10109F7D241
:1014F000534621464046179AFAE001E03AE01BE1E4
:101500000A21C4F302524FF0000B0091022A06D0C8
:1015100001CFC117032A08D009E022E023E0FF1D14
:1015200027F00707F7E8020105E000B2C117042A17
:1015300001D140B2C117002906DA0A460021404213
:1015400061EB02012D2202E0220504D52B228DF849
:101550000420012203E0E20701D02022F7E79146B0
:1015600053E00A2110E010204FF0000B00900EE035
:10157000102109E010204FF0000B44F004044FF05C
:101580000808009003E008214FF0000B0091C4F31D
:101590000252022A04D001CF0021032A06D007E01C
:1015A000FF1D27F00707F7E8020105E080B20021E0
:1015B000042A01D1C0B200214FF00009220724D52E
:1015C000BEF1700F2AD0009B83F0100353EA0B0387
:1015D00009D150EA010206D030228DF804208DF89E
:1015E00005E002229146009B83F0080353EA0B03B7
:1015F0000BD150EA010201D1620706D530228DF8E5
:1016000004204FF00109A8F1010841A2BEF1580FD2
:1016100000D044A203920FAA02920FE040228DF85C
:1016200004200122DEE75B46009AFEF7D8FD039B0B
:101630009B5C029AA2F101020292137050EA01022D
:10164000F1D1029807A9A1EB000000F1200B60077F
:1016500002D524F4803401E04FF001080020414617
:101660005A46D84501DDA1EB020000EB0B010090CA
:1016700006984944A0EB01000690E00306D45346C7
:101680002146179A069800F0BAF90544002008E0B0
:1016900001A8524610F80800179990476D1C08F1F0
:1016A000010080464845F3DBE0030CD55346214654
:1016B000179A069800F0A3F9054404E0302052463A
:1016C000179990476D1C0099481E00900029F5DC81
:1016D00008E00298029952460078491C0291179935
:1016E00090476D1CBBF10001ABF1010BF1DC67E130
:1016F00000F072F9054406F10106307800287FF405
:1017000009AE19B02846BDE8F08F00000928010095
:101710003031323334353637383941424344454627
:1017200000000000303132333435363738396162E9
:101730006364656600000000600701D44FF006088E
:1017400007F1070727F00707A0A1F7E8020C0CF044
:1017500000431A0007D19EA1220504D49DA1E207EF
:1017600001D1AFF2440112912CF0004C7146BEF150
:10177000650F0ED007DC45290BD0462920D0BEF1DD
:10178000470F3DD13DE066291AD0BEF1670F37D132
:1017900037E0002311224146B8F1110F00DA4A1C4C
:1017A000CDE900230246634607A902A8FFF700FD22
:1017B000012000904FF0000B08F10109039868E048
:1017C0004FF000410F910123CDE9008302466346AB
:1017D00007A902A8FFF7ECFCDDE904904FF0000B2D
:1017E00020B9039908F1010001EB0009B8EB0900E9
:1017F00003D4C0F1FF3B08F10109A9EB08000090F8
:1018000048E04146B8F1010F01DA01218846002382
:101810001122B8F1110F00DC0A46CDE9002302467F
:10182000634607A902A8FFF7C3FC4FF0000BC146AF
:1018300020070FD40499414503DA894601E0A9F154
:101840000109B9F1010F05DD0299A9F10100085C58
:101850003028F4D00399414502DA11F1040F03DA7C
:1018600001200F91009015E0002903DC8B44A9EBC7
:10187000010005E0481C484503DD039800F1010024
:1018800081460399A1EB0B0000F1010000904FF09D
:1018900000400F90200705D40098484502DB4FF028
:1018A000FF30009000210F980DF147088DF8471088
:1018B000B0F1004F26D0022001902B2013900F98FA
:1018C00000280CDA40420F902D20139007E00A21E7
:1018D0000F98FEF76EFC30310F9008F8011D01994A
:1018E000481E01900029F2DC0F980028EFD1A8F1E2
:1018F000010213991170317801F0200141F0450186
:1019000008F8021D10A9A1EB080000F107000190E2
:101910001298007800B1012000EB0901009801EB5A
:10192000E071019801440698A0EB0100A0F10100CC
:101930000690E00306D453462146179A069800F015
:101940005EF805441298007820B1524617999047E6
:1019500005F10105E00322D553462146179A069862
:1019600000F04DF805441AE0BBF1000F07DB0499C5
:10197000594504DD029911F80B00179901E01799F8
:1019800030205246904700986D1C401E0BF1010B11
:10199000009004D12E205246179990476D1CB9F142
:1019A0000001A9F10109DFDC05E018F8010B52463E
:1019B000179990476D1C0199481E01900029F4DC8D
:1019C00053462146179A069892E600002D00000023
:1019D0002B000000200000002DE9F0410446002506
:1019E00017461E46880405D406E039462020B04735
:1019F00005F10105641EF8D52846BDE8F0812DE902
:101A0000F04104460025302790461E46C80300D406
:101A10002027880405D506E041463846B04705F141
:101A20000105641EF8D52846BDE8F08170B504466E
:101A3000002500E06D1CB5F57A7FFBD3002500E0A2
:101A40006D1C42F210708542FAD3002500E06D1C37
:101A500042F210708542FAD34D48C06840F0100041
:101A60004B49C860FF220021104600F0D9F9002040
:101A7000484908800021082000F0A6F9002109202B
:101A800000F0A2F900210C2000F09EF900210D20A9
:101A900000F09AF9FE210A2000F096F919210B2096
:101AA00000F092F9FF21042000F08EF919210520A1
:101AB00000F08AF9FF21062000F086F91F21072097
:101AC00000F082F9B021382000F07EF93F21282073
:101AD00000F07AF93021292000F076F9F921302040
:101AE00000F072F9F721312000F06EF90D21C020CD
:101AF00000F06AF90021C12000F066F93322C2210A
:101B0000802000F08DF91221C62000F05DF90C2133
:101B1000C72000F059F91221C42000F055F9DC214A
:101B2000CA2000F051F90521CB2000F04DF92178B1
:101B3000E42000F049F96178E52000F045F9A1784A
:101B4000E22000F041F9E178E32000F03DF921794D
:101B5000E02000F039F96179E12000F035F94FF427
:101B60008071002000F0ADF84FF48071102000F07B
:101B7000A8F81F2000F00EF9C0221B21802000F0E1
:101B80004FF904221F21802000F04AF970BD0000A7
:101B900000100140DE0000202DE9F04105460F460F
:101BA000392000F0A5F810B90020BDE8F0812A48DE
:101BB0000088C1B2002000F007F927480088011210
:101BC000012000F001F900213A2000F0BDF822497F
:101BD000088000213A2000F0B7F81F49098841EA3F
:101BE00000201D49088000213A2000F0ADF804468D
:101BF00000213A2000F0A8F844EA0024201F84B213
:101C000000213A2000F0A0F8064600213A2000F01A
:101C10009BF846EA0026681EA04200DA84B216F05D
:101C2000800F01D1002403E03946204600F06AF815
:101C300009480088C1B20C2000F0C6F806480088A8
:101C400001120D2000F0C0F840221E21802000F07B
:101C5000E7F82046A9E70000DE00002070B5044642
:101C60000D46FF21022000F0AFF81921032000F0FB
:101C7000ABF8FF202044C1B2062000F0A5F841F6E1
:101C8000FF102044C0F30721072000F09DF8002238
:101C900011467A2000F0C4F82946204600F0A0F84A
:101CA00008221F21802000F0BBF81C2000F020F843
:101CB00010F0020F04D008221F21A02000F0B0F87D
:101CC00070BD70B505460C462946D42000F07CF85E
:101CD000E1B2D62000F078F82112D72000F074F895
:101CE00000BFEA2000F004F810F0010FF9D170BD38
:101CF00010B50446204600F04DF82146002000F0C3
:101D000023F810BD70B505460C460E48C06820F09B
:101D100010000C49C8603A20FEF7B0FF04E0002034
:101D2000FEF7ACFF04F8010B2800A5F101018DB20C
:101D3000F5D120700348C06840F010000149C86028
:101D400070BD00000010014070B505460C4600262D
:101D50000F48C06820F010000D49C86004F01F0053
:101D600040EA05063046FEF789FFFF20FEF786FFB2
:101D7000064614F0800F03D0FF20FEF77FFF0646D3
:101D80000348C06840F010000149C860304670BD8B
:101D90000010014010B5044604F0600009490978BC
:101DA00088420ED003221F21A02000F039F8C4F38E
:101DB00041121F21802000F033F804F06000014937
:101DC000087010BDDC00002070B504460D462046AA
:101DD000FFF7E0FF2A462146402000F021F870BDC1
:101DE00070B505460C460D48C06820F010000B4940
:101DF000C8607A20FEF742FF03E014F8010BFEF7FB
:101E00003DFF2800A5F101018DB2F6D10348C0685D
:101E100040F010000149C86070BD00000010014092
:101E20002DE9F04104460D46164600270C48C068CF
:101E300020F010000A49C86005F01F0040EA0407BE
:101E40003846FEF71BFF37463846FEF717FF0448B3
:101E5000C06840F010000249C860BDE8F081000091
:101E60000010014010B5044604F007017520FFF78B
:101E7000ABFF10BD2DE9FC4706468A46174600BF5A
:101E800056B900BF6CA340F27D2277A17AA0FFF77C
:101E90006FF900BFBDE8FC8700BF78892A2810DAF7
:101EA00000BF00BF7E48408C401C81B27C4841840A
:101EB000C08B401C81B27A48C183384604F014F8C4
:101EC000E8E7D7F8048008F10E04012000F0A1FF34
:101ED0002188884215D140F2046000F09AFFA18861
:101EE00088420ED14FF4006000F093FF6188884271
:101EF00007D140F6060000F08CFFB8F80C108842BD
:101F000010D000BF00BF6648008D401C81B26448FD
:101F10000185C08B401C81B26148C183384603F003
:101F2000E3FFB7E75E48408B401C81B25C484183C9
:101F3000D4F80E000190A0690090706810B94FF0BD
:101F4000000908E000987168884201D1012000E092
:101F5000002000F0FF09B9F1000F07D0012304F1C0
:101F6000080201A9304608F041FA06E0002304F116
:101F7000080201A9304608F039FAE08800F049FF6C
:101F8000012802D0022848D144E000BF00BFB9F1C7
:101F9000000F38D000BF00BF022000F03AFFE08001
:101FA000D4F80E00A0617068C4F80E0000BF96F867
:101FB0002200062808D000BF1FA340F2D6223949CC
:101FC0002DA0FFF7D5F800BF00BF062514E0681E5E
:101FD000C5B204F10800415D0A3041550A38405D40
:101FE00008F805001AF8051004F1080041551AF820
:101FF000051008F106004155002DE8DC3946304651
:10200000B269904705E0706808B900BF01E000BF01
:1020100000BF0BE000BF00BF08E000BF00BF2048CA
:10202000808D401C81B21E48818500BF00BF3846AC
:1020300003F05AFF00BF2DE72E2E5C555345525C2E
:102040004C5749505C6C7769702D312E342E302EF0
:102050007263315C7372635C6E657469665C65742F
:10206000686172702E6300006E6574696620213DA0
:10207000204E554C4C000000417373657274696FBB
:102080006E2022257322206661696C65642061746C
:10209000206C696E6520256420696E2025730A0016
:1020A000B857002024A600082DE9F04104460F4649
:1020B00000BF54B900BF11A34FF412721BA11FA09F
:1020C000FFF756F800BFBDE8F08100BF7D6805F15D
:1020D0000E06F068A1680840D4E901121140884258
:1020E00000D0F0E700BF00BF0023AA1D06F10C01DD
:1020F000204608F07BF900BFE5E700002E2E5C5576
:102100005345525C4C5749505C6C7769702D312EA9
:10211000342E302E7263315C7372635C6E65746949
:10212000665C6574686172702E6300006E65746928
:102130006620213D204E554C4C00000041737365D4
:102140007274696F6E2022257322206661696C6546
:1021500064206174206C696E6520256420696E209E
:1021600025730A002DE9FC4104460E4615460E2152
:10217000304603F06BFF50B100BF00BF2C484089D0
:10218000401C2B4948816FF00100BDE8FC8100270D
:102190002146284601F023FA08B1264F40E04FF0CF
:1021A000704003F005FA296800EA01084FF060402A
:1021B00003F0FEF980451DD101208DF800000020BC
:1021C0008DF801005E208DF80200286803F0F0F918
:1021D000C0F306408DF80300286803F0E9F9000A0F
:1021E0008DF80400286803F0E3F9C0B28DF805000B
:1021F0006F4615E02868A1680840D4E90112114033
:10220000884207D0E06810B104F10C0502E06FF0DD
:102210000300BAE732462946204600F00DF8B4E73D
:102220003B4604F123023146204600F041FAACE778
:10223000B857002018A600082DE9F84F81460F4630
:10224000164609F1230A4FF0FF3000904946384600
:1022500001F0C5F978B94FF0704003F0A9F9396879
:1022600000EA01054FF0604003F0A2F9854202D078
:102270000FB1386828B900BF00BF6FF00900BDE892
:10228000F88F0121384600F0C9FB0446002C0CDA17
:1022900000BF00BF3EB100BF00BF6848808C401C3B
:1022A00081B2664881842046E9E704EB84006449F2
:1022B00001EB8000807B30B9012004EB8401604A8F
:1022C00002EB8101887300BF04EB84005C4901EBE1
:1022D0008000807B01280FD004EB840001EB80009C
:1022E000807B022808D000BF56A340F2A13261A132
:1022F0006AA0FEF73DFF00BF00BF04EB8400504919
:1023000001EB8000807B012800D02EB93946484679
:1023100000F0B6F9009000BFBEB304EB840048495A
:1023200001EB8000807B02280CD104EB840001EBE0
:10233000800000F1080352463146484600F0B8F9E3
:10234000009078E004EB84003D4901EB8000807B45
:10235000012870D14FF0000B354618E000BF6889A6
:10236000298988420AD1286840B100BF35A340F2CC
:10237000C23254A149A0FEF7FBFE00BF00BF287B7C
:10238000012803D04FF0010B03E054E02D68002D2D
:10239000E4D100BFBBF1000F10D029890022032037
:1023A00003F012F905466DB13146284603F0DEFB15
:1023B00040B1284603F098FD002503E03546284645
:1023C00003F0D4FF75B3062002F088FD8046B8F113
:1023D000000F21D00020C8F80000C8F8045004EB1A
:1023E0008400174951F8200060B104EB8401144ABD
:1023F00052F8210000E0006801680029FBD1C0F814
:10240000008004E004EB84000D4941F8208000BF07
:1024100000BF0020009004E0284603F065FD00BFE7
:1024200000BF07E00548808C401C81B203488184CE
:1024300000BF00BF00BF009821E70000B857002090
:10244000B85E00202E2E5C555345525C4C574950C7
:102450005C6C7769702D312E342E302E7263315CB6
:102460007372635C6E657469665C657468617270D2
:102470002E6300006172705F7461626C655B695D00
:102480002E7374617465203D3D2050454E44494E85
:1024900047206F7220535441424C4500417373658D
:1024A0007274696F6E2022257322206661696C65E3
:1024B00064206174206C696E6520256420696E203B
:1024C00025730A006E6F207061636B6574207175EF
:1024D0006575657320616C6C6F7765642100000021
:1024E0002DE9FF4F81B08046894692469B460020E9
:1024F000009000222A21032003F066F8064666B900
:1025000000BF00BF3948808C401C81B237488184AD
:102510004FF0FF3005B0BDE8F08F00BF70892A286A
:1025200008DA00BF32A340F22F423DA149A0FEF7D6
:102530001FFE00BF00BF776807F10E0500BF00BF98
:10254000119800F066FCE88000BF98F82200062889
:1025500008D000BF26A340F2374248493DA0FEF70D
:1025600007FE00BF00BF062412E0601EC4B21BF8C5
:10257000041005F1080001550F98015D05F11200E6
:1025800001551AF80400385519F80410B81D015502
:10259000002CEADC0E980068C5F80E001098006860
:1025A000A861012000F035FC28804FF4006000F0A5
:1025B00030FC688040F2046000F02BFCA88040F6FC
:1025C000060000F026FCB88131464046D8F81820B5
:1025D000904700900548008B401C04490883304612
:1025E00003F082FC0026009894E70000B857002012
:1025F0002E2E5C555345525C4C5749505C6C7769A4
:10260000702D312E342E302E7263315C7372635C08
:102610006E657469665C6574686172702E63000033
:10262000636865636B207468617420666972737493
:1026300020706275662063616E20686F6C64207321
:102640007472756374206574686172705F68647217
:1026500000000000417373657274696F6E2022255B
:102660007322206661696C6564206174206C696EF8
:102670006520256420696E2025730A0024A60008C1
:102680007FB504460D4600BF00BF01230649201D4B
:102690008DE82300039304F12303044A19462046DE
:1026A000FFF71EFF04B070BD1EA6000818A60008A4
:1026B0002DE9F04705460F46904699467E6800BFD3
:1026C00095F82200062808D000BF11A340F2B112ED
:1026D0001B491CA0FEF74CFD00BF00BF062408E00C
:1026E000601EC4B219F80400305518F80410B01D6B
:1026F0000155002CF4DC4FF4006000F08AFBB0813F
:1027000000BF00BF39462846AA699047BDE8F08758
:102710002E2E5C555345525C4C5749505C6C776982
:10272000702D312E342E302E7263315C7372635CE7
:102730006E657469665C6574686172702E63000012
:1027400024A60008417373657274696F6E20222598
:102750007322206661696C6564206174206C696E07
:102760006520256420696E2025730A0010B500BF1E
:1027700000BF00244AE004EB8400264901EB8000FE
:10278000C07B401C04EB8401224A02EB8101C87328
:1027900004EB8400114601EB8000807B022806D107
:1027A00004EB840001EB8000C07BF0280EDA04EB20
:1027B0008400184901EB8000807B012824D104EBC0
:1027C000840001EB8000C07B02281DDB00BF00BF3E
:1027D00004EB84000F4951F8200070B100BF00BF26
:1027E00004EB84010B4A52F8210000F091FA00201A
:1027F00004EB8401074A42F82100002004EB840125
:10280000044A02EB81018873601CC4B20A2CB2DB5B
:1028100010BD0000B85E00202DE9F04104460D46D1
:10282000676800BF00BFB88900F0F3FA0646B6F546
:10283000006F04D0A6F50060063826D11EE02146C0
:102840002846FFF731FC6FF00D01204603F0FEFB38
:1028500078B100BF00BF17A340F2A34221A12AA074
:10286000FEF786FC00BF00BF204603F03DFB0024BE
:1028700003E02946204600F089FF16E0224605F1D4
:1028800023012846FFF7F6FA0FE02948008D401C87
:1028900081B227480185C08B401C81B22448C18386
:1028A000204603F021FB002400BF00BF0020BDE84C
:1028B000F08100002E2E5C555345525C4C57495018
:1028C0005C6C7769702D312E342E302E7263315C42
:1028D0007372635C6E657469665C6574686172705E
:1028E0002E63000043616E2774206D6F7665206F44
:1028F0007665722068656164657220696E2070611A
:10290000636B657400000000417373657274696FD6
:102910006E2022257322206661696C6564206174D3
:10292000206C696E6520256420696E2025730A007D
:10293000B857002070B50446042001F0A5FF0546F5
:102940004DB900BF00BF0DA0FEF712FC00BF00BFD5
:102950004FF0FF3070BDE561532084F82A00542108
:102960002B2001550E4860610E48A06104F1230040
:102970002860204601F096FD0020EBE7657468654D
:10298000726E657469665F696E69743A206F7574FA
:10299000206F66206D656D6F72790A0D0000000072
:1029A000092A00087D45000870B504460025002668
:1029B000204601F0A9FD06460EB9681E70BD2146ED
:1029C000304622699047054655B100BF00BF05A0BB
:1029D000FEF7CEFB00BF00BF304603F085FA0026AD
:1029E0002846EBE765746865726E657469665F69B1
:1029F0006E7075743A20495020696E707574206548
:102A000072726F720A00000070B504460D461646D9
:102A1000324629462046FFF7A5FB70BD2DE9FC5F35
:102A200005460F464FF00A08C1460A260024A34671
:102A300000200190B2460090FDB18848007800EB7C
:102A40008000874901EB8000807B022815D128682F
:102A50008249097801EB8101814A02EB81014968D1
:102A600088420AD17F48C08D401C81B27D48C18513
:102A70007A48007840B2BDE8FC9F002479E00A2E35
:102A80000AD104EB8400764901EB8000807B18B901
:102A900000BF00BF66B26AE004EB8400704901EB3E
:102AA0008000807B012838D175B1286804EB84014F
:102AB0006B4A02EB81014968884205D100BF00BF23
:102AC0006648047060B2D6E704EB8400644951F8AC
:102AD000200088B104EB840001EB8000C17B0098EA
:102AE000814244DB4FFA84FA04EB84005C4901EB39
:102AF0008000C07B00903AE004EB8400584901EB71
:102B00008000C07B584532DB4FFA84F804EB840028
:102B100001EB800090F80FB029E004EB84005049ED
:102B200001EB8000807B022821D175B1286804EB7D
:102B300084014B4A02EB81014968884205D100BFFC
:102B400000BF4648047060B295E704EB8400444936
:102B500001EB8000C17B0198814208DB4FFA84F9C8
:102B600004EB84003E4901EB8000C07B0190601CB7
:102B7000C4B20A2C83DB0A2E02D117F0010F02D057
:102B800017F0020F04D000BF00BF4FF0FF3072E714
:102B90000A2E02DAF4B200BF36E0B9F10A0F14DAF5
:102BA00009F0FF0400BF00BF00BF04EB84002C4904
:102BB00051F8200040B100BF2BA34FF4BA7236A1E8
:102BC0003BA0FEF7D5FA00BF1EE0B8F10A0F03DA0A
:102BD00008F0FF0400BF17E0BAF10A0F11DA0AF09B
:102BE000FF0400BF00BF04EB84011D4A52F821001E
:102BF00000F08EF8002004EB8401194A42F821000D
:102C000002E04FF0FF3036E700BF0A2C08DB00BFC0
:102C100015A34FF4C57230A125A0FEF7A9FA00BF95
:102C200000BF002004EB84010D4A02EB8101887390
:102C300045B105B900E0286804EB8401084A02EBBD
:102C400081014860002004EB8401054A02EB810108
:102C5000C8730248047060B20DE70000DA0000207B
:102C6000B85E0020B85700202E2E5C555345525CAC
:102C70004C5749505C6C7769702D312E342E302EB4
:102C80007263315C7372635C6E657469665C6574F3
:102C9000686172702E6300006172705F7461626CB3
:102CA000655B695D2E71203D3D204E554C4C00000A
:102CB000417373657274696F6E20222573222066DA
:102CC00061696C6564206174206C696E652025649F
:102CD00020696E2025730A0069203C204152505F14
:102CE0005441424C455F53495A45000070B5044673
:102CF0000D46E1B20548FEF735FA00BF4021034812
:102D0000FEF792F90028F9D0204670BD0038014046
:102D100070B5044600BF3CB900BF16A3922221A1A2
:102D200023A0FEF725FA00BF00BF00BF606838B9D6
:102D300000BF10A3932228A11DA0FEF719FA00BF1F
:102D400000BF14E02546246800BF686838B900BF9A
:102D500008A3972224A116A0FEF70AFA00BF00BF1D
:102D6000686803F0C1F82946062001F0FFFF002C37
:102D7000E8D170BD2E2E5C555345525C4C574950DE
:102D80005C6C7769702D312E342E302E7263315C7D
:102D90007372635C6E657469665C65746861727099
:102DA0002E6300007120213D204E554C4C00000048
:102DB000417373657274696F6E20222573222066D9
:102DC00061696C6564206174206C696E652025649E
:102DD00020696E2025730A00712D3E7020213D2050
:102DE0004E554C4C00000000722D3E7020213D20BD
:102DF0004E554C4C000000000146080601F47F428D
:102E000040EA022001F47F0240EA122040EA116009
:102E100070470146C8B20A0A42EA00207047000023
:102E200070B506460C4615460121204606F017FDF2
:102E30000349204606F0DEFA0025284670BD000052
:102E4000752E000810B504F09DFF044641F28D3246
:102E50000649204603F072FCFF21204604F0E4FE00
:102E600004460349204603F0E7FB10BD0DA6000809
:102E7000212E00082DE9F05F83460E4615461F46B9
:102E80006C684FF000094FF0010AC846CDB32078B6
:102E900050280CD160784F2809D1A078532806D14A
:102EA000E078542803D1214625A0FEF761F9207867
:102EB00047283BD16078452838D1A078542835D1AF
:102EC00021461FA0FEF754F920792F2804D16079FC
:102ED000312801D14FF00108B8F1000F12D01A4883
:102EE0000068401C184908600846016817A0FEF7F2
:102EF0003FF9002340F242521849304607F00CF8DF
:102F000014E016E000232D221549304607F004F89E
:102F1000002340F2C3421349304606F0FDFF002370
:102F200040F242520D49304606F0F6FF284602F0C4
:102F3000DBFF304603F0C6FC00273846BDE8F09FB3
:102F400025730D0A00000000E80000205478436F4C
:102F5000756E74203D25640D0A00000068A6000807
:102F60007FAC0008ACAC000870B505460C462246A4
:102F70000321284600F004FA70BD00002DE9F04F4F
:102F800085B005468946AB48B0F86200401C81B266
:102F9000A848A0F862106C68208802F00FFBC0F30C
:102FA00003204FEA8008C8F10001284603F04EF8DC
:102FB00010B92889042802D200BF00BF21E1686847
:102FC00090F800A0686840780490BAF1080F7ED1AC
:102FD00001274FF0704002F0EBFA216900EA010B83
:102FE0004FF0604002F0E4FA834500D100274946E3
:102FF00004F1100000F0F3FA00B100277FB900BF20
:1030000000BF8C48B0F87400401C81B28948A0F819
:103010007410284602F068FF05B0BDE8F08F00BFCD
:1030200000BF2889082802D200BF00BFE9E0284677
:1030300000F055FA68B100BF00BF284602F054FF07
:103040007C48B0F86800401C81B27A48A0F868104B
:10305000E2E72221284602F0F9FFC8B3414628469C
:1030600002F0F4FF50B100BF00BF73A396227FA10E
:103070008BA0FEF77DF800BF00BFCEE029890022BB
:10308000022002F0A1FA074617B900BF00BFC4E052
:1030900000BF798908F10800814207D200BF66A30A
:1030A0009F2289A17EA0FEF763F800BF00BF2946DA
:1030B000384602F05BFD60B100BF00BF5EA3A322F3
:1030C0008FA177A0FEF754F800BF00BFA5E081E014
:1030D00017E07C68C8F1000001B2384602F0B6FF84
:1030E00050B100BF00BF54A3A9228FA16CA0FEF76E
:1030F0003FF800BF00BF90E0284602F0F5FE3D46D5
:1031000010E06FF02101284602F0A0FF50B100BF8F
:1031100000BF49A3B32284A161A0FEF729F800BF34
:1031200000BF7AE06E68E06803902069E060039871
:103130002061002030704FF2FF70FFF76AFE718847
:10314000884208DC4FF40060FFF763FE401C718882
:103150000844708006E04FF40060FFF75AFE718863
:1031600008447080208902F029FAC0B240F47F47F9
:103170003846FFF74EFE2081002060811421204652
:1031800000F0A3F960812B48B0F86000401C294989
:10319000A1F860004146284602F058FF48B100BF40
:1031A00000BF25A3D5226DA13DA0FDF7E1FF00BF23
:1031B0000FE001220021FF238DE806020A4604F1F8
:1031C0000C01284600F04EFC07460FB100BF00BFBF
:1031D00000BF11E000BF00BF1648B0F87000401CEF
:1031E00081B21448A0F87010B0F86600401C81B29B
:1031F0001048A0F8661000BF00BF284602F074FE19
:103200000AE7284602F070FE0A48B0F86A00401C3F
:1032100081B20848A0F86A10FEE6284602F064FE73
:103220000448B0F87400401C81B20248A0F8741041
:1032300000BFF1E6B85700202E2E5C555345525C76
:103240004C5749505C6C7769702D312E342E302EDE
:103250007263315C7372635C636F72655C69707614
:10326000345C69636D702E630000000069636D70EB
:103270005F696E7075743A206D6F76696E67207045
:103280002D3E7061796C6F616420746F20697020CD
:10329000686561646572206661696C65640A000036
:1032A000417373657274696F6E20222573222066E4
:1032B00061696C6564206174206C696E65202564A9
:1032C00020696E2025730A00636865636B2074684B
:1032D0006174206669727374207062756620636120
:1032E0006E20686F6C6420737472756374207468E8
:1032F000652049434D502068656164657200000097
:1033000069636D705F696E7075743A20636F707970
:10331000696E6720746F206E657720706275662015
:103320006661696C65640A0069636D705F696E70DF
:1033300075743A20726573746F72696E67206F726C
:103340006967696E616C20702D3E7061796C6F6188
:1033500064206661696C65640A00000043616E2741
:1033600074206D6F7665206F766572206865616484
:10337000657220696E207061636B657400000000E7
:103380002DE9FC4706460F469046002224210120E5
:1033900002F01AF905461DB900BF00BFBDE8FC8761
:1033A00000BF6889242808D200BF20A340F22B1256
:1033B0002BA136A0FDF7DCFE00BF00BFD6F80490BD
:1033C00000BF00BF00BF00BF00BF00BF00BF00BF05
:1033D00000BF00BF6C68277084F801800020A080C7
:1033E000E08071686A6802F108001C22FCF7BCFEEC
:1033F000002060806989204600F067F860802D48D1
:10340000B0F86000401C2B49A1F8600001230022A5
:10341000CDE90023FF2309F10C020021284600F02A
:10342000F9FA284602F060FD00BFB7E72E2E5C5582
:103430005345525C4C5749505C6C7769702D312E66
:10344000342E302E7263315C7372635C636F72650D
:103450005C697076345C69636D702E6300000000F7
:10346000636865636B207468617420666972737445
:1034700020706275662063616E20686F6C642069DD
:10348000636D70206D65737361676500417373656B
:103490007274696F6E2022257322206661696C65E3
:1034A00064206174206C696E6520256420696E203B
:1034B00025730A00B857002070B505460C46224611
:1034C0000B212846FFF75CFF70BD70B504460D4622
:1034D0002946204601F077F8C04380B270BD2DE93F
:1034E000F041064600240027354617E069896868E0
:1034F00001F069F80444A0B200EB1444688900EBC1
:10350000D0714910B0EB410107D0C7F10100C7B23B
:10351000E0B2C4F3072141EA00242D68002DE5D173
:1035200027B1E0B2C4F3072141EA0024E04380B2AE
:10353000BDE8F0812DE9F05F80460E4617469946BA
:10354000DDF828B00024A24645461AE000BF00BFBF
:103550006989686801F037F80444A0B200EB1444AC
:10356000688900EBD0714910B0EB410108D0CAF175
:10357000010000F0FF0AE0B2C4F3072141EA002491
:103580002D68002DE2D1BAF1000F04D0E0B2C4F3EF
:10359000072141EA0024306880B2044430684FF6C5
:1035A000FF7101EA10400444386880B2044438686E
:1035B00001EA104004444846FFF72BFC04445846F7
:1035C000FFF727FC0444A0B200EB1444A0B200EBC8
:1035D000144400BF00BFE04380B2BDE8F09F30B5A7
:1035E00003461A68D04300D00AB9012030BD91F8D3
:1035F000290010F0020F01D10020F7E7486890423F
:1036000001D10020F2E718688C682040D1E901451B
:103610002C40A04208D1886822EA00008D68EC4363
:10362000A04201D10120E1E70020DFE72DE9F74FBB
:1036300086B08846B8F82000049014200190022239
:103640000021104601F0C0FF054635B900BF00BF9C
:103650004FF0FF3009B0BDE8F08F049868812881F1
:10366000484820F0030068606C680698142241689E
:103670002046FCF779FDE08801F0A0FF0746C7F37C
:103680000C0B07F40050039006980089143886B29A
:103690000499A1F11400C11700EB5171C1F3CF01DE
:1036A000059168E004981438B04201DB012000E085
:1036B000002080B20290CBF30C00039940EA01078E
:1036C000029808B947F40057029808B1304601E063
:1036D0000598C0001FFA80FA524604F11401019BBC
:1036E000069802F059FB0199084480B201903846CF
:1036F000FFF78FFBE0800AF1140080B2FFF789FB2F
:1037000060800020608114212046FFF7DEFE60818A
:10371000029828B106F1140081B2284602F042FD59
:1037200000221146022001F04FFF8146B9F1000F3F
:1037300012D02946484602F003FAD8F81430494618
:103740004046089A98471048008E401C0E4908864B
:10375000484602F0C9FB07E000BF00BF284602F060
:10376000C3FB4FF0FF3075E7A6EB0A0086B2059861
:1037700058441FFA80FB002E94D1284602F0B4FB77
:10378000002067E7DB580020B85700202DE9F047FC
:10379000064688469B48B0F84A00401C81B29948CA
:1037A000A0F84A107468208801F008FF0421B1EBEA
:1037B000203F16D000BF00BF304602F095FB914875
:1037C000B0F85C00401C81B28E48A0F85C10B0F8E4
:1037D0004E00401C81B28B48A0F84E100020BDE87E
:1037E000F087208801F0EAFEC0F303294FEA890937
:1037F000608801F0E3FE07467089484502DB3089A6
:10380000B8421DDA7089484501DA00BF00BF30892F
:10381000B84201DA00BF00BF304602F065FB7948CC
:10382000B0F85200401C81B27648A0F85210B0F8AF
:103830004E00401C81B27348A0F84E100020CEE725
:1038400049462046FFF741FEA8B100BF00BF304601
:1038500002F04AFB6B48B0F85000401C81B2694846
:10386000A0F85010B0F84E00401C81B26548A0F896
:103870004E100020B3E73946304602F093FC4FF07B
:10388000010A454600BF00BF00BF284601F0E2FC28
:1038900080B1281D0ED0686860B1206969688842CF
:1038A00005D0294604F11000FFF799FE10B100BFC2
:1038B00000BF0DE0BAF1000F04D04FF0000A5248EB
:1038C000056800E02D68454500D12D68002DDAD14E
:1038D00000BF414604F10C00FFF781FE60B94FF0D4
:1038E000704001F065FEE16800EA010A4FF06040B7
:1038F00001F05EFE82450ED100BF00BF304602F0EF
:10390000F3FA4048B0F84E00401C81B23D48A0F8A0
:103910004E10002063E735B900BF00BF304602F00B
:10392000E3FA00205BE743F6FF70FFF772FAE188E5
:10393000084209D000BF00BF304600F07DF90646BE
:103940000EB900204BE7746800BF00BF00BF00BF86
:103950002E48C0F800802E4804604146304602F0F0
:10396000E7FDF0BB208901F029FEC0B201280DD08F
:10397000062806D011280ED14146304606F0B4FB89
:1039800038E04146304603F015FC33E0414630460E
:10399000FFF7F4FA2EE0414604F11000FFF71FFE96
:1039A00088B94FF0704001F003FE216900EA010A76
:1039B0004FF0604001F0FCFD824504D074600221AC
:1039C0003046FFF7D1FA304602F08EFA00BF00BF52
:1039D0000C48B0F85800401C81B20A48A0F85810B2
:1039E00000E008E0B0F84E00401C81B20548A0F8A5
:1039F0004E1000BF00BF0020044908600449086061
:103A000000BFECE6B857002048000020CC000020A2
:103A1000D00000202DE9FE4F05460E4614461F46F5
:103A2000DDE90C89204600F009FD5FEA000A0DD1AE
:103A300000BF00BF0A48B0F85600401C81B20848D9
:103A4000A0F856106FF00300BDE8FE8F3B462246FB
:103A5000314628468DE8000700F004F8F4E700003E
:103A6000B85700202DE9FF5F05460F4690469A465D
:103A7000109EB8F1000F77D04FF01409142128469A
:103A800002F0E4FA70B100BF00BF4748B0F85C0034
:103A9000401C81B24448A0F85C106FF0010004B0F3
:103AA000BDE8F09F6C6800BF6889142808D200BF89
:103AB0003EA340F2292249A154A0FDF759FB00BFC3
:103AC00000BF208901F07AFD6AF31F208346FFF7CB
:103AD000A0F92081208901F071FD01120F9840EAC0
:103AE000012B5846FFF795F92081B8F1000F01D15D
:103AF000002001E0D8F800002061CB464FEAE971D0
:103B000009EB917189104FF4804242EA01210E9A2B
:103B1000114388B2FFF77DF920802889FFF779F9F2
:103B200060800020E08043480088FFF772F9A080A1
:103B300040480088401C3F4908800FB1386828B9C8
:103B4000301D00D100E07068E06004E00FB9002093
:103B500000E03868E0600020608149462046FFF7B9
:103B6000B4FC608103E0FFE76C6804F110080E48C4
:103B7000B0F84800401C0C49A1F8480000BF00BF45
:103B8000308C48B12889318C884205DD4246314667
:103B90002846FFF74BFD82E700BF00BF424629469B
:103BA0003046736998477AE7B85700202E2E5C5547
:103BB0005345525C4C5749505C6C7769702D312EDF
:103BC000342E302E7263315C7372635C636F726586
:103BD0005C697076345C69702E63000063686563AD
:103BE0006B207468617420666972737420706275EA
:103BF000662063616E20686F6C64207374727563F5
:103C0000742069705F68647200000000417373651E
:103C10007274696F6E2022257322206661696C655B
:103C200064206174206C696E6520256420696E20B3
:103C300025730A00C80000202DE9FC5F80460020A3
:103C400000907748408E401C81B275484186D8F874
:103C50000450288801F0B2FCC0F303201421B1EB1A
:103C6000800F0AD000BF00BF6D48B0F84400401C70
:103C700081B26B48A0F84410C4E0E88801F09EFCD3
:103C8000C0044FEA1049688801F098FC83462888F0
:103C900001F094FCC0F30320ABEB800080B20190F4
:103CA000404601F05AFF06465E48018888190A28F6
:103CB00012DD3146284600F083FB20B159480088C8
:103CC00030440A2808DD00BF00BF5548808F401CE3
:103CD00081B25348818795E0534804681CE06069CD
:103CE000E968884209D1A0692969884205D1A0897B
:103CF000A988884201D1012000E0002050B100BF16
:103D000000BF4748B0F84600401C81B24448A0F8C4
:103D1000461003E000942468002CE0D100BF34B9C1
:103D20003146284600F064FA044694B96AE0E8880F
:103D300001F044FCC004C00C0BD1E08901F03EFC52
:103D4000C004C00C05D01422294604F10800FCF779
:103D50000BFA34480088304432490880E88801F082
:103D60002DFC10F4005F08D1A07F40F00100A07787
:103D700001984844A08300BF00BF4146204600F0A0
:103D800055F8D0B3A08B1430A083606840680768F2
:103D900060684568142204F108012846FCF7E4F93C
:103DA000A08BFFF736F868800020E8806881142136
:103DB0002846FFF78AFB6881D4F804800CE0D7F826
:103DC00004A06FF01301384602F040F9394640462E
:103DD00001F012FEDAF80070002FF0D120460099B1
:103DE00000F0AAF9404601F0B8FE0E490988081A09
:103DF0000C4908804046BDE8FC9FFFE700BF00BFBC
:103E00000020F8E700BF00BF0548C08E401C81B20B
:103E10000348C186404602F067F80020EBE7000047
:103E2000B8570020D8000020D40000202DE9FE4F14
:103E300006460F46002501200090D7F804A0BAF8E6
:103E4000020001F0BBFB8346BAF8000001F0B6FBAC
:103E5000C0F30320ABEB800080B20190BAF80600FB
:103E600001F0ACFBC004000C029000BF00BF7C68F6
:103E7000002020600298A080DDE901100844E08065
:103E8000D6F804902EE0D9F80480A088B8F8041081
:103E9000884210DAC4F800905DB1A088E9888842B1
:103EA00004DBE088B8F80410884200DDA9E02F6048
:103EB00000E0776019E0A088B8F80410884200D1CB
:103EC0009FE0A088B8F80610884200DA99E035B182
:103ED000E888B8F80410884201D000200090D8F893
:103EE00000904546B9F1000FCDD100BFB9F1000FE8
:103EF00025D1B5B100BFE888A188884208DD00BFA0
:103F000046A34FF4C67252A159A0FDF731F900BF84
:103F100000BF2F60E888A188884210D00020009060
:103F20000DE000BF706840B100BF3CA34FF4CA72FF
:103F300059A14FA0FDF71CF900BF00BF7760B07F0B
:103F400010F0010F5BD00098F0B370684068808873
:103F500010B1002000904FE02546D4F800900BE00F
:103F6000D9F80440E888A188884202D00020009057
:103F700005E02546D4F80090B9F1000FF0D100BF5C
:103F8000009808B300BF706840B900BF23A340F297
:103F9000B5124FA136A0FDF7EBF800BF00BF00BF80
:103FA00070684068A04208D100BF1CA34FF4DB72C8
:103FB00047A12FA0FDF7DCF800BF00BF00BF2068BD
:103FC00050B100BF15A300E016E04FF4DC7244A12D
:103FD00027A0FDF7CDF800BF00BF00BFE088B18B80
:103FE000884208D000BF0DA34FF4DD7245A120A088
:103FF000FDF7BEF800BF00BF0098BDE8FE8F0020AF
:10400000FBE7384601F0A9FD4A490988081A4949E1
:104010000880384601F068FF0020EEE72E2E5C5540
:104020005345525C4C5749505C6C7769702D312E6A
:10403000342E302E7263315C7372635C636F726511
:104040005C697076345C69705F667261672E6300CC
:10405000636865636B20667261676D656E7473205B
:10406000646F6E2774206F7665726C61700000005B
:10407000417373657274696F6E2022257322206606
:1040800061696C6564206174206C696E65202564CB
:1040900020696E2025730A006E6F20707265766944
:1040A0006F757320667261676D656E742C2074681D
:1040B0006973206D7573742062652074686520666D
:1040C0006972737420667261676D656E7421000099
:1040D00073616E69747920636865636B000000002A
:1040E00076616C69646174655F6461746167726153
:1040F0006D3A6E6578745F70627566213D4E554C01
:104100004C00000076616C69646174655F64617481
:10411000616772616D3A646174616772616D206597
:104120006E64213D646174616772616D206C656EBF
:1041300000000000D800002070B504460D460D4870
:104140000068A04203D10B49206808600DE000BF61
:1041500045B900BF08A34FF4997214A11AA0FDF746
:1041600007F800BF00BF206828602146052000F046
:10417000FDFD70BDD40000202E2E5C555345525CD1
:104180004C5749505C6C7769702D312E342E302E8F
:104190007263315C7372635C636F72655C697076C5
:1041A000345C69705F667261672E630073616E696B
:1041B000747920636865636B206C696E6B6564203D
:1041C0006C69737400000000417373657274696FE9
:1041D0006E2022257322206661696C6564206174FB
:1041E000206C696E6520256420696E2025730A00A5
:1041F00070B505460E46052000F070FE0446A4B9D1
:104200003146284600F0DCF8B04203DB052000F020
:1042100065FE04464CB90E48808F401C81B20C48A4
:10422000818700BF00BF002070BD20212046FBF722
:10423000B4FF0320E0770748006820600548046069
:104240001422294604F10800FBF78EFF2046EBE715
:10425000B8570020D40000202DE9F04704460F464F
:10426000002600BFA74207D100BF2EA3A2223AA179
:104270003CA0FCF77DFF00BF00BF67B100BF3868FE
:10428000A04207D000BF27A3A42240A135A0FCF77D
:104290006FFF00BF00BF6068D0F80480B8F804006A
:1042A000A0B96568D8F800006060142204F1080124
:1042B0006868FBF759FF01212846FFF7FDF82846FB
:1042C00001F04BFC0644284601F00EFE65680CE048
:1042D000D5F80480A946D8F80050484601F03DFCC6
:1042E0000644484601F000FE00BF002DF0D13946DB
:1042F0002046FFF721FF00BF29480088B04207DAB7
:1043000000BF08A3C52227A116A0FCF731FF00BFFC
:1043100000BF23480088801B214908803046BDE843
:10432000F08700002E2E5C555345525C4C57495087
:104330005C6C7769702D312E342E302E7263315CB7
:104340007372635C636F72655C697076345C69700C
:104350005F667261672E63007072657620213D2072
:1043600069707200417373657274696F6E202225E3
:104370007322206661696C6564206174206C696ECB
:104380006520256420696E2025730A0070726576A9
:104390002D3E6E657874203D3D20697072000000EE
:1043A000D800002069705F72656173735F70627519
:1043B00066636F756E74203E3D20636C656E000011
:1043C0002DE9F05F05468946002700BF0026B34669
:1043D000B246194804681DE06069E968884207D15F
:1043E000A0692969884203D1A089A988884201D09F
:1043F000012000E0002048B10AF1010A0EB926466A
:1044000004E0E07FF17F884200DC2646206800B1AE
:10441000A3462468002CDFD12EB159463046FFF761
:104420001BFF804647444F4502DABAF1010FCDDC4D
:104430003846BDE8F09F0000D400002070B5054666
:10444000154804680EE0204600F004FF48B12868D3
:10445000A1680840D4E901121140884201D12046E8
:1044600070BD2468002CEED10C48006820B10B48C8
:10447000006800F0EFFE58B900BF00BF0848B0F870
:104480005600401C81B20648A0F856100020E7E70D
:1044900002480068E4E70000480000204C000020CB
:1044A000B857002010B50446062084F822001548AD
:1044B000007884F8230013484178242001551148DE
:1044C0008178252001550F48C178262001550D48D7
:1044D0000179272001550B4841792820015540F2E8
:1044E000DC502084322084F8290004F12300FDF7F9
:1044F0009DFA40F276411420FDF7E3FB0120FDF721
:10450000B1FC10BDE00000202DE9F04180460025FF
:104510000027002616494FF4BE50FDF73DFB074625
:1045200017B90020BDE8F0811248006880F480705F
:104530001149C1F80C044FF003023946104601F04E
:1045400043F805468DB12C4608E06289084B99195D
:104550006068FBF709FE608906442468002CF4D1EA
:104560002889B04201D00020DCE72846DAE70000C5
:10457000805F00200C140140001001402DE9F04143
:1045800080460E4600250027344608E06289084B25
:1045900058196168FBF7E8FD608905442468002C20
:1045A000F4D10349A8B2FDF759FB3846BDE8F081C4
:1045B0004177002010B500F005F800F02DF900F06B
:1045C0003FFC10BD70472DE9F04180460E460024A7
:1045D000454608E0287807026D1C287807436D1CC3
:1045E0003C44B01E86B2012EF4DC002E02DD287899
:1045F00007023C44A0B200EB1444200C000402D09B
:10460000A0B200EB1444A0B2FEF703FCBDE8F081B9
:10461000FCF74CFCFCF7BCF91A48FEF7C5F9FEF7AD
:1046200011FC1848FEF7C0F92BE017480168006834
:10463000401C154A1060B1F5FA7F05D91148FEF704
:10464000B3F9002010490860104801680068401C58
:104650000E4A10600E48814204D905F027FC002064
:104660000A4908600B4801680068401C094A10604C
:104670000948814204D9FEF779F80020054908600D
:1046800000BFD2E72C830020080000200400002097
:10469000A086010000000020804F120070B5054682
:1046A00015B900BF00BF70BD00BF15F0030F08D0E3
:1046B00000BF2CA34FF4997235A13EA0FCF758FD22
:1046C00000BF00BF00BF45480068854203D344488F
:1046D0000068854208D300BF22A34FF49A7241A11B
:1046E00034A0FCF745FD00BF00BF3C480068854290
:1046F00003D33B48006885420AD300BF00BF3F4850
:10470000B0F8B000401C81B23C48A0F8B010CAE735
:10471000A5F1080400BF207940B900BF11A340F201
:10472000451237A123A0FCF723FD00BF00BF0020E6
:10473000207138480068844201D2364804602088DD
:1047400026490968611A411A2C48B0F8AA00401A93
:1047500081B22A48A0F8AA10204601F00DFE00BF41
:10476000A1E700002E2E5C555345525C4C57495032
:104770005C6C7769702D312E342E302E7263315C73
:104780007372635C636F72655C6D656D2E630000B0
:104790006D656D5F667265653A2073616E697479E7
:1047A00020636865636B20616C69676E6D656E740C
:1047B00000000000417373657274696F6E202225DA
:1047C0007322206661696C6564206174206C696E77
:1047D0006520256420696E2025730A0034000020BE
:1047E000380000206D656D5F667265653A206C6506
:1047F00067616C206D656D6F72790000B85700209D
:104800006D656D5F667265653A206D656D2D3E75EF
:10481000736564003C00002000BF00BF144921F014
:104820000301144A1160114608684FF48051018059
:104830000021418001711146096801F580510E4A3D
:10484000116001211268117109030B4A126811806D
:10485000094A126851800121084A11700549096806
:10486000074A11604FF48051064AA2F8A810704719
:10487000F700002034000020380000204000002015
:104880003C000020B85700202DE9F041054615B93D
:104890000020BDE8F081E81C20F0030085B20C2D5B
:1048A00000DA0C25B5F5805F01DD0020F1E76E48E8
:1048B00000686E490968401A86B2C3E06B48006818
:1048C00084192079F0BB218806F10800081AA84253
:1048D00038D3218806F10800091A05F11400814235
:1048E00034D306F1080028441FFA80F85F480068B6
:1048F00000EB080700203871208838807E80A4F8FB
:104900000080012020713888B0F5805F05D038889C
:10491000564909680844A0F8028000BF5448B0F81E
:10492000AA1005F10800084481B25148A0F8AA1065
:10493000B0F8AC10B0F8AA00814206DA4C48B0F8E2
:10494000AA1000E07BE0A0F8AC101BE00120207171
:1049500000BF208845490968611A411A4448B0F8E7
:10496000AA00084481B24248A0F8AA10B0F8AC10DE
:10497000B0F8AA00814204DA3D48B0F8AA10A0F8C5
:10498000AC1000BF38480068844227D107E03648A1
:10499000006800883549096808443349086032488E
:1049A0000068007928B130480068324909688842B7
:1049B000EDD100BF2C4800682E49096888420CD010
:1049C00029480068007940B100BF2BA34FF4127250
:1049D00034A13BA0FCF7CCFB00BF00BF00BF04F13B
:1049E0000800284423490968884208D900BF22A347
:1049F0004FF413723CA132A0FCF7BAFB00BF00BF1A
:104A000000BF14F0030F08D000BF1BA340F24E22DA
:104A100041A12BA0FCF7ACFB00BF00BF00BF14F00E
:104A2000030F08D000BF14A34FF4147246A124A0B2
:104A3000FCF79EFB00BF00BF04F1080029E70B480C
:104A40000068865BC5F58050B0423FF737AF00BFC6
:104A500000BF0748B0F8AE00401C81B20448A0F87F
:104A6000AE10002015E700003C00002034000020BC
:104A7000B8570020380000202E2E5C555345525C5C
:104A80004C5749505C6C7769702D312E342E302E86
:104A90007263315C7372635C636F72655C6D656DCC
:104AA0002E6300006D656D5F6D616C6C6F633A2005
:104AB000216C667265652D3E7573656400000000AB
:104AC000417373657274696F6E20222573222066AC
:104AD00061696C6564206174206C696E6520256471
:104AE00020696E2025730A006D656D5F6D616C6CC9
:104AF0006F633A20616C6C6F6361746564206D65EF
:104B00006D6F7279206E6F742061626F76652072AE
:104B1000616D5F656E642E006D656D5F6D616C6CBF
:104B20006F633A20616C6C6F6361746564206D65BE
:104B30006D6F72792070726F7065726C7920616C24
:104B400069676E65642E00006D656D5F6D616C6CEC
:104B50006F633A2073616E69747920636865636B73
:104B600020616C69676E6D656E7400002DE9F04719
:104B700080460D46E81C20F0030085B20C2D00DABB
:104B80000C25B5F5805F02DD0020BDE8F08700BF91
:104B90004D480068804503D34C480068804508D3E1
:104BA00000BF4BA34FF4BD7254A15BA0FCF7E0FA29
:104BB00000BF00BF44480068804503D343480068F5
:104BC00080450BD300BF00BF5D48B0F8B000401C6B
:104BD00081B25B48A0F8B0104046D6E7A8F10807BC
:104BE00039480068381A1FFA80FA3888A0EB0A00A2
:104BF00008381FFA80F900BF4D4508DD00BF34A317
:104C00004FF4C6724FA144A0FCF7B2FA00BF00BF38
:104C10004D4501DD0020B8E74D4501D14046B4E7E0
:104C20004748B0F8AA00A9EB0501401A81B24448F0
:104C3000A0F8AA103888244909684418207900BBD4
:104C400020880AF1080129448EB247490968A14227
:104C500004D11D4909683144434A11601A49096861
:104C60008C19002121712080A4F802A03E802188A7
:104C7000B1F5805F04D02188134A126811444E8038
:104C800020E005F1140048451CD80AF1080028442A
:104C900086B20D480068841933480068844201D206
:104CA000314804600020207138882080A4F802A0D8
:104CB0003E802088B0F5805F04D0208802490968D2
:104CC00008444680404660E7340000203800002059
:104CD0002E2E5C555345525C4C5749505C6C77699D
:104CE000702D312E342E302E7263315C7372635C02
:104CF000636F72655C6D656D2E6300006D656D5F41
:104D00007265616C6C6F633A206C6567616C206DD5
:104D1000656D6F7279000000417373657274696F1D
:104D20006E2022257322206661696C65642061749F
:104D3000206C696E6520256420696E2025730A0049
:104D4000B85700206D656D5F7265616C6C6F632094
:104D500063616E206F6E6C7920736872696E6B2070
:104D60006D656D6F727900003C00002070B50446DF
:104D70000D4605B970BD00BF15F0030F08D000BF88
:104D800010A34FF4B4721AA121A0FCF7F1F900BFEF
:104D900000BF2E4604EB8401274800EB4100408809
:104DA000401E81B204EB8402234800EB42004180A4
:104DB000224850F824003060204840F8246000BFAA
:104DC000D8E700002E2E5C555345525C4C57495095
:104DD0005C6C7769702D312E342E302E7263315C0D
:104DE0007372635C636F72655C6D656D702E6300DA
:104DF0006D656D705F667265653A206D656D2070DA
:104E0000726F7065726C7920616C69676E656400A1
:104E1000417373657274696F6E2022257322206658
:104E200061696C6564206174206C696E652025641D
:104E300020696E2025730A006A580020081100209E
:104E400030B500201CE0002400EB80051E4B03EB76
:104E500045035C8000EB80051B4B03EB45039C8006
:104E600000EB8005184B03EB4503DC80174B33F850
:104E7000104000EB8005144B23F81540431C98B2FA
:104E80000928E0DB124B23F00301002019E0002386
:104E9000104C44F8203000220CE00E4B53F8203028
:104EA0000B600C4B43F820100B4B33F810301944B7
:104EB000531C9AB2054B33F810309342EDDC431C7F
:104EC00098B20928E3DB30BD6A58002096A5000897
:104ED0002F1100200811002084A5000870B5044699
:104EE00000BF092C0ADB00BF2FA340F23B1239A1FF
:104EF00040A0FCF73DF900BF002070BD00BF47484F
:104F000050F82450E5B34549286841F8240000BF13
:104F100004EB8401424800EB41004088401C81B210
:104F200004EB84023E4800EB4200418004EB840124
:104F30003B4800EB4100818804EB8402384800EBD9
:104F40004200408881420BDA04EB8401344800EBD4
:104F50004100418804EB8402314800EB420081802B
:104F600000BF00BF15F0030F08D000BF0EA34FF421
:104F7000A6722CA11FA0FCF7FBF800BF00BF10E039
:104F8000FFE700BF00BF04EB8401254800EB4100B0
:104F9000C088401C81B204EB8402214800EB42002F
:104FA000C1802846A9E700002E2E5C555345525C6F
:104FB0004C5749505C6C7769702D312E342E302E51
:104FC0007263315C7372635C636F72655C6D656D97
:104FD000702E63006D656D705F6D616C6C6F633A10
:104FE0002074797065203C204D454D505F4D4158EF
:104FF00000000000417373657274696F6E20222592
:105000007322206661696C6564206174206C696E2E
:105010006520256420696E2025730A000811002090
:105020006A5800206D656D705F6D616C6C6F633ADE
:10503000206D656D702070726F7065726C79206183
:105040006C69676E656400002DE9FF4F81B004460E
:105050000D4616461F4600206060A060E06084F8A0
:1050600029000E98E0616548007884F82C006348B8
:105070000078401C61490870109820613B46324618
:105080002946204600F0ECF820460F99884718B1D1
:10509000002005B0BDE8F08F5948006820605848EE
:1050A000046000BF00BF2B20025D94F82A1055A0B9
:1050B000FCF75EF800BF00BF00BF00BF25B1286845
:1050C00000F076FAC0B200E0002080462DB12868DA
:1050D00000F06EFAC0F3072000E0002081462DB1F9
:1050E000286800F065FAC0F3074000E0002082461F
:1050F00025B1286800F05CFA000E00E0002083462D
:105100004B465246014649A0CDF80080FCF730F8E6
:1051100000BF00BF00BF00BF48A0FCF729F800BFD8
:1051200000BF00BF00BF26B1306800F041FAC0B236
:1051300000E0002080462EB1306800F039FAC0F35C
:10514000072000E0002081462EB1306800F030FAE0
:10515000C0F3074000E00020824626B1306800F02E
:1051600027FA000E00E0002083464B4652460146D7
:105170002EA0CDF80080FBF7FBFF00BF00BF00BFF3
:1051800000BF31A0FBF7F4FF00BF00BF00BF00BFAE
:1051900027B1386800F00CFAC0B200E00020804669
:1051A0002FB1386800F004FAC0F3072000E00020B7
:1051B00081462FB1386800F0FBF9C0F3074000E0EA
:1051C0000020824627B1386800F0F2F9000E00E0B6
:1051D000002083464B465246014614A0CDF800807D
:1051E000FBF7C6FF00BF00BF00BF00BF18A0FBF762
:1051F000BFFF00BF00BF20464BE700004400002077
:10520000480000206E657469663A206164646564D4
:1052100020696E746572666163652025632563206D
:105220004950206164647220000000002534642E1F
:105230002534642E2534642E25346400206E657474
:105240006D61736B20000000206777200000000074
:105250000A000000014691F8290000F001007047A3
:105260002DE9F04106460F4614461D4639463046A4
:1052700000F084F82146304600F038F929463046DF
:1052800000F030F8BDE8F08110B504460A4804602B
:1052900000BF00BF14B12B20005D00E027200246B4
:1052A00014B194F82A0000E02720014603A0FBF780
:1052B0005FFF00BF00BF10BD4C0000206E65746929
:1052C000663A2073657474696E67206465666175FB
:1052D0006C7420696E746572666163652025632550
:1052E000630A00002DE9FE4304460D460DB9002077
:1052F00000E02868E06000BF00BFE06800F058F9F7
:10530000C6B2E06800F054F9C0F30727E06800F087
:105310004FF9C0F30748E06800F04AF94FEA106916
:105320002B20CDE900870296025D94F82A104B46A7
:1053300003A0FBF71DFF00BF00BFBDE8FE83000018
:105340006E657469663A20475720616464726573BC
:1053500073206F6620696E746572666163652025CF
:105360006325632073657420746F202534642E25B3
:1053700034642E2534642E2534640A002DE9FE4F52
:1053800004460F4638686168884201D1012000E078
:10539000002090BB00BF00BF2DA0FBF7E9FE00BFBF
:1053A00000BF3748056814E02868616888420FD15B
:1053B000D5F80C8000BF00BF294632A0FBF7D8FE0D
:1053C00000BF00BF0121284601F0E6F8454600E095
:1053D000ED68002DE8D1354806680CE056B130681C
:1053E00040B130686168884204D10FB9002000E004
:1053F00038683060F668002EF0D10FB9002000E068
:105400003868606000BF00BF606800F0D1F800F04D
:10541000FF08606800F0CCF8C0F30729606800F06E
:10542000C7F8C0F3074A606800F0C2F84FEA106B93
:105430002B20CDE900A9CDF80880025D94F82A1050
:105440005B461BA0FBF794FE00BF00BFBDE8FE8FCC
:105450006E657469665F7365745F697061646472B8
:105460003A206E65746966206164647265737320A6
:105470006265696E67206368616E6765640A000033
:10548000900000206E657469665F7365745F697073
:10549000616464723A2061626F7274696E6720544D
:1054A0004350207063622025700A00008C000020A9
:1054B0006E657469663A2049502061646472657350
:1054C00073206F6620696E7465726661636520255E
:1054D0006325632073657420746F202534642E2542
:1054E00034642E2534642E2534640A002DE9FE43ED
:1054F00004460D460DB9002000E02868A06000BFFA
:1055000000BFA06800F054F8C6B2A06800F050F8E0
:10551000C0F30727A06800F04BF8C0F30748A06865
:1055200000F046F84FEA10692B20CDE9008702967B
:10553000025D94F82A104B4603A0FBF719FE00BF4A
:1055400000BFBDE8FE8300006E657469663A206E98
:1055500065746D61736B206F6620696E7465726629
:1055600061636520256325632073657420746F2053
:105570002534642E2534642E2534642E2534640AA3
:105580000000000010B5044694F8290010F0010F47
:105590000DD114F8290F40F00100207014F82909EA
:1055A00010F0200F03D0211D2046FDF769F810BD33
:1055B00000B503461846FDF71FFC00BD00B50346C5
:1055C0001846FDF726FC00BD2DE9F05F83460F4627
:1055D000914600BF00BF0026BBF1000F09D0BBF110
:1055E000010F0AD0BBF1020F0BD0BBF1030F0DD19D
:1055F0000BE006F1140086B200BF06F1140086B27B
:1056000000BF06F10E0086B20DE00CE000BF00BF47
:1056100094A3CF229EA1A5A0FBF7AAFD00BF00BFC7
:105620000020BDE8F09F00BFB9F1000F70D0B9F1C4
:10563000010F6ED0B9F1020F6CD0B9F1030F6AD12E
:105640000820FFF74BFC044600BF00BF0CB9002048
:10565000E7E784F80C900020206006F11000204459
:10566000C01C20F00300606000BF606810F0030FF2
:1056700007D000BF7BA3E12296A18CA0FBF778FDA9
:1056800000BF00BF2781F01C20F0030040F2DC5176
:10569000081AB84201DD384605E0F01C20F003008E
:1056A00040F2DC51081A608100BF618960680144E2
:1056B00004F2EC50814207D900BF6AA3E72291A10E
:1056C0007AA0FBF755FD00BF00BF00BFF01C20F023
:1056D000030040F2DC51081A002807DC00BF61A378
:1056E000EA2295A171A0FBF743FD00BF00BF012096
:1056F000E081A2466089A7EB00085BE00820FFF785
:10570000EDFB054645B9204600F0EEFB002088E79A
:1057100054E07FE07FE08FE085F80C900020687314
:105720002860CAF8005000BF4FF6FF70804508DBC4
:1057300000BF4CA340F205128CA15CA0FBF718FD42
:1057400000BF00BFA5F808801FFA88F040F2DC51C6
:10575000884202DA1FFA88F001E040F2DC506881EA
:1057600005F11000686000BF686810F0030F08D0F2
:1057700000BF3CA34FF4857281A14CA0FBF7F8FC5D
:1057800000BF00BF00BF61896068014404F2EC50B3
:10579000814208D900BF33A34FF4867259A143A0B8
:1057A000FBF7E6FC00BF00BF0120E8816889A8EB99
:1057B0000008AA46B8F1000FA0DC4AE006F1130188
:1057C00021F00302F91C21F00301114488B2FFF714
:1057D0005BF804460CB9002023E704F110003044C4
:1057E000C01C20F0030060602781678100202060DA
:1057F00084F80C9000BF606810F0030F08D000BF61
:1058000018A340F225126AA128A0FBF7B1FC00BF43
:1058100000BF1EE000BF0720FFF760FB04461CB975
:1058200000BF00BF0020FCE6002060602781678188
:10583000206084F80C900CE000BF00BF09A340F288
:105840003B1266A119A0FBF793FC00BF00BF00202C
:10585000E7E600BF0120E0810020607300BF00BFC9
:105860002046DEE62E2E5C555345525C4C5749507F
:105870005C6C7769702D312E342E302E7263315C62
:105880007372635C636F72655C706275662E630031
:10589000706275665F616C6C6F633A206261642050
:1058A00070627566206C6179657200004173736582
:1058B0007274696F6E2022257322206661696C659F
:1058C00064206174206C696E6520256420696E20F7
:1058D00025730A00706275665F616C6C6F633A20B5
:1058E0007062756620702D3E7061796C6F61642006
:1058F00070726F7065726C7920616C69676E656437
:1059000000000000636865636B20702D3E70617954
:105910006C6F6164202B20702D3E6C656E20646F6F
:105920006573206E6F74206F766572666C6F77207A
:105930007062756600000000504255465F504F4F40
:105940004C5F42554653495A45206D757374206229
:105950006520626967676572207468616E204D45D5
:105960004D5F414C49474E4D454E540072656D5F49
:105970006C656E203C206D61785F7531365F740018
:10598000706275665F616C6C6F633A2070627566F9
:1059900020712D3E7061796C6F61642070726F7040
:1059A00065726C7920616C69676E65640000000047
:1059B000706275665F616C6C6F633A2070627566C9
:1059C0002D3E7061796C6F61642070726F706572CA
:1059D0006C7920616C69676E656400007062756641
:1059E0005F616C6C6F633A206572726F6E656F7584
:1059F000732074797065000070B506460D4600BFCF
:105A000006B14DB900BF1BA34FF4237224A132A0ED
:105A1000FBF7AEFB00BF70BD00BF344604E0208939
:105A2000298908442081246820680028F7D100BF14
:105A300020896189884208D000BF0EA340F29522D8
:105A40002FA125A0FBF794FB00BF00BF00BF20687B
:105A500040B100BF07A340F2962235A11EA0FBF77C
:105A600087FB00BF00BF2089298908442081256069
:105A700000BFD0E72E2E5C555345525C4C57495021
:105A80005C6C7769702D312E342E302E7263315C50
:105A90007372635C636F72655C706275662E63001F
:105AA000286820213D204E554C4C292026262028B0
:105AB0007420213D204E554C4C29202870726F6770
:105AC00072616D6D65722076696F6C6174657320AB
:105AD0004150492900000000417373657274696F79
