:10000300D6D0CEC4CFD4CABEB2E2CAD400C8ABB62F
:10001300AFB5E7D7D300BBB6D3ADC4FA00D2F2CEA7
:10002300AAD7A8D7A200CBF9D2D4D7A8D2B500D6E5
:10003300D001000100010001003FF821082108213F
:1000430008210821083FF8210801000100010001EF
:1000530000CEC4020001000100FFFE1010101008C2
:100063002008200440028001000280044008203060
:1000730018C006CFD400001FF0101010101FF0108E
:100083001010101FF0044044442444144814500436
:1000930040FFFE0000CABE00003FF8000000000061
:1000A300000000FFFE0100010011101108210441AE
:1000B30002810205000200B2E2000427C4144414C2
:1000C30054855445544554155415542554E5542129
:1000D300042284224424140808CAD40028202410AB
:1000E30024102007FE0020F02017E011201110112A
:1000F30010151019CA170A02060002C8AB01000145
:100103000002800440082010102FE8C106010001FE
:10011300001FF00100010001007FFC0000B6AF00EA
:100123004000407C40004001FC0044FE4420442049
:1001330044208448844484FD04450402280410B503
:10014300E70100010001003FF82108210821083FD1
:10015300F82108210821083FF8210A0102010200C1
:10016300FED7D300007FF80010002000400180017B
:1001730000FFFE0100010001000100010001000574
:10018300000200BBB600800080FC8004FC0504492B
:10019300082A401440104028A024A04510811002D2
:1001A3000804040802D3AD00002080133C1224028B
:1001B300240224F2241224122412B413281220102D
:1001C30020282047FE0000C4FA0900090011FC3270
:1001D30004544899501148124414441140108002A9
:1001E300005104511290120FF0D2F200007FFC4034
:1001F300044104410441045FF44104428442444401
:10020300244814501440047FFC4004CEAA0100216A
:10021300001100110001007FF8020802080288049F
:1002230048044808081008200840508020D7A80137
:1002330000010001003FF802000200FFFE04000875
:10024300000FF0001000200640018000400020D283
:10025300B504400440044004404444244424481466
:1002630048145014600440044004400440FFFE005E
:1002730000CBF90208071C38E0208020803E802252
:10028300FE228822883E88208820884108410882EF
:10029300080408D2D40010041022102110211020C9
:1002A3001020102020202020202440285030882196
:1002B3000402020402D7A200802040100017FC8031
:1002C3004040404040104013FC2040E0402040208C
:1002D3004020402FFE0000A1A1000000000000000C
:1002E300000000000000000000000000000000000B
:0902F30000000000000000000002
:10092400E4FDFCC3ED9FEC9E5015E4FBFA0BBB0009
:0F093400010AEB64FA4A70F50DBD00010C80E476
:010943002291
:10097A007E08EF30E704D2958002C295C297D297DB
:06098A00EF25E0FFDEECAA
:010990002244
:0A09D600C293C29212097AD2932252
:0709A8007F2A1209D6E4FFCB
:0C09AF00E4F51FC293D29212097AD29391
:0109BB002219
:04096200AD07AC062B
:10096600E4F517C293D292AF0412097AAF051209C1
:030976007AD2939F
:01097900225B
:0E09BC00C2B37F647E00120924D2B302092464
:1004F2001209BC7F111209D67F787E001209247F6F
:10050200B11209D67F011209AF7F2C1209AF7F2DDC
:100512001209AF7FB21209D67F011209AF7F2C12E6
:1005220009AF7F2D1209AF7FB31209D67F011209DD
:10053200AF7F2C1209AF7F2D1209AF7F011209AFD5
:100542007F2C1209AF7F2D1209AF7FB41209D67F1B
:10055200071209AF7FC01209D67FA21209AF7F022C
:100562001209AF7F841209AF7FC11209D67FC5126B
:1005720009AF7FC21209D67F0A1209AFE4FF12093E
:10058200AF7FC31209D67F8A1209AF7F2A1209AF41
:100592007FC41209D67F8A1209AF7FEE1209AF7F9C
:1005A200C51209D67F0E1209AF7F361209D67FC84F
:1005B2001209AF7FE01209D67F0F1209AF7F1A121C
:1005C20009AF7F0F1209AF7F181209AF7F2F1209EF
:1005D200AF7F281209AF7F201209AF7F221209AF25
:1005E2007F1F1209AF7F1B1209AF7F231209AF7F52
:1005F200371209AFE4FF1209AF7F071209AF7F027A
:100602001209AF7F101209AF7FE11209D67F0F12D4
:1006120009AF7F1B1209AF7F0F1209AF7F171209B3
:10062200AF7F331209AF7F2C1209AF7F291209AFB6
:100632007F2E1209AF7F301209AF7F301209AF7FD0
:10064200391209AF7F3F1209AFE4FF1209AF7F07EA
:100652001209AF7F031209AF7F101209AF1209A866
:100662007F021209AFE4FF1209AF7F821209AF7F46
:100672002B1209AA7F031209AFE4FF1209AF7F838D
:100682001209AF7FF01209D67F011209AF7FF6126D
:1006920009AA7F3A1209D67F051209AF7F290209FA
:0106A200D681
:1008C2008F821209A8AF82EF2402FF1209AFE4FF60
:1008D2001209AFEB2402FF1209AF7F2B1209AAED16
:1008E2002403FF1209AFE4FF1209AFE51E2403FF40
:0808F2001209AF7F2C0209D6A8
:100944008A318B32EF2401FBE43EFAED2401F51EDB
:0E095400E43CF51D1208C2AF32AE310209625A
:0408FA008E088F09CC
:1008FE00751D00751E7F7B7F7A00E4FDFCFFFE12E6
:10090E0008C2E4FBE4FAAF09AE081209620ABA8023
:05091E00F50BBB80EFAA
:0109230022B1
:0A06A30074FFFBFA7F207C007E004C
:0C06AD008E088F098C0A8D0B8A0C8B0DB7
:1006B900751500751615AB10AA11A91212087070DC
:1006C900030207EBC3948050030207DDE4F513F539
:1006D90014C3E5149516E513951540030207C4AB39
:1006E90010AA11A912120870FF90003275F022E5C4
:1006F900141208B6E51375F022A42583F583E49353
:100709006F60030207B9900001120889FF90003356
:1007190075F022E5141208B6E51375F022A42583B5
:10072900F583E4936F60030207B9E509240FFBE43D
:100739003508FAE50B240FF51EE4350AF51DAD0B56
:10074900AC0AAF09AE081208C2E4FBE4FA9000341F
:1007590075F022E5141208B6E51375F022A4258375
:10076900F583E5822BF582E43583F583E493FD3344
:1007790095E0FC74807E00A802088006CEA2E713EB
:10078900CE13D8F8FFEE5CFEEF5D4E6006AF0DAEFE
:100799000C8010E50D650F7004E50C650E6007AF60
:1007A9000FAE0E1209620ABA08A30BEB6420709B04
:1007B9000514E514700205130206DA74022512F510
:1007C90012E43511F51174102509F509E43508F518
:1007D900080206BF74012512F512E43511F511025C
:0207E90006BF49
:0107EB0022EB
:0C02FC008E208F218C228D238A248B25DC
:1003080085202F852130AB28AA29A92A12087070C8
:10031800030204F1C3948050030204E3E4F52DF5CD
:100328002EAB28AA29A92A120870FF90003275F06E
:1003380022E52E1208B6E52D75F022A42583F58353
:10034800E4936F60030204B6900001120889FF90DD
:10035800003375F022E52E1208B6E52D75F022A4BB
:100368002583F583E4936F60030204B6F52BE4F567
:100378002C90003475F022E52E1208B6E52D75F0A4
:1003880022A42583F58375F002E52B1208B6E493C1
:10039800FD3395E0FC74807E00A82C088006CEA270
:1003A800E713CE13D8F8FFEE5CFEEF5D4E601C7EBF
:1003B80000E521252CFFEE3520FE7C00E523252BCA
:1003C800FDEC3522FCAB25AA248026E5256527709F
:1003D80004E5246526601D7E00E521252CFFEE3509
:1003E80020FE7C00E523252BFDEC3522FCAB27AA5B
:1003F80026120944052CE52CC394085003020379FE
:10040800E4F52C90003575F022E52E1208B6E52D9E
:1004180075F022A42583F58375F002E52B1208B642
:10042800E493FD3395E0FC74807E00A82C088006D8
:10043800CEA2E713CE13D8F8FFEE5CFEEF5D4E6058
:1004480024AF2C7E00E521252CCFEE3520CF2408C3
:10045800CF3400FE7C00E523252BFDEC3522FCABD8
:1004680025AA24802EE52565277004E524652660E5
:1004780025AF2C7E00E521252CCFEE3520CF240892
:10048800CF3400FE7C00E523252BFDEC3522FCABA8
:1004980027AA26120944052CE52CC3940850030208
:1004A800040B052BE52BC394105003020376052E8D
:1004B800E52E7002052DC39432E52D9400500302F9
:1004C80003297402252AF52AE43529F5297410250B
:1004D80021F521E43520F52002030E7401252AF5C3
:0904E8002AE43529F52902030E6E
:0104F10022E8
:1007EC0074FFFFFE1208FA750EFF750FE07510FF0F
:1007FC007511007512037B1F7A007D0A7F1012069B
:10080C00A974FFF50EF50FF5107511007512107B1C
:10081C00007AF87D1E1206A774FFF50EF50FF51081
:10082C007511007512197B1F7A007D327C007F28B0
:10083C007E001206AD750E00750F1F7510FF751139
:10084C00007512207D461206A3750E00750F1F75DC
:10085C0010FF7511007512297D5A1206A37F087EB0
:04086C000702092452
:1009910053B1FB43B2041204F2D2B21207EC7FACA2
:0709A1007E0D12092480F411
:030000000209CA28
:0C09CA00787FE4F6D8FD758132020991B7
:10087000BB010689828A83E0225002E722BBFE0286
:09088000E32289828A83E49322B9
:10088900BB010CE58229F582E5833AF583E0225024
:1008990006E92582F8E622BBFE06E92582F8E2226E
:0D08A900E58229F582E5833AF583E4932288
:0C08B600A42582F582E5F03583F583224D
:00000001FF
