:020000040800F2
:10000000C01B002011020008190200081B02000892
:100010001D0200081F020008210200080000000065
:1000200000000000000000000000000023020008A3
:10003000250200080000000027020008290200082D
:100040002B0200082B0200082B0200082B020008DC
:100050002B0200082B0200082B0200082B020008CC
:100060002B0200082B0200082B0200082B020008BC
:100070002B0200082B0200082B0200082B020008AC
:100080002B0200082B0200082B020008653700082D
:10009000553800082B0200082B0200082B0200082C
:1000A0002B0200082B0200082B0200082B0200087C
:1000B0002B0200082B0200082B0200082B0200086C
:1000C0002B0200082B0200082B0200082B0200085C
:1000D0002B020008293500082B0200082B0200081B
:1000E0002B0200082B0200084B3700082B020008E7
:1000F0002B0200082B0200082B0200082B0200082C
:100100002B0200082B0200082B0200082B0200081B
:100110002B0200082B0200082B0200082B0200080B
:100120002B0200082B0200082B0200082B020008FB
:1001300000F002F800F05CF80AA090E8000C82449D
:100140008344AAF10107DA4501D100F051F8AFF27A
:10015000090EBAE80F0013F0010F18BFFB1A43F0A5
:1001600001031847A04C0000C04C00000A444FF0A7
:10017000000C10F8013B13F0070408BF10F8014B06
:100180001D1108BF10F8015B641E05D010F8016B4B
:10019000641E01F8016BF9D113F0080F1EBF10F8AF
:1001A000014BAD1C0C1B09D16D1E58BF01F801CBD2
:1001B000FAD505E014F8016B01F8016B6D1EF9D555
:1001C0009142D6D37047000000230024002500266A
:1001D000103A28BF78C1FBD8520728BF30C148BFAA
:1001E0000B607047002070471FB51FBD10B510BDD4
:1001F00000F03EF91146FFF7F7FF03F047FC00F06F
:100200005CF903B4FFF7F2FF03BC03F0E7FB000067
:100210000948804709480047FEE7FEE7FEE7FEE79A
:10022000FEE7FEE7FEE7FEE7FEE7FEE704480549D6
:10023000054A064B70470000893400083101000868
:10024000C0150020C01B0020C0170020C0170020D0
:10025000704710B54C1084EA530404D54042C1F1F4
:10026000000138BF491E1B4204D55242C3F10003AE
:1002700038BF5B1E00F056F814F0804F04D04042A7
:10028000C1F1000138BF491E14F0004F04D05242A2
:10029000C3F1000338BF5B1E10BD00000FB404495A
:1002A00010B503AA029800F0B5F810BC5DF814FB75
:1002B0001C0000202DE9F0410E460446002020627B
:1002C0002046E168884730B3252805D0D4E90121CC
:1002D0009047206A401CF2E7E168204600278847E3
:1002E000050018D0A5F14100192802D820354FF497
:1002F00000673246294620462760FFF773FF40B16A
:10030000012804D0F61D26F007060836D8E7361D6A
:10031000D6E72846DAE7206ABDE8F08170477047E3
:100320007047704753EA020C00F069802DE9F04BEA
:100330004FF00006002B1FBFB3FA83F503FA05F454
:1003400024FA05F65E4012BF1643B2FA82F502FAAD
:1003500005F4C5F120051EBF22FA05FC44EA0C0491
:10036000203556EA044C4FEA144418BF641C4FF081
:1003700000084FF00009904271EB030C39D30029BB
:1003800019BFB1FA81F701FA07F6B0FA80F700FA5F
:1003900007F6C7F120071EBF20FA07FC46EA0C0645
:1003A0002037B6FBF4FCA7EB0507103F07F01F0B47
:1003B000CBF120060CFA0BFB2CFA06F644BFB34631
:1003C0000026202FA4BF5E464FF0000B5BEA060C10
:1003D00008BF4FF0010B19EB0B09ABFB027C48EB9C
:1003E0000608C01B06FB02CC0BFB03CC71EB0C0117
:1003F000C1E70B46024641464846BDE8F08B13B5BF
:100400004FF000004FF00001AFF30080BDE81C404A
:1004100070470000074B70B50D467B4400F011F8A3
:100420000446284600F020F810B14FF0FF3070BDB0
:10043000204670BD5336000001694A1C02610878ED
:10044000704700B58FB0CDE9013100210591054914
:100450007944CDE9031011466846FFF72BFF0FB032
:1004600000BD0000E5FFFFFF007B00F0800070474B
:10047000754600F02BF8AE4605006946534620F05D
:100480000700854618B020B5FFF7D0FEBDE8204034
:100490004FF000064FF000074FF000084FF0000B40
:1004A00021F00701AC46ACE8C009ACE8C009ACE8F3
:1004B000C009ACE8C0098D46704710B50446AFF3DB
:1004C00000802046BDE81040FFF79BBE0048704703
:1004D0006015002010B5044624B1012C07D0022C71
:1004E00015D10AE01021012002F05CFC10E04FF46D
:1004F0008051022002F006FC0AE01021012002F0E7
:1005000051FC4FF48051022002F0FCFB00E000BFE0
:1005100000BF10BD0146CAB20B1243EA0220704769
:1005200010B5002404E0A748005DA7490855641CE5
:10053000A64800888442F6D3A3484068A44948608E
:10054000A14880688860A14800881F280FD0022039
:10055000FFF7C0FF00209C490860487B1A22052154
:1005600002F0E4FC0021012002F0BEFC10BD964820
:10057000C07B282803D09448C07B2A2816D19248F3
:10058000407C01069048807C41EA00418E48C07C56
:1005900041EA00208C49097D08438E4908608A4859
:1005A000C17D807D41EA00208B4908608648006853
:1005B0008A4988426FD18448407B894909688842CA
:1005C00007D88148807B012803DB7F48807B102887
:1005D0000DDD0220FFF77EFF7B49487B24220521A9
:1005E00002F0A4FC0021012002F07EFCE8E0764845
:1005F000C07B25285FD01BDC15286FD00EDC0828B7
:100600006DD006DC00285BD0032830D0042867D1E9
:1006100076E00A2873D01228F9D12DE01A380A287A
:100620005ED2DFE800F0392EB17D33B1B1B1B14314
:100630008A286FD00EDC552867D006DC282844D0E5
:100640002A284ED02F28E2D154E05A2829D08828D1
:10065000DDD176E0A8286DD004DC8F286FD09E28ED
:10066000D5D173E0AA287BD0AF28D0D182E05649FB
:10067000487B01F0F7FF95E05349487B01F0CAFE43
:1006800090E05149487B02F001F88BE04E49487BED
:1006900001F0FCFF86E086E04B49487B01F00AFF51
:1006A00080E04949487B01F0FBFE7BE04649487BFE
:1006B00001F094FF76E04449487B01F041FF71E08E
:1006C0004149487B01F0EAFF6CE03F49487B4249E1
:1006D0000A684049096801F0F7FE63E01BE024E086
:1006E00052E03949487B3C490A683A49096802F0B6
:1006F00011F857E03449487B01F0ECFF52E02AE062
:100700003149487B01F06EFE4CE02F49487B01F0F7
:10071000A5FE47E029E02C49487B01F09FFE41E01F
:100720002949487B01F09AFE3CE02749487B01F0CB
:1007300095FE37E02449487B01F090FE32E01EE050
:100740000EE02149487B01F089FE2BE01E49487BE1
:1007500001F084FE26E01C49487B01F07FFE21E089
:100760001949487B01F07AFE1CE01749487B01F0EB
:1007700075FE17E01449487B01F070FE12E0124943
:10078000487B01F06BFE0DE00220FFF7A3FE0E494F
:10079000487B2022052102F0C9FB0021012002F044
:1007A000A3FB00BF0CE00220FFF794FE0649487B44
:1007B0002022052102F0BAFB0021012002F094FB67
:1007C00000BFD3E6F0140020301500200E010020F9
:1007D0005015002010010020140100205553424301
:1007E0007001002010B5002449E047F6FF70294948
:1007F00008602948008800F00F0028490870084662
:100800000078274901EB8000D0F8000C84B204F492
:100810000040C8B12148007801EB8000D0F8000CFE
:10082000C0F30E0048F68F7108401C4909781C4A35
:1008300002EB8101C1F8000C18490978491E194AD8
:1008400052F8210080471AE004F08000B8B1134844
:100850000078134901EB8000D0F8000C48F60F71C6
:1008600008400E4909780E4A02EB8101C1F8000CDC
:100870000A490978491E0C4A52F821008047054868
:10088000006880B20449088000F400400028ACD120
:1008900010BD0000445C0040340100203C000020FA
:1008A00000500040540100203801002010B5002401
:1008B00073E147F6FF70BF490860BF48008800F049
:1008C0000F00BE4908700846007800287ED1B9485C
:1008D0004438006800F44050B9490880B5484438AD
:1008E000006800F03000B7490880B249443909680F
:1008F0004BF68F7201EA020080F40050AD49443992
:100900000860096848F6BF7201EA020080F0200022
:10091000A84944390860A848008800F01000002861
:1009200038D10846006848F60F710840A14944399B
:10093000086000F009FE9F49443909684BF68F7240
:1009400001EA02009E49098801F4805109B180F44E
:1009500080509B49098801F4005109B180F400508E
:10096000944944390860096848F6BF7201EA0200F8
:100970009449097801F0100109B180F01000914903
:10098000097801F0200109B180F02000894944393B
:10099000086010BD87484438006884B204F08000C5
:1009A000D8B384484438006848F60F71084081493C
:1009B0004439086000F0C8FD7E49443909684BF6A7
:1009C0008F7201EA02007E49098800E0A6E001F486
:1009D000805109B180F480507949098801F40051AF
:1009E00009B180F40050734944390860096848F639
:1009F000BF7201EA02007349097801F0100109B1E0
:100A000080F010006F49097801F0200109B180F0F1
:100A10002000684944390860BBE7FFE704F4006040
:100A2000D8B3644844380068C0F30E0048F68F71AC
:100A3000084060494439086002F088FA5D49443949
:100A400009684BF68F7201EA02005D49098801F4DA
:100A5000805109B180F480505949098801F400514E
:100A600009B180F40050534944390860096848F6D8
:100A7000BF7201EA02005349097801F0100109B17F
:100A800080F010004F49097801F0200109B180F091
:100A900020004849443908607BE7FFE704F4004040
:100AA00000287AD0434844380068C0F30E0048F666
:100AB0008F7108403F494439086001F0ABFA3D4965
:100AC000443909684BF68F7201EA02003C490988F3
:100AD00001F4805109B180F480503949098801F44A
:100AE000005109B180F40050324944390860096866
:100AF00048F6BF7201EA02003249097801F010019C
:100B000009B180F010002F49097801F0200109B1E6
:100B100080F020002749443908603AE727480078E8
:100B2000294901EB8000D0F8000C84B204F40040A5
:100B3000C0B12248007801EB8000D0F8000CC0F36F
:100B40000E0048F68F7108401C4909781E4A02EBD6
:100B50008101C1F8000C19490978491E1B4A52F855
:100B60002100804704F08000B8B11448007816498D
:100B700001EB8000D0F8000C48F60F7108400F49D7
:100B80000978114A02EB8101C1F8000C0B49097880
:100B9000491E0F4A52F8210080470648006880B27B
:100BA0000549088000F4004000287FF482AE00BFB1
:100BB000EFE60000445C0040340100203C000020CF
:100BC000500000205200002000500040540100203E
:100BD000380100200B4A02EB8001D1F8001C01F41F
:100BE000804169B102EB8001D1F8001C48F68F7298
:100BF000114041F48041034B03EB8002C2F8001C1A
:100C000070470000005000400B4A02EB8001D1F811
:100C1000001C01F0400169B102EB8001D1F8001C19
:100C200048F68F72114041F04001034B03EB800204
:100C3000C2F8001C7047000000500040064A02EB5A
:100C40008001D1F8001C48F68F621140024B03EB83
:100C50008002C2F8001C7047005000402DE9F047A8
:100C60002848006800F110052E8826480068077A99
:100C7000D6B9042F18D12448007801280FD10021BB
:100C80002248006880B2801C214A42F810103020AF
:100C90002049088000BF00201B49087003E0072797
:100CA00010201C49088027E0AC88A64201D8042007
:100CB00000E002200746B44200D93446A0B2A96839
:100CC00088478046002000F023FB8146A2B24946B7
:100CD000404602F0C5FDA1B2002002F055F8288878
:100CE000001B2880688820446880302009490880DB
:100CF00000020949088000BF024909680F72BDE877
:100D0000F08700004000002038000020505C0040C8
:100D10000060004052000020500000202DE9F0410A
:100D20002848006800F110042688A068C0B1BEB150
:100D3000A588B54200D93546A8B2A16888470746BC
:100D40002088401B2080608828446080002000F0BC
:100D5000BDFA8046AAB24146384601F083F900BF89
:100D6000208850B14FF440501749088000210846B0
:100D700002F00AF83020154908802088A1888842AE
:100D800004DB03200F490968087218E02088002856
:100D900004DD05200B490968087210E0208870B94D
:100DA000062008490968087200210948006880B2D5
:100DB000801C084A42F81010302004490880BDE821
:100DC000F081000040000020500000205200002070
:100DD000505C0040006000402DE9F84F9B480068DF
:100DE00045780027BA46062D1BD198480068007840
:100DF00000F07F00002813D1944909688878012801
:100E000003D193490968CF690AE0022803D19049C8
:100E100009680F6A04E0032802D18D4909684F6A06
:100E200094E0002D64D189480068408800285FD193
:100E300086480068C08802285AD184480068007932
:100E4000002855D181480068007800F07F0028B95B
:100E50007E480068808808B97E4F77E07B4800684C
:100E6000007800F07F00012810D17849096848799E
:100E7000774909688A6900219047002866D173483C
:100E80000068807A002861D0724F5FE06F48006888
:100E9000007800F07F00022858D16C480068407943
:100EA00000F00F0669480068407900F07009674853
:100EB0000068407900F0800038B1674901EB860096
:100EC000D0F8000C00F0300806E0634901EB860022
:100ED000D0F8000C00F4405860480078B04235D992
:100EE000B9F1000F32D1B8F1000F2FD0594F2DE0DA
:100EF000082D07D155480068007800F07F0028BB16
:100F0000574F23E00A2D21D150480068007800F0A7
:100F10007F0001281AD14D480068807AB0B14B4853
:100F20000068408890B949480068007970B947481E
:100F30000068C088012809D14449096848794449B2
:100F400009688A690021904700B9464F57B13F4868
:100F50000068A0F812A03D48006887610020B847EB
:100F600000240FE0394A12685078394A1268116932
:100F700088470446032C05D10920344909680872C2
:100F8000BDE8F88F31480068008A4FF6FF7188424B
:100F900004D109202D4909680872F1E7022C03D019
:100FA0002A480068008A20B9082028490968087280
:100FB000E6E726480068007800F08000E0B32348A8
:100FC0000068C088009021480068008A0099884223
:100FD00004D91E4900980968088223E01B4800686C
:100FE000008A1A490968C98888421BDA17480068CC
:100FF000008A1749096891F82C10884203DA00200A
:10100000194908700EE011480068008A1049096803
:1010100091F82C1090FBF1F201FB120010B90120A5
:10102000114908700A48006890F82C1007480068B9
:101030008182FFF713FE07E0FFE7032003490968F9
:10104000087200030949088000BF99E740000020AA
:1010500044000020D53100080050004074010020F9
:1010600059310008A9310008380000205000002044
:1010700010B500F023FE10BD10B500F067FE10BDE6
:101080000149086070470000140401400021234911
:101090008279002A3AD00A46126803689A430B46BE
:1010A0001A600A1D126803689A430B1D1A600279C0
:1010B00011440A6803681A430A60184A0832126821
:1010C00003689A43154B08331A601A1D12680368A7
:1010D0009A43124B0C331A604279102A0ED11A1F10
:1010E000126803681A430D4B08331A601A1D126800
:1010F00003681A43094B0C331A600DE00749427923
:1011000011440A6803681A430A6005E00279114431
:101110000A6803689A430A607047000000040140AF
:101120002DE9F0410246002500260020002300247E
:10113000002791F803C00CF00F0591F803C00CF0E4
:10114000100CBCF1000F03D091F802C04CEA050569
:1011500091F800C0BCF1000F31D0146800202BE0E2
:101160004FF0010C0CFA00F3B1F800C00CEA0306D2
:101170009E4220D183004FF00F0C0CFA03F7BC43C2
:1011800005FA03FC4CEA040491F803C0BCF1280FF3
:1011900006D14FF0010C0CFA00FCC2F814C00AE0B2
:1011A00091F803C0BCF1480F05D14FF0010C0CFAC7
:1011B00000FCC2F810C0401C0828D1D31460B1F85C
:1011C00000C0BCF1FF0F34DD546800202EE000F1B8
:1011D000080C4FF0010808FA0CF3B1F800C00CEA53
:1011E00003069E4221D183004FF00F0C0CFA03F747
:1011F000BC4305FA03FC4CEA040491F803C0BCF1BB
:10120000280F05D100F1080C08FA0CF8C2F8148078
:1012100091F803C0BCF1480F07D100F1080C4FF062
:10122000010808FA0CF8C2F81080401C0828CED338
:101230005460BDE8F0810000F0B50A4600230024A8
:101240000021002500F00046B6F1004F02D11D4EEE
:10125000F16901E01B4E7168C0F3034583B200F4ED
:101260004016B6F5401F08D121F07061154E766822
:1012700026F07066134F7E6012E000F48016B6F51B
:10128000801F06D1032606FA05F4A14341F07061E0
:1012900006E0460D360103FA06F6B14341F07061EF
:1012A00022B1460D360103FA06F6314300F000463E
:1012B000B6F1004F02D1034EF16101E0014E7160C1
:1012C000F0BD000000000140016170470146054883
:1012D000006880B200EBC100001D034A32F8100024
:1012E00080B27047505C00400060004001460648F4
:1012F000006880B200EBC100801D044A32F8100083
:10130000C0F3090070470000505C004000600040DE
:1013100001460548006880B200EBC100034A32F87C
:10132000100080B270470000505C00400060004038
:10133000014629B90120034A126810820020704733
:101340000148FCE7400000207001002010B50F4B61
:1013500018681B1D19681B1D1A68A8B10C4CA070D9
:10136000030A2371030CA371030E2372A1720B0AEB
:1013700023730B0CA3730B0E2374A274130A23752F
:10138000130CA375130E237610BD0000E8F7FF1FA2
:10139000180100202DE9F84F0746884693469A46E3
:1013A000DDF828900097B3E099F8000080283DDA36
:1013B00099F800600D2E05D1009F08F110001FFA6A
:1013C00080F830E0202E03DDA6F1200086B200E098
:1013D0000026002422E000251CE004EB0610504902
:1013E000085C80212941084040B108EB040291B219
:1013F0007A1990B25A4600F097F809E0D34507D021
:1014000008EB040291B27A1990B2524600F08CF8BF
:10141000681CC5B2082DE0DB601CC4B2102CDADBFE
:1014200007F1080087B209F1010971E0002668E0C0
:1014300006EB06103B4911F8100099F8001088429D
:101440005DD106EB0610374901EB4000407899F872
:101450000110884253D100244FE0002520E006EB24
:101460000610304901EB4000801C10F81410802059
:101470002841014041B108EB040291B27A1990B2BF
:101480005A4600F051F809E0D34507D008EB0402B2
:1014900091B27A1990B2524600F046F8681CC5B273
:1014A000082DDCDB002524E006EB06101D4901EBCE
:1014B0004000801C012101EB4401405C8021294156
:1014C000084048B108EB040291B27A19083290B290
:1014D0005A4600F029F80AE0D34508D008EB040288
:1014E00091B27A19083290B2524600F01DF8681C89
:1014F000C5B2082DD8DB601CC4B2102CADDB701C4B
:1015000086B2062E94DB09F1020907F1100087B2BA
:1015100099F8000000287FF447AFBDE8F88F00007D
:10152000D83E00084A4C000870B504460D461646E1
:10153000681C83B2601C82B22946204600F0E0F9A4
:10154000304600F075F870BD10B518480068047A90
:10155000022C01D0042C05D1FFF780FB1348006852
:10156000047A1CE0062C19D1104800684078052840
:101570000ED10E480068007800F07F0040B90B499A
:101580000968C87801F060FB09490968086A804762
:101590000849096888688047082400E0082403494E
:1015A00009680C7200F072FD10BD000040000020C0
:1015B0004C0000204400002008B50121042000F068
:1015C000B9FD0120ADF8000048208DF80300694600
:1015D0000148FFF7A5FD08BD0008014008B501213D
:1015E000182000F0A7FD4FF47040ADF80000032074
:1015F0008DF8020010208DF8030069460A48FFF7B5
:101600008FFDC020ADF8000003208DF802001020EF
:101610008DF8030069460548FFF782FD80200349E5
:1016200008614861086108BD000C014000100140DC
:1016300010B504464FF4805008490860402008491E
:101640000861201201F0D8FAE0B201F0D5FA4FF4A7
:1016500080500249091F086010BD0000140C0140B1
:101660000010014008B50121042000F063FD4FF493
:101670008070ADF8000010208DF8030003208DF875
:10168000020069460448FFF74BFD4FF480710248A1
:10169000FFF71AFE08BD00000008014070B50646BD
:1016A0007F231A460021084600F02AF92C2000F07A
:1016B00069F9002408E0002503E03046FFF7B8FF91
:1016C0006D1C802DF9D3641C802CF4D370BD10B533
:1016D000FFF784FF00F00CF9112000F053F9782097
:1016E00002F0A0F9B12000F04DF9012000F034F92A
:1016F0002C2000F031F92D2000F02EF9B22000F05E
:1017000041F9012000F028F92C2000F025F92D20C6
:1017100000F022F9B32000F035F9012000F01CF9A7
:101720002C2000F019F92D2000F016F9012000F00E
:1017300013F92C2000F010F92D2000F00DF9B42041
:1017400000F020F9072000F007F9C02000F01AF996
:10175000A22000F001F9022000F0FEF8842000F041
:10176000FBF8C12000F00EF9C52000F0F5F8C2200A
:1017700000F008F90A2000F0EFF8002000F0ECF883
:10178000C32000F0FFF88A2000F0E6F82A2000F0DD
:10179000E3F8C42000F0F6F88A2000F0DDF8EE202F
:1017A00000F0DAF8C52000F0EDF80E2000F0D4F8D3
:1017B000362000F0E7F8C82000F0CEF8E02000F076
:1017C000E1F80F2000F0C8F81A2000F0C5F80F204B
:1017D00000F0C2F8182000F0BFF82F2000F0BCF88D
:1017E000282000F0B9F8202000F0B6F8222000F000
:1017F000B3F81F2000F0B0F81B2000F0ADF8232054
:1018000000F0AAF8372000F0A7F8002000F0A4F8B4
:10181000072000F0A1F8022000F09EF8102000F050
:101820009BF8E12000F0AEF80F2000F095F81B20A7
:1018300000F092F80F2000F08FF8172000F08CF8DD
:10184000332000F089F82C2000F086F8292000F0E1
:1018500083F82E2000F080F8302000F07DF8302052
:1018600000F07AF8392000F077F83F2000F074F8A3
:10187000002000F071F8072000F06EF8032000F05F
:101880006BF8102000F068F82A2000F07BF80020A8
:1018900000F062F8002000F05FF8002000F05CF833
:1018A0007F2000F059F82B2000F06CF8002000F0A9
:1018B00053F8002000F050F8002000F04DF89F2071
:1018C00000F04AF8F02000F05DF8012000F044F844
:1018D000F62000F057F8002000F03EF83A2000F023
:1018E00051F8052000F038F8292000F04BF810BD21
:1018F00010B5642002F096F8322002F093F810BD83
:10190000F0B504460D4616461F462A2000F03AF868
:10191000002000F021F8A11CC8B200F01DF8002042
:1019200000F01AF8B11CC8B200F016F82B2000F035
:1019300029F8002000F010F8E91CC8B200F00CF8FB
:10194000002000F009F8F91CC8B200F005F82C20BE
:1019500000F018F8F0BD000010B504464FF48050B8
:1019600006490860402006490861204601F044F914
:101970004FF480500149091F086010BD140C01404C
:101980000010014010B504464FF48050064908602D
:10199000402006494861204601F02EF94FF480505E
:1019A0000149091F086010BD140C014000100140DE
:1019B0000120014908607047A0012142002001492F
:1019C00008607047A0012142014621B1012904D0DD
:1019D000022906D103E0002070470020FCE7012027
:1019E000FAE70120F8E72DE9F0410446884615465C
:1019F0001E4634B9002732464146284600F0BCFF57
:101A000002E00120BDE8F08100BF0FB10120F9E73D
:101A10000020F7E72DE9F0410446884615461E46AA
:101A200034B9002732464146284601F011F802E059
:101A30000120BDE8F08100BF0FB10120F9E70020CF
:101A4000F7E7000070B505460024144800680078E8
:101A500000F07F00212810D1FE2D0ED10F48006824
:101A6000408850B90D480068808830B90B4800683C
:101A7000C088012801D10A4C01E0022070BD0CB9D8
:101A80000220FBE7054800688461002103480068E4
:101A900041820020A0470020F0E700004000002025
:101AA0003113000810B504460249204601F06AFBD4
:101AB00010BD0000D401002010B5044602492046A4
:101AC00001F060FB10BD0000CC01002070B50546A0
:101AD00006480068C478052C01DD002070BD04486C
:101AE00000EBC401284601F04DFBF7E74000002061
:101AF000DC0100200246002901DD02207047002A97
:101B000001DD0220FAE70020F8E7000010B50446E6
:101B100011480068007800F07F0021281AD1FF2CBE
:101B200018D10D4800684088A0B90B48006880882B
:101B300080B909480068C08860B90120FFF764F8DF
:101B40000220FFF747F805480549086000200549CD
:101B5000087010BD0220FCE74000002055534243AE
:101B6000301500200C01002010B500203249887289
:101B70003248C079324909684872002001F05CF8A7
:101B80004FF40071002001F029F92021002001F01C
:101B900009F91821002001F07DF82A4890F82C104E
:101BA000002001F089F85821002001F0DDF8002024
:101BB000FFF744F8002001F0C1F80021012001F0F6
:101BC0000DF99821012001F0CFF82021012001F02A
:101BD000E9F80021012001F095F80021022001F030
:101BE000FDF8D821022001F055F8164890F82C1085
:101BF000022001F061F84FF44051022001F082F818
:101C00000021022001F0CEF80E4890F82C100020A0
:101C100001F052F8002001F091F8002001F014F8D2
:101C2000012009490860094809490860002009495C
:101C3000087001F013FE10BDD4120020944D00086E
:101C40004000002078010020040200205553424348
:101C5000301500200C0100207047704710B5FFF7C9
:101C600075FB00200A490968887200F033FA0020E9
:101C7000084908604FF40440074908800846008876
:101C80000449091F086000200449086010BD0000D5
:101C900040000020445C00404A0000200402002074
:101CA00010B5044800680449884202D00220FEF7BB
:101CB00011FC10BD301500205553424310B51E488D
:101CC000007840F010001C4908701C480078022879
:101CD00010D0032823D0042802D0052829D100E001
:101CE00000BF0020154908704FF44051022001F058
:101CF00009F81FE01248C07B28280ED10E48007852
:101D000040F002000C4908700D49487B0D490A68F3
:101D10000D49096800F0D8FB00BF00BF0AE00121AF
:101D2000002001F0E1F84FF44051022000F0EAFFFA
:101D300000E000BF00BF10BD790000200C010020B2
:101D400030150020140100201001002010B5254896
:101D5000007840F01000234908702348C47B02201B
:101D6000FFF7C4FA2149088008460288D821204894
:101D700000F078F91F48007810B1012822D102E064
:101D8000FEF7CEFB2CE02A2C0ED11648007840F04E
:101D90000100144908701449487B17490A6817491B
:101DA000096800F0B7FC1BE00120FEF793FB0E4929
:101DB000487B2422052101F0B9F80021022001F01E
:101DC00093F80DE00220FEF785FB0749487B2422AB
:101DD000052101F0ABF80021022001F085F800BFD9
:101DE00000BF10BD79000020301500200E0100203A
:101DF000F01400200C01002014010020100100202C
:101E000010B508480068807A58B105200649086076
:101E10000120FEF7F9FE0220FEF7DCFE0020034958
:101E2000087010BD40000020040200200C010020BA
:101E3000042001490860704704020020704710B573
:101E40004FF4A06000F03AF810BD000070B500211A
:101E500000230F22C47804B3154C246804F4E06412
:101E6000C4F5E064210AC1F10403CA40447804FACD
:101E700003F184781440214309010E4C0678A155E2
:101E8000047804F01F050124AC4005786D11AD0005
:101E900005F1E025C5F8004109E0047804F01F05CC
:101EA0000124AC40044D0678761145F8264070BDFB
:101EB0000CED00E000E400E080E100E002490143B5
:101EC000024A1160704700000000FA050CED00E0C6
:101ED00070B502264A48006844784948006800788E
:101EE00000F07F0000284AD1092C03D101F0EAF963
:101EF000064665E0052C14D141480068C0787F286B
:101F00000BDC3F480068807838B93D48006880881D
:101F100018B93B480068807A08B108256BE00026B4
:101F20004EE0032C14D136480068C07801280DD14A
:101F300033480068808848B931480068407A00F02A
:101F4000200018B101F0E2F9064639E0022637E038
:101F5000012C35D12A480068C07801280DD12848C5
:101F60000068808848B926480068407A00F0200060
:101F700018B101F043F8064622E0022620E020488E
:101F80000068007800F07F00012805D10B2C17D1E4
:101F900001F030FA064613E019480068007800F0B6
:101FA0007F0002280BD1012C03D101F027F806464F
:101FB00006E0032C04D101F0BDF9064600E002263C
:101FC0004EB1E0B20F4A1268516988470646032EA7
:101FD00001D109250FE00EB108250CE006250021EE
:101FE0000948006880B2801C084A42F8101030206E
:101FF0000749088000BF024909680D7270BD0000E2
:102000004000002044000020505C00400060004080
:102010005200002010B511480068047A032C01D04A
:10202000052C05D1FEF77AFE0C480068047A0EE014
:10203000072C05D10A490968C8688047082406E0CA
:10204000022C01D0042C01D1082400E0082403490B
:1020500009680C7200F01AF810BD00004000002062
:1020600044000020F0B5561C7510074E06EB4104E5
:102070002B4605E034F8047B20F8017B401C5B1EF6
:10208000002BF7D1F0BD00000060004010B50D48F6
:1020900090F82C10002000F00FFE0B480068007A2A
:1020A000082805D140020949088010200849088005
:1020B00005480068007A092801D1012010BD0020E0
:1020C000FCE70000780100204000002050000020C4
:1020D0005200002010B5012001F038FB01240B480C
:1020E000046000200A490880084600880749086003
:1020F0000020091D08604FF4E0500549088008469B
:10210000008802490860002010BD0000405C0040CB
:102110004A00002029B1064AD2690243044BDA6121
:1021200004E0034AD2698243014BDA617047000040
:102130000010024029B1064A92690243044B9A6199
:1021400004E0034A92698243014B9A6170470000A0
:102150000010024030B500210022002400232D4D44
:102160006D6805F00C0121B1042905D0082923D19F
:1021700005E0294D056022E0274D05601FE0254D53
:102180006D6805F47012234D6D6805F480340225E6
:1021900005EB92421CB9214D554305600BE01D4DE6
:1021A0006D6805F400351DB11C4D5543056002E016
:1021B000194D5543056002E0174D056000BF00BF93
:1021C000144D6D6805F0F0010909154D6B5C05684B
:1021D000DD4045600F4D6D6805F4E061090A104D62
:1021E0006B5C4568DD4085600A4D6D6805F46051A3
:1021F000C90A0B4D6B5C4568DD40C560054D6D68D7
:1022000005F44041890B074D6B5CC568B5FBF3F5E0
:10221000056130BD0010024000127A0000093D0047
:1022200022000020320000200149086070470000B1
:10223000D80042422DE9F04104460D4616463C487E
:10224000007870B93B4850F8240068433A49086068
:10225000384850F824007043384908600120344958
:1022600008703348007801284ED13548006800BB1B
:10227000304830F8240083B2324A2F4801682046A3
:10228000FFF7B1FBC7B22FB12F48007840F008002C
:102290002D490870402298212A4801F0E1FA25488A
:1022A00050F824004038264908604020274908603B
:1022B00011E02449254A126888184022982101F02B
:1022C000CFFA1F48006840381D4908601F48006861
:1022D00040301E4908604021012000F055FD3021AA
:1022E000012000F05FFD144800684030124908608A
:1022F0001248006840381149086015488068403825
:1023000013498860FFF75AFB0C48006870B9002039
:102310000B4908600D4908600749086003200D4912
:102320000870002002490870FFF742FBBDE8F08109
:1023300078000020600000207C0000208000002049
:1023400068000020F0120020790000206C000020BE
:10235000501500200C0100202DE9F04104460D46E7
:1023600017461E46B8191C4951F82410884213D943
:102370002A2D02D10220FEF7ADF80020FEF7AAF8C0
:1023800021220521204600F0D1FD0021012000F08E
:10239000ABFD0020BDE8F08110488168104850F87E
:1023A00024007043814214D02A2D03D10220FEF76D
:1023B00091F802E00020FEF78DF80849487B2422BE
:1023C000052100F0B3FD0021012000F08DFD00206B
:1023D000E0E70120DEE70000640000203015002067
:1023E0006000002010B504462046FFF7EDFA68B102
:1023F0000749487B3A22022100F098FD0121084656
:1024000000F072FD0020FEF765F810BD00BFFCE78C
:102410003015002070B506460C48007C00F0010025
:1024200010B10B4C05250BE00EB90A4C00E00A4C2C
:102430000648C07C242802DC0448C57C00E0242532
:102440002946204601F050F870BD000030150020EC
:102450008C00002091000020B500002010B504463B
:102460000E48806818B90020FEF734F80BE00B48DE
:10247000007B00F0800018B10020FEF72BF802E08E
:102480000220FEF727F80549487B2022052100F0AD
:102490004DFD0021012000F027FD10BD301500206A
:1024A00010B504460821024801F01EF810BD0000D6
:1024B000DD00002010B504460421024801F014F8A4
:1024C00010BD0000D900002070B506460C46154628
:1024D0001948007820BB1949487B2B462246282101
:1024E000FFF73AFF00B970BD1448007B00F0800090
:1024F00040B10220104908702A4621463046FFF7B5
:1025000099FE0CE00220FDF7E5FF0C49487B2422F0
:10251000052100F00BFD0121084600F0E5FCE2E793
:1025200005480078022804D12A4621463046FFF7A4
:1025300081FE00BFD7E700000C010020301500200D
:1025400010B504462046FFF73FFA68B11F49487BA3
:102550003A22022100F0EAFC0121084600F0C4FC06
:102560000020FDF7B7FF10BD194850F82400401EA9
:10257000000E18490870164850F82400401E000C40
:102580004870134830F82400401E000A8870104834
:1025900010F82400401EC8700F4850F82400000EA8
:1025A00008710D4850F82400000C48710A4830F8B2
:1025B0002400000A8871084810F82400C871082116
:1025C000044800F091FF00BFCDE700003015002067
:1025D00064000020F70000206000002010B50446D1
:1025E0002046FFF7F1F968B11A49487B3A220221E7
:1025F00000F09CFC0121084600F076FC0020FDF76D
:1026000069FF10BD144850F82400000E13490871EA
:10261000114850F82400000C48710F4830F824008D
:10262000000A88710C4810F82400C8710C4850F852
:102630002400000C48720A4830F82400000A88720E
:10264000074810F82400C8720C21044800F04CFF21
:1026500000BFD6E73015002064000020FF000020F6
:102660006000002070B505460648C07C122802DCD8
:102670000448C47C00E012242146034800F034FFE3
:1026800070BD000030150020E500002010B50446A4
:102690000121002000F028FC10BD000010B5044608
:1026A0002046FFF791F968B10949487B3A22022197
:1026B00000F03CFC0121084600F016FC0020FDF76C
:1026C00009FF10BD0121002000F00EFC00BFF8E75B
:1026D0003015002010B504460D48806848B90C48F4
:1026E000007C00F0040020B90121002000F0FCFB78
:1026F0000CE00220FDF7EEFE0549487B242205216F
:1027000000F014FC0021012000F0EEFB10BD0000E1
:102710003015002070B506460C461546194800785D
:1027200020BB1949487B2B4622462A21FFF714FE7D
:1027300000B970BD1448007B00F0800040B9012052
:10274000104908704FF44051022000F0DBFA0CE011
:102750000020FDF7BFFE0C49487B2422052100F034
:10276000E5FB0021012000F0BFFBE2E7054800780F
:10277000012804D12A462146304601F08DF800BFD9
:10278000D7E700000C0100203015002000B587B00D
:1027900001210820FFF7CEFC0121C803FFF7BAFC96
:1027A0003820ADF8180018208DF81B0003208DF894
:1027B0001A0006A91748FEF7B3FC38211548FEF7A2
:1027C00083FD0020ADF804004FF48270ADF80600E0
:1027D0000020ADF808000220ADF80A000120ADF895
:1027E0000C004002ADF80E003820ADF810000020BB
:1027F000ADF812000720ADF8140001A9064800F05A
:10280000DDF90121044800F047F8FF2000F006F848
:1028100007B000BD000C0140003C004070B505460B
:10282000002405E0601CC4B2C82C01DD002070BD8E
:1028300002210E4800F0B4F90028F3D029460B48D5
:1028400000F0BAF9002405E0601CC4B2C82C01DD18
:102850000020ECE70121054800F0A2F90028F3D0A0
:10286000024800F0A6F9C0B2E1E70000003C0040D9
:1028700010B50446074800884FF6C771084005495F
:10288000088008460088204308800121014800F0A4
:1028900003F810BD003C004021B1028842F0400224
:1028A000028004E002884FF6BF731A40028070472E
:1028B00010B50020044908600620FFF7AFFF012093
:1028C0000249C1F8BC0110BDBC01214200002142F7
:1028D00010B504462403FFF7EBFF00F0AFF800202B
:1028E0000B4908602020FFF799FFC4F30740FFF76A
:1028F00095FFC4F30720FFF791FFE0B2FFF78EFFCB
:1029000001200449C1F8BC0100F098F810BD000096
:10291000BC0121420000214208B501210C20FFF733
:1029200009FC01210846FFF705FC01210F48FEF7CD
:1029300083FC4FF40040ADF8000010208DF8030038
:1029400003208DF8020069460948FEF7E9FB4FF4C1
:1029500000410748FEF7B8FCFFF718FF0020FFF71B
:1029600087FF00F031F80349088008BD00023000FD
:1029700000080140140000202DE9F04106460C46F5
:10298000174600200F4908600320FFF747FFC4F3F4
:102990000740FFF743FFC4F30720FFF73FFFE0B214
:1029A000FFF73CFF002505E0FF20FFF737FF7055DC
:1029B000681C85B2BD42F7DB012002490860BDE812
:1029C000F0810000BC01214210B5002400200E4916
:1029D00008609020FFF722FF0020FFF71FFF002074
:1029E000FFF71CFF0020FFF719FFFF20FFF716FF7E
:1029F00044EA0024FF20FFF711FF044301200349AC
:102A0000C1F8BC01204610BDBC012142000021429A
:102A100010B500240020074908600520FFF7FEFEDE
:102A2000FF20FFF7FBFE044601200349C1F8BC016B
:102A3000204610BDBC0121420000214210B500BF5C
:102A4000FFF7E6FF00F001000028F9D110BD0000FB
:102A50002DE9F04781460F4616464FEA1738C7F36F
:102A60000B0ACAF58054A64200DC344644E04FEA23
:102A700008314FF480522248FFF77EFF002508E01E
:102A80000AEB05001E49085CFF2800D003E0681C23
:102A900085B2A542F4DB00BFA54216DA4046FFF737
:102AA00017FF002507E019F8050005EB0A01144A95
:102AB0005054681C85B2A542F5DB4FEA08314FF44B
:102AC00080520F4800F01EF804E02246394648467E
:102AD00000F018F8A64200D10FE008F101084FF00D
:102AE000000AA1442744301B86B2B6F5805F02DDA0
:102AF0004FF4805400E03446B9E700BFBDE8F087EA
:102B00000C0200202DE9F04107460E461446F0B2B3
:102B1000C0F58075AC4200DC254612E02A463146FD
:102B2000384600F013F8AC4200D10BE02F442E449D
:102B3000601B84B2B4F5807F02DD4FF4807500E045
:102B40002546EBE700BFBDE8F08100002DE9F0412C
:102B500006460C461746FFF7ABFE00200F490860FB
:102B60000220FFF75BFEC4F30740FFF757FEC4F3F4
:102B70000720FFF753FEE0B2FFF750FE002504E008
:102B8000705DFFF74BFE681C85B2BD42F8DB01208B
:102B900002490860FFF752FFBDE8F081BC01214205
:102BA0000246002013890B400BB1012000E00020F9
:102BB00070470146888970478181704710B50022AF
:102BC000028802F441520B884C8823438C882343AB
:102BD000CC8823430C8923434C8923438C8923438A
:102BE000CC8923431A430280838B4FF2FF74234026
:102BF00083830B8A038210BD0021082117E000F0B7
:102C0000800222B14FF400420A4B1A6004E04FF4F4
:102C10000042084B1B1D1A604FF40052054B1B1D50
:102C20001A601B1F1A604206100E4A1ED1B20029FC
:102C3000E5DC7047100C01404FF6F8710140014A85
:102C400011607047505C004030B501460E4B1A7859
:102C5000002011E003060D4C04EB9353D3F8003C25
:102C600048F68F742340C4B223430406074D05EB96
:102C70009454C4F8003C401C9042EBD341F08003D4
:102C8000034C236030BD0000740100200050004060
:102C90004C5C004010B54A105300054A126892B2CD
:102CA00002EBC002121D034C44F8123010BD0000AC
:102CB000505C00400060004010B502460F480068BC
:102CC00080B200EBC200801D0D4C04EB40033E2996
:102CD0000BDD481101F01F040CB9441EA0B24FF4E3
:102CE000004444EA80241C6007E0481001F001041D
:102CF0000CB1441CA0B284021C6010BD505C0040AA
:102D00000060004010B50C4C04EB8003D3F8003C8D
:102D10004BF68F7403EA040201F480530BB182F482
:102D2000805201F400530BB182F40052024C04EBC8
:102D30008003C3F8002C10BD00500040094B03EB8A
:102D40008002D2F8002C4BF68F7302EA030181F463
:102D5000805181F40051034B03EB8002C2F8001C48
:102D6000704700000050004010B54A105200044B5C
:102D70001B689BB203EBC003024C44F8132010BD48
:102D8000505C004000600040044A126892B202EBBE
:102D9000C002921C024B43F812107047505C004076
:102DA0000060004010B50C4C04EB8003D3F8003CED
:102DB00048F6BF7403EA040201F010030BB182F07D
:102DC000100201F020030BB182F02002024C04EB50
:102DD0008003C3F8002C10BD0050004010B5074B15
:102DE00003EB8002D2F8002C48F68F131A400A43F6
:102DF000024C04EB8003C3F8002C10BD00500040CF
:102E000010B500F001F810BD0CB500200190009045
:102E10003348006840F480303149086000BF3048D2
:102E2000006800F4003000900198401C0190009868
:102E300018B90198B0F5A06FF1D12948006800F4E5
:102E4000003010B10120009001E0002000900098B7
:102E5000012843D12348006840F010002149086050
:102E60000846006820F0030008600846006840F04B
:102E7000020008601A4840681949486008464068DE
:102E800048600846406840F48060486008464068F2
:102E900020F47C1048600846406840F4E810486020
:102EA0000846006840F08070086000BF0C48006869
:102EB00000F000700028F9D00948406820F00300B5
:102EC000074948600846406840F00200486000BF7B
:102ED0000348406800F00C000828F9D10CBD000040
:102EE000001002400020024070B505460C460C4818
:102EF0000C490860084605730D22982100F0B0FCCB
:102F00000D210120FFF740FF0520074908702CB173
:102F10000420087030210120FFF744FF70BD00003D
:102F200055534253501500200C010020014B99705D
:102F30001A737047E500002010B50020FFF774F900
:102F40000121C805FFF7E6F810BD000008B52848C4
:102F5000006880B2001D274931F8100080B201EBF3
:102F60004000009024480068007A09282FD000987B
:102F700000782149096808700098401C009000986A
:102F800000781D49096848700098401C009000981E
:102F9000801C0090009931F8020B0091FDF7BAFAFD
:102FA0001549096848800098801C0090009931F804
:102FB000020B0091FDF7AEFA0F490968888000986E
:102FC000801C0090009800880B490968C880012087
:102FD00009490968087208480068C08810B9FEF7F6
:102FE00077FF01E0FDF7F8FEFFF750F808BD00009D
:102FF000505C004000600040400000202DE9F04798
:1030000050480068007800F07F08B8F1000F0AD13E
:103010004C480068407A00F0DF004A49096848726D
:103020000020BDE8F087B8F1020F7DD14548006867
:10303000408818B943480068007908B10220F0E7D9
:10304000DFF804913F480068477927F080052C4657
:103050003C480068407900F0800038B13B4901EB02
:103060008400D0F8000C00F0300606E0374901EB90
:103070008400D0F8000C00F4405699F80000A842F3
:1030800004D91EB12F480068807A08B90220C8E729
:1030900007F0800080B12D4901EB8400D0F8000CCE
:1030A00000F03000102843D1E0B2FDF7ADFDE0B2F2
:1030B0003021FFF777FE3BE0244901EB8400D0F894
:1030C000000C00F44050B0F5805F31D1C4B9204A03
:1030D00092F82C10E0B2FFF7EFFD1C4A02EB8401DE
:1030E000D1F8001C4BF68F7201EA020080F4805088
:1030F00080F40050154A02EB8401C1F8000C17E07F
:10310000E0B2FDF767FD114A02EB8401D1F8001C23
:103110004BF68F7201EA020080F4805080F4005078
:103120000A4A02EB840100E008E0C1F8000C00BF8D
:103130000849096848698047002072E700BF0220FB
:103140006FE70000400000207401002000500040A4
:10315000780100204C00002010B504462CB9012055
:10316000064909680882002010BD054909680868F9
:103170008047024800680A30F6E70000400000205F
:103180004C00002010B5024606480068438A32B958
:103190008888C01A034C24682082002010BD08686B
:1031A0001844FBE74000002010B504462CB901206C
:1031B000064909680882002010BD05490968886829
:1031C0008047024800680C30F6E70000400000200D
:1031D0004C00002010B504462CB90220354909687E
:1031E0000882002010BD0020334908803148006863
:1031F000007800F07F00E0B92E490968487A00F0B5
:10320000200129B12C49097841F002012A4A1170A4
:1032100000F0400131B12849097801F0FE01264A49
:10322000117005E02449097841F00101224A11702A
:103230003AE020480068007800F07F00012801D1C2
:103240001D48CFE71B480068007800F07F00022887
:1032500028D1184A1268517901F00F0001F080025C
:103260007AB1164B03EB8002D2F8002C02F0300248
:10327000102A16D1104A127842F001020E4B1A7031
:103280000FE00E4B03EB8002D2F8002C02F4405208
:10329000B2F5805F05D1084A127842F00102064B70
:1032A0001A7001E000209DE7054909680869804718
:1032B000014897E740000020360000200050004001
:1032C0004C00002010B50E480068C0780D494978C0
:1032D000884213DC0A480068807878B9084800689A
:1032E000808858B906480068C0780549096888721E
:1032F0000549096848688047002010BD0220FCE7A6
:1033000040000020740100204C00002010B5074848
:103310000068407A40F02000044909684872044976
:103320000968C8698047002010BD000040000020E7
:103330004C0000202DE9F0412A480068467926F02B
:1033400080073C4627480068407900F0800038B18B
:10335000254901EB8400D0F8000C00F0300506E0B0
:10336000214901EB8400D0F8000C00F440551F48BF
:103370000078A04208D91B480068408820B91DB1D8
:1033800018480068807A10B90220BDE8F08106F084
:10339000800080B1144A02EB8401D1F8001C48F689
:1033A000BF7201EA020080F010000F4A02EB8401B4
:1033B000C1F8000C10E00C4A02EB8401D1F8001CAB
:1033C0004BF68F7201EA020080F48050064A02EB4D
:1033D0008401C1F8000C00BF05490968886980476D
:1033E0000020D2E74000002000500040740100207F
:1033F0004C00002010B5174B1B68D978154B1B6883
:103400005879154B1B689A69904704461148006823
:10341000807AE8B13CB90F480068007918B90D48C6
:103420000068807808B1022010BD8CB90B4909688A
:10343000C868804707480068407906490968C8722B
:1034400004480068C0780349096808730020EBE766
:103450000220E9E740000020440000204C0000204A
:10346000042808D14FF0E021096941F004014FF030
:10347000E022116107E04FF0E021096921F0040129
:103480004FF0E0221161704710B51348006840F01A
:1034900001001149086008464068104908400E497B
:1034A0004860084600680E4908400B490860084615
:1034B000006820F4802008600846406820F4FE0080
:1034C00048604FF41F008860FFF79AFC4FF00060DF
:1034D0000449086010BD0000001002400000FFF821
:1034E000FFFFF6FE08ED00E070B505460C462246EB
:1034F0009821284600F0B4F921460120FFF744FC4A
:1035000030210120FFF74EFC0320054908700548D3
:103510008068001B034988600020087370BD0000AC
:103520000C0100205015002010B540F225511D4817
:1035300000F04AF810B31B4800F002F9C4B21A4870
:10354000008800F40040C8B91748008800F48040A3
:1035500060B10A2C03D000201349088020E01248F3
:10356000008840F400401049088019E00D2C06D175
:103570000D48008840F480400B49088010E00A485C
:103580000088C0F30D0009490C5407480088401C0E
:103590000549088008460088C72801DD002008800A
:1035A00010BD000000380140200000200C12002057
:1035B00021B1828942F40052828104E082894DF671
:1035C000FF731A408281704770B5024600240023C1
:1035D0000025002040F66A16B14200D100BFC1F3B9
:1035E000421501F01F03012606FA03F3012D02D153
:1035F0009689334006E0022D02D1168A334001E05D
:10360000968A33400C12012606FA04F416883440D8
:1036100013B10CB1012000E0002070BDF0B50346ED
:10362000002400260025002040F66A17B94200D188
:1036300000BF1846C1F3421401F01F06012707FA24
:1036400006F5012C01D10C3004E0022C01D1103020
:1036500000E014301AB107682F43076002E00768E2
:10366000AF430760F0BD00002DE9F04786B0054686
:103670000E460024A24600BFA1460027B08900B133
:1036800000BF2F462C8A4CF6FF700440F08804439C
:103690002C82AC894EF6F3100440B088318908437F
:1036A000718908430443AC81AC8A4FF6FF40044063
:1036B000B0890443AC8201A8FEF74CFD1F48874245
:1036C00002D1DDF810A001E0DDF80CA0A88900F41B
:1036D000004040B10AEBCA0000EB0A103168490013
:1036E000B0FBF1F807E00AEBCA0000EB0A10316802
:1036F0008900B0FBF1F86420B8FBF0F00401200968
:10370000642101FB1089A88900F4004040B13220F7
:1037100000EBC900B0FBF1F000F00700044308E043
:10372000322000EB09106421B0FBF1F000F00F0033
:1037300004432C8106B0BDE8F0870000003801404A
:1037400001468888C0F308007047704718B101210E
:10375000034A116002E00021014A11607047000035
:10376000A001214210B5FDF73DF810BD10B5084885
:10377000084908600220096808720748074908607C
:10378000074808490860054909680868804710BD6E
:10379000D4120020400000207801002044000020C6
:1037A000A80100204C0000200EB54FF4A060FEF7E9
:1037B00085FB4FF48020FDF763FC4FF480200090E0
:1037C00008208DF8050001208DF806006846FDF7F9
:1037D0005DFC14208DF8080001208DF80900002000
:1037E0008DF80A0001208DF80B0002A8FEF72EFBD1
:1037F0002A208DF8080000208DF8090002A8FEF7A5
:1038000025FB0EBD10B50F4800680F49088008461B
:10381000008800F480600D490988084030B14FF6F7
:10382000FF30084908600A49486880470648008810
:1038300000F4004005490988084008B1FDF736F852
:1038400010BD0000445C0040340100204A0000200C
:103850007801002010B5FFF7D5FF10BD70470000BC
:10386000F0B5144604F1010C4FEA6C07DFF824C0F0
:103870000CEB41033D460AE00678401C90F800C07E
:1038800046EA0C2223F8022B9B1C401C6D1E002DC7
:10389000F2D1F0BD006000402DE9F04104460D4634
:1038A00016464248006800F140084148007870B967
:1038B000404850F8240068433F4908603D4850F8AC
:1038C000240070433D490860012039490870384898
:1038D0000078012856D100203949086010E03848A6
:1038E00001680068401C364A10603648415C364822
:1038F0002E4A126881542D480068401C2B490860EC
:103900002A4800684045EAD32B4800682F490988B7
:10391000084429490860294800682C490988401A48
:1039200026490860234850F824000968B1FBF0F2EA
:1039300000FB1210C0B900201C4908601D4830F877
:10394000240083B21B4850F824001B4A1268111A45
:103950001D4A2046FEF75EF8C7B22FB11C4800781A
:1039600040F004001A4908701A488068174909880D
:10397000401A184988604FF440510220FFF7C2F9FD
:10398000FEF71CF80D48006818B1134800780428A9
:103990000AD10020054908600121FFF7A5FA00209F
:1039A00003490870FEF704F8BDE8F08170000020BC
:1039B00078000020600000208400002088000020A3
:1039C00074000020F0140020F01200200E010020EE
:1039D00079000020501500200C01002000BF704726
:1039E00010B56FF00400FFF73BFD0A4800680A4974
:1039F000B0FBF1F0094908700846007800EB40017F
:103A0000C1EBC0104FF6FF7101EAC0000449088005
:103A100010BD00000000002000127A0016000020F7
:103A2000180000200146114A12884A434FF0E02353
:103A30005A6100229A611A46126942F001021A6123
:103A400000BF4FF0E022106900F001021AB100F44B
:103A50008032002AF5D04FF0E022126922F00102F4
:103A60004FF0E0231A6100229A617047180000208D
:103A700000BF054A128802F04002002AF9D0C2B203
:103A8000014B1B1D1A8070470038014008B5002407
:103A90000025FFF7A5FFFEF7D2F94FF4165000F00E
:103AA0009FF9FDF7DFFDFDF787FDFDF710FE4EF6F0
:103AB0007D70FDF7F3FD82A04EF67D734FF47842E2
:103AC000102100900020FDF765FC82A04EF67D736A
:103AD0001F22202100900020FDF75CFC82A04EF602
:103AE0007D731F22302100900020FDF753FC83A03E
:103AF000FCF7D4FB85A0FCF7D1FBFEF70DFF88484F
:103B000000884EF61471884209D086A04EF67D7367
:103B10001F22502100900020FDF73CFC1EE04FF4D6
:103B200000110020834AC2E900100813824908608E
:103B30000846D0F800C0104662460023D0E9007164
:103B40003846FCF786FB7D4908607DA04EF67D7304
:103B50001F22502100900020FDF71CFC4FF44870FC
:103B6000FFF760FF002000F08BF94FF49670FFF72D
:103B700059FF012000F084F977A04EF67D731F22D3
:103B8000502100900020FDF705FCFFF70DFEFFF728
:103B9000D3F9FFF7EBFD4FF4E160FFF743FF8EE051
:103BA0000120FFF73FFF71480078864247D04EF66C
:103BB0007D70FDF773FD6D48007800F0010040B1A5
:103BC0006BA04EF67D731F22502100900020FDF760
:103BD000E1FB6648007800F0020040B168A04EF6B4
:103BE0007D731F22502100900020FDF7D3FB5F481A
:103BF000007800F0040048B165A04EF67D731F22E6
:103C0000502100900020FDF7C5FB03E04EF67D70CB
:103C1000FDF744FD5548007800F0080048B160A069
:103C20004EF67D731F22502100900020FDF7B2FB5D
:103C300003E04EF67D70FDF731FD4C4806785C4898
:103C4000006881451AD05A480068052809D159A052
:103C50004EF67D731F22502100900020FDF79AFB45
:103C600008E059A04EF67D731F22502100900020DD
:103C7000FDF790FB4E48006800F0FF09681CC5B2D4
:103C8000C82D1CD100255548006808B9012000E066
:103C90000020524908603548007800F0100020B13B
:103CA000002405204249086006E0601CC4B20A2CCA
:103CB00002DD00203E49086000202C4908706FE7B3
:103CC0002053544D333220555342204449534B2006
:103CD000200000002020C7B6C8EBCABDBFAAB7A20B
:103CE000CDF82020000000006D63756465762E74A9
:103CF000616F62616F2E636F6D200000C7B6C8EB05
:103D0000CABDBFAAB7A2CDF80D0A00006D637564E5
:103D100065762E74616F62616F2E636F6D0D0A00A0
:103D200014000020573235513136204572726F72BF
:103D300021000000580000206000002064000020E6
:103D400053504920464C4153482053697A653A32D2
:103D50003034384B4200000055534220436F6E6EA2
:103D6000656374696E672E2E2E00000079000020B6
:103D70005553422057726974696E672E2E2E0000CB
:103D80005553422052656164696E672E2E2E0000E5
:103D900055534220577269746520457272200000A5
:103DA0005553422052656164202045727220000004
:103DB0000402002055534220436F6E6E65637465A4
:103DC00064202020200000005553422044697343A2
:103DD0006F6E6E656374656420000000A00121426F
:103DE00010B586B00446012144F20400FEF7A2F9A2
:103DF0004FF40070ADF8140003208DF81600182061
:103E00008DF8170005A91C48FDF78AF94FF480606A
:103E1000ADF8140004208DF8170005A91648FDF729
:103E20007FF925208DF8000003208DF801008DF822
:103E3000020001208DF803006846FEF707F80194A0
:103E40000020ADF80800ADF80A00ADF80C00ADF8A0
:103E500010000C20ADF80E0001A90848FFF704FC83
:103E6000012240F225510548FFF7D8FB0121034804
:103E7000FFF79EFB06B010BD00080140003801406E
:103E800010B5044601210420FEF754F93CB10F4857
:103E9000006880B220F002000C49086014E00B4872
:103EA000006880B240F002000849086008480068D5
:103EB00020F47F20064908600846006840F44C3032
:103EC000086000200349086010BD0000405C00400D
:103ED00004080140B0012142000000000000000081
:103EE0000000000000000000001010101010101062
:103EF000101000001010000000006C6C2424000062
:103F000000000100000000000024242424FE484892
:103F10004848FC909090900000103C54929050388B
:103F200014121292547810000000225C94A84810D9
:103F300010242A5254880000000030484850206E57
:103F400054948C888A7400000000303010100000F7
:103F500000000000000000000004081010202020D5
:103F60002020201010080400008040202010101095
:103F70001010102020408000000000001054381065
:103F8000385410000000000000000010101010FE57
:103F900010101010000000000000000000000000E1
:103FA000000000001010200000000000000000FED3
:103FB0000000000000000000000000000000000001
:103FC0000000000010100000000004040808101099
:103FD000202040408080000000003844828282829D
:103FE000828282824438000000001070101010108D
:103FF00010101010107C0000000038448282040869
:104000001020408284FC0000000038448202043802
:1040100004020282443800000000040C141424241A
:104020004444FE04040E00000000FC808080B8C4FC
:10403000820202828478000000003C428280B8C480
:10404000828282824438000000007E42820404089A
:104050000808101010100000000038448282443814
:104060004482828244380000000038448282828286
:10407000463A0282443800000000000010100000A0
:1040800000001010000000000000000010100000F0
:1040900000000010102000000000000006186080E2
:1040A0006018060000000000000000000000FE0094
:1040B00000FE00000000000000000000C0300C0204
:1040C0000C30C00000000000003844828202040866
:1040D000101010001010000000003844829AAAAAA4
:1040E000AAAAAA9680423C00000010101028282896
:1040F00044447C4444EE00000000FC424242427CC6
:104100004242424242FC000000003C4482808080E7
:1041100080808282443800000000F84442424242DB
:104120004242424244F800000000FC444240447CC9
:104130004440404244FC00000000FC444240447CB7
:104140004440404040F000000000344C82808080B9
:104150008E8484844C3400000000EE444444447C4B
:104160004444444444EE000000007C101010101041
:1041700010101010107C000000003E08080808080D
:1041800008080888887000000000EE444848506025
:104190005048484444EE00000000E04040404040A9
:1041A0004040404244FC00000000C6446C6C6C542B
:1041B0005454444444EE00000000CE44646464540B
:1041C000544C4C4C44E4000000003844828282820B
:1041D00082828282443800000000F8444242424415
:1041E0007840404040E000000000384482828282F3
:1041F000828282BA443C02000000F04844444448B1
:104200007048444444E6000000003C448280403052
:104210000C0202824478000000007C5492101010BE
:1042200010101010103800000000EE4444444444C4
:1042300044444444443800000000EE4444444428CC
:1042400028282810101000000000EE445454545444
:1042500054542828282800000000EE444428281040
:104260001028284444EE00000000EE44442828288A
:10427000101010101038000000007E448408081050
:104280002020408284FC0000001C10101010101030
:104290001010101010101C000000EE445454FE5476
:1042A00054542828282800000070101010101010F6
:1042B0001010101010107000003048840000000032
:1042C00000000000000000000000000000000000EE
:1042D000000000000000FE00004020000000000080
:1042E00000000000000000000000000000007884D2
:1042F000047C84848C7600000000C04040405864F8
:10430000424242426458000000000000000038446D
:10431000808080804438000000000C040404344C89
:10432000848484844C3600000000000000007884FF
:1043300084FC808084780000000018242020F8206D
:1043400020202020207000000000000000003A44DF
:104350004478807C82827C000000C04040405864E9
:104360004444444444EE00000000101000003010AB
:104370001010101010380000000010100000301055
:1043800010101010109060000000C04040405C48C9
:104390005060504844EE0000000030101010101122
:1043A0001010101010390000000000000000ACD206
:1043B0009292929292D6000000000000000058E411
:1043C0004444444444EE000000000000000038442F
:1043D0008282828244380000000000000000D8641D
:1043E000424242645840E000000000000000364CA9
:1043F0008484844C34040E000000000000006C3003
:10440000202020202070000000000000000078889C
:104410008460188444780000000000202020F820E8
:104420002020202024180000000000000000C642C8
:1044300042424242463A0000000000000000EE44C2
:104440004428282810100000000000000000EE445E
:104450004454542828280000000000000000EE44C6
:104460002810102844EE0000000000000000EE4478
:104470004428281010A0C0000000000000007E4466
:104480008810204284FC0000000C101010101060F6
:104490001010101010100C00001010101010101040
:1044A000101010101010100000C020202020201824
:1044B000202020202020C00000000000000000720A
:1044C0008C000000000000000000000000001FE061
:1044D00000003FF000003FF000001FE000018006F8
:1044E0000003C00F0003C00F0003C00F0003C00F84
:1044F0000003C00F0003C00F0003C00F0003C00F74
:1045000000030003000000000000000000000000A5
:10451000000300030003C00F0003C00F0003C00F1F
:104520000003C00F0003C00F0003C00F0003C00F43
:104530000003C00F0001800600001FE000003FF0F4
:1045400000003FF000001FE000000000000000003D
:104550000000008000000180000003800000078050
:10456000000007800000078000000780000007802F
:10457000000007800000078000000780000007801F
:1045800000000180000000000000000000000000AA
:104590000000018000000780000007800000078005
:1045A00000000780000007800000078000000780EF
:1045B00000000780000007800000038000000180E9
:1045C00000000080000000000000000000001FE06C
:1045D00000003FF00000FFF00001FFE000000006D7
:1045E0000000000F0000000F0000000F0000000F8F
:1045F0000000000F0000000F0000000F0000000F7F
:1046000000001FE300007FF800007FF800001FE0BB
:10461000000300000003C0000003C0000003C0004E
:104620000003C0000003C0000003C0000003C0007E
:104630000003C0000001800000001FF000003FF8F0
:1046400000003FFC00001FFE000000000003FF8090
:104650000001FFC00000FFC000007F8000000018C4
:104660000000003C0000003C0000003C0000003C5A
:104670000000003C0000003C0000003C0000003C4A
:1046800000007F8C0001FFE00001FFF000007F8050
:104690000000000C0000003C0000003C0000003C5A
:1046A0000000003C0000003C0000003C0000003C1A
:1046B0000000003C0000001800007F800000FFC0E8
:1046C0000001FFC00003FF800000000000000000A8
:1046D0000002000100030003000380070003C00F75
:1046E0000003C00F0003C00F0003C00F0003C00F82
:1046F0000003C00F0003C00F0003C00F0003C00F72
:1047000000031FE300007FF800007FFC00001FE0B3
:10471000000000030000000F0000000F0000000F69
:104720000000000F0000000F0000000F0000000F4D
:104730000000000F0000000F000000070000000351
:1047400000000001000000000000000000001FFC4D
:1047500000003FF800003FF000001FE00001800073
:104760000003C0000003C0000003C0000003C0003D
:104770000003C0000003C0000003C0000003C0002D
:1047800000031FE000007FF800007FF800001FE03A
:10479000000000030000000F0000000F0000000FE9
:1047A0000000000F0000000F0000000F0000000FCD
:1047B0000000000F0000000600003FE000007FF056
:1047C0000000FFF00001FFE00000000000001FFCFF
:1047D00000003FF800003FF000001FE000018000F3
:1047E0000003C0000003C0000003C0000003C000BD
:1047F0000003C0000003C0000003C0000003C000AD
:1048000000031FE000007FF800007FFC00001FE0B5
:10481000000300030003C00F0003C00F0003C00F1C
:104820000003C00F0003C00F0003C00F0003C00F40
:104830000003C00F0001800600001FE000003FF0F1
:1048400000003FF000001FE0000000000007FFE054
:104850000003FFC00001FF880000FF1800000038BF
:104860000000007800000078000000780000007868
:104870000000007800000078000000780000007858
:104880000000001800000000000000000000000010
:104890000000001800000078000000780000007898
:1048A0000000007800000078000000780000007828
:1048B00000000078000000780000003800000018B8
:1048C00000000008000000000000000000001FE0E1
:1048D00000003FF000003FF000001FE000018006F4
:1048E0000003C00F0003C00F0003C00F0003C00F80
:1048F0000003C00F0003C00F0003C00F0003C00F70
:1049000000031FE300007FF800007FFC00001FE0B1
:10491000000300030003C00F0003C00F0003C00F1B
:104920000003C00F0003C00F0003C00F0003C00F3F
:104930000003C00F0001800600001FE000003FF0F0
:1049400000003FF000001FE00000000000001FE03A
:1049500000003FF000003FF000001FE00001800673
:104960000003C00F0003C00F0003C00F0003C00FFF
:104970000003C00F0003C00F0003C00F0003C00FEF
:1049800000031FE300007FF800007FFC00001FE031
:10499000000000030000000F0000000F0000000FE7
:1049A0000000000F0000000F0000000F0000000FCB
:1049B0000000000F0000000600001FE000003FF0B4
:1049C00000007FF00000FFE0000000000000000099
:1049D00000000000000000000000000000000000D7
:1049E00000000000000000000000000000000000C7
:1049F00000000000000000000000000000000000B7
:104A000000000000000000000000000000000000A6
:104A1000000000000000000000000000000078001E
:104A200000007800000078000000780000007800A6
:104A300000007800000000000000000000000000FE
:104A40000000000000000000000000000000000066
:104A50000000000000000000000000000000000056
:104A600000000000000000000000070000000F80B0
:104A700000000F8000000F80000007000000000011
:104A80000000000000000000000000000000000026
:104A9000000000000000070000000F8000000F80F1
:104AA00000000F8000000700000000000000000070
:104AB00000000000000000000000000000000000F6
:104AC00000000000000000000000000000000000E6
:104AD00000000000000000000007C006000FE00614
:104AE0000000000C00301818003018180030183082
:104AF0000030183000301860003008C00007C0C017
:104B0000000FE080000000000000000FE00006073A
:104B1000C000063018000C3018000C301800183097
:104B20001800303018003030180060000000C00F4E
:104B3000E000C007C000000000000000000000000E
:104B40000000000000000000000000000000000065
:104B50000000000000000000000000000000000055
:104B6000000700E0000887FC00088E030008980199
:104B70008007180080003000000030000000700046
:104B800000006000000060000000600000006000A5
:104B900000006000000070000000300000003000E5
:104BA000000038000000180100000C03000007FCA2
:104BB000000001F000000000000000000000000004
:104BC00000000000000000000000000000000000E5
:104BD00000000000000000000000000000000000D5
:104BE00000000000000000000000000000000000C5
:104BF00000000000000000000000000000000000B5
:104C00000000000000003FF000007FF000007FE0A7
:104C10000000FFC0000000000000000000000000D5
:104C20000000000000000000000000000000000084
:104C30000000000000000000000000000000000074
:104C400000000000000000000000C7B601002108BD
:104C500021083FF800202220223EFF422294221009
:104C60003E10221022283E2822440082C8EB040075
:104C70000200010001000100028002800280044065
:104C80000440082008201010201040088006CABDEB
:104C90000048004400440040FFFE004000403E4009
:104CA00008400840082008220F12780A2006000257
:104CB000BFAA00007FFC0820082008200820082048
:104CC000FFFE0820082008200820102010202020A7
:104CD0004020B7A201001110110822003FFC020081
:104CE000040007F80A080908111010A0204040A08D
:104CF00003181C06CDF800007FFC40044004421459
:104D000052944A54442444244A544A5452946104C8
:104D100040044014400800000000000000000000B3
:104D20000000000000000000000000000000000083
:104D30000000000000000000000000000000000073
:104D40000000000000000000000000000000000063
:104D50000000000000000000000000000000000053
:104D60000000000000000000000000000000000043
:104D70000000000000000000000000000000000033
:104D800000001201000200000040830420570002CE
:104D90000102030109022000010100C032090400E0
:104DA00000020806500407058102400000070502C2
:104DB00002400000040309041A037F5EDE5D1F66E3
:104DC000FC7F3575505BD1796280096750966C51D4
:104DD000F853200341004C00490045004E005400A8
:104DE00045004B002000530044006153FB8B61538E
:104DF000685610035300540020004D0061007300FA
:104E000073000000244E0008000000200C02000087
:104E10006C010008F04E00080C020020B4190000DC
:104E2000C80100081184A24A04000B100102030407
:104E30000607080914EF291A691E055C0204060812
:104E400035800202202D53544D2001180E5344206A
:104E5000466C617368204469736B10ED312E30200D
:104E600024BC4E414E26292442036206627002157C
:104E70000A39CD021002141A03531254124D123380
:104E8000123212310211301371100C18083D1E0439
:104E90000A15792041230301135D1C1408691B1BAB
:104EA0000859081A5B0413451A1B080D101AF50857
:104EB0001AB9041AA5041ACD04413240293CDA017A
:104EC0004C1AA138690C1A310413824D3308121A96
:104ED000940832201AB40832041AB808321A5AD286
:104EE000181318012A20101AF210721019931100C9
:0400000508000131BD
:00000001FF
