:020000040800F2
:1000000060070020CD0100082D09000851050008F7
:10001000290900087D0200083B10000800000000CC
:10002000000000000000000000000000190B0008A4
:100030008102000800000000C10900082D0C000822
:10004000E7010008E7010008E7010008E7010008F0
:10005000E7010008E7010008E7010008E7010008E0
:10006000E7010008E7010008E7010008E7010008D0
:10007000E7010008E7010008E7010008E7010008C0
:10008000E7010008E7010008E7010008E7010008B0
:10009000E7010008E7010008E7010008E7010008A0
:1000A000E7010008E7010008E7010008E701000890
:1000B000E7010008910C0008E7010008E7010008CB
:1000C000E7010008E7010008E7010008E701000870
:1000D000E7010008190E0008E7010008E701000821
:1000E000E7010008E7010008E7010008E701000850
:1000F000E7010008E7010008E7010008E701000840
:10010000E7010008E7010008E7010008E70100082F
:10011000E7010008E7010008E7010008E70100081F
:10012000E7010008E7010008E7010008E70100080F
:1001300000F002F800F03AF80AA090E8000C8244BF
:100140008344AAF10107DA4501D100F02FF8AFF29C
:10015000090EBAE80F0013F0010F18BFFB1A43F0A5
:1001600001031847681F0000881F0000103A24BFD1
:1001700078C878C1FAD8520724BF30C830C144BF0C
:1001800004680C607047000000230024002500264E
:10019000103A28BF78C1FBD8520728BF30C148BFEA
:1001A0000B6070471FB51FBD10B510BD00F033F8D0
:1001B0001146FFF7F7FF00F08DFF00F051F803B490
:1001C000FFF7F2FF03BC00F03AFF00000948804748
:1001D00009480047FEE7FEE7FEE7FEE7FEE7FEE729
:1001E000FEE7FEE7FEE7FEE704480549054A064B41
:1001F00070470000310C0008310100086001002048
:1002000060070020600300206003002070477047F3
:10021000704770477047754600F02CF8AE460500F1
:100220006946534620F00700854618B020B5FFF711
:10023000DBFFBDE820404FF000064FF000074FF015
:1002400000084FF0000B21F00701AC46ACE8C009F4
:10025000ACE8C009ACE8C009ACE8C0098D467047FD
:1002600010B50446AFF300802046BDE81040FFF70C
:10027000A6BF000000487047FC00002000BFFEE75A
:1002800070472DE9F041024600250026002000239A
:100290000024002791F803C00CF00F0591F803C06B
:1002A0000CF0100CBCF1000F03D091F802C04CEA26
:1002B000050591F800C0BCF1000F31D01468002092
:1002C0002BE04FF0010C0CFA00F3B1F800C00CEA7F
:1002D00003069E4220D183004FF00F0C0CFA03F767
:1002E000BC4305FA03FC4CEA040491F803C0BCF1DA
:1002F000280F06D14FF0010C0CFA00FCC2F814C014
:100300000AE091F803C0BCF1480F05D14FF0010C91
:100310000CFA00FCC2F810C0401C0828D1D31460AD
:10032000B1F800C0BCF1FF0F34DD546800202EE0AE
:1003300000F1080C4FF0010808FA0CF3B1F800C006
:100340000CEA03069E4221D183004FF00F0C0CFAF9
:1003500003F7BC4305FA03FC4CEA040491F803C01C
:10036000BCF1280F05D100F1080C08FA0CF8C2F80E
:10037000148091F803C0BCF1480F07D100F1080CBC
:100380004FF0010808FA0CF8C2F81080401C082849
:10039000CED35460BDE8F081016170472DE9F84F7C
:1003A0000746884693469A46DDF828900097B3E0C2
:1003B00099F8000080283DDA99F800600D2E05D1EB
:1003C000009F08F110001FFA80F830E0202E03DDB6
:1003D000A6F1200086B200E00026002422E00025DD
:1003E0001CE004EB06105049085C802129410840BC
:1003F00040B108EB040291B27A1990B25A4600F06B
:1004000097F809E0D34507D008EB040291B27A19B6
:1004100090B2524600F08CF8681CC5B2082DE0DBA3
:10042000601CC4B2102CDADB07F1080087B209F1B6
:10043000010971E0002668E006EB06103B4911F85F
:10044000100099F8001088425DD106EB061037497C
:1004500001EB4000407899F80110884253D1002404
:100460004FE0002520E006EB0610304901EB40008C
:10047000801C10F8141080202841014041B108EB85
:10048000040291B27A1990B25A4600F051F809E08C
:10049000D34507D008EB040291B27A1990B25246C4
:1004A00000F046F8681CC5B2082DDCDB002524E00E
:1004B00006EB06101D4901EB4000801C012101EBF9
:1004C0004401405C80212941084048B108EB040206
:1004D00091B27A19083290B25A4600F029F80AE02F
:1004E000D34508D008EB040291B27A19083290B2D1
:1004F000524600F01DF8681CC5B2082DD8DB601C00
:10050000C4B2102CADDB701C86B2062E94DB09F150
:10051000020907F1100087B299F8000000287FF463
:1005200047AFBDE8F88F000020120008921F0008B6
:1005300070B504460D461646681C83B2601C82B234
:100540002946204600F098F9304600F02DF870BD9D
:1005500000BFFEE708B50121182000F043FA4FF470
:100560007040ADF8000003208DF8020010208DF8D7
:10057000030069460A48FFF784FEC020ADF800007A
:1005800003208DF8020010208DF80300694605480D
:10059000FFF777FE8020034908614861086108BDC4
:1005A000000C01400010014010B504464FF480508B
:1005B00008490860402008490861201200F08CFAC0
:1005C000E0B200F089FA4FF480500249091F086038
:1005D00010BD0000140C01400010014008B50121BD
:1005E000042000F0FFF94FF48070ADF800001020F7
:1005F0008DF8030003208DF8020069460448FFF7D8
:1006000040FE4FF480710248FFF7C6FE08BD0000AF
:100610000008014070B506467F231A4600210846AF
:1006200000F02AF92C2000F069F9002408E00025E8
:1006300003E03046FFF7B8FF6D1C802DF9D3641C32
:10064000802CF4D370BD10B5FFF784FF00F00CF9D7
:10065000112000F053F9782000F016FDB12000F0D1
:100660004DF9012000F034F92C2000F031F92D2053
:1006700000F02EF9B22000F041F9012000F028F935
:100680002C2000F025F92D2000F022F9B32000F0F5
:1006900035F9012000F01CF92C2000F019F92D206B
:1006A00000F016F9012000F013F92C2000F010F9E9
:1006B0002D2000F00DF9B42000F020F9072000F003
:1006C00007F9C02000F01AF9A22000F001F9022079
:1006D00000F0FEF8842000F0FBF8C12000F00EF9D5
:1006E000C52000F0F5F8C22000F008F90A2000F05B
:1006F000EFF8002000F0ECF8C32000F0FFF88A20AB
:1007000000F0E6F82A2000F0E3F8C42000F0F6F844
:100710008A2000F0DDF8EE2000F0DAF8C52000F0C5
:10072000EDF80E2000F0D4F8362000F0E7F8C820ED
:1007300000F0CEF8E02000F0E1F80F2000F0C8F85B
:100740001A2000F0C5F80F2000F0C2F8182000F0C1
:10075000BFF82F2000F0BCF8282000F0B9F82020C6
:1007600000F0B6F8222000F0B3F81F2000F0B0F837
:100770001B2000F0ADF8232000F0AAF8372000F08D
:10078000A7F8002000F0A4F8072000F0A1F802204C
:1007900000F09EF8102000F09BF8E12000F0AEF889
:1007A0000F2000F095F81B2000F092F80F2000F0C9
:1007B0008FF8172000F08CF8332000F089F82C20F7
:1007C00000F086F8292000F083F82E2000F080F851
:1007D000302000F07DF8302000F07AF8392000F069
:1007E00077F83F2000F074F8002000F071F807203F
:1007F00000F06EF8032000F06BF8102000F068F8AD
:100800002A2000F07BF8002000F062F8002000F0C1
:100810005FF8002000F05CF87F2000F059F82B20F2
:1008200000F06CF8002000F053F8002000F050F8C1
:10083000002000F04DF89F2000F04AF8F02000F072
:100840005DF8012000F044F8F62000F057F8002091
:1008500000F03EF83A2000F051F8052000F038F89A
:10086000292000F04BF810BD10B5642000F00CFCFE
:10087000322000F009FC10BDF0B504460D461646C6
:100880001F462A2000F03AF8002000F021F8A11CB1
:10089000C8B200F01DF8002000F01AF8B11CC8B270
:1008A00000F016F82B2000F029F8002000F010F8D6
:1008B000E91CC8B200F00CF8002000F009F8F91C9F
:1008C000C8B200F005F82C2000F018F8F0BD0000C8
:1008D00010B504464FF48050064908604020064990
:1008E0000861204600F0F8F84FF480500149091FD4
:1008F000086010BD140C01400010014010B5044602
:100900004FF480500649086040200649486120465F
:1009100000F0E2F84FF480500149091F086010BD53
:10092000140C01400010014000BFFEE7704710B5F5
:100930004FF4A06000F03AF810BD000070B500213F
:1009400000230F22C47804B3154C246804F4E06437
:10095000C4F5E064210AC1F10403CA40447804FAF2
:1009600003F184781440214309010E4C0678A15507
:10097000047804F01F050124AC4005786D11AD002A
:1009800005F1E025C5F8004109E0047804F01F05F1
:100990000124AC40044D0678761145F8264070BD20
:1009A0000CED00E000E400E080E100E002490143DA
:1009B000024A1160704700000000FA050CED00E0EB
:1009C0007047000029B1064AD2690243044BDA613C
:1009D00004E0034AD2698243014BDA6170470000A8
:1009E0000010024029B1064A92690243044B9A6101
:1009F00004E0034A92698243014B9A617047000008
:100A00000010024030B500210022002400232D4DAB
:100A10006D6805F00C0121B1042905D0082923D106
:100A200005E0294D056022E0274D05601FE0254DBA
:100A30006D6805F47012234D6D6805F4803402254D
:100A400005EB92421CB9214D554305600BE01D4D4D
:100A50006D6805F400351DB11C4D5543056002E07D
:100A6000194D5543056002E0174D056000BF00BFFA
:100A7000144D6D6805F0F0010909154D6B5C0568B2
:100A8000DD4045600F4D6D6805F4E061090A104DC9
:100A90006B5C4568DD4085600A4D6D6805F460510A
:100AA000C90A0B4D6B5C4568DD40C560054D6D683E
:100AB00005F44041890B074D6B5CC568B5FBF3F548
:100AC000056130BD0010024000127A0000093D00AF
:100AD0001E0000202E0000200021082117E000F059
:100AE000800222B14FF400420A4B1A6004E04FF436
:100AF0000042084B1B1D1A604FF40052054B1B1D92
:100B00001A601B1F1A604206100E4A1ED1B200293D
:100B1000E5DC7047100C0140704710B500F002F89A
:100B200010BD00000CB50020019000903348006813
:100B300040F480303149086000BF3048006800F45C
:100B4000003000900198401C0190009818B901985D
:100B5000B0F5A06FF1D12948006800F4003010B161
:100B60000120009001E0002000900098012843D16E
:100B70002348006840F010002149086008460068DA
:100B800020F0030008600846006840F0020008609A
:100B90001A48406819494860084640684860084655
:100BA000406840F4806048600846406820F47C104B
:100BB00048600846406840F4E8104860084600680D
:100BC00040F08070086000BF0C48006800F00070C2
:100BD0000028F9D00948406820F003000749486020
:100BE0000846406840F00200486000BF0348406883
:100BF00000F00C000828F9D10CBD000000100240E4
:100C000000200240042808D14FF0E021096941F09A
:100C100004014FF0E022116107E04FF0E021096983
:100C200021F004014FF0E02211617047704700008D
:100C300010B51348006840F00100114908600846EB
:100C40004068104908400E494860084600680E494F
:100C500008400B4908600846006820F480200860BE
:100C60000846406820F4FE0048604FF41F0088608A
:100C7000FFF753FF4FF000600449086010BD00000B
:100C8000001002400000FFF8FFFFF6FE08ED00E054
:100C900010B50121084800F052F858B1012106486A
:100CA00000F03EF80548006808B9012000E0002087
:100CB0000249086010BD000000040040A00121426C
:100CC0007FB505460C4601210220FFF77BFEADF8FB
:100CD0000850ADF804400020ADF80A00ADF8060059
:100CE00001A90E4800F046F8012211460B4800F019
:100CF00037F81D208DF8000000208DF8010003203A
:100D00008DF8020001208DF803006846FFF716FEFB
:100D10000121024800F007F87FBD000000040040F8
:100D2000CA430282704721B1028842F00102028068
:100D300004E002884FF6FE731A400280704730B517
:100D40000246002000230024158A05EA0103958944
:100D500005EA010413B10CB1012000E0002030BD10
:100D60001AB183890B43838102E083898B4383819A
:100D700070470000002202881D4B98420ED01D4B88
:100D800098420BD0B0F1804F08D01B4B984205D051
:100D90001A4B984202D01A4B984204D14FF68F73E7
:100DA0001A404B881A43174B984207D0164B98426B
:100DB00004D04FF6FF431A40CB881A4302808B8839
:100DC00083850B8803850A4B98420BD0094B9842C8
:100DD00008D00E4B984205D00D4B984202D00D4BD7
:100DE000984201D10B7A0386012383827047000069
:100DF000002C014000340140000400400008004085
:100E0000000C004000100040001400400040014071
:100E1000004401400048014010B540F225511D48F2
:100E200000F04AF810B31B4800F002F9C4B21A48A7
:100E3000008800F40040C8B91748008800F48040DA
:100E400060B10A2C03D000201349088020E012482A
:100E5000008840F400401049088019E00D2C06D1AC
:100E60000D48008840F480400B49088010E00A4893
:100E70000088C0F30D0009490C5407480088401C45
:100E80000549088008460088C72801DD0020088041
:100E900010BD0000003801401C000020340000207C
:100EA00021B1828942F40052828104E082894DF6A8
:100EB000FF731A408281704770B5024600240023F8
:100EC0000025002040F66A16B14200D100BFC1F3F0
:100ED000421501F01F03012606FA03F3012D02D18A
:100EE0009689334006E0022D02D1168A334001E094
:100EF000968A33400C12012606FA04F41688344010
:100F000013B10CB1012000E0002070BDF0B5034624
:100F1000002400260025002040F66A17B94200D1BF
:100F200000BF1846C1F3421401F01F06012707FA5B
:100F300006F5012C01D10C3004E0022C01D1103057
:100F400000E014301AB107682F43076002E0076819
:100F5000AF430760F0BD00002DE9F04786B00546BD
:100F60000E460024A24600BFA1460027B08900B16A
:100F700000BF2F462C8A4CF6FF700440F0880443D3
:100F80002C82AC894EF6F3100440B08831890843B6
:100F9000718908430443AC81AC8A4FF6FF4004409A
:100FA000B0890443AC8201A8FFF72CFD1F4887429B
:100FB00002D1DDF810A001E0DDF80CA0A88900F452
:100FC000004040B10AEBCA0000EB0A10316849004A
:100FD000B0FBF1F807E00AEBCA0000EB0A10316839
:100FE0008900B0FBF1F86420B8FBF0F0040120099F
:100FF000642101FB1089A88900F4004040B132202F
:1010000000EBC900B0FBF1F000F00700044308E07A
:10101000322000EB09106421B0FBF1F000F00F006A
:1010200004432C8106B0BDE8F08700000038014081
:1010300001468888C0F30800704700BFFEE700BF84
:101040007047000010B56FF00400FFF7DBFD0A48A1
:1010500000680A49B0FBF1F00949087008460078B9
:1010600000EB4001C1EBC0104FF6FF7101EAC00078
:101070000449088010BD00000000002000127A0022
:1010800014000020160000200146114A12884A432D
:101090004FF0E0235A6100229A611A46126942F029
:1010A00001021A6100BF4FF0E022106900F0010256
:1010B0001AB100F48032002AF5D04FF0E022126914
:1010C00022F001024FF0E0231A6100229A6170477A
:1010D0001600002008B5FFF7B5FFFFF728FC4FF416
:1010E000165000F04DF8FFF779FAFFF7ACFA4EF61C
:1010F0007D70FFF78FFA13A04EF67D734FF47842A0
:10110000102100900020FFF749F913A04EF67D73DF
:101110001F22302100900020FFF740F913A04EF667
:101120007D731F22402100900020FFF737F941F620
:101130001F4141F28730FFF7C3FD02E0C820FFF7EF
:10114000A3FFFBE7202053544D33322048616E64E7
:101150006C657220200000002020C7B6C8EBCABD15
:10116000BFAAB7A2CDF82020000000006D6375640F
:1011700065762E74616F62616F2E636F6D20000063
:1011800010B586B00446012144F20400FFF72AFCA2
:101190004FF40070ADF8140003208DF816001820ED
:1011A0008DF8170005A91C48FFF76BF84FF4806015
:1011B000ADF8140004208DF8170005A91648FFF7B4
:1011C00060F825208DF8000003208DF801008DF8CF
:1011D000020001208DF803006846FFF7AFFB019481
:1011E0000020ADF80800ADF80A00ADF80C00ADF82D
:1011F00010000C20ADF80E0001A90848FFF7ACFE66
:10120000012240F225510548FFF780FE01210348E5
:10121000FFF746FE06B010BD00080140003801404F
:1012200000000000000000000000000000000000BE
:1012300000101010101010101010000010100000FE
:1012400000006C6C2424000000000100000000007D
:101250000024242424FE48484848FC9090909000A4
:1012600000103C549290503814121292547810008E
:101270000000225C94A8481010242A5254880000D0
:10128000000030484850206E54948C888A740000C6
:1012900000003030101000000000000000000000CE
:1012A0000004081010202020202020101008040026
:1012B00000804020201010101010102020408000CE
:1012C00000000000105438103854100000000000D6
:1012D00000000010101010FE101010100000000090
:1012E00000000000000000000000000010102000BE
:1012F00000000000000000FE0000000000000000F0
:1013000000000000000000000000000010100000BD
:1013100000000404080810102020404080800000D5
:1013200000003844828282828282828244380000B5
:10133000000010701010101010101010107C000021
:1013400000003844828204081020408284FC00009F
:10135000000038448202043804020282443800004B
:101360000000040C141424244444FE04040E000061
:101370000000FC808080B8C4820202828478000071
:1013800000003C428280B8C48282828244380000DD
:1013900000007E42820404080808101010100000AB
:1013A00000003844828244384482828244380000FB
:1013B0000000384482828282463A02824438000029
:1013C00000000000101000000000101000000000DD
:1013D00000000000101000000000001010200000AD
:1013E0000000000006186080601806000000000081
:1013F000000000000000FE0000FE000000000000F1
:1014000000000000C0300C020C30C00000000000E2
:1014100000384482820204081010100010100000EE
:1014200000003844829AAAAAAAAAAA9680423C003E
:10143000000010101028282844447C4444EE00008A
:101440000000FC424242427C4242424242FC0000D6
:1014500000003C448280808080808282443800008A
:101460000000F844424242424242424244F80000F4
:101470000000FC444240447C4440404244FC0000A4
:101480000000FC444240447C4440404040F00000A6
:101490000000344C828080808E8484844C34000030
:1014A0000000EE444444447C4444444444EE000080
:1014B00000007C101010101010101010107C000094
:1014C00000003E080808080808080888887000001E
:1014D0000000EE44484850605048484444EE000044
:1014E0000000E040404040404040404244FC00009A
:1014F0000000C6446C6C6C545454444444EE0000E8
:101500000000CE4464646454544C4C4C44E40000E9
:1015100000003844828282828282828244380000C3
:101520000000F844424242447840404040E000001D
:101530000000384482828282828282BA443C020065
:101540000000F048444444487048444444E60000E5
:1015500000003C44828040300C020282447800004B
:1015600000007C5492101010101010101038000061
:101570000000EE444444444444444444443800009D
:101580000000EE444444442828282810101000008D
:101590000000EE4454545454545428282828000081
:1015A0000000EE44442828101028284444EE00008F
:1015B0000000EE44442828281010101010380000B5
:1015C00000007E44840808102020408284FC000033
:1015D000001C1010101010101010101010101C0013
:1015E0000000EE445454FE54545428282828000087
:1015F000007010101010101010101010101070004B
:1016000000304884000000000000000000000000DE
:101610000000000000000000000000000000FE00CC
:10162000004020000000000000000000000000005A
:101630000000000000007884047C84848C76000024
:101640000000C0404040586442424242645800009A
:101650000000000000003844808080804438000092
:1016600000000C040404344C848484844C36000050
:10167000000000000000788484FC808084780000F2
:10168000000018242020F8202020202020700000B6
:101690000000000000003A444478807C82827C0094
:1016A0000000C040404058644444444444EE0000BC
:1016B0000000101000003010101010101038000042
:1016C000000010100000301010101010109060007A
:1016D0000000C04040405C485060504844EE00006C
:1016E00000003010101010111010101010390000F0
:1016F000000000000000ACD29292929292D60000BC
:1017000000000000000058E44444444444EE00005B
:1017100000000000000038448282828244380000C9
:10172000000000000000D864424242645840E000DB
:10173000000000000000364C8484844C34040E0009
:101740000000000000006C302020202020700000ED
:10175000000000000000788884601884447800004D
:10176000000000202020F820202020202418000045
:10177000000000000000C64242424242463A0000D9
:10178000000000000000EE4444282828101000004B
:10179000000000000000EE444454542828280000B3
:1017A000000000000000EE442810102844EE000065
:1017B000000000000000EE444428281010A0C000E3
:1017C0000000000000007E448810204284FC0000DD
:1017D000000C1010101010601010101010100C00E1
:1017E0000010101010101010101010101010100019
:1017F00000C0202020202018202020202020C000F1
:1018000000000000000000728C00000000000000DA
:101810000000000000001FE000003FF000003FF06B
:1018200000001FE0000180060003C00F0003C00F8E
:101830000003C00F0003C00F0003C00F0003C00F60
:101840000003C00F0003C00F0003000300000000EE
:101850000000000000000000000300030003C00FB0
:101860000003C00F0003C00F0003C00F0003C00F30
:101870000003C00F0003C00F0003C00F000180066B
:1018800000001FE000003FF000003FF000001FE0FC
:101890000000000000000000000000800000018047
:1018A0000000038000000780000007800000078020
:1018B000000007800000078000000780000007800C
:1018C0000000078000000780000001800000000089
:1018D0000000000000000000000001800000078000
:1018E00000000780000007800000078000000780DC
:1018F00000000780000007800000078000000780CC
:101900000000038000000180000000800000000053
:101910000000000000001FE000003FF00000FFF0AA
:101920000001FFE0000000060000000F0000000FB3
:101930000000000F0000000F0000000F0000000F6B
:101940000000000F0000000F00001FE300007FF800
:1019500000007FF800001FE0000300000003C0004B
:101960000003C0000003C0000003C0000003C0006B
:101970000003C0000003C0000003C000000180009D
:1019800000001FF000003FF800003FFC00001FFEB9
:10199000000000000003FF800001FFC00000FFC046
:1019A00000007F80000000180000003C0000003CA8
:1019B0000000003C0000003C0000003C0000003C37
:1019C0000000003C0000003C00007F8C0001FFE0B4
:1019D0000001FFF000007F800000000C0000003CD0
:1019E0000000003C0000003C0000003C0000003C07
:1019F0000000003C0000003C0000003C000000181B
:101A000000007F800000FFC00001FFC00003FF80D6
:101A100000000000000000000002000100030003BD
:101A2000000380070003C00F0003C00F0003C00FB6
:101A30000003C00F0003C00F0003C00F0003C00F5E
:101A40000003C00F0003C00F00031FE300007FF876
:101A500000007FFC00001FE0000000030000000FFA
:101A60000000000F0000000F0000000F0000000F3A
:101A70000000000F0000000F0000000F0000000F2A
:101A8000000000070000000300000001000000004B
:101A90000000000000001FFC00003FF800003FF0C5
:101AA00000001FE0000180000003C0000003C00030
:101AB0000003C0000003C0000003C0000003C0001A
:101AC0000003C0000003C00000031FE000007FF817
:101AD00000007FF800001FE0000000030000000F7E
:101AE0000000000F0000000F0000000F0000000FBA
:101AF0000000000F0000000F0000000F00000006B3
:101B000000003FE000007FF00000FFF00001FFE078
:101B10000000000000001FFC00003FF800003FF044
:101B200000001FE0000180000003C0000003C000AF
:101B30000003C0000003C0000003C0000003C00099
:101B40000003C0000003C00000031FE000007FF896
:101B500000007FFC00001FE0000300030003C00F33
:101B60000003C00F0003C00F0003C00F0003C00F2D
:101B70000003C00F0003C00F0003C00F0001800668
:101B800000001FE000003FF000003FF000001FE0F9
:101B9000000000000007FFE00003FFC00001FF8815
:101BA0000000FF18000000380000007800000078F6
:101BB0000000007800000078000000780000007845
:101BC000000000780000007800000018000000000D
:101BD0000000000000000000000000180000007875
:101BE0000000007800000078000000780000007815
:101BF0000000007800000078000000780000007805
:101C0000000000380000001800000008000000007C
:101C10000000000000001FE000003FF000003FF067
:101C200000001FE0000180060003C00F0003C00F8A
:101C30000003C00F0003C00F0003C00F0003C00F5C
:101C40000003C00F0003C00F00031FE300007FF874
:101C500000007FFC00001FE0000300030003C00F32
:101C60000003C00F0003C00F0003C00F0003C00F2C
:101C70000003C00F0003C00F0003C00F0001800667
:101C800000001FE000003FF000003FF000001FE0F8
:101C90000000000000001FE000003FF000003FF0E7
:101CA00000001FE0000180060003C00F0003C00F0A
:101CB0000003C00F0003C00F0003C00F0003C00FDC
:101CC0000003C00F0003C00F00031FE300007FF8F4
:101CD00000007FFC00001FE0000000030000000F78
:101CE0000000000F0000000F0000000F0000000FB8
:101CF0000000000F0000000F0000000F00000006B1
:101D000000001FE000003FF000007FF00000FFE057
:101D100000000000000000000000000000000000C3
:101D200000000000000000000000000000000000B3
:101D300000000000000000000000000000000000A3
:101D40000000000000000000000000000000000093
:101D50000000000000000000000000000000000083
:101D6000000000000000780000007800000078000B
:101D700000007800000078000000780000000000FB
:101D80000000000000000000000000000000000053
:101D90000000000000000000000000000000000043
:101DA0000000000000000000000000000000000033
:101DB0000000070000000F8000000F8000000F806F
:101DC000000007000000000000000000000000000C
:101DD00000000000000000000000000000000700FC
:101DE00000000F8000000F8000000F80000007003F
:101DF00000000000000000000000000000000000E3
:101E000000000000000000000000000000000000D2
:101E100000000000000000000000000000000000C2
:101E20000007C006000FE0060000000C0030181884
:101E300000301818003018300030183000301860AA
:101E4000003008C00007C0C0000FE08000000000A4
:101E50000000000FE0000607C000063018000C303C
:101E600018000C30180018301800303018003030CE
:101E7000180060000000C00FE000C007C0000000B4
:101E80000000000000000000000000000000000052
:101E90000000000000000000000000000000000042
:101EA0000000000000000000000700E0000887FCC0
:101EB00000088E0300089801800718008000300099
:101EC00000003000000070000000600000006000B2
:101ED0000000600000006000000060000000700072
:101EE0000000300000003000000038000000180141
:101EF00000000C03000007FC000001F000000000DF
:101F000000000000000000000000000000000000D1
:101F100000000000000000000000000000000000C1
:101F200000000000000000000000000000000000B1
:101F300000000000000000000000000000000000A1
:101F400000000000000000000000000000003FF062
:101F500000007FF000007FE00000FFC000000000F4
:101F60000000000000000000000000000000000071
:101F70000000000000000000000000000000000061
:101F80000000000000000000000000000000000051
:101F90000000C7B60100210821083FF800202220D8
:101FA000223EFF42229422103E10221022283E2878
:101FB00022440082C8EB040002000100010001007D
:101FC0000280028002800440044008200820101093
:101FD000201040088006CABD00480044004400406C
:101FE000FFFE004000403E40084008400820082214
:101FF0000F12780A20060002BFAA00007FFC08200A
:102000000820082008200820FFFE082008200820BB
:1020100008201020102020204020B7A2010011101D
:10202000110822003FFC0200040007F80A08090812
:10203000111010A0204040A003181C06CDF800008D
:102040007FFC40044004421452944A5444244424E3
:102050004A544A5452946104400440144008000019
:102060000000000000000000000000000000000070
:102070000000000000000000000000000000000060
:102080000000000000000000000000000000000050
:102090000000000000000000000000000000000040
:1020A0000000000000000000000000000000000030
:1020B0000000000000000000000000000000000020
:1020C000000000000000000000000000EC200008FC
:1020D00000000020340000006C01000820210008EE
:1020E000340000202C0700008801000800A24A04E8
:1020F00000000000000000000102030406070809B8
:1021000000000000000000000000000000000102CC
:10211000030401020304060708090204060800007C
:0400000508000131BD
:00000001FF
