:020000040800F2
:10000000A8040020990100089D0100089F01000834
:10001000A1010008A3010008A501000800000000DC
:10002000000000000000000000000000A701000820
:10003000A901000800000000AB010008AD010008A4
:10004000A9090008AF010008AF01000893240008C7
:10005000AF010008AF01000849250008992E0008EB
:10006000AF010008AF010008AF010008AF010008B0
:10007000AF010008AF010008AF010008AF010008A0
:10008000AF010008AF010008AF010008AF01000890
:10009000AF010008AF010008AF010008AF01000880
:1000A000AF010008AF010008AF010008AF01000870
:1000B000AF010008090A0008AF010008AF010008FD
:1000C000AF010008AF010008AF010008AF01000850
:1000D000AF010008AF010008AF010008AF01000840
:1000E000AF010008AF010008AF01000800F002F8FE
:1000F00000F041F80AA090E8000C82448344AAF181
:100100000107DA4501D100F036F8AFF2090EBAE87E
:100110000F0013F0010F18BFFB1A43F0010318473B
:10012000F054000010550000103A24BF78C878C180
:10013000FAD8520724BF30C830C144BF04680C60ED
:10014000704700000023002400250026103A28BF35
:1001500078C1FBD8520728BF30C148BF0B60704739
:10016000782903F0A786002070471FB504F05FFCD4
:100170001FBD10B510BD03F06DFF1146FFF7F5FF71
:1001800000F024F803F08BFF03B4FFF7F2FF03BC89
:1001900000F0F2FA30BF000008480047FEE7FEE733
:1001A000FEE7FEE7FEE7FEE7FEE7FEE7FEE7FEE727
:1001B00003480449024A044B70470000ED00000860
:1001C000A8020020A8040020A802002008B50025ED
:1001D000092000F06CFA482000F0FAF84FF41651AC
:1001E000482000F0D6FA00F0D7FD00F03DFB4FF4B8
:1001F00078403E4908803EA232213C2001F07EFE3C
:100200003EA246213C2001F079FE40A25A213C202A
:1002100001F074FE41A26E213C2001F06FFE19E056
:1002200041A282213C2001F069FE4FF4FA7000F0F7
:10023000E5F841A282213C2001F060FE4FF4FA7003
:1002400000F0DCF84148006808B9012000E0002017
:100250003E49086003F044FA0028E1D13CA2822123
:100260003C2001F04BFE3FA296213C2001F046FECF
:1002700003F081FB04461023220D009304239621F2
:10028000A42001F0B0FD2FE01E2D20D13A4900201E
:1002900003F0CDFBD0B939A2AA213C2001F02EFEFB
:1002A0003CA003F0C5FD002405E03348015D3DA0FE
:1002B00003F0BEFD641CB4F5007FF6D33AA003F052
:1002C000B7FD3DA2AA213C2001F018FE0025681CC4
:1002D000C5B2C82000F092F81C48006808B9012097
:1002E00000E0002019490860CEE700000A00002065
:1002F0004D696E692053544D3332000053442043FE
:1003000061726420544553540000000041544F4D25
:1003100040414C49454E54454B000000323031318C
:100320002F312F31000000005344204361726420BC
:100330004661696C65642100506C6561736520439A
:100340006865636B2120202020202000A00121422D
:100350005344204361726420436865636B65642085
:100360004F4B2000534420436172642053697A65E7
:100370003A202020204D6200200000205553415299
:1003800054312053656E64696E6720446174612E38
:100390002E2E0000534543544F52203020444154E8
:1003A000413A0A00257820000A4441544120454E34
:1003B0004445440A00000000555341525431205333
:1003C000656E642044617461204F7665722100007F
:1003D0004FF0E021096921F004014FF0E0221161A2
:1003E000C21700EB5272D2101F4B1A7019460978CF
:1003F0004FF47A7251431D4A1180704701461B4ADF
:1004000012884A434FF0E0235A6100229A61012288
:100410001A6100BF4FF0E022106910F0010F02D006
:1004200010F4803FF6D000224FF0E0231A619A6169
:10043000704701460C4A12784A434FF0E0235A6154
:1004400000229A6101221A6100BF4FF0E022106978
:1004500010F0010F02D010F4803FF6D000224FF0D0
:10046000E0231A619A61704700000020020000201A
:10047000AF4A0A400243AF4B1A6070470146072358
:1004800023EA01021202AC4B18684FF6FF0300EAA0
:100490000300AA4B40EA030040EA02004FF0E023C9
:1004A000C3F80C0D70472DE9F04780468946144685
:1004B0001D462046E11704EB91714FEAA10AE117AE
:1004C00004EB91718910A4EB8101CFB2042000EB01
:1004D000C700C7B22846FFF7D1FFC5F1040008FAEC
:1004E00000F60F20284100EA0900064306F00F0637
:1004F000202C0CDA924800684FF0010101FA04F157
:1005000040EA01004FF0E021C1F800010DE08D4804
:100510000068A4F120014FF0010202FA01F240EA62
:1005200002004FF0E021C1F80401874850F82A008A
:1005300006FA07F10843844941F82A00BDE8F0872C
:1005400070B504460B46CE1701EB9676B010CE1769
:1005500001EB9676B610A1EB8606B606350E7B4B00
:100560009B6943F00103794EB3614FEAB63353F808
:1005700020300F26AE40B343754E46F82030334648
:1005800053F8203004FA05F63343714E46F8203014
:10059000704B1E684FF0010303FA01F346EA0306AD
:1005A0006D4BC3F8006412F0010F0AD06B4B1B684F
:1005B0004FF0010606FA01F643EA0603664EC6F856
:1005C0000C3412F0020F0AD0654B1B684FF0010685
:1005D00006FA01F643EA06035F4EC6F8083470BD1A
:1005E00000B5002059490861C86014204861002006
:1005F0008861C8610846006840F00100086008464C
:1006000040685849084051494860084600685649C2
:1006100008404E4908600846006820F480200860C1
:100620000846406820F4FE004860002088600021F1
:100630004FF00060FFF71CFF00BD10B54B4800688D
:1006400040F004004FF0E021C1F8100D3F48C069B0
:1006500040F080503D49C8614548406840F4807092
:10066000434948600846006840F0040008600846B6
:10067000006840F002000860FFF78CFD10BD2F48B5
:10068000001D2D4908607047014649062F4A9269AE
:1006900042F001022D4B9A612F4A526822F0E0622B
:1006A0002D4B5A601A4652680A435A60704730B55B
:1006B00004460025FFF794FF2448006840F480308A
:1006C0002249086000BF21480068400CFBD04FF46D
:1006D00080601E494860A01EC4B20846406840EAD7
:1006E000844048600846406840F4803048602148B3
:1006F000006840F032001F4908601448006840F06C
:1007000080701249086000BF10480068400EFBD09E
:100710000E48406840F002000C49486005E00B4874
:100720004068C0F3870505F00305022DF7D130BD01
:1007300080FFFF1F08ED00E00CED00E00000FA056F
:1007400000E100E004E100E000E400E0001002400D
:100750000800014000040140000001400C04014079
:10076000080401400000FFF8FFFFF6FE10ED00E076
:100770000070004000200240014600BF704700BFEB
:10078000314A128812F0400FFAD0C2B22F4B1A80B1
:1007900070472DE9F05F05460E46300104F06CF815
:1007A00081462B4905FB01F004F066F88246494674
:1007B00003F04CFF0746384604F026F884B2204682
:1007C00004F05AF88346394604F03DF982464FF06A
:1007D000834104F065F8814604F016F88046240150
:1007E00004EB080084B21B48806940F004001949FA
:1007F00088610846806940F4804088611648006836
:1008000020F47F601549C1F804080846D0F80408B0
:1008100040F40B60C1F804080E48C06840F4804002
:100820000C49C8600846C06820F48040C8600C4885
:10083000A0F808480B48008842F20C0140EA010089
:1008400008490880BDE8F09F0038014004380140A5
:1008500040420F0000100240040801400000014027
:10086000003001400C3801401B48806940F0040012
:10087000194988610846806940F02000886117485E
:10088000006820F00F001649C1F804080846D0F8A7
:10089000040840F00300C1F804080846D0F80C082A
:1008A00040F48070C1F80C080E48D0F8000420F421
:1008B00070600C49C1F800040846D0F8000440F408
:1008C0004070C1F800040846D0F80C0440F0040061
:1008D000C1F80C04704700000010024004080140F9
:1008E000000001400010014045F255523D4B1A6096
:1008F0001A46506091604AF6AA221A604CF6CC4221
:100900001A6070474AF6AA2036490860704770B5E9
:1009100004460D4616463448C06940F4006032492A
:10092000C8613249097804EA01003049087030484A
:10093000006840EAC6102F49C1F8040C0846D0F8F8
:10094000040C40F40070C1F8040C294800684FF60C
:10095000807100EA01002749C1F8040C0846D0F86C
:10096000040C40EA0500C1F8040C234800681F4944
:10097000097841F0800140EA01001E49C1F8000CED
:100980004FF002034FF000024FF003011846FFF74B
:100990008AFD70BD1849096800F07F0241EA020132
:1009A000144AC2F8001C704710B51148006800F0E6
:1009B0007F031048D0F8000C00F07F049C4203DA5B
:1009C0000A480078FFF7E6FF00200C4908600C4851
:1009D000D0F8880108B9012000E00020094908602A
:1009E00010BD000000300040001002400800002050
:1009F000042C004000200040002C0040082C004047
:100A000000802242888122424C48008810F0010F69
:100A100007D04B48006808B9012000E00020484991
:100A200008604648008820F001004FF08041A1F89E
:100A30001004704770B504460D464248C06940F046
:100A400002004049C861404804804FF08040A0F84F
:100A50002854B0F80C0440F001004FF08041A1F898
:100A60000C040846B0F80C0440F04000A1F80C0457
:100A70000846B0F8000440F00100A1F800044FF06F
:100A800002034FF01D024FF003014FF00100FFF78A
:100A90000AFD70BD2B4AD26942F00202294BDA618D
:100AA0002A4A126822F00F02294BC3F804281A467A
:100AB000D2F8042842F00402C3F804281A46D2F8F7
:100AC000002822F07042C3F800281A46D2F8002805
:100AD00042F03042C3F800281A46D2F80C2842F0FF
:100AE0008002C3F80C284FF08042A2F82C04A2F830
:100AF0002814B2F8182442F4E0424FF08043A3F8DF
:100B000018241A46B2F8182442F40062A3F81824F4
:100B10001A46B2F8202442F010020E4B1A804FF40D
:100B200000424FF08043A3F800244FF08042B2F817
:100B3000002442F00102084B1A8070471004004064
:100B400088812242001002402C0400400408014029
:100B50000000014020040040000400404FF4807178
:100B6000FF4A516149005161FE4908604FF0800120
:100B7000516111614FF400711161704710B5044665
:100B80000B462046FFF7EAFF4FF48070F4490861F6
:100B900040004861F34803604FF0800048610861FD
:100BA0004FF40070086110BD70B504462046FFF791
:100BB000D5FF4FF08830EC490860EC49C1F8040CCF
:100BC0004FF6FF70E74908604FF48070E449086110
:100BD0004FF4007048614FF0400048614FF005004D
:100BE000FFF727FC4020DE490861E048D0F8080CF8
:100BF00085B2481508614FF03330DB49086001F1D8
:100C0000040108604FF6FF70D6490860284670BDA1
:100C100000B52220FFF7A2FF00BD4FF48071D04A3B
:100C2000116149005161CF4908604FF08001516165
:100C300011614FF400711161704730B5014601F048
:100C40001F04C1F34513CA0AE50205EB4315154419
:100C5000A8B230BD70B504460D46F02C02DAB5F5E9
:100C6000A07F01DB002070BD2946204603F024FA56
:100C70002220FFF773FF4FF08830BB490860BB4963
:100C8000C1F8040C4FF6FF70B64908604FF480704D
:100C9000B34908614FF4007048614FF0400048616B
:100CA00008614FF00200FFF7C4FB4020AC494861E7
:100CB0000220FFF7BEFB4020A9490861AB48D0F8ED
:100CC000080C86B2481508614FF03330A649086019
:100CD00001F1040108604FF6FF70A449C1F80C0C43
:100CE000A3480088A0F58A41313905D0A048008882
:100CF000A0F50941893901D13046B4E73046FFF704
:100D00009CFFB0E700B540F273110720FFF736FFF4
:100D100000BD00B500210720FFF730FF00BD70B512
:100D200004460D462946204603F0C6F92220FFF767
:100D300015FF4FF480708A490861400048618D4872
:100D40000088884908604FF0800085494861086143
:100D50004FF40070086170BD70B504460025002195
:100D6000084603F0A9F9FFF753FF00BF10E04FF466
:100D700080707B490861400048617A4804604FF008
:100D80008000486108614FF40070086105F10105B9
:100D9000B5F5963FEBD370BD10B57748806940F04C
:100DA0000800754988610846806940F01000886134
:100DB0000846806940F0010088610120FFF764FC6B
:100DC000674840686FF30B00654948600846406813
:100DD00040F233310843624948600846006820F019
:100DE0007F4008600846006840F04C5008600846A4
:100DF000C06840F4F860C8604FF033305F49086065
:100E00005A49C1F8000C4FF6FF70564908604FF080
:100E10003200FFF7F3FA01210020FFF7AFFE322086
:100E2000FFF7ECFA0020FFF7BFFE514908800846A3
:100E3000018853A002F0FCFF4D480088A0F5134143
:100E4000253905D04A480088A0F5134128397ED1BC
:100E50001021E720FFF792FE01210020FFF78EFE10
:100E60004FF480710120FFF789FE4FF4E06102200A
:100E7000FFF784FE41F230010320FFF77FFE0021DF
:100E80000420FFF77BFE40F207210820FFF776FEE3
:100E900000210920FFF772FE00210A20FFF76EFEF5
:100EA00001210C20FFF76AFE00210D20FFF766FEEE
:100EB00000210F20FFF762FE00211020FFF75EFEE9
:100EC00007211120FFF75AFE00211220FFF756FEDE
:100ED00000211320FFF752FE3220FFF78FFA41F274
:100EE00090511020FFF74AFE40F227211120FFF712
:100EF00045FE3220FFF782FA9C211220FFF73EFECA
:100F00003220FFF77BFA4FF4C8511320FFF736FE6B
:100F100023212920FFF732FE0E212B20FFF72EFE82
:100F20003220FFF76BFA00212020FFF727FE40F266
:100F30003F112120FFF722FE3220FFF75FFA072141
:100F40003020FFF71BFE40F20771312000E09EE0E9
:100F5000FFF714FE06213220FFF710FE16E0000016
:100F6000001001400C0C0140000C01400000014049
:100F70000E0000200A00002000100240040C014076
:100F8000204C43442049443A25780A0040F2047139
:100F90003520FFF7F3FD41F604713620FFF7EEFD33
:100FA00004213720FFF7EAFD00213820FFF7E6FD96
:100FB00040F206713920FFF7E1FD40F201713C205B
:100FC000FFF7DCFD0F213D20FFF7D8FD3220FFF7B2
:100FD00015FA00215020FFF7D1FDEF215120FFF736
:100FE000CDFD00215220FFF7C9FD40F23F115320F3
:100FF000FFF7C4FD4FF427416020FFF7BFFD01213B
:101000006120FFF7BBFD00216A20FFF7B7FD00213B
:101010008020FFF7B3FD00218120FFF7AFFD002105
:101020008220FFF7ABFD00218320FFF7A7FD002101
:101030008420FFF7A3FD00218520FFF79FFD1021ED
:101040009020FFF79BFD00219220FFF797FD0321E1
:101050009320FFF793FD4FF488719520FFF78EFDE5
:1010600000219720FFF78AFD00219820FFF786FDD9
:1010700040F233110720FFF781FD00212020FFF708
:101080007DFD40F23F112120FFF778FD7EE2FF4811
:101090000088A0F51341203904D0FC480088B0F541
:1010A000134F7ED100210846FFF768FD4FF4807191
:1010B0000120FFF763FD4FF4E0610220FFF75EFDC2
:1010C00041F230010320FFF759FD00210420FFF712
:1010D00055FD40F202210820FFF750FD00210920B4
:1010E000FFF74CFD00210A20FFF748FD01210C20ED
:1010F000FFF744FD00210D20FFF740FD00210F20E8
:10110000FFF73CFD3220FFF779F940F2011107208B
:10111000FFF734FD3220FFF771F94FF486511020AC
:10112000FFF72CFD07211120FFF728FD4FF48871F0
:101130001220FFF723FD4FF430611320FFF71EFD4F
:1011400000212920FFF71AFD44F210012B20FFF7A0
:1011500015FD00215020FFF711FDEF215120FFF771
:101160000DFD00215220FFF709FD40F23F115320F1
:10117000FFF704FD4FF41C516020FFF7FFFC012135
:101180006120FFF7FBFC00216A20FFF7F7FC00213C
:101190008020FFF7F3FC00218120FFF7EFFC002106
:1011A00000E02DE08220FFF7E9FC00218320FFF71B
:1011B000E5FC00218420FFF7E1FC00218520FFF7FA
:1011C000DDFC10219020FFF7D9FC00219220FFF7D1
:1011D000D5FC01219320FFF7D1FC4FF488719520B5
:1011E000FFF7CCFC00219720FFF7C8FC00219820D6
:1011F000FFF7C4FC40F273110720FFF7BFFCC5E105
:10120000A2480088A0F5A84108397ED14FF480712A
:101210000120FFF7B3FC4FF4E0610220FFF7AEFCC2
:1012200041F230010320FFF7A9FC00210420FFF761
:10123000A5FC40F207210820FFF7A0FC00210920AF
:10124000FFF79CFC00210A20FFF798FC00210C20EE
:10125000FFF794FC00210D20FFF790FC00210F20E8
:10126000FFF78CFC1420FFF7C9F841F2B0611020A1
:10127000FFF784FC01211120FFF780FC01211720DA
:10128000FFF77CFC4FF49C711220FFF777FC4FF4C2
:1012900000611320FFF772FC09212920FFF76EFC83
:1012A00009212A20FFF76AFC0021A420FFF766FC31
:1012B00000215020FFF762FCEF215120FFF75EFC78
:1012C00000215220FFF75AFC40F23F115320FFF754
:1012D00055FC4FF41C516020FFF750FC01216120A8
:1012E000FFF74CFC00216A20FFF748FC002180201A
:1012F000FFF744FC00218120FFF740FC0021822001
:10130000FFF73CFC0021832000E023E0FFF736FCE0
:1013100000218420FFF732FC00218520FFF72EFCFE
:1013200013219020FFF72AFC00219220FFF726FCD2
:1013300003219320FFF722FC4FF488719520FFF7DB
:101340001DFC40F273110720FFF718FC3220FFF755
:1013500055F8ACE34D480088A0F5A85105397ED179
:101360000720FFF70BFC3220FFF748F84FF48E718F
:101370001220FFF703FC0121A420FFF7FFFB0F2140
:101380000820FFF7FBFB08210A20FFF7F7FB0821E5
:101390000D20FFF7F3FB40F207713020FFF7EEFB63
:1013A00007213120FFF7EAFB40F203613220FFF70B
:1013B000E5FB4FF4E0613320FFF7E0FB40F2022150
:1013C0003420FFF7DBFB02213520FFF7D7FB41F686
:1013D0000F713620FFF7D2FB40F207713720FFF77D
:1013E000CDFB00213820FFF7C9FB00213920FFF792
:1013F000C5FB40F207713A20FFF7C0FB00213B20FC
:10140000FFF7BCFB07213C20FFF7B8FB00213D2084
:10141000FFF7B4FB3220FEF7F1FF01210720FFF7B1
:10142000ADFB01211720FFF7A9FB3220FEF7E6FFF5
:101430004FF4BD511020FFF7A1FB40F217211120FE
:10144000FFF79CFB4FF48F711220FFF797FB4FF4CF
:1014500070611320FFF792FB00212A2000E096E044
:10146000FFF78CFB0A212920FFF788FB4FF49F71BF
:101470001220FFF783FB00215020FFF77FFBEF21B5
:101480005120FFF77BFB0021522001E00E000020DD
:10149000FFF774FB40F23F115320FFF76FFB4FF44F
:1014A0001C516020FFF76AFB01216120FFF766FBFA
:1014B00000216A20FFF762FB00218020FFF75EFB1E
:1014C00000218120FFF75AFB00218220FFF756FB05
:1014D00000218320FFF752FB00218420FFF74EFB01
:1014E00000218520FFF74AFB13219020FFF746FBE0
:1014F0004FF440719220FFF741FB05219320FFF745
:101500003DFB00219520FFF739FB00219720FFF7D5
:1015100035FB00219820FFF731FB4FF4807101204B
:10152000FFF72CFB4FF4E0610220FFF727FB41F2AD
:1015300030010320FFF722FB00210420FFF71EFBF0
:1015400000210C20FFF71AFB00210F20FFF716FBEC
:1015500000212020FFF712FB00212120FFF70EFBC6
:1015600021210720FFF70AFB1420FEF747FF612126
:101570000720FFF703FB1420FEF740FF40F2731132
:101580000720FFF7FBFA1420FEF738FF8FE2FF4831
:101590000088A0F5354105397DD10846FFF7EEFA00
:1015A00000210846FFF7EAFA00210846FFF7E6FAAD
:1015B00000210846FFF7E2FA0121A420FFF7DEFA36
:1015C0001420FEF71BFF4FF41C516020FFF7D6FAE2
:1015D00040F202210820FFF7D1FA4FF405713020C4
:1015E000FFF7CCFA43F215713120FFF7C7FA40F24A
:1015F00004613220FFF7C2FA40F616613320FFF78C
:10160000BDFA42F211213420FFF7B8FA4FF4A85185
:101610003520FFF7B3FA48F207513620FFF7AEFA4C
:1016200041F207413720FFF7A9FA41F20341382080
:10163000FFF7A4FA20213920FFF7A0FA1A21902001
:10164000FFF79CFA00211020FFF798FA07211120DC
:10165000FFF794FA00211220FFF790FA00211320DF
:10166000FFF78CFA1420FEF7C9FE4FF4E661102054
:10167000FFF784FA40F237111120FFF77FFA1420A8
:10168000FEF7BCFE4FF4DC711220FFF777FA14204E
:10169000FEF7B4FE00E083E04FF470611320FFF723
:1016A0006DFA80212A20FFF769FA48212920FFF7E7
:1016B00065FA1420FEF7A2FE4FF480710120FFF7B7
:1016C0005DFA4FF4E0610220FFF758FA41F2302151
:1016D0000320FFF753FA40F202210820FFF74EFAE9
:1016E00000210A20FFF74AFA00210C20FFF746FAF2
:1016F00000210D20FFF742FA30210E20FFF73EFABD
:1017000000215020FFF73AFAEF215120FFF736FA77
:1017100000215220FFF732FA40F23F115320FFF729
:101720002DFA4FF41C516020FFF728FA01216120A7
:10173000FFF724FA00216A20FFF720FA11219020F8
:10174000FFF71CFA4FF4C0619220FFF717FA40F23E
:1017500002419320FFF712FA02219420FFF70EFABC
:101760001420FEF74BFE01210720FFF707FA142093
:10177000FEF744FE61210720FFF700FA40F27311E3
:101780000720FFF7FBF900212020FFF7F7F90021E0
:101790002120FFF7F3F922210020FFF7EFF986E17E
:1017A0007A480088A0F5094189397DD101210020BE
:1017B000FFF7E4F94AF6A4010320FFF7DFF900215F
:1017C0000C20FFF7DBF940F60C010D20FFF7D6F9EE
:1017D0004FF42C510E20FFF7D1F9B0211E20FFF756
:1017E000CDF942F63F310120FFF7C8F94FF4C0614F
:1017F0000220FFF7C3F900211020FFF7BFF946F2DE
:1018000070011120FFF7BAF900210520FFF7B6F9A2
:1018100000210620FFF7B2F94EF61C711620FFF7E3
:10182000ADF903211720FFF7A9F940F23321072072
:10183000FFF7A4F900210B20FFF7A0F900210F20EA
:10184000FFF79CF900214120FFF798F90021422081
:10185000FFF794F900214820FFF790F940F23F117B
:101860004920FFF78BF900214A20FFF787F9002173
:101870004B20FFF783F94FF46F414420FFF77EF9C7
:1018800000214520FFF77AF940F23F114620FFF78B
:1018900075F940F207713020FFF770F94FF40171CC
:1018A0003120FFF76BF900E03DE04FF40171322089
:1018B000FFF764F940F202513320FFF75FF940F27D
:1018C00007513420FFF75AF94FF401713520FFF723
:1018D00055F94FF401713620FFF750F940F20251EB
:1018E0003720FFF74BF940F202313A20FFF746F973
:1018F00040F202313B20FFF741F900212320FFF79E
:101900003DF900212420FFF739F94FF4004125204B
:10191000FFF734F900214F20FFF730F900214E2066
:10192000FFF72CF9C3E019480088A0F58A41313946
:101930007ED101210020FFF721F90A20FEF75EFD8C
:1019400041F228611020FFF719F90E211220FFF74C
:1019500015F940F639211320FFF710F90A20FEF798
:101960004DFD40211120FFF709F950211520FFF707
:1019700005F90A20FEF742FD1E211220FFF7FEF8AE
:101980000A20FEF73BFD4FF4B15101E00E000020AC
:101990001020FFF7F3F842F639211320FFF7EEF895
:1019A0000A20FEF72BFD4FF480710120FFF7E6F8C7
:1019B0004FF440710220FFF7E1F841F230010320BB
:1019C000FFF7DCF840F202210820FFF7D7F80821E2
:1019D0000A20FFF7D3F800213020FFF7CFF840F2BC
:1019E00002413120FFF7CAF84FF483713220FFF72C
:1019F000C5F840F203513320FFF7C0F84FF482716D
:101A00003420FFF7BBF840F201313520FFF7B6F87C
:101A100040F207713620FFF7B1F840F20531372068
:101A2000FFF7ACF84FF402713820FFF7A7F800E099
:101A30003DE040F60B713920FFF7A0F8022141206C
:101A4000FFF79CF84FF41C516020FFF797F8012135
:101A50006120FFF793F84FF404719020FFF78EF8A0
:101A60004FF485719220FFF789F804219320FFF746
:101A700085F84FF48071A020FFF780F8012107203E
:101A8000FFF77CF821210720FFF778F823210720B2
:101A9000FFF774F833210720FFF770F840F2331195
:101AA0000720FFF76BF80021A020FFF767F801205F
:101AB000F84908604FF6FF70FFF74EF910BD2DE9A9
:101AC000F05F05460E4617469846DDF828A04FF011
:101AD000000B781B401C1FFA80FB34461EE0214699
:101AE000284602F0E9FAFFF793F84FF0000911E0F9
:101AF0004FF48070E849086140004861E748C0F849
:101B00000CAC8020486108618000086109F1010087
:101B10001FFA80F9D945EBDB601C84B24445DEDD59
:101B2000BDE8F09F2DE9FF4F85B081468A46002031
:101B3000049003900798A0EB09050898A0EB0A060B
:101B4000CDF80890CDF804A0002D01DD012705E0B7
:101B50000DB9002702E04FF0FF376D42002E02DD85
:101B60004FF0010806E016B94FF0000802E04FF010
:101B7000FF387642B54201DD2C4600E034464FF096
:101B8000000B21E0019881B2029880B2FFF7C7F8FC
:101B90000498284404900398304403900498A04289
:101BA00005DD0498001B04900298384402900398C5
:101BB000A04205DD0398001B03900198404401906A
:101BC0000BF101001FFA80FB601C8345DADD09B0D0
:101BD000BDE8F08F2DE9F04104460D4616461F463C
:101BE0002B46324629462046FFF79CFF3B462246BD
:101BF00029462046FFF796FF3B46324639462046A7
:101C0000FFF790FF3B46324629463046FFF78AFFF2
:101C1000BDE8F0812DE9F04706460F4690460024C6
:101C200045460320A0EB480948E03A1B91B2721BDD
:101C300090B2FFF774F83A1B91B2721990B2FFF7A5
:101C40006EF87A1991B2321B90B2FFF768F83A1B1E
:101C500091B2721B90B2FFF762F87A1B91B2321BFD
:101C600090B2FFF75CF83A1991B2721990B2FFF78F
:101C700056F87A1B91B2321990B2FFF750F87A19E0
:101C800091B2321990B2FFF74AF83A1991B2721B29
:101C900090B2FFF744F8641CB9F1000F03DAA0001A
:101CA000801D814404E0601B80000A3081446D1E69
:101CB0007A1991B2321990B2FFF731F8AC42B4DD23
:101CC000BDE8F0872DE9FF4F81B0074689461646EB
:101CD0001D46BB46724800880090E82F02DCB9F52B
:101CE0009C7F02DD05B0BDE8F08FA6F12000C6B2F2
:101CF0000E98C8BB002434E00C2D07D106EB46003B
:101D0000684901EB800010F804A004E0664800EB8D
:101D1000061010F804A04FF0000816E01AF0010FAA
:101D200003D05F490098088003E0604800885C4960
:101D3000088049463846FEF7F2FF4FEA6A0A781CE7
:101D400087B208F1010000F0FF0805EBD571B8EB90
:101D5000610FE3DB5F4609F101001FFA80F9601CA7
:101D6000C4B2AC42C8DB2EE0FFE7002429E00C2D12
:101D700007D106EB46004B4901EB800010F804A0A8
:101D800004E0494800EB061010F804A04FF00008EA
:101D900010E01AF0010F07D009EB040291B207EB33
:101DA000080290B2FEF7BBFF4FEA6A0A08F1010091
:101DB00000F0FF0805EBD571B8EB610FE9DB601CA3
:101DC000C4B2AC42D3DB36490098088000BF89E733
:101DD00010B50246012000E050430B00A1F10104C0
:101DE000E1B2F9D110BD2DE9FF4F81B00746914610
:101DF0001E460E9D4FF0000A00243BE0301B401EA3
:101E0000C1B20A20FFF7E4FFB9FBF0F00A21B0FBF2
:101E1000F1F201FB120000F0FF08BAF1000F16D139
:101E2000701EA04213DDB8F1000F0ED10023AB46A7
:101E300005EBD571491001FB047188B200932B4664
:101E400020220299FFF73EFF12E04FF0010A002323
:101E5000AB4605EBD571491001FB047188B20093C4
:101E60002B4608F13001CAB20299FFF72BFF00BFE1
:101E7000601CC4B2B442C1DB05B0BDE8F08F2DE9EF
:101E8000FF4F81B007468A4690461D460E9E0024AD
:101E90002FE00000A8012242001001400000014094
:101EA0000A000020464B0008BA4F00080C00002032
:101EB000281B401EC1B20A20FFF78AFFB8FBF0F0D2
:101EC0000A21B0FBF1F201FB120000F0FF090F9BA9
:101ED000B34606EBD671491001FB047188B200933A
:101EE000334609F13001CAB25146FFF7EBFE601CE0
:101EF000C4B2AC42DCDB05B0BDE8F08FF8B50546F6
:101F00000E4614461BE0E82D03DD002506F1100007
:101F100086B2B6F59C7F06DD0020054606464FF6E4
:101F2000FF70FEF719FF002300932278102331463B
:101F30002846FFF7C7FE05F1080085B2641C20782B
:101F40000028E0D1F8BD0000F0B503460C46154668
:101F5000642093FBF0F0C6B2642093FBF0F700FB23
:101F60001730C1B2132E02DD01F16400C1B2084680
:101F7000CF1701EB977701EBA702072092FBF0F751
:101F800000FB172082B25719601EDFF86CC41CF8E2
:101F90000000384482B2CF1701EB9777BF10B1EB46
:101FA000870703D1032C01DA501E82B2072092FB6F
:101FB000F0F700FB1720C0B2F0BD0146CA1701EBD5
:101FC00092729210B1EB820212D1642091FBF0F276
:101FD00000FB121050B94FF4C87091FBF0F200FBF7
:101FE000121008B9012070470020FCE70120FAE731
:101FF0000020F8E770B5002600240025FF48068879
:102000004FEA0646FE48B0F81C080644FD48B6FBF9
:10201000F0F4FD480088A0423AD0FB490C8040F221
:10202000B2750EE02846FFF7C8FF30B1B4F5B77FB0
:1020300002D3A4F5B77402E006E0A4F26D14681CA4
:1020400085B2B4F5B67FEDD800BFF0488580002595
:1020500016E0EE498888FFF7B0FF30B1012D04D1BA
:102060001D2C01D31D3C09E00CE0E948405DA04275
:1020700003D8E748405D241A00E003E0681C85B2FD
:102080001C2CE6D200BF681CE0498871601CC87136
:10209000DC48B6FBF0F100FB11644FF46160B4FB67
:1020A000F0F0DA4908704FF46160B4FBF0F100FB26
:1020B00011403C21B0FBF1F0D44948704FF461600D
:1020C000B4FBF0F100FB11403C21B0FBF1F201FB4D
:1020D0001200CE4988700B46DA7999799888FFF713
:1020E00033FFCA490872002070BD2DE9F04705464C
:1020F0000E4617469846DDE9089A002340F2B27072
:10210000854203DB40F63300854202DD0120BDE855
:10211000F08740F2B2740AE02046FFF74EFF10B19C
:10212000BC48034401E0BC480344601C84B2AC4298
:10213000F2DB701EC6B2002410E0B548005D40F22C
:10214000A321484303EBC0132846FFF736FF18B11D
:10215000012C01D1AB480344601C84B2B442ECDBD7
:10216000781E40F2A321484303EBC013C8EB48108C
:10217000C0EB082003EB0013C9EB091003EB80034D
:102180005344A648C06940F08050A449C86108463D
:10219000C06940F00060C861A148006840F48070E8
:1021A0009F4908609F48008840F010009449A1F8BA
:1021B00004089D490B804FEA13409149A1F8180883
:1021C0000846B0F8040820F01000A1F8040800BF89
:1021D0009448008810F0200FFAD0002097E770B5DF
:1021E0000346002409E013F8015B11F8016BB542C6
:1021F00001D0002070BD601CC4B29442F3DB01200A
:10220000F8E72DE9FE47002406E088480068005DF5
:1022100002A90855601CC4B2032CF6DB00240BE0B5
:1022200004EB4401824A8818032202A9FFF7D7FF72
:1022300000B103E0601CC4B20C2CF1DB00BF601CD9
:10224000C6B27A4800680079202805D1774800682E
:1022500040793038C5B20BE0744800684179734862
:102260000068007930380A2202FB00103038C5B20D
:102270006E480068C07930384FF47A7148436B4932
:102280000968097A3039642202FB01016748006855
:10229000407A30380A2202FB001064490968897AC2
:1022A0000844303887B26348006841786148006864
:1022B0000078303802FB0010303800F0FF0A5D482B
:1022C000006801795B480068C078303802FB001074
:1022D000303800F0FF0957480068C1795548006858
:1022E0008079303802FB0010303800F0FF08534688
:1022F0002A4631463846CDE90098FFF7F6FEBDE89C
:10230000FE8710B500244C480088A0F5A041503944
:1023100071D04248C06940F080504049C8610846C9
:10232000C06940F00060C8613D48006840F48070BA
:102330003B4908603948006A40F4803037490862F8
:102340000846006A20F4803008620846006A40F0BF
:102350000100086204E0601CC4B20A20FEF74EF8D7
:102360002E48006A10F0020F01D1FA2CF3DBFA2C90
:1023700001DB012010BD2948006A40F48070274924
:1023800008620846006A40F40040086200BF254821
:10239000008810F0200FFAD000BF2248008810F00B
:1023A000080FFAD02548008840F001001449A1F830
:1023B000000800BF1B48008810F0200FFAD0194811
:1023C000008840F010000E49A1F804084FF000000A
:1023D0001B49088047F6FF700949A1F80C08FFF770
:1023E00010FF0748B0F8040820F010000449A1F8D5
:1023F000040800BF26E02FE0AA5500081828004076
:102400000020004080510100100000202002002028
:10241000B65500080085E2018033E101001002405A
:1024200000700040042800401C28004014000020D8
:10243000C255000818000020046C0040002800402D
:10244000082800402548008810F0200FD2D045F21F
:1024500050002349088012E000BF2048008810F097
:10246000080FFAD01F48008840F001001E49A1F86B
:10247000000800BF1948008810F0200FFAD002238E
:10248000032200210846FEF70EF8FFF7B3FD0020F7
:1024900070E700B51148008810F0010F01D0FFF778
:1024A000A9FD0E48008810F0020F06D00B480088E6
:1024B00020F002000C49A1F804080848008840F602
:1024C000FA7100EA01000849A1F8040800BF0348B6
:1024D000008810F0200FFAD000BD00000428004052
:1024E000046C0040002800400020004010B5324835
:1024F000C06840F4FE703049C860FEF79EF810BD19
:1025000070B50025002400202C4908601BE02C48F1
:10251000006818B1681CC5B2002409E0601CC4B290
:10252000032C05DD0120254908604FF0000070BD37
:102530001E20FDF763FF642D05DB00201F490860A6
:102540004FF00100F3E7E2E710B501201D490860F4
:10255000FFF7D6FF08B1FFF7C9FF10BD10B5164849
:10256000806940F00400144988610846806940F0A1
:10257000010088611448006820F00F001349C1F879
:1025800000080846D0F8000840F00800C1F800082C
:102590004FF002024FF000010846FDF7D1FFFFF7B0
:1025A000AFFF08B9FEF749F802230622194618467C
:1025B000FDF779FF10BD000000100240A00121428C
:1025C00000012142140401400008014000000140C4
:1025D00010B500F0BBF810BD70B50446002600F041
:1025E000CCF82546E11704EB11610912A02202EB99
:1025F0004101C8B200F075F900F002F9E11704EBEF
:1026000011610912A4EB0121C8B200F06AF900F0CF
:10261000F7F800F0B2F8A12000F063F900F0F0F84C
:10262000002000F08EF9064600F0C9F8304670BD73
:1026300070B504460E4600F0A0F82546E11704EBFD
:1026400011610912A02202EB4101C8B200F049F960
:1026500000F0D6F8E11704EB11610912A4EB012197
:10266000C8B200F03EF900F0CBF8304600F039F97E
:1026700000F0C6F800F0A3F80A20FDF7BFFE70BD19
:102680002DE9F04105460E461746002409E0E20018
:1026900026FA02F2D1B22A1990B2FFF7C9FF601CE4
:1026A000C4B2BC42F3DBBDE8F0812DE9F04107463E
:1026B0000C460026002509E036023919491B491E3F
:1026C00088B2FFF789FF0644681CC5B2A542F3DB58
:1026D0003046BDE8F08110B5FF20FFF77DFF0446CE
:1026E000552C01D1002010BD5521FF20FFF7A0FF80
:1026F000FF20FFF771FF0446552C01D10020F2E7BF
:102700000120F0E770B506460C46154608E0304655
:10271000721C96B2FFF760FF04F8010B681E85B2C9
:10272000002DF4D170BD70B505460C46164606E086
:1027300021782846FFF77CFF681C85B2641C3000B6
:10274000A6F101018EB2F3D170BD000095488069F9
:1027500040F01000934988619348406820F47F203E
:10276000914948600846406840F44C30486008464B
:10277000C06840F4C050C860704710B58A484068CF
:1027800020F47040884948600846406840F4405052
:1027900048600120854908608549C1F8B0014FF0C3
:1027A0000400FDF746FE0020804908604FF0040059
:1027B000FDF73FFE00207E49C1F8B00110BD10B505
:1027C0007948406820F4704077494860084640687E
:1027D00040F4405048600020764908607449C1F8D0
:1027E000AC014FF00400FDF724FE012071490860A0
:1027F0006F49C1F8AC014FF00400FDF71AFE10BD9F
:1028000010B500246848406820F47040664948606C
:102810000846406840F40040486001206349086071
:10282000FDF707FE01206249C1F8B001FDF701FE86
:1028300007E0601CC4B2FA2C03DDFFF7C0FF0120E3
:1028400010BD5D4800680028F3D15A49086000BFF8
:10285000F6E710B50020574908605348406820F457
:102860007040514948600846406840F44050486014
:102870004FF000004E49C1F8AC014FF00200FDF7E7
:10288000D8FD01204B4908604FF00200FDF7D1FD53
:1028900000204749C1F8B00110BD10B500204549DE
:1028A00008604148406820F470403F49486008464D
:1028B000406840F4405048604FF001003C49C1F886
:1028C000AC014FF00200FDF7B4FD0120394908606A
:1028D0004FF00200FDF7ADFD00203549C1F8B00111
:1028E00010BD70B504463048406820F470402E4951
:1028F00048600846406840F44050486000202D4938
:10290000086005461AE0E009284908604FEA44607B
:102910004FEA10644FF00200FDF78BFD01202449BF
:10292000C1F8B0010220FDF784FD002021490860B4
:102930004FF00200FDF77DFD681CC5B2082DE2DBFB
:1029400070BD70B5054600241748406820F47040FB
:10295000154948600846406840F400404860002639
:1029600016E00020134908604FF00200FDF761FDFA
:1029700001200F49C1F8B0016006040E0E4800683E
:1029800008B1601CC4B20120FDF753FD701CC6B233
:10299000082EE6DB15B9FFF780FF01E0FFF759FFCE
:1029A000204670BD0010024000100140AC012242E0
:1029B00000002242B00122422C01224202460021A4
:1029C00005E0481CC1B2C82901DD0020704751480C
:1029D000008910F0020FF4D04E488281002105E0FA
:1029E000481CC1B2C82901DD0020EFE74948008931
:1029F00010F0010FF4D047488089C0B2E6E700B577
:102A00004548806940F00400434988610846806970
:102A100040F48050886141480068C0F31300404989
:102A2000C1F800083D4800683E4940EA01003C49C1
:102A3000C1F800080846D0F80C0840F0E000C1F8E2
:102A40000C0834480088334908800846008840F460
:102A5000007008800846008840F4807008800846AE
:102A6000008840F004000880084600880880084676
:102A7000008840F0020008800846008840F001000D
:102A800008800846008840F0380008800846008822
:102A900008800846008840F0400008804FF0FF00A2
:102AA000FFF78CFF00BD1B4909884FF6C772114024
:102AB000184A1180052825D2DFE800F003080F1618
:102AC0001D0014490988134A11801BE01149098827
:102AD00041F008010F4A118014E00E49098841F0C5
:102AE00010010C4A11800DE00A49098841F01801D3
:102AF000084A118006E00749098841F03801054A73
:102B0000118000BF00BF0349098841F04001014A1C
:102B10001180704700300140001002400008014061
:102B2000000001400000B0BB002100BF16E010F023
:102B3000800F03D00122F84B1A6002E00022F64B0E
:102B40001A604206100E0022F44B1A604FF0010288
:102B5000F34BC3F8802101F10102D1B20829E6DB71
:102B6000704770B50646002500240020EB49086038
:102B7000EB49C1F8B4013046FFF7D6FF0620FDF758
:102B800058FC0120E54908604FF00000E449C1F815
:102B9000800100BF10E06004040C0020DF490860E1
:102BA0004FF00100DE49C1F88001DE48006808B13D
:102BB000601C84B2681CC5B2102DECDB241101200E
:102BC000D9490860204670BD2DE9F04188B08046A3
:102BD0000027002406E04046FFF7C3FF2DF814004D
:102BE000601C84B20F2CF6DB002416E0601C85B25A
:102BF0000FE03DF814003DF81510884207DD3DF860
:102C000014603DF815002DF814002DF81560681CAF
:102C100085B20F2DEDDB601C84B20E2CE6DB0027A5
:102C2000052405E03DF81400384487B2601C84B2E6
:102C30000A2CF7DB052097FBF0F086B2304608B08F
:102C4000BDE8F0812DE9F04104460D46D020FFF7A4
:102C5000BBFF06469020FFF7B7FF0746642E01DB57
:102C6000642F02DA0020BDE8F08126802F80012049
:102C7000F9E77FB504460D4602A903A8FFF7E2FF76
:102C8000064616B9002004B070BD694601A8FFF7DA
:102C9000D9FF06460EB90020F5E7BDF80400BDF8DF
:102CA0000C10884206DCBDF80C10BDF80400323070
:102CB00081420CDBBDF80C00BDF80410884236DC04
:102CC000BDF80410BDF80C00323081422FDABDF897
:102CD0000000BDF80810884206DCBDF80810BDF8F9
:102CE0000000323081420CDBBDF80800BDF8001056
:102CF00088421CDCBDF80010BDF80800323081426B
:102D000015DABDF80C10BDF80420881800EBD0715E
:102D1000C1F34F012180BDF80810BDF800208818CC
:102D200000EBD071C1F34F0129800120ABE70020F7
:102D3000A9E738B17D49096841F002017C4AC2F82F
:102D4000001406E07949096821F00201784AC2F8C6
:102D50000014704710B500240020FFF7EAFF0020A0
:102D600074490872891D881EFFF783FF04E0601C08
:102D7000C4B20A20FDF742FB6F48006808B9FA2C7C
:102D8000F5DD0120FFF7D5FFFA2C01DB002010BD97
:102D90000120FCE770B504460D46A4F10C0188B291
:102DA0002B4604F10D022946FEF7BCFEA5F10C00EE
:102DB00081B2193083B222462046FEF7B3FE681C6A
:102DC00081B2601CFDF7ABFF611E88B2691C89B23D
:102DD000FDF7A5FF681E81B2601CFDF7A0FF6A1E0B
:102DE00091B2621E90B2FDF79AFF06222946204654
:102DF000FEF710FF70BD70B504460D46294620460B
:102E0000FDF78DFF2946601CFDF789FF681C81B224
:102E10002046FDF784FF681C81B2601CFDF77FFF30
:102E200070BD2DE9F0414349891D881EFFF721FF40
:102E300080B34049B1F9140001F006FD06463D4952
:102E4000888801F019FD07463A48C168384601F004
:102E500027FD0546314601F097FB044601F0D4FCFE
:102E600034490880B1F9160001F0EEFC06463149FC
:102E7000C88801F001FD07462E480169384601F077
:102E80000FFD0546314601F07FFB044601F0BCFC16
:102E900028494880BDE8F0810120264908720220B7
:102EA00026490860704770B52249C868244901F076
:102EB000F7FC054601F08CFC04460422214628203C
:102EC000FFF7DEFB1B4908691D4901F0E9FC0546D7
:102ED00001F07EFC0446042221462C20FFF7D0FBA3
:102EE0001448B0F9141002223020FFF7C9FB114832
:102EF000B0F9161002223220FFF7C2FB3420FFF790
:102F00006BFB044604F0F00444F00A04214634202C
:102F1000FFF78EFB70BD00008C012242800122422F
:102F20000000224208012242B40122420004014072
:102F3000000001402C020020040122421404014040
:102F400020BCBE4C70B53420FFF746FB044604F0AD
:102F50000F000A282DD104212820FFF7A6FB0446E4
:102F6000204601F071FC0546FF4901F06FFBFF4967
:102F7000C86004212C20FFF798FB0446204601F08E
:102F800063FC0546F84901F061FBF849086102213C
:102F90003020FFF78AFB044620B2F44988820221E0
:102FA0003220FFF782FB044620B2F049C88201209C
:102FB00070BD0020FCE72DE9F04F87B04FF000080E
:102FC00000BF1F20EA4908804FF6FF70E9490880DA
:102FD000FDF7C2FE4FF47840E54908804FF6FF70D8
:102FE000FDF7BAFE14210846FFF7D4FE0020DF49A2
:102FF0000872C86010E2DD48007A01287DD1FFF731
:10300000A9FE68B1D948808803A921F82800D748CB
:10301000C08801EB8801488008F1010000F0FF083A
:10302000B8F1010F09D0B8F1020F0FD0B8F1030FBA
:1030300016D0B8F1040F08D11CE04FF6FF70FDF771
:103040008BFE1421DC20FFF7A5FEE3E14FF6FF70B5
:10305000FDF782FE4FF496711420FFF79BFED9E135
:103060004FF6FF70FDF778FE4FF49671DC20FFF706
:1030700091FECFE1BDF80C10BDF81020881A01D4E4
:10308000014600E041420E46BDF80E20BDF8121088
:10309000501A01D4014600E041420F4676437F4377
:1030A000F01901F086F8CDE9000101F023F804469B
:1030B00001F052F81FFA80F9BDF81410BDF818207D
:1030C000881A01D4014600E041420E46BDF81620A0
:1030D000BDF81A10501A01D4014600E041420F46D3
:1030E00076437F43F01901F064F8044601F002F8DA
:1030F000CDE9000101F030F800E08CE11FFA80FA20
:10310000504601F0B9FB0446484601F0B5FB0546C0
:10311000214601F09BFA0290029801F009FA044658
:103120004FF06632944B01F057F80ED3029801F03D
:10313000FFF90446914A924B01F0DEF805D3B9F14C
:10314000000F02D0BAF1000F0AD14FF000084FF67D
:10315000FF70FDF701FE14210846FFF71BFE5BE13F
:10316000BDF80C10BDF81420881A01D4014600E007
:1031700041420E46BDF80E20BDF81610501A01D47B
:10318000014600E041420F4676437F43F01901F0CB
:1031900010F8CDE9000100F0ADFF044600F0DCFFBF
:1031A0001FFA80F9BDF81010BDF81820881A01D454
:1031B000014600E041420E46BDF81220BDF81A104B
:1031C000501A01D4014600E041420F4676437F4346
:1031D000F01900F0EEFFCDE9000100F08BFF04468E
:1031E00000F0BAFF1FFA80FA504601F045FB044692
:1031F000484601F041FB0546214601F027FA0290BE
:10320000029801F095F904464FF066325A4B00F0EF
:10321000E3FF08D3029801F08BF90446574A584B54
:1032200001F06AF80AD24FF000084FF6FF70FDF780
:1032300093FD14210846FFF7ADFDEDE0BDF8101039
:10324000BDF81420881A01D4014600E041420E4620
:10325000BDF81220BDF81610501A01D4014600E046
:1032600041420F4676437F43F01900F0A2FF044627
:1032700000F040FFCDE9000100F06EFF1FFA80F979
:10328000BDF80C10BDF81820881A01D4014600E0E2
:1032900041420E46BDF80E20BDF81A10501A01D456
:1032A000014600E041420F4676437F43F01900F0AB
:1032B00080FF044600F01EFFCDE9000100F04CFF46
:1032C0001FFA80FA504601F0D7FA0446484601F04A
:1032D000D3FA0546214601F0B9F90290029801F0AF
:1032E00027F904464FF06632234B00F075FF08D3F0
:1032F000029801F01DF90446204A214B00F0FCFF22
:103300000AD24FF000084FF6FF70FDF725FD14219B
:103310000846FFF73FFD7FE0BDF81010BDF80C2018
:10332000881A01F091FA04460146164801F08EF918
:103330000E49C860BDF81010BDF80C20881801F0C7
:1033400083FA01900948C168019801F0A9FA8346FF
:103350000D4901F078FB05464FF0804101F076F908
:10336000044601F035FA11E020BCBE4C2C020020CE
:103370000A0000200C0000206666EE3FCDCCCCCCCD
:10338000CCCCF03F000048430000704300B25649E7
:103390008882BDF81610BDF80E20881A01F054FA84
:1033A00004460146514801F051F94F490861BDF802
:1033B0001610BDF80E20881801F046FA01904A4810
:1033C0000169019801F06CFA8346494901F03BFB21
:1033D00005464FF0804101F039F9044601F0F8F953
:1033E00000B24149C8821F20424908804FF6FF7051
:1033F000FDF7B2FC40A26E212320FEF77FFD4FF4C3
:103400007A70FCF7FBFF4FF6FF70FDF7A5FC07B0E5
:10341000BDE8F08F00BF00BFEDE510B53C48806906
:1034200040F010003A4988610846806940F0010088
:103430008861384800686FF30F0036490860084615
:10344000006843F683010843324908600846406833
:1034500020F4700048600846406840F4401048601E
:103460000846C06842F20F0108432A49C8601E4955
:10347000891D881EFFF7E6FB02230722002118465C
:10348000FDF711F82248806940F001002049886169
:103490002148806840F020001F4988601F4800686C
:1034A00040F00200C1F800040846D0F8040440F0DF
:1034B0000200C1F804040846D0F80C0440F00200F1
:1034C000C1F80C04FFF784F8FFF73CFD00B110BD14
:1034D0004FF6FF70FDF740FCFFF76DFDFFF7E3FCD3
:1034E000FFF730FD00BFF2E72C02002000008C4304
:1034F0000000A0430A000020546F756368205363E6
:103500007265656E2041646A757374204F4B2100AB
:103510000010024000100140000001400004014082
:1035200070B5054640F6FF7401E0601E84B2FF20CE
:10353000FFF744FAA84201D0002CF6D10CB9FF20C5
:1035400070BD0020FCE770B5FF25002400BFFF2000
:10355000FFF734FA00F01F05A4F57F40FE3801D1D3
:10356000012070BD641C052D04D00B2D04D00D2D41
:1035700006D103E0052505E00B20F2E70D20F0E77A
:10358000FF2500BF00BFFF2DE1D0002405E0641C33
:1035900014F1020F01D3FF20E3E7FF20FFF70EFA3B
:1035A0000028F4D00020DCE72DE9F04105460C4668
:1035B000164600270120FD4908604FF0FF00FFF785
:1035C000FDF9FF20FFF7FAF9FF20FFF7F7F90020D8
:1035D000F749C1F88C0145F04000FFF7EFF9200EE4
:1035E000FFF7ECF9C4F30740FFF7E8F9C4F307204D
:1035F000FFF7E4F9E0B2FFF7E1F93046FFF7DEF953
:1036000004E0781CC7B2C82F00DD05E0FF20FFF7FB
:10361000D5F98046FF28F4D000BF0120E3490860B7
:103620004FF0FF00FFF7CAF94046BDE8F0812DE9F1
:10363000F04105460C4616460027FF20FFF7BEF96D
:10364000FF20FFF7BBF90020D849086045F0400093
:10365000FFF7B4F9200EFFF7B1F9C4F30740FFF705
:10366000ADF9C4F30720FFF7A9F9E0B2FFF7A6F917
:103670003046FFF7A3F904E0781CC7B2C82F00DD7D
:1036800005E0FF20FFF79AF98046FF28F4D000BF3D
:103690004046BDE8F08170B5002401E0601C84B2B2
:1036A000B4F5706FFADB002404E0FF20FFF786F921
:1036B000601C84B20A2CF8DB002500BF9522002193
:1036C0000846FFF771FF0446681CC5B2012C01D003
:1036D000C82DF3DBC82D01D1012070BD0020FCE70F
:1036E0007CB5B448806940F00400B2498861B248B2
:1036F0000068B24900EA0100B149C1F80008AE48CB
:103700000068B04940EA0100AD49C1F80008084628
:10371000D0F80C0840F01C00C1F80C08FFF76FF956
:103720000420FFF7C0F90120A0490860FFF7B3FFAC
:1037300008B101207CBD00209C4908604FF0870241
:103740004FF4D5714FF00800FFF771FF0446052CC8
:1037500052D101209C490870944908604FF0FF0045
:10376000FFF72CF9002500BF002211463720FFF794
:103770001BFF0446FF2C01D12046DBE70022114647
:103780002920FFF711FF0446681C85B214B1B5F576
:10379000C87FE9DBB5F5C87F15D1002500BF002241
:1037A00011460120FFF700FF0446681C85B214B1E2
:1037B000B5F5C87FF3DBB5F5C87F01D10120B9E7C6
:1037C0000020814908700120FFF76DF9FF20FFF705
:1037D000F5F8952200213B20FFF7E6FE04460CB1E8
:1037E0002046A7E795224FF400711020FFF7DCFE7A
:1037F0000446ACB320469DE7012C6AD1FF20FFF7B9
:10380000DDF88DF80000FF20FFF7D8F88DF80100F3
:10381000FF20FFF7D3F88DF80200FF20FFF7CEF866
:103820008DF803000120614908604FF0FF00FFF7A9
:10383000C5F8002500BF002211463720FFF7B4FE6F
:103840000446012C01D0204674E700224FF080414D
:103850002920FFF7A9FE0446C82D02DD204669E7AE
:1038600037E0002CE7D1002211463A20FFF7DFFEB7
:10387000044624B101204D49086020465AE7FF2044
:10388000FFF79CF88DF80000FF20FFF797F88DF800
:103890000100FF20FFF792F88DF80200FF20FFF7EC
:1038A0008DF88DF803000120404908604FF0FF00BB
:1038B000FFF784F89DF8000010F0400F03D00420BB
:1038C0004149087002E002203F4908700120FFF7DB
:1038D000EAF820462EE770B504460E46154600204D
:1038E000324908604FF0FE00FFF71AFE18B10120C0
:1038F0002E49086070BD04E0FF20FFF75FF82070DC
:10390000641C3000A6F101018EB2F5D1FF20FFF753
:1039100055F8FF20FFF752F8012D06D10120234969
:1039200008604FF0FF00FFF749F80020E2E770B5AC
:103930000546FF2200210A20FFF736FE04460CB19F
:10394000204670BD012210212846FFF7C4FF002049
:10395000F7E770B50546FF2200210920FFF724FE96
:1039600004460CB1204670BD012210212846FFF705
:10397000B2FF0020F7E72DE9FF416846FFF7E9FFB6
:1039800018B1002004B0BDE8F0819DF8000000F0FF
:10399000C00040281AD19DF8080005029DF80900D2
:1039A000401C0544AD026D023FE000008C01214245
:1039B000000021420010024000080140FF00F0FF1B
:1039C00000000140003303001C0000209DF80600A9
:1039D00000F0030424029DF807000444A4009DF8AD
:1039E000080004EB90149DF8090000F0030676002F
:1039F0009DF80A0006EBD016B61C012703E07804F8
:103A0000070C701EC6B2002EF9D1601C00FB07F532
:103A10009DF8050000F00F04012703E07804070C6F
:103A2000601E84B2002CF9D17D432846AAE770B508
:103A300005460E460120FFF736F8FA4800780428BC
:103A400000D06D02002229461120FFF7ADFD04468B
:103A50000CB1204670BD012251023046FFF73BFFFA
:103A600004460CB12046F5E70020F3E72DE9F05FAE
:103A700004460E4617464FF0000BD9464FEA572B27
:103A80000020E949086033E006EB090AE5480078C0
:103A9000042801D14FEA5A2AFF2251461820FFF785
:103AA000C6FD054625B10120DF490860BDE8F09F4D
:103AB000FE20FEF783FF4FF0000805E014F8010B2D
:103AC000FEF77CFF08F10108B8F5007FF6D3FF2070
:103AD000FEF774FFFF20FEF771FFFFF734FD28B1FA
:103AE0000120D14908604FF00200DFE709F50079B5
:103AF0005FEA0B00ABF1010BC6D10120CA49086097
:103B00004FF0FF00FEF75AFF0020CFE72DE9F04706
:103B100005460E4617464FF0000AD046C14600241F
:103B20004FEA572A0020C049086024E006EB080944
:103B3000BC480078042801D14FEA5929FF224946A0
:103B40001120FFF774FD04462CB10120B64908602E
:103B50002046BDE8F087012251022846FFF7BBFE50
:103B6000044624B10120B04908602046F1E705F57C
:103B7000007508F500785FEA0A00AAF1010AD5D1BC
:103B80000120A94908604FF0FF00FEF717FF002051
:103B9000DFE72DE9F04105460E46A24800780428EB
:103BA00000D06D02002229461820FFF7FDFC0446D4
:103BB00014B12046BDE8F08100209B4908604FF019
:103BC000FF00FEF7FBFEFF20FEF7F8FEFF20FEF7EA
:103BD000F5FEFE20FEF7F2FE002705E016F8010BC9
:103BE000FEF7ECFE781C87B2B7F5007FF6DBFF200E
:103BF000FEF7E4FEFF20FEF7E1FEFF20FEF7DEFE0B
:103C0000044604F01F00052804D0012086490860FE
:103C10002046CFE74FF000080BE008F101001FFA43
:103C200080F84FF6FE70804503DD01207E49086074
:103C3000C0E7FF20FEF7C2FE0028EED001207A493F
:103C400008604FF0FF00FEF7B9FE0020B2E72DE953
:103C5000F04105460E46144672480078042800D00C
:103C60006D02002229461220FFF79EFC074617B17D
:103C70003846BDE8F08100BF00224FF400713046A5
:103C8000FFF729FE00B105E006F50076601EC0B220
:103C90000400F1D100BF002211460C20FFF784FC84
:103CA0000120614908604FF0FF00FEF787FE0CB16C
:103CB0002046DEE70020DCE72DE9F04106460F460E
:103CC000154658480078042800D0760255480078F8
:103CD00028B1002229461720FFF766FC044600227F
:103CE00031461920FFF760FC044614B12046BDE8B8
:103CF000F08100204C4908604FF0FF00FEF75EFEA7
:103D0000FF20FEF75BFE00BFFC20FEF757FE4FF0E2
:103D1000000807E017F8010BFEF750FE08F101005C
:103D20001FFA80F8B8F5007FF4DBFF20FEF746FEAF
:103D3000FF20FEF743FEFF20FEF740FE044604F09E
:103D40001F00052804D00120374908602046CEE72F
:103D5000FFF7F9FB012802D133490860C7E7681E65
:103D6000C0B20500D0D1FD20FEF728FE044604B9FC
:103D7000FE25FFF7E8FB18B101202B490860B6E7E4
:103D80000120294908604FF0FF00FEF717FE284682
:103D9000ADE72DE9F04707460D4616469846002444
:103DA000790200221120FFF7FFFB8146B9F1000FD5
:103DB00002D04846BDE8F08700201B4908604FF05C
:103DC000FE00FFF7ADFB18B1012017490860F1E7CD
:103DD000002404E0FF20FEF7F1FD601C84B2B44231
:103DE000F8D306E0FF20FEF7E9FD05F8010B601CA3
:103DF00084B206EB0800A042F4D804E0FF20FEF7EE
:103E0000DDFD601C84B2B4F5007FF7DBFF20FEF718
:103E1000D5FDFF20FEF7D2FD0120034908604FF0D9
:103E20000000C7E71C0000208C0121427047000001
:103E30000FB4044910B503AA029800F0D3F810BCDF
:103E40005DF814FB040000202DE9F04104460E4605
:103E500000200AE0E1682046884738B3252806D0CC
:103E6000D4E901219047206A401C2062F2E7E16812
:103E7000204600278847050018D0A5F141001928E1
:103E800002D820354FF40067324629462046276085
:103E9000FCF766F940B1012804D0F61D26F00706AC
:103EA0000836D7E7361DD5E72846D9E7206ABDE8AA
:103EB000F081000070B504460D4621461068AFF34E
:103EC00000802168090502D5104A7A4402E00F4AB1
:103ED0007A440E32002104F1240307E000F00F06BB
:103EE0004FEA1010965D5E5401F101010028F5D1F2
:103EF00020680023000704D5702D02D009B11132CB
:103F000002232046BDE8704000F011B818170000E9
:103F1000704770477047704710B500F075F800683B
:103F200010BD10B5044600F06FF8046010BD2DE917
:103F3000F0470D4604469246994600F12408016870
:103F4000880604D5E06921F01001216000E001201D
:103F50000027A84201DDA0EB0507A16907EB0502D8
:103F600002EB0300A1EB0000A0612068C00602D4B0
:103F70002046AFF30080002608E0D4E901211AF8BA
:103F800006009047206A401C761C20624E45F4DBF8
:103F90002068C0060AD52046AFF3008006E0D4E9C9
:103FA000012130209047206A401C2062381EA7F172
:103FB0000107F4DC07E0D4E9012118F80500904777
:103FC000206A401C2062281EA5F10105F3DC204672
:103FD000AFF3008021680220090600D40120BDE86B
:103FE000F0870000074B70B50C467B4400F017F8D3
:103FF0000546204600F026F810B14FF0FF3070BDA6
:10400000284670BD91C7FFFF01487047704700BF49
:104010004402002001694A1C02610878704700B51B
:104020008FB0CDE901310021059105497944CDE9F1
:10403000031011466846FFF707FF0FB000BD0000F0
:10404000E5FFFFFFC06800F0800070470048704740
:10405000440200207546FFF7F9FFAE4605006946A9
:10406000534620F00700854618B020B5FCF7A0F8AD
:10407000BDE820404FF000064FF000074FF0000869
:104080004FF0000B21F00701AC46ACE8C009ACE8EA
:10409000C009ACE8C009ACE8C0098D4670470446C9
:1040A000AFF300802046FCF76FF80000014870472E
:1040B000704700BF4802002030B504460D460C484A
:1040C0000088A0F50941893908D121464E20FCF726
:1040D00055FD29464F20FCF751FD07E021462020E1
:1040E000FCF74CFD29462120FCF748FD30BD0000BF
:1040F0000E0000202DE9F04106460F4600F032F98F
:1041000004000D4618BF0120284320F00040C0F1F4
:104110007F6010F1E0400ED5002E14BF012000207A
:10412000384320F00040C0F17F6010F1E0405CBFF8
:104130000120FFF7F6FE20462946BDE8F081491030
:1041400058BFC1F140415B1058BFC3F140438B429F
:10415000EFF30080704700004FEA1153A3F580632E
:10416000D3F11E03A8BFD3F1200C08DB4FF00042AF
:1041700042EAC12252EA505232FA03F07047094231
:104180000BD4102BC4BF0020704703F5787CBCF122
:10419000FF3F05D04FF0FF3070474FF000007047F1
:1041A00070B500F055F800BF499224800020704798
:1041B000F0E7B0FA80F310FA03F10AD0C3F11D035F
:1041C00003F580634FEA41504FEA035202EBD121DD
:1041D00070474FF00000704751EA030C17D41CF5EC
:1041E000801F58BFBCF5801F00F10680994218BFA0
:1041F000704708BF9042704707D711F5801F58BF1E
:1042000013F5801F19D499427047894270471CF5F5
:10421000801F08D5BCF5801FF7D58B4218BF7047AB
:1042200008BF824270474FF4001C1CEB410F38BF9F
:104230001CEB430F01D28B42704770B500F008F8B9
:10424000922449004FF000514FF08053FFF777BFA1
:104250000EF1020E2EF0030E5EF8046B364205D40A
:10426000012A43EB030515F5001F12D8012841EB85
:10427000010C1CF5001F0CD80ED14FEAD17C15F5AE
:10428000001F0CEB4C0C0CF1020C08BF4CEBD37C68
:1042900004E04FF0080C01E04FEAD37C0CEB4C0536
:1042A00026FA05F606F00706B6F1040C06D20EEB68
:1042B000860CBDE870404CF0010C6047DFE80CF064
:1042C000090B02024FF000414FF00000A1F5002160
:1042D00070BD19461046012851EB010418BFD4F5F2
:1042E000001484BF002001F0004170BD0808A0F553
:1042F00000114FEA3101704753EA010C17D41CF545
:10430000801F58BFBCF5801F00F106808B4218BF8C
:10431000704708BF8242704707D713F5801F58BF08
:1043200011F5801F19D48B4270479B4270471CF5D2
:10433000801F08D5BCF5801FF7D5994218BF70477C
:1043400008BF904270474FF4001C1CEB430F38BF6E
:104350001CEB410F01D2994270470FB40CBC03BC57
:10436000FFF76BBF2DE9F04101F5801CBCF5001F84
:10437000C0F2C3804FEA115C21EA0C510CF1FD0C34
:1043800041F480115FEA5C0C0CF5C07C01D3400065
:1043900049413DA4890241EA905187028E0E0A0CE0
:1043A000A45D04FB04F602FB06F6C6F14046A4FB3E
:1043B0000662F60D46EA422606FB06F4A4FB01233C
:1043C0005242C3F1404338BF5B1EA6FB02420024A9
:1043D000E6FB0324D20B42EA4446A6FB0623A1FBDC
:1043E00002E2A3FB07E4A4184FF0000252F100021E
:1043F000E3FB01426442C2F1404E38BFAEF1010E10
:10440000A6FB04234FF00002E6FB0E32A2FB03469C
:104410004FF00004B61954F10004E2FB0264A1FB62
:1044200006E6A4FB07E816EB08064FF0000858F173
:104430000008E4FB01687642C8F1405838BFA8F193
:104440000108A2FB06E4A3FB08E52D194FF00004C8
:1044500054F10004E2FB0854A1FB05E6A7FB04E8C5
:1044600018EB06084FF0000656F10006E1FB048643
:1044700018F1200556F10006A809A8F11B08B1099A
:1044800008F03F08B8F10A0F40EA86601CD901EB3A
:104490000C51BDE8F08100BFFCF5EEE8E2DDD8D3B9
:1044A000CFCBC7C3C0BDB9B6B4B1AEACA9A7A5A3A5
:1044B000A19F9D9B9A9896959392908F8D8C8B89B6
:1044C0008887868584838281A0FB006800FB01F2D7
:1044D00008EB4208B8EB872807D5341858EB0104DD
:1044E000D5D5401C51F10001D1E7341A78EB010415
:1044F000CDD4401E71F10001C9E75FEA4C0C5FEAC0
:104500009C5C0DD105D34FF0000001F00041BDE8E7
:10451000F081BDE8F04170B5FFF79AFE6DDBFFBE9C
:10452000BDE8F0414FF00000004970470000F87FFF
:1045300043004FEAD30C4FEA3C0C43401FBF4007F7
:104540000CF1605113F0FE4F70471CF0006F03D167
:1045500000200CF0004170470CF0004343EA50701B
:1045600010B540EACC0000F01CFA00BF0000009239
:104570004FEA0001FFF7BABE4FF000414FF00000D4
:10458000A1F500217047000090EA010F48BF81F0BB
:10459000004100F16A82421A3CBF801A89184FEA32
:1045A000D0524FF07F4C1CEA410FA2EBD15318BF01
:1045B0009CEA026F00F03B804FF0004C4CEA002078
:1045C0004CEA012121FA03FC10EB0C0C1ED202F183
:1045D000FF325FEA1C2040EBC25038BF70471CF02E
:1045E0007F0F4FEA400C18BFBCF17F4F38BF7047B8
:1045F000C3F12003994008BF20F00100BCF17F4FB8
:1046000038BF7047A0F1C04000F018BA4FEA3C0034
:10461000000A40EBC25028BF1CF0FF0F4FEA400CCD
:10462000E6D018BFBCF17F4F38BF7047EAE79CEA7D
:10463000026F05D010EA5C0F08BF00F00040704721
:1046400010B500F0AEF900BF64FBBE3E4FF47F0C26
:104650001CEAD0121EBF1CEAD11392EA0C0F93EA97
:104660000C0F00F0858090EA010F48BF42F4807281
:1046700040F4000C41F400002CF07F4120F07F401A
:1046800000B58142A2EB03020FF2081CACEB504EC6
:10469000C0F100009EF800E04FEA4E0E00FB0EFC59
:1046A00038BF49004FEA2C1C02F5FA020CFB0EF34E
:1046B0004FEACE1E4FEA112C4FEAC1210EEB635E8A
:1046C00042EB22420EFB0CFC4FEA1C5300FB031191
:1046D0004FEA112C4FEA01310EFB0CFC4FEADC4C87
:1046E00000FB0C11C14228BF09184CEB03335DF8E5
:1046F00004EB10EB410143EBC250B2F57C0F38BF25
:10470000704729D512F0F00F1CBF00F1C04000F037
:1047100000407047008182838485868788898B8CDE
:104720008D8E8F919293959697999A9C9D9FA0A21A
:10473000A3A5A7A8AAACAEB0B2B3B5B7B9BCBEC06A
:10474000C2C5C7C9CCCED1D4D7D9DCDFE2E6E9EC0B
:10475000F0F3F7FAFE0000004FEA400C0CF1807C09
:10476000BCF17E4F28BF7047B0F1C04000F066B981
:1047700090EA010F0CEAD11348BF42F480726245FF
:1047800038BF634507D213F47F0F16D080EA0100CB
:1047900000F00040704710B500F003F9097EFC3EC0
:1047A00000F005B880EA010000F00040704780EAA0
:1047B000010000F0004000F041B912F47F0F04BF87
:1047C0000248704780EA010000F038B90000C07F5D
:1047D00041000B0ED3F19E0208D950F400034FEABA
:1047E000032323FA02F048BF4042704710B500F09F
:1047F000D8F800BF49922480002070476FF0004233
:1048000082EA200070470000C10DD1F19E0206DB54
:104810004FEA002343F0004323FA02F070470042BE
:1048200007D54FEA4001B1F1FE4F02D24FF0000030
:10483000704710B500F0B5F8499224800020704709
:104840006FEA20007047000010F0004148BF40426E
:10485000B0FA80F310FA03F2C3F19D030BD051EAD2
:10486000C35101EB1220530638BF704700F101001D
:1048700008BF20F001007047B0FA80F310FA03F28D
:10488000C3F19D030AD0D90501EB1220530638BFAE
:10489000704700F1010008BF20F0010070470000E0
:1048A0004FF47F0C1CEAD0121EBF1CEAD11392EA0F
:1048B0000C0F93EA0C0F00F0478090EA010F48BFFD
:1048C00042F480724FF0004C4CEA00204CEA012187
:1048D00002EB0302A0FB0113A2F50002002918BF9E
:1048E00043F001035B0028BF4FEA330342EB22424F
:1048F0005FEA132C4CEBC2502EBFBCEB436FB2F5FA
:104900007C0F70474FEA036CBCF1004F08BF20F0EA
:104910000100B2F57C0F38BF70470BD582F0FF0263
:1049200012F5803FC8BF704700F1C040D8BF00F00B
:104930000040704700F5000C5FEA4C0C48BF704720
:10494000B0F1C04000F07AB890EA010F0CEAD11340
:1049500048BF42F48072624538BF634504D280EAA2
:10496000010000F00040704710B500F01AF800BFD9
:104970008900013E00F007B800F009B85FEA410C79
:104980005FEA1C6C08D080EA010000F057B85FEACB
:10499000400C5FEA1C6CF6D14FF00040A0F580009F
:1049A00070470EF1020E2EF0030E5EF8044B244207
:1049B00004D44FEA4102B2F17F4F11D84FEA4003CD
:1049C000B3F17F4F0CD80ED14FEAD07CB2F17F4FBC
:1049D0000CEB4C0C0CF1020C08BF4CEBD17C04E04E
:1049E0004FF0080C01E04FEAD17C0CEB4C0324FAA9
:1049F00003F404F00704B4F1040C06D20EEB840CAB
:104A0000BDE810404CF0010C6047DFE80CF00708EF
:104A100002024FF00040A0F5800010BD08464200A1
:104A200018BFD2F1807288BF00F0004010BD10B5F1
:104A3000FFF73CFB4FF00001016010BDFF2141EA90
:104A4000D050C005704780F0004090EA010F7FF51C
:104A5000A2AD81F0004100F008B8000090EA010F1B
:104A600048BF81F000413FF596AD421A04D882F06C
:104A70000042A0EB020011444FEAD0524FF07F4CAD
:104A80001CEA410FA2EBD15318BF9CEA026F4AD037
:104A90004FF0004C4CEA00204CEA012121FA03FCC3
:104AA000B0EB0C0C0FD412F0FE0F36D05FEA4C00C6
:104AB0001DD5001240EBC25038BF70471CF03F0FAD
:104AC00018BF70470BE0A2F101025FEA1C2040EB27
:104AD000C25038BF70471CF07F0F18BF7047C3F13A
:104AE0002003994014BF401E20F001007047800849
:104AF0004FEA122308BF7047B0FA80FCA2EB0C0209
:104B0000CCF1280C60FA0CF093EA122F04BF00EBF2
:104B1000C25070474FEAC3707047130A5FEADC1057
:104B200008BF7047F6E79CEA026F04D010EA5C0FFA
:104B300008BF0020704710B5FFF733FF40DFF63E97
:104B400081F00040704700000000000000000000FD
:104B50000000000004040404040400040000001425
:104B60000A0A0000000000000000000014143F14B6
:104B70000A3F0A0A000000041E1505060C14150F52
:104B80000400000012150D0A142C2A120000000067
:104B9000040A0A1E15150936000000020201000071
:104BA0000000000000000020100808080808081095
:104BB0002000000204080808080808040200000099
:104BC0000004150E0E150400000000000404041F6C
:104BD00004040400000000000000000000000002C7
:104BE000020100000000001F0000000000000000A3
:104BF0000000000000000002000000100808080487
:104C000004020202010000000E1111111111110E17
:104C100000000000040604040404040E0000000068
:104C20000E1111080402011F000000000E11100CEB
:104C30001010110E00000000080C0A0A091E0818C6
:104C4000000000001F01010F1010110E00000000F5
:104C50000E09010F1111110E000000001F090804B8
:104C600004040404000000000E11110E1111110EB5
:104C7000000000000E1111111E10120E00000000A5
:104C80000000040000000004000000000000000418
:104C90000000000404000020100804020408102092
:104CA0000000000000001F00001F000000000002C4
:104CB0000408102010080402000000000E11110862
:104CC00004040004000000000E111915151D011E3A
:104CD0000000000004040C0A0A1E12330000000049
:104CE0000F12120E1212120F000000001E1101010D
:104CF0000101110E000000000F1212121212120F09
:104D0000000000001F120A0E0A02121F000000001D
:104D10001F120A0E0A020207000000001C12010105
:104D20003911120C000000003312121E121212333D
:104D3000000000001F0404040404041F000000001D
:104D40003E080808080808090700000037120A068C
:104D50000A0A123700000000070202020202223F84
:104D6000000000001B1B1B1B151515150000000083
:104D70003B1216161A1A1217000000000E1111111C
:104D80001111110E000000000F12120E0202020794
:104D9000000000000E1111111117190E180000006B
:104DA0000F12120E0A121237000000001E11010627
:104DB0000810110F000000001F1504040404040E65
:104DC00000000000331212121212120C0000000038
:104DD0003312120A0A0C0404000000001515150E07
:104DE0000A0A0A0A000000001B0A0A04040A0A1B35
:104DF000000000001B0A0A040404040E0000000066
:104E00001F0908040402121F0000001C040404040B
:104E1000040404041C000002020204040808081030
:104E20000000000E08080808080808080E00000422
:104E30000A00000000000000000000000000000068
:104E400000000000003F000400000000000000001F
:104E5000000000000000000C121C123C00000000CA
:104E60000302020E1212120E000000000000001CCD
:104E70001202021C000000001810101C1212123C3A
:104E8000000000000000000C121E021C00000000C8
:104E90003804041E0404041E000000000000003C4E
:104EA000120C021E221C00000302020E1212123704
:104EB00000000000040000060404040E00000000CE
:104EC0000800000C08080808080700000302023A5E
:104ED0000A0E123700000000070404040404041F33
:104EE000000000000000000F15151515000000005F
:104EF0000000000F12121237000000000000000C2A
:104F00001212120C000000000000000F1212120E0C
:104F1000020700000000001C1212121C10380000D2
:104F20000000001B06020207000000000000001E37
:104F3000020C101E000000000004040E04040418FB
:104F4000000000000000001B1212123C00000000D4
:104F500000000037120A0C040000000000000015D9
:104F6000150E0A0A000000000000001B0A040A1BBC
:104F70000000000000000037120A0C0404030000C7
:104F80000000001E0804041E0000001808080804A1
:104F90000808080818000808080808080808080889
:104FA000080800060404040804040404060002259A
:104FB00018000000000000000000000000000000D9
:104FC00000000000000000000000000000080808C9
:104FD0000808080800001818000000486C24120097
:104FE0000000000000000000000000000024242455
:104FF0007F1212127F12121200000000081C2A2ACF
:105000000A0C1828282A2A1C080800000022251546
:1050100015152A585454542200000000000C121296
:10502000120A76252911916E00000006060403007D
:1050300000000000000000000000004020101008E8
:105040000808080808101020400000020408081092
:1050500010101010100808040200000000000808DA
:105060006B1C1C6B08080000000000000000080812
:1050700008087F0808080800000000000000000081
:10508000000000000000060604030000000000000D
:105090000000FE0000000000000000000000000012
:1050A00000000000000006060000000080404020D4
:1050B0002010100808040402020000000018244216
:1050C00042424242424224180000000000080E08FA
:1050D000080808080808083E00000000003C42429A
:1050E000422020100804427E00000000003C4242A2
:1050F000201820404042221C0000000000203028E0
:10510000242422227E20207800000000007E02025B
:10511000021A26404042221C0000000000382402EF
:10512000021A26424242241800000000007E222279
:10513000101008080808080800000000003C42425F
:10514000422418244242423C00000000001824423D
:10515000424264584040241C00000000000000004F
:1051600018180000000018180000000000000000DF
:1051700000080000000000080804000000402010A3
:105180000804020408102040000000000000000095
:105190007F0000007F000000000000000002040803
:1051A000102040201008040200000000003C424291
:1051B000464020101000181800000000001C225A61
:1051C000555555552D42221C0000000000080818B6
:1051D0001414243C224242E700000000001F222257
:1051E000221E22424242221F00000000007C424256
:1051F000010101010142221C00000000001F2242A7
:10520000424242424242221F00000000003F42123E
:10521000121E12120242423F00000000003F4212E2
:10522000121E12120202020700000000003C22229D
:10523000010101712122221C0000000000E742420E
:1052400042427E42424242E700000000003E08081F
:10525000080808080808083E00000000007C10103C
:105260001010101010101010110F000000772212F3
:105270000A0E0A1212222277000000000007020222
:10528000020202020202427F00000000007736366E
:1052900036362A2A2A2A2A6B0000000000E34646F6
:1052A0004A4A52525262624700000000001C2241EA
:1052B000414141414141221C00000000003F424267
:1052C00042423E020202020700000000001C22418E
:1052D000414141414D53321C60000000003F4242B9
:1052E000423E1212222242C700000000007C4242CD
:1052F000020418204042423E00000000007F49089E
:10530000080808080808081C0000000000E74242DE
:10531000424242424242423C0000000000E7424218
:10532000222424141418080800000000006B4949C6
:1053300049495555362222220000000000E7422448
:1053400024181818242442E70000000000772222C5
:10535000141408080808081C00000000007E212022
:10536000101008040442423F0000007808080808B2
:105370000808080808080808780000000202040469
:1053800008080810102020204040001E10101010A7
:1053900010101010101010101E00003844000000F3
:1053A00000000000000000000000000000000000FD
:1053B000000000000000000000FF000608000000E0
:1053C00000000000000000000000000000000000DD
:1053D000003C4278444242FC00000000000302020C
:1053E000021A26424242261A000000000000000075
:1053F00000384402020244380000000000604040CF
:1054000040784442424264D800000000000000009E
:10541000003C427E0202423C0000000000F088088E
:10542000087E08080808083E000000000000000090
:10543000007C22221C023C42423C0000000302028B
:10544000023A4642424242E700000000000C0C00D3
:10545000000E08080808083E000000000030300078
:105460000038202020202020221E000000030202FD
:105470000272120A1612227700000000000E0808BD
:10548000080808080808083E0000000000000000A6
:10549000007F9292929292B70000000000000000FC
:1054A000003B4642424242E700000000000000008C
:1054B000003C42424242423C00000000000000002A
:1054C000001B26424242221E02070000000000008C
:1054D000007844424242447840E00000000000006E
:1054E00000774C040404041F0000000000000000CA
:1054F000007C42023C40423E0000000000000008E8
:10550000083E0808080808300000000000000000FD
:1055100000634242424262DC0000000000000000E2
:1055200000E74224241408080000000000000000E6
:1055300000EB494955552222000000000000000000
:10554000007624181818246E0000000000000000E7
:1055500000E7422424141808080700000000000097
:10556000007E22100808447E000000C02020202079
:105570002010202020202020C0001010101010101B
:105580001010101010101010101000060808080855
:10559000081008080808080806000C32C2000000BD
:1055A00000000000000000000000000303060104EA
:1055B0000602050003051F1C1F1E1F1E1F1F1E1FA6
:1055C0001E1F4A616E4665624D61724170724D6187
:1055D000794A756E4A756C4175675365704F63748F
:1055E0004E6F76446563303132333435363738396F
:1055F000414243444546403058003031323334351F
:10560000363738396162636465664030780000007F
:10561000305600080000002020000000280100088B
:1056200050560008200000208804000044010008B3
:1056300000000000000000007F000000FFFF0000ED
:10564000000000000000000000000000000000005A
:04000005080000ED02
:00000001FF
