:020000040800F2
:10000000A0020020990100089D0100089F0100083E
:10001000A1010008A3010008A501000800000000DC
:10002000000000000000000000000000A701000820
:10003000A901000800000000AB010008AD010008A4
:10004000550A0008AF010008AF0100083F2500086D
:10005000AF010008AF010008F5250008D92D000800
:10006000AF010008AF010008AF010008AF010008B0
:10007000AF010008AF010008AF010008AF010008A0
:10008000AF010008AF010008AF010008AF01000890
:10009000AF010008AF010008AF010008AF01000880
:1000A000AF010008AF010008AF010008AF01000870
:1000B000AF010008B50A0008AF010008AF01000851
:1000C000AF010008AF010008AF010008AF01000850
:1000D000AF010008AF010008AF010008AF01000840
:1000E000AF010008AF010008AF01000800F002F8FE
:1000F00000F041F80AA090E8000C82448344AAF181
:100100000107DA4501D100F036F8AFF2090EBAE87E
:100110000F0013F0010F18BFFB1A43F0010318473B
:10012000244B0000444B0000103A24BF78C878C12B
:10013000FAD8520724BF30C830C144BF04680C60ED
:10014000704700000023002400250026103A28BF35
:1001500078C1FBD8520728BF30C148BF0B60704739
:10016000782903F0C181002070471FB503F079FFA3
:100170001FBD10B510BD03F087FA1146FFF7F5FF5C
:1001800000F036F803F0A5FA03B4FFF7F2FF03BC62
:1001900000F0BEFA30BF000008480047FEE7FEE767
:1001A000FEE7FEE7FEE7FEE7FEE7FEE7FEE7FEE727
:1001B00003480449024A044B70470000ED00000860
:1001C000A0000020A0020020A000002010B54FF6E3
:1001D000FF7000F017FE1F204949088049A2002146
:1001E000D82001F0E1FE4FF478404549088010BD69
:1001F0000025092000F027FA482000F0B5F84FF458
:100200001651482000F091FA00F01CFE00F038FB77
:1002100000F0F6FA4FF47840394908803AA23221CA
:100220003C2001F0C1FE3BA246213C2001F0BCFE77
:100230003BA25A213C2001F0B7FE3EA26E213C2099
:1002400001F0B2FE3EA282213C2001F0ADFE03F09F
:1002500084F840F2DC5000F09DF8FFF7B7FF022071
:1002600000F0DEF94BE000F03EFB04463A48007A2D
:10027000012828D1002002F0FCFC00BF02F071FD33
:1002800000203549087208460088D82806DD08464F
:100290004088102802DAFFF799FF0BE02E4A5188B8
:1002A0001288D0B202F047FD2C48C06840F002002E
:1002B0002A49C8602A4800680028DFD04FF00100B2
:1002C00002F0D7FC02E00A2000F064F8012C09D10A
:1002D0004FF6FF7000F096FD02F00DFE02F083FD78
:1002E000FFF774FF681CC5B2142D08D100251D4806
:1002F000006808B9012000E000201A490860B2E750
:100300000A000020525354004D696E692053544D29
:1003100033320000544F5543482054455354000095
:10032000736869704066656E672066616E207465EB
:1003300063000000323031312F312F3100000000D6
:100340005072657373204B45593020746F2041649F
:100350006A7573740000000028000020001001403E
:1003600004012242A00121424FF0E021096921F05D
:1003700004014FF0E0221161C21700EB5272D2105B
:100380001F4B1A70194609784FF47A7251431D4A6F
:100390001180704701461B4A12884A434FF0E02300
:1003A0005A6100229A6101221A6100BF4FF0E022D7
:1003B000106910F0010F02D010F4803FF6D0002237
:1003C0004FF0E0231A619A61704701460C4A127897
:1003D0004A434FF0E0235A6100229A6101221A61D8
:1003E00000BF4FF0E022106910F0010F02D010F4AE
:1003F000803FF6D000224FF0E0231A619A617047E7
:100400000000002002000020AF4A0A400243AF4B28
:100410001A6070470146072323EA01021202AC4B1F
:1004200018684FF6FF0300EA0300AA4B40EA0300F6
:1004300040EA02004FF0E023C3F80C0D70472DE9AD
:10044000F0478046894614461D462046E11704EBD6
:1004500091714FEAA10AE11704EB91718910A4EBA5
:100460008101CFB2042000EBC700C7B22846FFF7D6
:10047000D1FFC5F1040008FA00F60F20284100EA78
:100480000900064306F00F06202C0CDA924800689B
:100490004FF0010101FA04F140EA01004FF0E021C0
:1004A000C1F800010DE08D480068A4F120014FF073
:1004B000010202FA01F240EA02004FF0E021C1F825
:1004C0000401874850F82A0006FA07F108438449D6
:1004D00041F82A00BDE8F08770B504460B46CE17F8
:1004E00001EB9676B010CE1701EB9676B610A1EB25
:1004F0008606B606350E7B4B9B6943F00103794EA9
:10050000B3614FEAB63353F820300F26AE40B34301
:10051000754E46F82030334653F8203004FA05F67D
:100520003343714E46F82030704B1E684FF0010384
:1005300003FA01F346EA03066D4BC3F8006412F0B8
:10054000010F0AD06B4B1B684FF0010606FA01F64B
:1005500043EA0603664EC6F80C3412F0020F0AD0C6
:10056000654B1B684FF0010606FA01F643EA0603E5
:100570005F4EC6F8083470BD00B5002059490861C7
:10058000C8601420486100208861C861084600687E
:1005900040F0010008600846406858490840514949
:1005A000486008460068564908404E4908600846B9
:1005B000006820F4802008600846406820F4FE00AF
:1005C00048600020886000214FF00060FFF71CFFAA
:1005D00000BD10B54B48006840F004004FF0E0212A
:1005E000C1F8100D3F48C06940F080503D49C861D6
:1005F0004548406840F480704349486008460068B8
:1006000040F0040008600846006840F002000860FE
:10061000FFF7C0FD10BD2F48001D2D490860704731
:10062000014649062F4A926942F001022D4B9A6118
:100630002F4A526822F0E0622D4B5A601A465268E7
:100640000A435A60704730B504460025FFF794FF0F
:100650002448006840F480302249086000BF2148E7
:100660000068400CFBD04FF480601E494860A01E1B
:10067000C4B20846406840EA844048600846406882
:1006800040F4803048602148006840F032001F4943
:1006900008601448006840F080701249086000BF8C
:1006A00010480068400EFBD00E48406840F0020041
:1006B0000C49486005E00B484068C0F3870505F029
:1006C0000305022DF7D130BD80FFFF1F08ED00E0CC
:1006D0000CED00E00000FA0500E100E004E100E0BC
:1006E00000E400E000100240080001400004014066
:1006F000000001400C040140080401400000FFF824
:10070000FFFFF6FE10ED00E0007000400020024008
:10071000014600BF704700BF314A128812F0400FF7
:10072000FAD0C2B22F4B1A8070472DE9F05F054610
:100730000E46300103F0BAFB81462B4905FB01F060
:1007400003F0B4FB8246494603F09AFA074638465E
:1007500003F074FB84B2204603F0A8FB83463946BD
:1007600003F08BFC82464FF0834103F0B3FB8146DC
:1007700003F064FB8046240104EB080084B21B48AC
:10078000806940F00400194988610846806940F496
:10079000804088611648006820F47F601549C1F8E0
:1007A00004080846D0F8040840F40B60C1F80408B7
:1007B0000E48C06840F480400C49C8600846C068D4
:1007C00020F48040C8600C48A0F808480B48008816
:1007D00042F20C0140EA010008490880BDE8F09FA0
:1007E000003801400438014040420F000010024030
:1007F0000408014000000140003001400C38014075
:100800001B48806940F004001949886108468069E6
:1008100040F0200088611748006820F00F0016495A
:10082000C1F804080846D0F8040840F00300C1F8F5
:1008300004080846D0F80C0840F48070C1F80C0891
:100840000E48D0F8000420F470600C49C1F8000490
:100850000846D0F8000440F44070C1F8000408468F
:10086000D0F80C0440F00400C1F80C0470470000FC
:100870000010024004080140000001400010014047
:100880003A48806940F00400384988613848006877
:1008900020F00F003749C1F800080846D0F80008DA
:1008A00040F00800C1F8000833480068334900EA06
:1008B00001003049C1F804082F480068304940EA77
:1008C00001002C49C1F804080846D0F80C0840F48F
:1008D0000050C1F80C080846D0F80C0840F400405D
:1008E000C1F80C08704710B50220FFF799FE2548A3
:1008F000007838B32448006830B12448006818B143
:100900002348006801281DD10A20FFF743FD00207D
:100910001C4908701C48006820B90120FFF780FEC0
:10092000012010BD1948006820B90120FFF778FEAA
:100930000220F6E716480068012811D1FFF770FE83
:100940000320EEE710480068012809D10F4800682D
:10095000012805D10E48006810B901200949087026
:100960000120FFF75DFE0020DBE7000000100240E1
:10097000000801400000014004080140FFFF0F0F84
:100980000000808008000020340121423C01214207
:100990000001214245F255523D4B1A601A46506003
:1009A00091604AF6AA221A604CF6CC421A6070474F
:1009B0004AF6AA2036490860704770B504460D46CD
:1009C00016463448C06940F400603249C861324973
:1009D000097804EA0100304908703048006840EAAC
:1009E000C6102F49C1F8040C0846D0F8040C40F496
:1009F0000070C1F8040C294800684FF6807100EAC5
:100A000001002749C1F8040C0846D0F8040C40EA5C
:100A10000500C1F8040C234800681F49097841F01B
:100A2000800140EA01001E49C1F8000C4FF00203AA
:100A30004FF000024FF003011846FFF700FD70BDB4
:100A40001849096800F07F0241EA0201144AC2F81D
:100A5000001C704710B51148006800F07F03104873
:100A6000D0F8000C00F07F049C4203DA0A480078BA
:100A7000FFF7E6FF00200C4908600C48D0F8880119
:100A800008B9012000E000200949086010BD0000FD
:100A9000003000400010024009000020042C0040FB
:100AA00000200040002C0040082C00400080224222
:100AB000888122424C48008810F0010F07D04B4833
:100AC000006808B9012000E0002048490860464855
:100AD000008820F001004FF08041A1F81004704719
:100AE00070B504460D464248C06940F002004049D6
:100AF000C861404804804FF08040A0F82854B0F806
:100B00000C0440F001004FF08041A1F80C040846AD
:100B1000B0F80C0440F04000A1F80C040846B0F80E
:100B2000000440F00100A1F800044FF002034FF070
:100B30001D024FF003014FF00100FFF780FC70BD74
:100B40002B4AD26942F00202294BDA612A4A126822
:100B500022F00F02294BC3F804281A46D2F80428C1
:100B600042F00402C3F804281A46D2F8002822F002
:100B70007042C3F800281A46D2F8002842F03042EA
:100B8000C3F800281A46D2F80C2842F08002C3F8B5
:100B90000C284FF08042A2F82C04A2F82814B2F8D6
:100BA000182442F4E0424FF08043A3F818241A4678
:100BB000B2F8182442F40062A3F818241A46B2F8D6
:100BC000202442F010020E4B1A804FF400424FF0E6
:100BD0008043A3F800244FF08042B2F8002442F092
:100BE0000102084B1A80704710040040888122429D
:100BF000001002402C0400400408014000000140A5
:100C000020040040000400404FF48071FF4A51610D
:100C100049005161FE4908604FF080015161116146
:100C20004FF400711161704710B504460B46204621
:100C3000FFF7EAFF4FF48070F44908614000486113
:100C4000F34803604FF08000486108614FF4007082
:100C5000086110BD70B504462046FFF7D5FF4FF080
:100C60008830EC490860EC49C1F8040C4FF6FF707D
:100C7000E74908604FF48070E44908614FF4007060
:100C800048614FF0400048614FF00500FFF79DFBC1
:100C90004020DE490861E048D0F8080C85B24815CC
:100CA00008614FF03330DB49086001F1040108604E
:100CB0004FF6FF70D6490860284670BD00B5222067
:100CC000FFF7A2FF00BD4FF48071D04A11614900C7
:100CD0005161CF4908604FF08001516111614FF4BB
:100CE00000711161704730B5014601F01F04C1F376
:100CF0004513CA0AE50205EB43151544A8B230BDF9
:100D000070B504460D46F02C02DAB5F5A07F01DB84
:100D1000002070BD2946204602F0E8FC2220FFF7A3
:100D200073FF4FF08830BB490860BB49C1F8040C21
:100D30004FF6FF70B64908604FF48070B349086100
:100D40004FF4007048614FF04000486108614FF077
:100D50000200FFF73AFB4020AC4948610220FFF750
:100D600034FB4020A9490861AB48D0F8080C86B292
:100D7000481508614FF03330A649086001F10401BD
:100D800008604FF6FF70A449C1F80C0CA348008816
:100D9000A0F58A41313905D0A0480088A0F5094165
:100DA000893901D13046B4E73046FFF79CFFB0E700
:100DB00000B540F273110720FFF736FF00BD00B504
:100DC00000210720FFF730FF00BD70B504460D4637
:100DD0002946204602F08AFC2220FFF715FF4FF437
:100DE00080708A490861400048618D4800888849C0
:100DF00008604FF080008549486108614FF4007039
:100E0000086170BD70B5044600250021084602F057
:100E10006DFCFFF753FF00BF10E04FF480707B497B
:100E20000861400048617A4804604FF080004861E2
:100E300008614FF40070086105F10105B5F5963FB2
:100E4000EBD370BD10B57748806940F00800754954
:100E500088610846806940F0100088610846806912
:100E600040F0010088610120FFF7DAFB6748406825
:100E70006FF30B00654948600846406840F2333123
:100E80000843624948600846006820F07F400860D7
:100E90000846006840F04C5008600846C06840F4BE
:100EA000F860C8604FF033305F4908605A49C1F8B4
:100EB000000C4FF6FF70564908604FF03200FFF704
:100EC00069FA01210020FFF7AFFE3220FFF762FA36
:100ED0000020FFF7BFFE514908800846018853A053
:100EE00002F0C0FA4D480088A0F51341253905D01D
:100EF0004A480088A0F5134128397ED11021E72007
:100F0000FFF792FE01210020FFF78EFE4FF4807163
:100F10000120FFF789FE4FF4E0610220FFF784FE15
:100F200041F230010320FFF77FFE00210420FFF78C
:100F30007BFE40F207210820FFF776FE0021092002
:100F4000FFF772FE00210A20FFF76EFE01210C2040
:100F5000FFF76AFE00210D20FFF766FE00210F203B
:100F6000FFF762FE00211020FFF75EFE072111202F
:100F7000FFF75AFE00211220FFF756FE0021132032
:100F8000FFF752FE3220FFF705FA41F29051102090
:100F9000FFF74AFE40F227211120FFF745FE3220DD
:100FA000FFF7F8F99C211220FFF73EFE3220FFF7F1
:100FB000F1F94FF4C8511320FFF736FE2321292001
:100FC000FFF732FE0E212B20FFF72EFE3220FFF717
:100FD000E1F900212020FFF727FE40F23F112120F8
:100FE000FFF722FE3220FFF7D5F907213020FFF767
:100FF0001BFE40F20771312000E09EE0FFF714FE77
:1010000006213220FFF710FE16E00000001001401C
:101010000C0C0140000C0140000001400E000020BB
:101020000A00002000100240040C0140204C434400
:101030002049443A25780A0040F204713520FFF730
:10104000F3FD41F604713620FFF7EEFD0421372051
:10105000FFF7EAFD00213820FFF7E6FD40F20671B8
:101060003920FFF7E1FD40F201713C20FFF7DCFD84
:101070000F213D20FFF7D8FD3220FFF78BF900212B
:101080005020FFF7D1FDEF215120FFF7CDFD0021CA
:101090005220FFF7C9FD40F23F115320FFF7C4FD76
:1010A0004FF427416020FFF7BFFD01216120FFF7CA
:1010B000BBFD00216A20FFF7B7FD00218020FFF76C
:1010C000B3FD00218120FFF7AFFD00218220FFF753
:1010D000ABFD00218320FFF7A7FD00218420FFF74F
:1010E000A3FD00218520FFF79FFD10219020FFF731
:1010F0009BFD00219220FFF797FD03219320FFF72E
:1011000093FD4FF488719520FFF78EFD0021972005
:10111000FFF78AFD00219820FFF786FD40F233118A
:101120000720FFF781FD00212020FFF77DFD40F221
:101130003F112120FFF778FD7EE2FF480088A0F5EF
:101140001341203904D0FC480088B0F5134F7ED1FC
:1011500000210846FFF768FD4FF480710120FFF77A
:1011600063FD4FF4E0610220FFF75EFD41F23001C4
:101170000320FFF759FD00210420FFF755FD40F241
:1011800002210820FFF750FD00210920FFF74CFD48
:1011900000210A20FFF748FD01210C20FFF744FD44
:1011A00000210D20FFF740FD00210F20FFF73CFD3F
:1011B0003220FFF7EFF840F201110720FFF734FD6E
:1011C0003220FFF7E7F84FF486511020FFF72CFD8F
:1011D00007211120FFF728FD4FF488711220FFF737
:1011E00023FD4FF430611320FFF71EFD002129205D
:1011F000FFF71AFD44F210012B20FFF715FD002127
:101200005020FFF711FDEF215120FFF70DFD0021C8
:101210005220FFF709FD40F23F115320FFF704FD74
:101220004FF41C516020FFF7FFFC01216120FFF704
:10123000FBFC00216A20FFF7F7FC00218020FFF76C
:10124000F3FC00218120FFF7EFFC002100E02DE0FE
:101250008220FFF7E9FC00218320FFF7E5FC002155
:101260008420FFF7E1FC00218520FFF7DDFC102141
:101270009020FFF7D9FC00219220FFF7D5FC012137
:101280009320FFF7D1FC4FF488719520FFF7CCFC39
:1012900000219720FFF7C8FC00219820FFF7C4FC2D
:1012A00040F273110720FFF7BFFCC5E1A248008898
:1012B000A0F5A84108397ED14FF480710120FFF7D5
:1012C000B3FC4FF4E0610220FFF7AEFC41F23001C5
:1012D0000320FFF7A9FC00210420FFF7A5FC40F242
:1012E00007210820FFF7A0FC00210920FFF79CFC44
:1012F00000210A20FFF798FC00210C20FFF794FC46
:1013000000210D20FFF790FC00210F20FFF78CFC3F
:101310001420FFF73FF841F2B0611020FFF784FC82
:1013200001211120FFF780FC01211720FFF77CFC31
:101330004FF49C711220FFF777FC4FF400611320EB
:10134000FFF772FC09212920FFF76EFC09212A20F2
:10135000FFF76AFC0021A420FFF766FC0021502063
:10136000FFF762FCEF215120FFF75EFC00215220C5
:10137000FFF75AFC40F23F115320FFF755FC4FF4A2
:101380001C516020FFF750FC01216120FFF74CFC4D
:1013900000216A20FFF748FC00218020FFF744FC71
:1013A00000218120FFF740FC00218220FFF73CFC58
:1013B0000021832000E023E0FFF736FC0021842099
:1013C000FFF732FC00218520FFF72EFC132190202F
:1013D000FFF72AFC00219220FFF726FC032193202F
:1013E000FFF722FC4FF488719520FFF71DFC40F2B7
:1013F00073110720FFF718FC3220FEF7CBFFACE398
:101400004D480088A0F5A85105397ED10720FFF787
:101410000BFC3220FEF7BEFF4FF48E711220FFF757
:1014200003FC0121A420FFF7FFFB0F210820FFF799
:10143000FBFB08210A20FFF7F7FB08210D20FFF72F
:10144000F3FB40F207713020FFF7EEFB072131205C
:10145000FFF7EAFB40F203613220FFF7E5FB4FF4B0
:10146000E0613320FFF7E0FB40F202213420FFF778
:10147000DBFB02213520FFF7D7FB41F60F71362049
:10148000FFF7D2FB40F207713720FFF7CDFB0021B9
:101490003820FFF7C9FB00213920FFF7C5FB40F2D8
:1014A00007713A20FFF7C0FB00213B20FFF7BCFB90
:1014B00007213C20FFF7B8FB00213D20FFF7B4FBDC
:1014C0003220FEF767FF01210720FFF7ADFB012166
:1014D0001720FFF7A9FB3220FEF75CFF4FF4BD5148
:1014E0001020FFF7A1FB40F217211120FFF79CFB12
:1014F0004FF48F711220FFF797FB4FF470611320A8
:10150000FFF792FB00212A2000E096E0FFF78CFB1A
:101510000A212920FFF788FB4FF49F711220FFF763
:1015200083FB00215020FFF77FFBEF215120FFF7C5
:101530007BFB0021522001E00E000020FFF774FB2E
:1015400040F23F115320FFF76FFB4FF41C51602016
:10155000FFF76AFB01216120FFF766FB00216A208B
:10156000FFF762FB00218020FFF75EFB0021812056
:10157000FFF75AFB00218220FFF756FB0021832052
:10158000FFF752FB00218420FFF74EFB002185204E
:10159000FFF74AFB13219020FFF746FB4FF4407101
:1015A0009220FFF741FB05219320FFF73DFB00212F
:1015B0009520FFF739FB00219720FFF735FB00212D
:1015C0009820FFF731FB4FF480710120FFF72CFBCF
:1015D0004FF4E0610220FFF727FB41F230010320C6
:1015E000FFF722FB00210420FFF71EFB00210C2047
:1015F000FFF71AFB00210F20FFF716FB0021202028
:10160000FFF712FB00212120FFF70EFB212107200D
:10161000FFF70AFB1420FEF7BDFE61210720FFF74C
:1016200003FB1420FEF7B6FE40F273110720FFF70C
:10163000FBFA1420FEF7AEFE8FE2FF480088A0F50B
:10164000354105397DD10846FFF7EEFA00210846FD
:10165000FFF7EAFA00210846FFF7E6FA00210846FC
:10166000FFF7E2FA0121A420FFF7DEFA1420FEF7CB
:1016700091FE4FF41C516020FFF7D6FA40F2022190
:101680000820FFF7D1FA4FF405713020FFF7CCFAAC
:1016900043F215713120FFF7C7FA40F2046132209E
:1016A000FFF7C2FA40F616613320FFF7BDFA42F2A7
:1016B00011213420FFF7B8FA4FF4A8513520FFF775
:1016C000B3FA48F207513620FFF7AEFA41F207416C
:1016D0003720FFF7A9FA41F203413820FFF7A4FAB7
:1016E00020213920FFF7A0FA1A219020FFF79CFA59
:1016F00000211020FFF798FA07211120FFF794FA34
:1017000000211220FFF790FA00211320FFF78CFA36
:101710001420FEF73FFE4FF4E6611020FFF784FA35
:1017200040F237111120FFF77FFA1420FEF732FE46
:101730004FF4DC711220FFF777FA1420FEF72AFE2F
:1017400000E083E04FF470611320FFF76DFA802111
:101750002A20FFF769FA48212920FFF765FA1420AB
:10176000FEF718FE4FF480710120FFF75DFA4FF489
:10177000E0610220FFF758FA41F230210320FFF721
:1017800053FA40F202210820FFF74EFA00210A2006
:10179000FFF74AFA00210C20FFF746FA00210D203E
:1017A000FFF742FA30210E20FFF73EFA00215020C9
:1017B000FFF73AFAEF215120FFF736FA00215220C5
:1017C000FFF732FA40F23F115320FFF72DFA4FF4A2
:1017D0001C516020FFF728FA01216120FFF724FA4D
:1017E00000216A20FFF720FA11219020FFF71CFA50
:1017F0004FF4C0619220FFF717FA40F202419320A4
:10180000FFF712FA02219420FFF70EFA1420FEF7D8
:10181000C1FD01210720FFF707FA1420FEF7BAFDEA
:1018200061210720FFF700FA40F273110720FFF74C
:10183000FBF900212020FFF7F7F900212120FFF715
:10184000F3F922210020FFF7EFF986E17A480088BA
:10185000A0F5094189397DD101210020FFF7E4F984
:101860004AF6A4010320FFF7DFF900210C20FFF75F
:10187000DBF940F60C010D20FFF7D6F94FF42C519F
:101880000E20FFF7D1F9B0211E20FFF7CDF942F667
:101890003F310120FFF7C8F94FF4C0610220FFF784
:1018A000C3F900211020FFF7BFF946F270011120A3
:1018B000FFF7BAF900210520FFF7B6F9002106204D
:1018C000FFF7B2F94EF61C711620FFF7ADF90321B0
:1018D0001720FFF7A9F940F233210720FFF7A4F9F9
:1018E00000210B20FFF7A0F900210F20FFF79CF942
:1018F00000214120FFF798F900214220FFF794F9D9
:1019000000214820FFF790F940F23F114920FFF7EE
:101910008BF900214A20FFF787F900214B20FFF7C0
:1019200083F94FF46F414420FFF77EF900214520F1
:10193000FFF77AF940F23F114620FFF775F940F2C0
:1019400007713020FFF770F94FF401713120FFF774
:101950006BF900E03DE04FF401713220FFF764F9CC
:1019600040F202513320FFF75FF940F20751342073
:10197000FFF75AF94FF401713520FFF755F94FF48D
:1019800001713620FFF750F940F202513720FFF77E
:101990004BF940F202313A20FFF746F940F20231AA
:1019A0003B20FFF741F900212320FFF73DF90021FB
:1019B0002420FFF739F94FF400412520FFF734F9CF
:1019C00000214F20FFF730F900214E20FFF72CF9BE
:1019D000C3E019480088A0F58A4131397ED1012140
:1019E0000020FFF721F90A20FEF7D4FC41F228611C
:1019F0001020FFF719F90E211220FFF715F940F614
:101A000039211320FFF710F90A20FEF7C3FC40210B
:101A10001120FFF709F950211520FFF705F90A20D9
:101A2000FEF7B8FC1E211220FFF7FEF80A20FEF791
:101A3000B1FC4FF4B15101E00E0000201020FFF77F
:101A4000F3F842F639211320FFF7EEF80A20FEF7EB
:101A5000A1FC4FF480710120FFF7E6F84FF44071CC
:101A60000220FFF7E1F841F230010320FFF7DCF834
:101A700040F202210820FFF7D7F808210A20FFF7DB
:101A8000D3F800213020FFF7CFF840F20241312097
:101A9000FFF7CAF84FF483713220FFF7C5F840F220
:101AA00003513320FFF7C0F84FF482713420FFF761
:101AB000BBF840F201313520FFF7B6F840F207716C
:101AC0003620FFF7B1F840F205313720FFF7ACF8C8
:101AD0004FF402713820FFF7A7F800E03DE040F630
:101AE0000B713920FFF7A0F802214120FFF79CF885
:101AF0004FF41C516020FFF797F801216120FFF798
:101B000093F84FF404719020FFF78EF84FF485712D
:101B10009220FFF789F804219320FFF785F84FF40E
:101B20008071A020FFF780F801210720FFF77CF8E3
:101B300021210720FFF778F823210720FFF774F809
:101B400033210720FFF770F840F233110720FFF729
:101B50006BF80021A020FFF767F80120F849086022
:101B60004FF6FF70FFF74EF910BD2DE9F05F054607
:101B70000E4617469846DDF828A04FF0000B781B5C
:101B8000401C1FFA80FB34461EE02146284601F027
:101B9000ADFDFFF793F84FF0000911E04FF48070AE
:101BA000E849086140004861E748C0F80CAC802073
:101BB000486108618000086109F101001FFA80F99D
:101BC000D945EBDB601C84B24445DEDDBDE8F09F07
:101BD0002DE9FF4F85B081468A460020049003908E
:101BE0000798A0EB09050898A0EB0A06CDF8089025
:101BF000CDF804A0002D01DD012705E00DB9002777
:101C000002E04FF0FF376D42002E02DD4FF0010879
:101C100006E016B94FF0000802E04FF0FF387642B8
:101C2000B54201DD2C4600E034464FF0000B21E0C8
:101C3000019881B2029880B2FFF7C7F8049828444F
:101C400004900398304403900498A04205DD049862
:101C5000001B04900298384402900398A04205DDCE
:101C60000398001B03900198404401900BF1010080
:101C70001FFA80FB601C8345DADD09B0BDE8F08FF8
:101C80002DE9F04104460D4616461F462B463246C6
:101C900029462046FFF79CFF3B4622462946204620
:101CA000FFF796FF3B46324639462046FFF790FF46
:101CB0003B46324629463046FFF78AFFBDE8F081B1
:101CC0002DE9F04706460F4690460024454603207E
:101CD000A0EB480948E03A1B91B2721B90B2FFF7A3
:101CE00074F83A1B91B2721990B2FFF76EF87A1934
:101CF00091B2321B90B2FFF768F83A1B91B2721B97
:101D000090B2FFF762F87A1B91B2321B90B2FFF7E4
:101D10005CF83A1991B2721990B2FFF756F87A1B33
:101D200091B2321990B2FFF750F87A1991B2321984
:101D300090B2FFF74AF83A1991B2721B90B2FFF7CE
:101D400044F8641CB9F1000F03DAA000801D81443F
:101D500004E0601B80000A3081446D1E7A1991B244
:101D6000321990B2FFF731F8AC42B4DDBDE8F0872C
:101D70002DE9FF4F81B00746894616461D46BB46F2
:101D8000724800880090E82F02DCB9F59C7F02DDE4
:101D900005B0BDE8F08FA6F12000C6B20E98C8BB12
:101DA000002434E00C2D07D106EB4600684901EB16
:101DB000800010F804A004E0664800EB061010F85C
:101DC00004A04FF0000816E01AF0010F03D05F499D
:101DD0000098088003E0604800885C490880494614
:101DE0003846FEF7F2FF4FEA6A0A781C87B208F11C
:101DF000010000F0FF0805EBD571B8EB610FE3DBE4
:101E00005F4609F101001FFA80F9601CC4B2AC42C0
:101E1000C8DB2EE0FFE7002429E00C2D07D106EBFC
:101E200046004B4901EB800010F804A004E049484B
:101E300000EB061010F804A04FF0000810E01AF0B4
:101E4000010F07D009EB040291B207EB080290B230
:101E5000FEF7BBFF4FEA6A0A08F1010000F0FF0835
:101E600005EBD571B8EB610FE9DB601CC4B2AC4285
:101E7000D3DB36490098088000BF89E710B50246D9
:101E8000012000E050430B00A1F10104E1B2F9D1BF
:101E900010BD2DE9FF4F81B0074691461E460E9DAD
:101EA0004FF0000A00243BE0301B401EC1B20A2064
:101EB000FFF7E4FFB9FBF0F00A21B0FBF1F201FB00
:101EC000120000F0FF08BAF1000F16D1701EA042F8
:101ED00013DDB8F1000F0ED10023AB4605EBD57131
:101EE000491001FB047188B200932B46202202990D
:101EF000FFF73EFF12E04FF0010A0023AB4605EB6F
:101F0000D571491001FB047188B200932B4608F18A
:101F10003001CAB20299FFF72BFF00BF601CC4B2A8
:101F2000B442C1DB05B0BDE8F08F2DE9FF4F81B0B1
:101F300007468A4690461D460E9E00242FE000006C
:101F4000A801224200100140000001400A000020C8
:101F50007A410008EE4500080C000020281B401EB6
:101F6000C1B20A20FFF78AFFB8FBF0F00A21B0FBEC
:101F7000F1F201FB120000F0FF090F9BB34606EBE4
:101F8000D671491001FB047188B20093334609F100
:101F90003001CAB25146FFF7EBFE601CC4B2AC423E
:101FA000DCDB05B0BDE8F08FF8B505460E461446FB
:101FB0001BE0E82D03DD002506F1100086B2B6F522
:101FC0009C7F06DD0020054606464FF6FF70FEF7B3
:101FD00019FF002300932278102331462846FFF78B
:101FE000C7FE05F1080085B2641C20780028E0D106
:101FF000F8BD0000F0B503460C461546642093FB7F
:10200000F0F0C6B2642093FBF0F700FB1730C1B2CA
:10201000132E02DD01F16400C1B20846CF1701EBB7
:10202000977701EBA702072092FBF0F700FB172040
:1020300082B25719601EDFF86CC41CF800003844E7
:1020400082B2CF1701EB9777BF10B1EB870703D1AF
:10205000032C01DA501E82B2072092FBF0F700FB3E
:102060001720C0B2F0BD0146CA1701EB9272921060
:10207000B1EB820212D1642091FBF0F200FB12104E
:1020800050B94FF4C87091FBF0F200FB121008B980
:10209000012070470020FCE70120FAE70020F8E764
:1020A00070B5002600240025FF4806884FEA064642
:1020B000FE48B0F81C080644FD48B6FBF0F4FD48A5
:1020C0000088A0423AD0FB490C8040F2B2750EE085
:1020D0002846FFF7C8FF30B1B4F5B77F02D3A4F5A7
:1020E000B77402E006E0A4F26D14681C85B2B4F582
:1020F000B67FEDD800BFF0488580002516E0EE4998
:102100008888FFF7B0FF30B1012D04D11D2C01D319
:102110001D3C09E00CE0E948405DA04203D8E748D7
:10212000405D241A00E003E0681C85B21C2CE6D256
:1021300000BF681CE0498871601CC871DC48B6FBB0
:10214000F0F100FB11644FF46160B4FBF0F0DA4988
:1021500008704FF46160B4FBF0F100FB11403C21CA
:10216000B0FBF1F0D44948704FF46160B4FBF0F17A
:1021700000FB11403C21B0FBF1F201FB1200CE4903
:1021800088700B46DA7999799888FFF733FFCA4946
:102190000872002070BD2DE9F04705460E4617462F
:1021A0009846DDE9089A002340F2B270854203DBCD
:1021B00040F63300854202DD0120BDE8F08740F2A1
:1021C000B2740AE02046FFF74EFF10B1BC4803444A
:1021D00001E0BC480344601C84B2AC42F2DB701ED8
:1021E000C6B2002410E0B548005D40F2A321484388
:1021F00003EBC0132846FFF736FF18B1012C01D1BD
:10220000AB480344601C84B2B442ECDB781E40F25D
:10221000A321484303EBC013C8EB4810C0EB0820D0
:1022200003EB0013C9EB091003EB80035344A648EA
:10223000C06940F08050A449C8610846C06940F0B8
:102240000060C861A148006840F480709F49086040
:102250009F48008840F010009449A1F804089D4967
:102260000B804FEA13409149A1F818080846B0F8CE
:10227000040820F01000A1F8040800BF944800886A
:1022800010F0200FFAD0002097E770B50346002425
:1022900009E013F8015B11F8016BB54201D0002091
:1022A00070BD601CC4B29442F3DB0120F8E72DE955
:1022B000FE47002406E088480068005D02A9085532
:1022C000601CC4B2032CF6DB00240BE004EB4401D9
:1022D000824A8818032202A9FFF7D7FF00B103E062
:1022E000601CC4B20C2CF1DB00BF601CC6B27A4883
:1022F00000680079202805D1774800684079303897
:10230000C5B20BE0744800684179734800680079F1
:1023100030380A2202FB00103038C5B26E4800681F
:10232000C07930384FF47A7148436B490968097AAB
:102330003039642202FB010167480068407A303876
:102340000A2202FB001064490968897A084430387F
:1023500087B2634800684178614800680078303887
:1023600002FB0010303800F0FF0A5D480068017978
:102370005B480068C078303802FB0010303800F04D
:10238000FF0957480068C17955480068807930389E
:1023900002FB0010303800F0FF0853462A46314651
:1023A0003846CDE90098FFF7F6FEBDE8FE8710B588
:1023B00000244C480088A0F5A041503971D0424813
:1023C000C06940F080504049C8610846C06940F08B
:1023D0000060C8613D48006840F480703B49086077
:1023E0003948006A40F48030374908620846006A7C
:1023F00020F4803008620846006A40F0010008625C
:1024000004E0601CC4B20A20FDF7C4FF2E48006A35
:1024100010F0020F01D1FA2CF3DBFA2C01DB0120C2
:1024200010BD2948006A40F48070274908620846B8
:10243000006A40F40040086200BF2548008810F0A0
:10244000200FFAD000BF2248008810F0080FFAD001
:102450002548008840F001001449A1F8000800BF99
:102460001B48008810F0200FFAD01948008840F06F
:1024700010000E49A1F804084FF000001B49088025
:1024800047F6FF700949A1F80C08FFF710FF07484D
:10249000B0F8040820F010000449A1F8040800BFB7
:1024A00026E02FE0DE4B0008182800400020004006
:1024B00080510100100000201C000020EA4B0008A1
:1024C0000085E2018033E10100100240007000400D
:1024D000042800401C28004014000020F64B00088F
:1024E00018000020046C004000280040082800402C
:1024F0002548008810F0200FD2D045F25000234923
:10250000088012E000BF2048008810F0080FFAD0C1
:102510001F48008840F001001E49A1F8000800BFD4
:102520001948008810F0200FFAD00223032200215E
:102530000846FDF784FFFFF7B3FD002070E700B504
:102540001148008810F0010F01D0FFF7A9FD0E48D7
:10255000008810F0020F06D00B48008820F002001F
:102560000C49A1F804080848008840F6FA7100EA0E
:1025700001000849A1F8040800BF0348008810F0D2
:10258000200FFAD000BD000004280040046C004079
:10259000002800400020004010B53248C06840F4D8
:1025A000FE703049C860FEF714F810BD70B5002504
:1025B000002400202C4908601BE02C48006818B15A
:1025C000681CC5B2002409E0601CC4B2032C05DD00
:1025D0000120254908604FF0000070BD1E20FDF766
:1025E000D9FE642D05DB00201F4908604FF0010073
:1025F000F3E7E2E710B501201D490860FFF7D6FFB9
:1026000008B1FFF7C9FF10BD10B51648806940F04A
:102610000400144988610846806940F0010088611F
:102620001448006820F00F001349C1F8000808465C
:10263000D0F8000840F00800C1F800084FF002028E
:102640004FF000010846FDF747FFFFF7AFFF08B95D
:10265000FDF7BFFF0223062219461846FDF7EFFEDD
:1026600010BD000000100240A001214200012142E3
:1026700014040140000801400000014010B500F0C2
:10268000BBF810BD70B50446002600F0CCF8254616
:10269000E11704EB11610912A02202EB4101C8B25B
:1026A00000F075F900F002F9E11704EB116109126D
:1026B000A4EB0121C8B200F06AF900F0F7F800F0CD
:1026C000B2F8A12000F063F900F0F0F8002000F06B
:1026D0008EF9064600F0C9F8304670BD70B5044664
:1026E0000E4600F0A0F82546E11704EB116109122F
:1026F000A02202EB4101C8B200F049F900F0D6F87F
:10270000E11704EB11610912A4EB0121C8B200F03A
:102710003EF900F0CBF8304600F039F900F0C6F889
:1027200000F0A3F80A20FDF735FE70BD2DE9F04159
:1027300005460E461746002409E0E20026FA02F29A
:10274000D1B22A1990B2FFF7C9FF601CC4B2BC42D3
:10275000F3DBBDE8F0812DE9F04107460C46002689
:10276000002509E036023919491B491E88B2FFF7D6
:1027700089FF0644681CC5B2A542F3DB3046BDE8BC
:10278000F08110B5FF20FFF77DFF0446552C01D1E5
:10279000002010BD5521FF20FFF7A0FFFF20FFF70D
:1027A00071FF0446552C01D10020F2E70120F0E72B
:1027B00070B506460C46154608E03046721C96B2C7
:1027C000FFF760FF04F8010B681E85B2002DF4D1FD
:1027D00070BD70B505460C46164606E021782846C1
:1027E000FFF77CFF681C85B2641C3000A6F1010174
:1027F0008EB2F3D170BD00009548806940F01000A2
:10280000934988619348406820F47F20914948604B
:102810000846406840F44C3048600846C06840F4C0
:10282000C050C860704710B58A48406820F47040B6
:10283000884948600846406840F44050486001209C
:10284000854908608549C1F8B0014FF00400FDF7E3
:10285000BCFD0020804908604FF00400FDF7B5FD85
:1028600000207E49C1F8B00110BD10B5794840681C
:1028700020F47040774948600846406840F4405072
:1028800048600020764908607449C1F8AC014FF0F7
:102890000400FDF79AFD0120714908606F49C1F8F5
:1028A000AC014FF00400FDF790FD10BD10B5002401
:1028B0006848406820F470406649486008464068AF
:1028C00040F400404860012063490860FDF77DFD49
:1028D00001206249C1F8B001FDF777FD07E0601CF7
:1028E000C4B2FA2C03DDFFF7C0FF012010BD5D4824
:1028F00000680028F3D15A49086000BFF6E710B518
:102900000020574908605348406820F470405149FE
:1029100048600846406840F4405048604FF000006E
:102920004E49C1F8AC014FF00200FDF74EFD012009
:102930004B4908604FF00200FDF747FD0020474972
:10294000C1F8B00110BD10B50020454908604148EC
:10295000406820F470403F4948600846406840F4B1
:10296000405048604FF001003C49C1F8AC014FF0C5
:102970000200FDF72AFD0120394908604FF00200EE
:10298000FDF723FD00203549C1F8B00110BD70B539
:1029900004463048406820F470402E49486008469C
:1029A000406840F44050486000202D4908600546CA
:1029B0001AE0E009284908604FEA44604FEA1064D1
:1029C0004FF00200FDF701FD01202449C1F8B001DC
:1029D0000220FDF7FAFC0020214908604FF00200B8
:1029E000FDF7F3FC681CC5B2082DE2DB70BD70B5C5
:1029F000054600241748406820F470401549486097
:102A00000846406840F400404860002616E0002078
:102A1000134908604FF00200FDF7D7FC01200F4971
:102A2000C1F8B0016006040E0E48006808B1601CD1
:102A3000C4B20120FDF7C9FC701CC6B2082EE6DB4B
:102A400015B9FFF780FF01E0FFF759FF204670BD81
:102A50000010024000100140AC012242000022425E
:102A6000B00122422C012242002100BF16E010F0EA
:102A7000800F03D00122F84B1A6002E00022F64BCF
:102A80001A604206100E0022F44B1A604FF0010249
:102A9000F34BC3F8802101F10102D1B20829E6DB32
:102AA000704770B50646002500240020EB490860F9
:102AB000EB49C1F8B4013046FFF7D6FF0620FDF719
:102AC00084FC0120E54908604FF00000E449C1F8AA
:102AD000800100BF10E06004040C0020DF490860A2
:102AE0004FF00100DE49C1F88001DE48006808B1FE
:102AF000601C84B2681CC5B2102DECDB24110120CF
:102B0000D9490860204670BD2DE9F04188B0804663
:102B10000027002406E04046FFF7C3FF2DF814000D
:102B2000601C84B20F2CF6DB002416E0601C85B21A
:102B30000FE03DF814003DF81510884207DD3DF820
:102B400014603DF815002DF814002DF81560681C70
:102B500085B20F2DEDDB601C84B20E2CE6DB002766
:102B6000052405E03DF81400384487B2601C84B2A7
:102B70000A2CF7DB052097FBF0F086B2304608B050
:102B8000BDE8F0812DE9F04104460D46D020FFF765
:102B9000BBFF06469020FFF7B7FF0746642E01DB18
:102BA000642F02DA0020BDE8F08126802F8001200A
:102BB000F9E77FB504460D4602A903A8FFF7E2FF37
:102BC000064616B9002004B070BD694601A8FFF79B
:102BD000D9FF06460EB90020F5E7BDF80400BDF8A0
:102BE0000C10884206DCBDF80C10BDF80400323031
:102BF00081420CDBBDF80C00BDF80410884236DCC5
:102C0000BDF80410BDF80C00323081422FDABDF857
:102C10000000BDF80810884206DCBDF80810BDF8B9
:102C20000000323081420CDBBDF80800BDF8001016
:102C300088421CDCBDF80010BDF80800323081422B
:102C400015DABDF80C10BDF80420881800EBD0711F
:102C5000C1F34F012180BDF80810BDF8002088188D
:102C600000EBD071C1F34F0129800120ABE70020B8
:102C7000A9E738B17D49096841F002017C4AC2F8F0
:102C8000001406E07949096821F00201784AC2F887
:102C90000014704710B500240020FFF7EAFF002061
:102CA00074490872891D881EFFF783FF04E0601CC9
:102CB000C4B20A20FDF76EFB6F48006808B9FA2C11
:102CC000F5DD0120FFF7D5FFFA2C01DB002010BD58
:102CD0000120FCE770B504460D46A4F10C0188B252
:102CE0002B4604F10D022946FEF772FFA5F10C00F8
:102CF00081B2193083B222462046FEF769FF681C74
:102D000081B2601CFEF761F8611E88B2691C89B24D
:102D1000FEF75BF8681E81B2601CFEF756F86A1E6B
:102D200091B2621E90B2FEF750F806222946204664
:102D3000FEF7C6FF70BD70B504460D462946204615
:102D4000FEF743F82946601CFEF73FF8681C81B285
:102D50002046FEF73AF8681C81B2601CFEF735F891
:102D600070BD2DE9F0414349891D881EFFF721FF01
:102D700080B34049B1F9140001F080F806463D499E
:102D8000888801F093F807463A48C168384601F050
:102D9000A1F80546314600F011FF044601F04EF857
:102DA00034490880B1F9160001F068F80646314947
:102DB000C88801F07BF807462E480169384601F0C3
:102DC00089F80546314600F0F9FE044601F036F870
:102DD00028494880BDE8F081012026490872022078
:102DE00026490860704770B52249C868244901F037
:102DF00071F8054601F006F8044604222146282011
:102E0000FFF794FC1B4908691D4901F063F805466A
:102E100000F0F8FF0446042221462C20FFF786FC30
:102E20001448B0F9141002223020FFF77FFC11483B
:102E3000B0F9161002223220FFF778FC3420FFF799
:102E400021FC044604F0F00444F00A042146342036
:102E5000FFF744FC70BD00008C0122428001224239
:102E60000000224208012242B40122420004014033
:102E70000000014028000020040122421404014007
:102E800020BCBE4C70B53420FFF7FCFB044604F0B8
:102E90000F000A282DD104212820FFF75CFC0446EE
:102EA000204600F0EBFF0546FF4900F0E9FEFF4930
:102EB000C86004212C20FFF74EFC0446204600F099
:102EC000DDFF0546F84900F0DBFEF8490861022104
:102ED0003020FFF740FC044620B2F44988820221EA
:102EE0003220FFF738FC044620B2F049C8820120A6
:102EF00070BD0020FCE72DE9F04F87B04FF00008CF
:102F000000BF1F20EA4908804FF6FF70E94908809A
:102F1000FDF778FF4FF47840E54908804FF6FF70E1
:102F2000FDF770FF14210846FFF7D4FE0020DF49AB
:102F30000872C86010E2DD48007A01287DD1FFF7F1
:102F4000A9FE68B1D948808803A921F82800D7488C
:102F5000C08801EB8801488008F1010000F0FF08FB
:102F6000B8F1010F09D0B8F1020F0FD0B8F1030F7B
:102F700016D0B8F1040F08D11CE04FF6FF70FDF732
:102F800041FF1421DC20FFF7A5FEE3E14FF6FF70BF
:102F9000FDF738FF4FF496711420FFF79BFED9E13F
:102FA0004FF6FF70FDF72EFF4FF49671DC20FFF710
:102FB00091FECFE1BDF80C10BDF81020881A01D4A5
:102FC000014600E041420E46BDF80E20BDF8121049
:102FD000501A01D4014600E041420F4676437F4338
:102FE000F01900F000FCCDE9000100F09DFB044663
:102FF00000F0CCFB1FFA80F9BDF81410BDF81820C2
:10300000881A01D4014600E041420E46BDF8162060
:10301000BDF81A10501A01D4014600E041420F4693
:1030200076437F43F01900F0DEFB044600F07CFBA2
:10303000CDE9000100F0AAFB00E08CE11FFA80FA64
:10304000504600F033FF0446484600F02FFF054687
:10305000214600F015FE0290029800F083FD044620
:103060004FF06632944B00F0D1FB0ED3029800F083
:1030700079FD0446914A924B00F058FC05D3B9F112
:10308000000F02D0BAF1000F0AD14FF000084FF63E
:10309000FF70FDF7B7FE14210846FFF71BFE5BE14A
:1030A000BDF80C10BDF81420881A01D4014600E0C8
:1030B00041420E46BDF80E20BDF81610501A01D43C
:1030C000014600E041420F4676437F43F01900F08D
:1030D0008AFBCDE9000100F027FB044600F056FB17
:1030E0001FFA80F9BDF81010BDF81820881A01D415
:1030F000014600E041420E46BDF81220BDF81A100C
:10310000501A01D4014600E041420F4676437F4306
:10311000F01900F068FBCDE9000100F005FB044662
:1031200000F034FB1FFA80FA504600F0BFFE044660
:10313000484600F0BBFE0546214600F0A1FD029086
:10314000029800F00FFD04464FF066325A4B00F033
:103150005DFB08D3029800F005FD0446574A584B22
:1031600000F0E4FB0AD24FF000084FF6FF70FDF7C5
:1031700049FE14210846FFF7ADFDEDE0BDF8101043
:10318000BDF81420881A01D4014600E041420E46E1
:10319000BDF81220BDF81610501A01D4014600E007
:1031A00041420F4676437F43F01900F01CFB044672
:1031B00000F0BAFACDE9000100F0E8FA1FFA80F950
:1031C000BDF80C10BDF81820881A01D4014600E0A3
:1031D00041420E46BDF80E20BDF81A10501A01D417
:1031E000014600E041420F4676437F43F01900F06C
:1031F000FAFA044600F098FACDE9000100F0C6FAA8
:103200001FFA80FA504600F051FE0446484600F08E
:103210004DFE0546214600F033FD0290029800F075
:10322000A1FC04464FF06632234B00F0EFFA08D3BE
:10323000029800F097FC0446204A214B00F076FBF0
:103240000AD24FF000084FF6FF70FDF7DBFD1421A6
:103250000846FFF73FFD7FE0BDF81010BDF80C20D9
:10326000881A00F00BFE04460146164800F008FDDF
:103270000E49C860BDF81010BDF80C20881800F089
:10328000FDFD01900948C168019800F023FE8346C6
:103290000D4900F0F2FE05464FF0804100F0F0FCD1
:1032A000044600F0AFFD11E020BCBE4C2800002019
:1032B0000A0000200C0000206666EE3FCDCCCCCC8E
:1032C000CCCCF03F000048430000704300B25649A8
:1032D0008882BDF81610BDF80E20881A00F0CEFDC9
:1032E00004460146514800F0CBFC4F490861BDF847
:1032F0001610BDF80E20881800F0C0FD01904A4855
:103300000169019800F0E6FD8346494900F0B5FEE9
:1033100005464FF0804100F0B3FC044600F072FD1A
:1033200000B24149C8821F20424908804FF6FF7011
:10333000FDF768FD40A26E212320FEF735FE4FF415
:103340007A70FDF727F84FF6FF70FDF75BFD07B0C9
:10335000BDE8F08F00BF00BFEDE510B53C488069C7
:1033600040F010003A4988610846806940F0010049
:103370008861384800686FF30F00364908600846D6
:10338000006843F6830108433249086008464068F4
:1033900020F4700048600846406840F440104860DF
:1033A0000846C06842F20F0108432A49C8601E4916
:1033B000891D881EFFF7E6FB02230722002118461D
:1033C000FDF73DF82248806940F0010020498861FE
:1033D0002148806840F020001F4988601F4800682D
:1033E00040F00200C1F800040846D0F8040440F0A0
:1033F0000200C1F804040846D0F80C0440F00200B2
:10340000C1F80C04FFF73AF9FFF73CFD00B110BD1D
:103410004FF6FF70FDF7F6FCFFF76DFDFFF7E3FCDD
:10342000FFF730FD00BFF2E72800002000008C43CA
:103430000000A0430A000020546F756368205363A6
:103440007265656E2041646A757374204F4B21006C
:103450000010024000100140000001400004014043
:10346000704700000FB4044910B503AA029800F099
:10347000D3F810BC5DF814FB040000202DE9F041E6
:1034800004460E4600200AE0E1682046884738B32B
:10349000252806D0D4E901219047206A401C2062EB
:1034A000F2E7E168204600278847050018D0A5F11B
:1034B0004100192802D820354FF4006732462946CA
:1034C00020462760FCF74CFE40B1012804D0F61DD1
:1034D00026F007060836D7E7361DD5E72846D9E790
:1034E000206ABDE8F081000070B504460D46214613
:1034F0001068AFF300802168090502D5104A7A44AC
:1035000002E00F4A7A440E32002104F1240307E05E
:1035100000F00F064FEA1010965D5E5401F10101B4
:103520000028F5D120680023000704D5702D02D0B3
:1035300009B1113202232046BDE8704000F011B8F5
:1035400018170000704770477047704710B500F0BB
:1035500075F8006810BD10B5044600F06FF80460FF
:1035600010BD2DE9F0470D4604469246994600F1FC
:1035700024080168880604D5E06921F01001216063
:1035800000E001200027A84201DDA0EB0507A169AA
:1035900007EB050202EB0300A1EB0000A06120682D
:1035A000C00602D42046AFF30080002608E0D4E92C
:1035B00001211AF806009047206A401C761C206200
:1035C0004E45F4DB2068C0060AD52046AFF30080E4
:1035D00006E0D4E9012130209047206A401C206297
:1035E000381EA7F10107F4DC07E0D4E9012118F83F
:1035F00005009047206A401C2062281EA5F10105A5
:10360000F3DC2046AFF3008021680220090600D4D5
:103610000120BDE8F0870000074B70B50C467B44E5
:1036200000F017F80546204600F026F810B14FF0DC
:10363000FF3070BD284670BDF5D0FFFF01487047D0
:10364000704700BF4000002001694A1C02610878F1
:10365000704700B58FB0CDE90131002105910549D2
:103660007944CDE9031011466846FFF707FF0FB014
:1036700000BD0000E5FFFFFFC06800F0800070475C
:1036800000487047400000207546FFF7F9FFAE463E
:1036900005006946534620F00700854618B020B55E
:1036A000FCF786FDBDE820404FF000064FF0000714
:1036B0004FF000084FF0000B21F00701AC46ACE8DA
:1036C000C009ACE8C009ACE8C009ACE8C0098D4647
:1036D00070470446AFF300802046FCF755FD00001C
:1036E00001487047704700BF4400002030B50446D1
:1036F0000D460C480088A0F50941893908D12146BA
:103700004E20FDF791FA29464F20FDF78DFA07E08C
:1037100021462020FDF788FA29462120FDF784FA6A
:1037200030BD00000E0000202DE9F04106460F4696
:1037300000F032F904000D4618BF0120284320F0A4
:103740000040C0F17F6010F1E0400ED5002E14BFA4
:1037500001200020384320F00040C0F17F6010F1CC
:10376000E0405CBF0120FFF7F6FE20462946BDE899
:10377000F081491058BFC1F140415B1058BFC3F1FF
:1037800040438B42EFF30080704700004FEA115333
:10379000A3F58063D3F11E03A8BFD3F1200C08DB8F
:1037A0004FF0004242EAC12252EA505232FA03F08C
:1037B000704709420BD4102BC4BF0020704703F59B
:1037C000787CBCF1FF3F05D04FF0FF3070474FF0E1
:1037D0000000704770B500F055F800BF4992248092
:1037E00000207047F0E7B0FA80F310FA03F10AD036
:1037F000C3F11D0303F580634FEA41504FEA0352C2
:1038000002EBD12170474FF00000704751EA030CE2
:1038100017D41CF5801F58BFBCF5801F00F106802F
:10382000994218BF704708BF9042704707D711F5FB
:10383000801F58BF13F5801F19D4994270478942E1
:1038400070471CF5801F08D5BCF5801FF7D58B424B
:1038500018BF704708BF824270474FF4001C1CEB32
:10386000410F38BF1CEB430F01D28B42704770B53C
:1038700000F008F8922449004FF000514FF08053B7
:10388000FFF777BF0EF1020E2EF0030E5EF8046B09
:10389000364205D4012A43EB030515F5001F12D863
:1038A000012841EB010C1CF5001F0CD80ED14FEA8A
:1038B000D17C15F5001F0CEB4C0C0CF1020C08BF71
:1038C0004CEBD37C04E04FF0080C01E04FEAD37CD2
:1038D0000CEB4C0526FA05F606F00706B6F1040CCB
:1038E00006D20EEB860CBDE870404CF0010C604730
:1038F000DFE80CF0090B02024FF000414FF000002E
:10390000A1F5002170BD19461046012851EB0104B4
:1039100018BFD4F5001484BF002001F0004170BD31
:103920000808A0F500114FEA3101704753EA010C75
:1039300017D41CF5801F58BFBCF5801F00F106800E
:103940008B4218BF704708BF8242704707D713F5F4
:10395000801F58BF11F5801F19D48B4270479B42BE
:1039600070471CF5801F08D5BCF5801FF7D599421C
:1039700018BF704708BF904270474FF4001C1CEB03
:10398000430F38BF1CEB410F01D2994270470FB46F
:103990000CBC03BCFFF76BBF2DE9F04101F5801CA7
:1039A000BCF5001FC0F2C3804FEA115C21EA0C5144
:1039B0000CF1FD0C41F480115FEA5C0C0CF5C07C4D
:1039C00001D3400049413DA4890241EA9051870258
:1039D0008E0E0A0CA45D04FB04F602FB06F6C6F18B
:1039E0004046A4FB0662F60D46EA422606FB06F4B4
:1039F000A4FB01235242C3F1404338BF5B1EA6FB28
:103A000002420024E6FB0324D20B42EA4446A6FB12
:103A10000623A1FB02E2A3FB07E4A4184FF0000277
:103A200052F10002E3FB01426442C2F1404E38BF52
:103A3000AEF1010EA6FB04234FF00002E6FB0E32AE
:103A4000A2FB03464FF00004B61954F10004E2FB58
:103A50000264A1FB06E6A4FB07E816EB08064FF09C
:103A6000000858F10008E4FB01687642C8F14058AC
:103A700038BFA8F10108A2FB06E4A3FB08E52D1955
:103A80004FF0000454F10004E2FB0854A1FB05E6EA
:103A9000A7FB04E818EB06084FF0000656F10006F5
:103AA000E1FB048618F1200556F10006A809A8F1EB
:103AB0001B08B10908F03F08B8F10A0F40EA866018
:103AC0001CD901EB0C51BDE8F08100BFFCF5EEE81C
:103AD000E2DDD8D3CFCBC7C3C0BDB9B6B4B1AEACAD
:103AE000A9A7A5A3A19F9D9B9A9896959392908F25
:103AF0008D8C8B898887868584838281A0FB006872
:103B000000FB01F208EB4208B8EB872807D5341810
:103B100058EB0104D5D5401C51F10001D1E7341A0E
:103B200078EB0104CDD4401E71F10001C9E75FEAD2
:103B30004C0C5FEA9C5C0DD105D34FF0000001F006
:103B40000041BDE8F081BDE8F04170B5FFF79AFE95
:103B50006DDBFFBEBDE8F0414FF00000004970474B
:103B60000000F87F43004FEAD30C4FEA3C0C43407F
:103B70001FBF40070CF1605113F0FE4F70471CF05F
:103B8000006F03D100200CF0004170470CF000439F
:103B900043EA507010B540EACC0000F01CFA00BFB8
:103BA000000000924FEA0001FFF7BABE4FF000415B
:103BB0004FF00000A1F500217047000090EA010FCE
:103BC00048BF81F0004100F16A82421A3CBF801A6E
:103BD00089184FEAD0524FF07F4C1CEA410FA2EBFC
:103BE000D15318BF9CEA026F00F03B804FF0004CAD
:103BF0004CEA00204CEA012121FA03FC10EB0C0CEA
:103C00001ED202F1FF325FEA1C2040EBC25038BFE7
:103C100070471CF07F0F4FEA400C18BFBCF17F4F7C
:103C200038BF7047C3F12003994008BF20F001005E
:103C3000BCF17F4F38BF7047A0F1C04000F018BA08
:103C40004FEA3C00000A40EBC25028BF1CF0FF0FB7
:103C50004FEA400CE6D018BFBCF17F4F38BF704729
:103C6000EAE79CEA026F05D010EA5C0F08BF00F09B
:103C70000040704710B500F0AEF900BF64FBBE3ED7
:103C80004FF47F0C1CEAD0121EBF1CEAD11392EA3B
:103C90000C0F93EA0C0F00F0858090EA010F48BFEB
:103CA00042F4807240F4000C41F400002CF07F419B
:103CB00020F07F4000B58142A2EB03020FF2081C06
:103CC000ACEB504EC0F100009EF800E04FEA4E0E03
:103CD00000FB0EFC38BF49004FEA2C1C02F5FA022B
:103CE0000CFB0EF34FEACE1E4FEA112C4FEAC12116
:103CF0000EEB635E42EB22420EFB0CFC4FEA1C53C0
:103D000000FB03114FEA112C4FEA01310EFB0CFCB2
:103D10004FEADC4C00FB0C11C14228BF09184CEBE8
:103D200003335DF804EB10EB410143EBC250B2F5F5
:103D30007C0F38BF704729D512F0F00F1CBF00F17F
:103D4000C04000F0004070470081828384858687F0
:103D500088898B8C8D8E8F919293959697999A9C4A
:103D60009D9FA0A2A3A5A7A8AAACAEB0B2B3B5B7B9
:103D7000B9BCBEC0C2C5C7C9CCCED1D4D7D9DCDF8F
:103D8000E2E6E9ECF0F3F7FAFE0000004FEA400C3F
:103D90000CF1807CBCF17E4F28BF7047B0F1C04071
:103DA00000F066B990EA010F0CEAD11348BF42F463
:103DB0008072624538BF634507D213F47F0F16D077
:103DC00080EA010000F00040704710B500F003F9F0
:103DD000097EFC3E00F005B880EA010000F00040DA
:103DE000704780EA010000F0004000F041B912F491
:103DF0007F0F04BF0248704780EA010000F038B925
:103E00000000C07F41000B0ED3F19E0208D950F490
:103E100000034FEA032323FA02F048BF40427047F1
:103E200010B500F0D8F800BF4992248000207047F8
:103E30006FF0004282EA200070470000C10DD1F10E
:103E40009E0206DB4FEA002343F0004323FA02F010
:103E50007047004207D54FEA4001B1F1FE4F02D250
:103E60004FF00000704710B500F0B5F8499224807B
:103E7000002070476FEA20007047000010F00041FA
:103E800048BF4042B0FA80F310FA03F2C3F19D0339
:103E90000BD051EAC35101EB1220530638BF7047D3
:103EA00000F1010008BF20F001007047B0FA80F374
:103EB00010FA03F2C3F19D030AD0D90501EB1220D9
:103EC000530638BF704700F1010008BF20F0010021
:103ED000704700004FF47F0C1CEAD0121EBF1CEA92
:103EE000D11392EA0C0F93EA0C0F00F0478090EA8E
:103EF000010F48BF42F480724FF0004C4CEA0020A2
:103F00004CEA012102EB0302A0FB0113A2F500021F
:103F1000002918BF43F001035B0028BF4FEA3303B9
:103F200042EB22425FEA132C4CEBC2502EBFBCEB9B
:103F3000436FB2F57C0F70474FEA036CBCF1004F42
:103F400008BF20F00100B2F57C0F38BF70470BD5D9
:103F500082F0FF0212F5803FC8BF704700F1C040F9
:103F6000D8BF00F00040704700F5000C5FEA4C0C31
:103F700048BF7047B0F1C04000F07AB890EA010F36
:103F80000CEAD11348BF42F48072624538BF6345E2
:103F900004D280EA010000F00040704710B500F044
:103FA0001AF800BF8900013E00F007B800F009B818
:103FB0005FEA410C5FEA1C6C08D080EA010000F067
:103FC00057B85FEA400C5FEA1C6CF6D14FF0004036
:103FD000A0F5800070470EF1020E2EF0030E5EF881
:103FE000044B244204D44FEA4102B2F17F4F11D86E
:103FF0004FEA4003B3F17F4F0CD80ED14FEAD07C8B
:10400000B2F17F4F0CEB4C0C0CF1020C08BF4CEBE7
:10401000D17C04E04FF0080C01E04FEAD17C0CEBBE
:104020004C0324FA03F404F00704B4F1040C06D2A0
:104030000EEB840CBDE810404CF0010C6047DFE84B
:104040000CF0070802024FF00040A0F5800010BD00
:104050000846420018BFD2F1807288BF00F00040CD
:1040600010BD10B5FFF73CFB4FF00001016010BD23
:10407000FF2141EAD050C005704780F0004090EA2F
:10408000010F7FF5A2AD81F0004100F008B80000FB
:1040900090EA010F48BF81F000413FF596AD421A0A
:1040A00004D882F00042A0EB020011444FEAD05243
:1040B0004FF07F4C1CEA410FA2EBD15318BF9CEA92
:1040C000026F4AD04FF0004C4CEA00204CEA01212C
:1040D00021FA03FCB0EB0C0C0FD412F0FE0F36D01B
:1040E0005FEA4C001DD5001240EBC25038BF70474C
:1040F0001CF03F0F18BF70470BE0A2F101025FEA0E
:104100001C2040EBC25038BF70471CF07F0F18BF17
:104110007047C3F12003994014BF401E20F00100F6
:10412000704780084FEA122308BF7047B0FA80FC3E
:10413000A2EB0C02CCF1280C60FA0CF093EA122FDF
:1041400004BF00EBC25070474FEAC3707047130AB8
:104150005FEADC1008BF7047F6E79CEA026F04D004
:1041600010EA5C0F08BF0020704710B5FFF733FF5F
:1041700040DFF63E81F00040704700000000000084
:104180000000000000000000040404040404000413
:10419000000000140A0A00000000000000000000F7
:1041A00014143F140A3F0A0A000000041E150506F5
:1041B0000C14150F0400000012150D0A142C2A12FD
:1041C00000000000040A0A1E15150936000000024E
:1041D0000201000000000000000000201008080894
:1041E000080808102000000204080808080808044D
:1041F000020000000004150E0E150400000000006F
:104200000404041F04040400000000000000000077
:1042100000000002020100000000001F000000007A
:10422000000000000000000000000002000000107C
:104230000808080404020202010000000E11111116
:104240001111110E00000000040604040404040E01
:10425000000000000E1111080402011F0000000000
:104260000E11100C1010110E00000000080C0A0AAC
:10427000091E0818000000001F01010F1010110E88
:10428000000000000E09010F1111110E00000000C6
:104290001F09080404040404000000000E11110E9C
:1042A0001111110E000000000E1111111E10120E3E
:1042B00000000000000004000000000400000000F6
:1042C00000000004000000040400002010080402A4
:1042D000040810200000000000001F00001F000064
:1042E0000000000204081020100804020000000072
:1042F0000E11110804040004000000000E1119152D
:10430000151D011E0000000004040C0A0A1E1233D1
:10431000000000000F12120E1212120F0000000017
:104320001E1101010101110E000000000F121212F6
:104330001212120F000000001F120A0E0A02121FB2
:10434000000000001F120A0E0A020207000000000F
:104350001C1201013911120C000000003312121E50
:1043600012121233000000001F0404040404041F8E
:10437000000000003E0808080808080907000000BF
:1043800037120A060A0A123700000000070202026A
:104390000202223F000000001B1B1B1B15151515F8
:1043A000000000003B1216161A1A12170000000037
:1043B0000E1111111111110E000000000F12120E3A
:1043C00002020207000000000E1111111117190E50
:1043D000180000000F12120E0A121237000000001F
:1043E0001E1101060810110F000000001F15040423
:1043F0000404040E00000000331212121212120CF8
:10440000000000003312120A0A0C0404000000002D
:104410001515150E0A0A0A0A000000001B0A0A04F4
:10442000040A0A1B000000001B0A0A040404040E0C
:10443000000000001F0908040402121F0000001CF5
:1044400004040404040404041C0000020202040422
:10445000080808100000000E0808080808080808E6
:104460000E0000040A000000000000000000000030
:104470000000000000000000003F000400000000F9
:1044800000000000000000000000000C121C123CA4
:10449000000000000302020E1212120E00000000C3
:1044A0000000001C1202021C000000001810101C6A
:1044B0001212123C000000000000000C121E021C30
:1044C000000000003804041E0404041E0000000064
:1044D0000000003C120C021E221C00000302020E0F
:1044E0001212123700000000040000060404040E3B
:1044F000000000000800000C080808080807000079
:104500000302023A0A0E12370000000007040404F6
:104510000404041F000000000000000F151515150D
:10452000000000000000000F12121237000000000F
:104530000000000C1212120C000000000000000F1E
:104540001212120E020700000000001C1212121CB0
:10455000103800000000001B0602020700000000E7
:104560000000001E020C101E000000000004040EDB
:1045700004040418000000000000001B1212123C8A
:104580000000000000000037120A0C0400000000C8
:1045900000000015150E0A0A000000000000001BB4
:1045A0000A040A1B0000000000000037120A0C0475
:1045B000040300000000001E0804041E0000001890
:1045C0000808080408080808180008080808080867
:1045D0000808080808080006040404080404040481
:1045E0000600022518000000000000000000000086
:1045F00000000000000000000000000000000000BB
:1046000000080808080808080000181800000048FA
:104610006C241200000000000000000000000000F8
:10462000002424247F1212127F12121200000000B4
:10463000081C2A2A0A0C1828282A2A1C0808000004
:104640000022251515152A58545454220000000044
:10465000000C1212120A76252911916E0000000634
:1046600006040300000000000000000000000040FD
:104670002010100808080808081010204000000248
:1046800004080810101010101008080402000000A0
:10469000000008086B1C1C6B0808000000000000EC
:1046A0000000080808087F0808080800000000004B
:1046B00000000000000000000000060604030000E7
:1046C000000000000000FE000000000000000000EC
:1046D00000000000000000000000060600000000CE
:1046E000804040202010100808040402020000004E
:1046F0000018244242424242424224180000000074
:1047000000080E08080808080808083E0000000015
:10471000003C4242422020100804427E000000007B
:10472000003C4242201820404042221C0000000071
:1047300000203028242422227E202078000000003F
:10474000007E0202021A26404042221C00000000A5
:1047500000382402021A26424242241800000000B7
:10476000007E222210100808080808080000000037
:10477000003C4242422418244242423C00000000D5
:1047800000182442424264584040241C00000000AB
:1047900000000000181800000000181800000000B9
:1047A00000000000000800000000000808040000ED
:1047B00000402010080402040810204000000000FF
:1047C000000000007F0000007F00000000000000EB
:1047D000000204081020402010080402000000001D
:1047E000003C424246402010100018180000000013
:1047F000001C225A555555552D42221C0000000020
:10480000000808181414243C224242E7000000006B
:10481000001F2222221E22424242221F00000000CC
:10482000007C4242010101010142221C0000000003
:10483000001F2242424242424242221F0000000028
:10484000003F4212121E12120242423F00000000BC
:10485000003F4212121E1212020202070000000064
:10486000003C2222010101712122221C00000000D3
:1048700000E7424242427E42424242E700000000DC
:10488000003E0808080808080808083E0000000064
:10489000007C10101010101010101010110F0000DC
:1048A000007722120A0E0A1212222277000000005C
:1048B00000070202020202020202427F0000000020
:1048C0000077363636362A2A2A2A2A6B000000005C
:1048D00000E346464A4A52525262624700000000D4
:1048E000001C2241414141414141221C0000000085
:1048F000003F424242423E02020202070000000024
:10490000001C2241414141414D53321C60000000D6
:10491000003F4242423E1212222242C700000000E3
:10492000007C4242020418204042423E0000000047
:10493000007F4908080808080808081C0000000053
:1049400000E74242424242424242423C00000000F2
:1049500000E7424222242414141808080000000032
:10496000006B494949495555362222220000000072
:1049700000E7422424181818242442E7000000000D
:1049800000772222141408080808081C0000000000
:10499000007E2120101008040442423F00000078ED
:1049A000080808080808080808080808780000002F
:1049B0000202040408080810102020204040001EB5
:1049C0001010101010101010101010101E000038D1
:1049D0004400000000000000000000000000000093
:1049E00000000000000000000000000000FF0006C2
:1049F00008000000000000000000000000000000AF
:104A000000000000003C4278444242FC00000000EC
:104A100000030202021A26424242261A0000000047
:104A20000000000000384402020244380000000088
:104A30000060404040784442424264D80000000098
:104A400000000000003C427E0202423C00000000E8
:104A500000F08808087E08080808083E00000000EA
:104A600000000000007C22221C023C42423C00006C
:104A700000030202023A4642424242E700000000BE
:104A8000000C0C00000E08080808083E000000009A
:104A9000003030000038202020202020221E00007E
:104AA000000302020272120A1612227700000000AE
:104AB000000E0808080808080808083E0000000062
:104AC00000000000007F9292929292B700000000D6
:104AD00000000000003B4642424242E70000000066
:104AE00000000000003C42424242423C0000000004
:104AF00000000000001B26424242221E0207000066
:104B000000000000007844424242447840E0000047
:104B10000000000000774C040404041F00000000A3
:104B200000000000007C42023C40423E00000000C9
:104B300000000008083E08080808083000000000CF
:104B40000000000000634242424262DC00000000BC
:104B50000000000000E742242414080800000000C0
:104B60000000000000EB49495555222200000000DA
:104B700000000000007624181818246E00000000C1
:104B80000000000000E74224241418080807000071
:104B900000000000007E22100808447E000000C0D3
:104BA000202020202010202020202020C0001010B5
:104BB000101010101010101010101010101000060F
:104BC00008080808081008080808080806000C3239
:104BD000C200000000000000000000000000000310
:104BE000030601040602050003051F1C1F1E1F1EED
:104BF0001F1F1E1F1E1F4A616E4665624D61724176
:104C000070724D61794A756E4A756C41756753656E
:104C1000704F63744E6F7644656330313233343590
:104C200036373839414243444546403058003031E8
:104C30003233343536373839616263646566403003
:104C400078000000644C0008000000201C000000F8
:104C500028010008804C00081C000020840200008D
:104C6000440100080000000000000000017F000077
:104C7000FFFF000000000000000000000000000036
:04000005080000ED02
:00000001FF
