:020000040800F2
:100000004004002049010008750200087102000840
:1000100073020008910100081D060008000000009E
:100020000000000000000000000000009B0200082B
:100030009301000800000000770200082D0300086B
:100040006301000863010008630100086301000800
:1000500063010008630100086301000863010008F0
:1000600063010008630100086301000863010008E0
:1000700063010008630100086301000863010008D0
:10008000630100086301000863010008000000002C
:1000900000000000000000000000000063010008F4
:1000A00063010008630100086301000863010008A0
:1000B0006301000863010008630100086301000890
:1000C0006301000863010008630100086301000880
:1000D0006301000863010008630100086301000870
:1000E0006301000863010008630100086301000860
:1000F0006301000863010008000000000000000028
:100100000000000000000000630100086301000817
:10011000630100086301000863010008630100082F
:10012000630100086301000863010008630100081F
:1001300063010008DFF80CD000F018F80048004711
:100140003D06000840040020064880470648004756
:10015000FEE7FEE7FEE7FEE7FEE7FEE7FEE7FEE777
:10016000FEE7FEE73103000835010008064C074DA5
:1001700006E0E06840F0010394E807009847103477
:10018000AC42F6D3FFF7DAFF1C0700083C07000873
:10019000FEE7704708B54FF47060ADF80000182016
:1001A0008DF8030003208DF802006946054800F031
:1001B0000DF84FF46040ADF800006946024800F0C9
:1001C00005F808BD00080140000C01402DE9F04190
:1001D000CA780025D30602F00F0201D58B781A43A6
:1001E0000B884FF00F084FF0010C13F0FF0F1CD0DD
:1001F000D0F800400E880CFA05F31E409E4210D144
:10020000AF0008FA07F624EA060602FA07F43443B8
:10021000CE78282E02D0482E02D002E0436100E0C2
:1002200003616D1C082DE5D304600B88FF2B1DD9DD
:100230004468002505F108060CFA06F30E881E40F6
:100240009E420FD1AF0008FA07F624EA060602FA2A
:1002500007F43443CE78282E00D14361CE78482E5F
:1002600000D103616D1C082DE4D34460BDE8F0812A
:10027000FEE7FEE770477047044A0029916901D004
:10028000014300E08143916170470000001002408B
:10029000012140F64D00FFF7EFBF704721480021D4
:1002A000026842F4803202604FF4A0630268491C85
:1002B00012F4003F01D19942F8D10168890330D589
:1002C00019490A6842F010020A600A6822F0030223
:1002D0000A600A6842F002020A60416841604168AF
:1002E0004160416841F480614160416821F47C11C2
:1002F0004160416841F4E8114160016841F080715A
:10030000016001688901FCD5416821F00301416069
:10031000416841F0020141604168C1F38101022955
:10032000FAD17047001002400020024070470000E0
:100330000F4810B5016841F00101016041680D4AA4
:100340001140416001680C4A11400160016821F4CC
:1003500080210160416821F4FE0141604FF41F01DA
:100360008160FFF79BFF05494FF00060086010BDFA
:10037000001002400000FFF8FFFFF6FE08ED00E06D
:100380000029018802D041F0010101E021F00101C2
:1003900001807047002930F8441F02D041F4004129
:1003A00001E0C1F30E01018070470000F0B5028C3E
:1003B00022F001020284058C8388028B0C8822F0D3
:1003C000730225F002060D8914434A88124F354303
:1003D0002A43B8420BD0114DA84208D0104DA84274
:1003E00005D0104DA84202D00F4DA8420DD122F0E9
:1003F00008054A8923F440762A4322F004058A88B6
:10040000CB892A438D8935432B4383800483C98854
:1004100081860284F0BD0000002C014000340140C0
:1004200000400140004401400048014030B5028CCA
:1004300022F010020284028C8388048B22F02002B6
:1004400024F4E6450C88240645EA14440D892D055C
:1004500042EA15454A88120545EA1242104DA84263
:1004600002D0104DA84215D122F080054A8923F40C
:100470004063120545EA124222F040058A881205BF
:1004800045EA12428D89AD0443EA1545CB899B04A8
:1004900045EA134383800483C9880187028430BD01
:1004A000002C01400034014070B5028C22F48072AF
:1004B0000284028C8388848B0D8922F400722D06BD
:1004C00042EA15454A8824F0730612060C8845EA6C
:1004D0001242114D3443A84202D0104DA84215D10A
:1004E00022F400654A8923F44053120645EA124279
:1004F00022F480658A88120645EA12428D892D050C
:1005000043EA1545CB891B0545EA13438380848361
:10051000C9888187028470BD002C014000340140ED
:1005200030B5028C22F480520284048C8288838B42
:1005300023F4E6450B881B0645EA134324F40055D3
:100540000C89240745EA14444D882D0744EA1545D3
:10055000094CA04202D0094CA04205D122F48044AB
:100560008A89920544EA124282808383C988A0F86E
:100570004010058430BD0000002C014000340140D3
:1005800030B502881B4B1C4C98420DD0A0420BD0BA
:10059000B0F1804F08D0194DA84205D0184DA8429F
:1005A00002D0184DA84203D122F070054A882A4390
:1005B000154DA84206D0154DA84203D022F440752F
:1005C000CA882A4302808A88984282850A880285DE
:1005D0000AD0A04208D00E4A904205D00D4A90425F
:1005E00002D00D4A904201D1097A0186012181820F
:1005F00030BD0000002C01400034014000040040E8
:1006000000080040000C00400010004000140040B2
:10061000004001400044014000480140FEE702E084
:1006200008C8121F08C1002AFAD17047704700207D
:1006300001E001C1121F002AFBD17047FFF728FE1D
:10064000FFF7A8FD314844F2A2410A230068304D6B
:10065000B0FBF1F0401E82B2501E00EB8001B1FBF6
:10066000F3F12A80698040F2771100FB01F34FF427
:100670007A71B3FBF1F3AB8000EBC00303EB001323
:100680006424B3FBF4F3EB8000EB4003C3EBC01036
:10069000B0FBF1F01F49288100260E804E808A8031
:1006A0001D4FCE800E723846FFF76AFF194C70203E
:1006B0000A3421462080012060800420A0806888C0
:1006C000E080022020816681C001A081E681384659
:1006D000FFF76CFEA888E08021463846FFF7A6FEAB
:1006E000E888E08021463846FFF7DEFE2889E08072
:1006F00021463846FFF714FF01213846FFF740FE38
:1007000001213846FFF746FEFEE700000C000020FE
:100710000000002020000020002C01403C070008C1
:1007200000000020200000001E0600085C070008F2
:1007300020000020200400002E0600080000000019
:10074000000000000000000000A24A0400000000B9
:0C07500000000000010203040607080975
:0400000508000135B9
:00000001FF
