:020000040800F2
:10000000B8410020D9010008DD010008DF01000827
:10001000E1010008E3010008E5010008000000001C
:10002000000000000000000000000000E7010008E0
:10003000E901000800000000EB010008ED010008E4
:10004000F5D50008EF010008EF0100083191000824
:10005000EF010008EF010008E92A0008B52C0008AC
:10006000EF010008EF010008EF010008EF010008B0
:10007000EF010008EF010008EF010008EF010008A0
:10008000EF010008EF010008EF0100081DCD000896
:10009000F1CD0008EF010008EF010008EF010008B2
:1000A000EF010008EF010008EF010008EF01000870
:1000B000EF010008A5C10008EF010008EF010008EA
:1000C000EF010008EF010008EF010008EF01000850
:1000D000EF010008EF010008EF010008EF01000840
:1000E000012B0008EF010008EF01000800F002F802
:1000F00000F063F80AA090E8000C82448344AAF15F
:100100000107DA4501D100F058F8AFF2090EBAE85C
:100110000F0013F0010F18BFFB1A43F0010318473B
:10012000C01A0100E01A01000A444FF0000C10F858
:10013000013B13F0070408BF10F8014B1D1108BF65
:1001400010F8015B641E05D010F8016B641E01F805
:10015000016BF9D113F0080F1EBF10F8014BAD1C55
:100160000C1B09D16D1E58BF01F801CBFAD505E073
:1001700014F8016B01F8016B6D1EF9D59142D6D3CD
:10018000704700000023002400250026103A28BFF5
:1001900078C1FBD8520728BF30C148BF0B607047F9
:1001A000782900F07D80002070471FB5AFF30080F4
:1001B00000F0B8F81FBD10B510BD00F095F911465C
:1001C000FFF7F3FF0DF03AFF00F0B3F9FFF7F3FF8D
:1001D0000DF0FAFC30BF000008480047FEE7FEE7DC
:1001E000FEE7FEE7FEE7FEE7FEE7FEE7FEE7FEE7E7
:1001F00003480449024A044B70470000ED00000820
:10020000B83F0020B8410020B83F002070470000F0
:100210000FB4054A054910B503AB7944029800F0C4
:1002200046F910BC5DF814FB0C00002073DA0000E6
:100230002DE9F04104460E4600202BE0E1682046FF
:10024000884748B3252802D0D4E901211FE0E1689E
:1002500020460027884705001ED0A5F14100192837
:1002600002D820354FF400673246294620462760E1
:10027000FFF796FF40B1012801D1361DDEE7F61DDC
:1002800026F007060836D9E7D4E901212846904729
:10029000206A401C2062D1E7206ABDE8F08100009E
:1002A00070B504460D4621461068AFF30080216802
:1002B000090502D5104A7A4402E00F4A7A440E3208
:1002C000002104F1240306E000F00F064FEA1010AD
:1002D000965D5E54491C0028F6D120680023000773
:1002E00004D5702D02D009B1113202232046BDE899
:1002F000704000F080B800001E170100194910B5C9
:1003000017220A6036224A60174A184B002100EB78
:10031000104442F82140164C491C372900FB043098
:10032000F5DB10BD0120E9E70E4B30B50E4C196826
:10033000586854F8215054F82020491E2A4444F8A3
:1003400020204FF03604A0F10100196002D5C3E966
:10035000004003E00028586000DA5C6022F00040B2
:1003600030BD0000100400207C3E0020E119D6665C
:10037000CD0D010010B5203AC0F00B80B1E8185047
:10038000203AA0E81850B1E81850A0E81850BFF47F
:10039000F5AF5FEA027C24BFB1E81850A0E818501E
:1003A00044BF18C918C0BDE810405FEA827C24BF72
:1003B00051F8043B40F8043B08BF7047D20728BF00
:1003C00031F8023B48BF11F8012B28BF20F8023B4F
:1003D00048BF00F8012B704770477047704770475F
:1003E00010B500F077F8006810BD10B5044600F0B5
:1003F00071F8046010BD2DE9F0470D4604469246A1
:10040000994600F124080168880604D5E06921F0C6
:100410001001216000E001200027A84200DD471BF9
:10042000A1697A1902EB0900081AA0612068C006C8
:1004300002D42046AFF30080002608E0D4E9012171
:100440001AF806009047206A401C761C20624E4530
:10045000F4DB2068C0060AD52046AFF3008006E032
:10046000D4E9012130209047206A401C2062381EC8
:10047000A7F10107F4DC07E0D4E9012118F8050031
:100480009047206A401C2062281EA5F10105F3DC7C
:100490002046AFF3008021680220090600D4012025
:1004A000BDE8F08701694A1C02610878704710B501
:1004B0000C46194690B0CDE9024200220692044A49
:1004C0007A44CDE9042001A8FFF7B2FE10B010BDB8
:1004D000E1FFFFFF0148704770470000583F0020D0
:1004E00000487047583F00207546FFF7F9FFAE46B9
:1004F00005006946534620F00700854618B020B530
:10050000FFF776FEBDE820404FF000064FF00007F1
:100510004FF000084FF0000B21F00701AC46ACE8AB
:10052000C009ACE8C009ACE8C009ACE8C0098D4618
:1005300070470446AFF300802046FFF747FE0000F7
:1005400070B50446002600250020174908601749A9
:10055000C1F8B401204600F06FF806200DF06EFBE4
:1005600001201149086000201049C1F8800100BF36
:1005700010E06804050C00200B49086001200B49BD
:10058000C1F8800108487838006808B1681C85B255
:10059000701CC6B2102EECDB2D1101200249343143
:1005A0000860284670BD00008001224200002242FF
:1005B0002DE9F04186B004464FF00008002506E022
:1005C0002046FFF7BDFF2DF81500681C85B20C2DE5
:1005D000F6DB002516E0681C86B20FE03DF815003A
:1005E0003DF81610884207DD3DF815703DF81600FD
:1005F0002DF815002DF81670701C86B20C2EEDDB50
:10060000681C85B20B2DE6DB4FF00008042506E0E0
:100610003DF8150040441FFA80F8681C85B2082D8B
:10062000F6DB40464FEAE87108EB91718F103846CF
:1006300006B0BDE8F0810000002100BF15E010F019
:10064000800F03D001220A4B1A6002E00022084BFF
:100650001A604206100E0022054B0C3B1A60012264
:10066000044BC3F880214A1CD1B20829E7DB70474C
:100670008C012242000022422DE9F84F40490868CF
:100680000FF0FBFA06463E4908690FF0F6FA0746F6
:1006900031460FF053F90446394948680FF0EDFA36
:1006A00006463749C8680FF0E8FA074631460FF0AA
:1006B00045F90546294620460FF0E4FA00D22546C2
:1006C0004FF07E5128460FF0B7FB01D24FF07E5518
:1006D0002B4908680FF0D1FA834629460FF002FB38
:1006E0008146274908690FF0C8FA494600900FF083
:1006F000E3FB80464FF080410FF020F90746204988
:1007000048690FF0BAFA824639460FF08BF8064670
:100710000FF06EFA1A49486148680FF0AEFA834646
:1007200029460FF0DFFA81461549C8680FF0A5FA8F
:10073000824649460FF0C0FB80464FF080410FF0E3
:10074000FDF807460E4988690FF097FA3946009080
:100750000FF068F806460FF04BFA0949886109491D
:1007600028460FF0BFFA054628460FF041FA044923
:1007700088604FF4FA70C8610862BDE8F88F000025
:10078000840A002000401C462DE9F04704460D462F
:1007900016469846DDF82090B14504DDA9EB060029
:1007A0003449C86003E0A6EB09003249C860A84597
:1007B00004DDA8EB05002F49086103E0A5EB080064
:1007C0002C4908612B48C06810B12A48006940B91B
:1007D0004FF4A0702749C860F02008610020BDE8F0
:1007E000F087244886614561234804600068406EB4
:1007F000B0F5801F06D12048006800F0B9FA07461E
:100800003846ECE71C480068406EB0F5001F05D084
:1008100019480068406EB0F5800F23D11648006873
:1008200002F00AFC15491448006802F00BFC144958
:100830001148006802F006FC03F090FE03F054FF3C
:10084000070001D00020CAE70E48008810B10E480A
:10085000008808B90020C2E7FFF70EFF01F0DAFCBC
:10086000074601E00020BAE70FB90120B7E70020F2
:10087000B5E70000840A0020E0000020A836002030
:10088000A8380020E4000020E600002070B50446EF
:100890004248007820B1012845D0022878D154E0A0
:1008A0003F48007A01283DD1002008F09FF900F070
:1008B000F7FF3B4880883A4908800846C08848804E
:1008C000002500BF00F0ECFF354A118890880BF03E
:1008D000B7FC032806DC324A5188D0880BF0B0FC04
:1008E000032809DD2E48407A40F001002C49487267
:1008F00001202A49087070BD681CC5B2A54209DDF7
:100900002748407A40F002002549487202202349D6
:100910000870F0E7234800680028D3D002201F4960
:100920000870E8E734E01F48006838B900F0B8FF05
:1009300064200DF083F919480078DCE7012008F005
:1009400055F900201649087222E016480068C0B91F
:1009500000F0A6FF64200DF071F9114A118890880B
:100960000BF06EFC032806DC0D4A5188D0880BF092
:1009700067FC032803DD012008490870BBE702205B
:10098000B9E7012008F032F900200549087200BFDC
:1009900000BF002001490870ADE7000038000020CA
:1009A000340400200401224210B5FF2000F02DF88D
:1009B0000446552C01D1002010BD5521FF2000F028
:1009C00066F8FF2000F021F80446552C01D10020E4
:1009D000F2E70120F0E710B503F07CFB10BD2DE934
:1009E000F04104460D460027002609E03F02611948
:1009F000891B491E88B200F008F80744701CC6B273
:100A0000AE42F3DB3846BDE8F08170B504460026FF
:100A100003F010FC00BF2546E11704EB1161091239
:100A2000A02202EB4101C8B203F0D0FB03F04EFC60
:100A3000E11704EB11610912A4EB0121C8B203F024
:100A4000C5FB03F043FC03F0F5FBA12003F0BEFB64
:100A500003F03CFC002003F081FB064603F010FC91
:100A6000304670BD2DE9F04105460C46164600277C
:100A700009E0FA0024FA02F2D1B2EA1990B200F0C9
:100A800006F8781CC7B2B742F3DBBDE8F08170B559
:100A900004460D4603F0CEFB00BF2646E11704EBEB
:100AA00011610912A02202EB4101C8B203F08EFBD2
:100AB00003F00CFCE11704EB11610912A4EB012116
:100AC000C8B203F083FB03F001FC284603F07EFB71
:100AD00003F0FCFB03F0D4FB0A200DF093F870BD8B
:100AE0005C48806940F400705A4988610846C068D3
:100AF00040F40070C8600846C06820F40070C86008
:100B00000846406820F4404048600846406840F489
:100B10000040486050480068504908405049C1F8BA
:100B200004040846D0F80404C1F804040846D0F8C8
:100B3000040420F48070C1F804040846D0F80804C6
:100B400020F00200C1F808040846D0F8080420F498
:100B50006020C1F808040846D0F8080440F460207A
:100B6000C1F808040846D0F8080440F48010C1F821
:100B700008040846D0F8080420F40060C1F808040E
:100B80000846D0F8080440F40000C1F808040846FC
:100B9000D0F82C0420F47000C1F82C040846D0F8DA
:100BA0002C040020C1F82C040846D0F810046FF380
:100BB0000B00C1F810040846D0F8100440F460603F
:100BC000C1F810040846D0F8100440F4E070C1F8F1
:100BD00010040846D0F8100440F03800C1F81004A2
:100BE0000846D0F8100440F00700C1F81004084689
:100BF000D0F80C0420F4E010C1F80C040846D0F83A
:100C00000C0440F4E010C1F80C040846D0F80804C5
:100C100040F00100C1F808040846D0F8080440F08C
:100C20000800C1F8080400BF0B48001D006810F060
:100C3000080FF9D10848001D006840F00400084979
:100C4000C1F8080400BF0448001D006810F0040F3C
:100C5000F9D170470010024004240140FFFFF0006A
:100C6000002001402DE9FE47002406E03D480068D1
:100C7000005D02A90855601CC4B2032CF6DB0024F9
:100C80000BE004EB4401384A8818032202A90DF056
:100C900049FD00B103E0601CC4B20C2CF1DB00BFC5
:100CA000601CC5B22F4800680079202805D12D4866
:100CB000006840793038C6B20BE02A4800684079B5
:100CC00028490968097930390A2202FB01003038C5
:100CD000C6B224480068C07930384FF47A7148436E
:100CE00020490968097A3039642202FB01001D4954
:100CF0000968497A30390A2202FB0100194909685A
:100D0000897A0844303887B2184800684078174913
:100D100009680978303902FB0100303800F0FF0A19
:100D200012480068007911490968C978303902FB16
:100D30000100303800F0FF090C480068C0790B4909
:100D400009688979303902FB0100303800F0FF086A
:100D50005346324629463846CDE9009808F0BEFA97
:100D6000BDE8FE8700000020720B0108040000208F
:100D70002DE9F04F87B004464FF0000B002004909F
:100D800003900120029094480460006802F054F936
:100D900092499148006802F055F9904801900198F5
:100DA000D0F80A0085B20199888BC11700EB517108
:100DB000C1F3C7070198D0F8160089494860019827
:100DC000D0F81200086008460068784310F0030F5E
:100DD00009D0084600687843012101EB90008004A7
:100DE000000C059004E07E480068784380B20590CE
:100DF000FFF742FC4FF00008794840681FFA80F97D
:100E000000267748806800FB09F042F21071B0FBC1
:100E1000F1F080B20390DAE0CDE0032F24D126B1C7
:100E2000012E0AD0022E1ED112E06C48405DC01087
:100E3000069006984AEA000A15E06848405D80106E
:100E4000069006984001069006984AEA000A0AE0D1
:100E50006248405DC01006900698C0020690069851
:100E60004AEA000A00BF47E0022F1ED116B1012E48
:100E70001AD10EE05948405D00F01F0A5748405D06
:100E80004011069006988001069006984AEA000AEA
:100E90000AE05248405D069006984006000C069015
:100EA00006984AEA000A00BF26E0042F24D136B192
:100EB000012E0BD0022E13D0032E1CD11AE047486E
:100EC000405D069006984AEAE00A14E04348405D17
:100ED000069006988010069006984AEA401A0AE0A2
:100EE0003E48405D06900698C010069006984AEA73
:100EF000C02A00E000BF00BF701CC6B2681C85B2EB
:100F0000BE422CD136480068404521D9344880681B
:100F100000FB08F042F21071B0FBF1F0C0B2049097
:100F20000122DDE9031004F0F5F888B1029878B1E8
:100F30002C48A0F800A02A4A9269039B1A44521E2A
:100F400091B2274A5269049B1A4490B204F02AFBDA
:100F500008F101001FFA80F84FF0000A00260BF19B
:100F600001001FFA80FB0598834524DBA9F10100ED
:100F70001FFA80F9B9F1000F03DC012007B0BDE8CA
:100F8000F08F1748806800FB09F042F21071B0FB47
:100F9000F1F080B203900022DDE9031004F0BAF80A
:100FA00010B10120029001E0002002904FF00008F3
:100FB000C346C2460026B5F5007FFFF62EAF0749AF
:100FC0000548006802F03EF800B901E0002523E77B
:100FD00000BF0120D2E70000E0000020A83600207A
:100FE000840A00201200002010B5044624B1012C10
:100FF00007D0022C15D10AE0102101200AF09CF83C
:1010000010E04FF4805102200AF044F80AE0102169
:1010100001200AF091F84FF4805102200AF03AF8CA
:1010200000E000BF00BF10BD0146CAB20B1243EA88
:101030000220704710B5002404E0A748005DA749CE
:101040000855641CA64800888442F6D3A34840682B
:10105000A4494860A14880688860A14800881F288A
:101060000FD00220FFF7C0FF00209C490860487B9A
:101070001A2205210AF02EF9002101200AF08CF82D
:1010800010BD9648C07B282803D09448C07B2A28EE
:1010900016D19248407C01069048807C41EA00418C
:1010A0008E48C07C41EA00208C49097D08438E4966
:1010B00008608A48C17D807D41EA00208B49086034
:1010C000864800688A4988426FD18448407B8949B4
:1010D0000968884207D88148807B012803DB7F4864
:1010E000807B10280DDD0220FFF77EFF7B49487BC7
:1010F000242205210AF0EEF8002101200AF04CF824
:10110000E8E07648C07B25285FD01BDC15286FD02F
:101110000EDC08286DD006DC00285BD0032830D018
:10112000042867D176E00A2873D01228F9D12DE07F
:101130001A380A285ED2DFE800F0392EB17D33B1CB
:10114000B1B1B1438A286FD00EDC552867D006DCD8
:10115000282844D02A284ED02F28E2D154E05A28FB
:1011600029D08828DDD176E0A8286DD004DC8F282E
:101170006FD09E28D5D173E0AA287BD0AF28D0D1DC
:1011800082E05649487B09F06DF895E05349487B69
:1011900008F044FF90E05149487B09F077F88BE074
:1011A0004E49487B09F072F886E086E04B49487B5F
:1011B00008F084FF80E04949487B08F075FF7BE038
:1011C0004649487B09F00AF876E04449487B08F034
:1011D000B9FF71E04149487B09F060F86CE03F4994
:1011E000487B42490A684049096808F071FF63E09A
:1011F0001BE024E052E03949487B3C490A683A49FF
:10120000096809F087F857E03449487B09F062F82B
:1012100052E02AE03149487B08F0E8FE4CE02F49D3
:10122000487B08F01FFF47E029E02C49487B08F085
:1012300019FF41E02949487B08F014FF3CE02749A9
:10124000487B08F00FFF37E02449487B08F00AFF8D
:1012500032E01EE00EE02149487B08F003FF2BE05E
:101260001E49487B08F0FEFE26E01C49487B08F03A
:10127000F9FE21E01949487B08F0F4FE1CE017490B
:10128000487B08F0EFFE17E01449487B08F0EAFEBF
:1012900012E01249487B08F0E5FE0DE00220FFF75E
:1012A000A3FE0E49487B202205210AF013F80021F5
:1012B000012009F071FF00BF0CE00220FFF794FE4F
:1012C0000649487B202205210AF004F8002101206C
:1012D00009F062FFD4E600000C3E00204C3E0020E6
:1012E0000E0300206C3E0020100300201403002099
:1012F000555342437403002010B500244AE047F6DA
:10130000FF70294908602948008800F00F0028492B
:10131000087008460078274901EB8000D0F8000CDF
:1013200084B214F4004F19D02148007801EB8000FA
:10133000D0F8000CC0F30E0048F68F7108401C492D
:1013400009781C4A02EB8101C1F8000C18490978A0
:10135000491E194A52F8210080471BE014F0800F03
:1013600018D013480078134901EB8000D0F8000C26
:1013700080B248F60F7108400D4909780D4A02EB1A
:101380008101C1F8000C0A490978491E0B4A52F83C
:10139000210080470448006880B20449088010F4A6
:1013A000004FACD110BD0000445C00407003002031
:1013B0003802002000500040540300203803002071
:1013C00010B500248AE147F6FF70C9490860C94892
:1013D000008800F00F00C84908700846007800280F
:1013E0007ED1C3484438006800F44050C3490880A7
:1013F000C348D0F8000C00F03000C2490880BC4956
:101400004439096889B24BF68F7201EA020000BFC5
:1014100080F40050B64944390860B949D1F8001C3D
:1014200089B248F6BF7201EA020000BF80F02000D6
:10143000AF4944390860AF48008810F0100F3DD123
:101440000846006880B248F60F710840AC49C1F800
:10145000000C03F04BF8A6494439096889B24BF6F1
:101460008F7201EA0200A549098811F4805F01D05A
:1014700080F48050A149098811F4005F01D080F404
:1014800000509B49443908609D49D1F8001C89B23D
:1014900048F6BF7201EA02009A49098811F0100F5C
:1014A00001D080F010009749098811F0200F01D079
:1014B00080F020008E494439086010BD8C484438C3
:1014C000006884B214F0800F40D089484438006826
:1014D00080B248F60F7108408949C1F8000C00E05D
:1014E000BAE003F003F882494439096889B24BF63F
:1014F0008F7201EA02008149098811F4805F01D0EE
:1015000080F480507D49098811F4005F01D080F497
:1015100000507749443908607949D1F8001C89B2F4
:1015200048F6BF7201EA02007649098811F0100FEF
:1015300001D080F010007349098811F0200F01D00C
:1015400080F020006A4944390860B6E714F4006F5F
:101550003FD0674844380068C0F30E0048F68F71EA
:1015600008406749C1F8000C09F0C8FE60494439D9
:10157000096889B24BF68F7201EA02005F49098857
:1015800011F4805F01D080F480505C49098811F427
:10159000005F01D080F40050554944390860584933
:1015A000D1F8001C89B248F6BF7201EA0200554921
:1015B000098811F0100F01D080F0100051490988FE
:1015C00011F0200F01D080F0200049494439086013
:1015D00073E714F4004F7DD0454844380068C0F3E9
:1015E0000E0048F68F7108404549C1F8000C06F01E
:1015F000A1FC3F494439096889B24BF68F7201EA70
:1016000002003E49098811F4805F01D080F48050C7
:101610003A49098811F4005F01D080F40050344940
:10162000443908603649D1F8001C89B248F6BF72C7
:1016300001EA02003349098811F0100F01D080F04F
:1016400010003049098811F0200F01D080F02000EF
:1016500027494439086030E727480078284901EBDA
:101660008000D0F8000C84B214F4004F18D0224847
:10167000007801EB8000D0F8000CC0F30E0048F6B3
:101680008F7108401C4909781D4A02EB8101C1F89D
:10169000000C19490978491E1B4A52F8210080475D
:1016A00014F0800F1AD014480078154901EB80001F
:1016B000D0F8000C80B248F60F7108400E49097846
:1016C0000F4A02EB8101C1F8000C0B490978491E51
:1016D0000E4A00E002E052F821008047044800680A
:1016E00080B20449088010F4004F7FF46CAEE4E649
:1016F000445C004070030020380200204C020020AF
:10170000005000404E020020540300203803002007
:1017100070B50024002500200F4908601AE00E482B
:10172000A038006818B1601CC4B2002508E0681C2D
:10173000C5B2032D04DD012007490860002070BDFB
:101740001E200CF05FFA642C04DB002002490860C4
:101750000120F4E7E3E70000A00121420C4901EB7E
:101760008001D1F8001C11F4804F0FD0084901EB23
:101770008001D1F8001C89B248F68F72114041F403
:101780008041034A02EB8002C2F8001C704700004F
:10179000005000400C4901EB8001D1F8001C11F011
:1017A000400F0FD0084901EB8001D1F8001C89B22D
:1017B00048F68F72114041F04001034A02EB80026B
:1017C000C2F8001C70470000005000402DE9F05F97
:1017D00004460D462E464FF0000B2348807A10F049
:1017E000010F01D1BDE8F09F002739E01F4810F834
:1017F00007901F4810F807A04FF000082AE01AF0E1
:10180000800F0FD01B4830F81B001B490880B5F52E
:10181000A07F03DA2946204603F0C4FE0BF1010045
:1018200000F0FF0B4FEA49604FEA10694FEA4A6047
:101830004FEA106A681C85B2A81B142806D13546E9
:10184000601C84B2F02C00DBCCE706E008F101005C
:1018500000F0FF08B8F1080FD1DB00BF781CC7B259
:10186000242FC3DBBEE70000FC010020D40C0108DC
:10187000F80C0108F63A002012000020074901EB9D
:101880008001D1F8001C89B248F68F621140034AEA
:1018900002EB8002C2F8001C7047000000500040BC
:1018A0002DE9F0411F49881E07F015FEB8B31D4908
:1018B000891FB1F914000EF0C7F906461949891FAE
:1018C00088880EF0DAF907461648801FC168384646
:1018D0000EF008FA054631460DF0A4FF04460EF05E
:1018E00087F91049891F8880B1F916000EF0ACF90C
:1018F00006460C49891FC8880EF0BFF907460948FB
:10190000801F016938460EF0EDF9054631460DF0AD
:1019100089FF04460EF06CF90249891FC880BDE8B2
:10192000F08100003A0400202DE9F04104460D4604
:10193000002603E0A85DA055701CC6B2082EF9DB96
:1019400005F1080001F098FC6066688BA98A00EB3D
:101950000140A065E869E065E87A84F8600000204D
:10196000A066E0663448007820B1A06D10B9334815
:101970000068A06532480068A0B10020314981F8B4
:101980004F0081F84E0008460BF03EFC002606E0B2
:101990002C48815D04F108008155701CC6B2502EA0
:1019A000F6DB47E028782E2809D12749A06D08608A
:1019B0003A2020725C2161720021A1723AE007276F
:1019C00005E0E85D202800D003E0781EC7B2002FB4
:1019D000F7DC00BF002605E0A95D04F10800815591
:1019E000701CC6B2781C8642F6DB94F86000202892
:1019F0001CD1287A202819D02E223046711CCEB254
:101A000004F108010A54002708E005F10800C15D4F
:101A1000F21904F108008154781CC7B2032FF4DBDB
:101A20000021F21904F10800815403E0002104F1BF
:101A300008008155BDE8F081C00000209C00002016
:101A40003C000020340A0020C800002070B5044685
:101A50000D46054A51881088FFF7B8FE29462046F2
:101A600009F0BCFB70BD0000FC01002010B5002493
:101A70001748006820F00F001649C1F80008084612
:101A8000D0F8000840F00800C1F8000804E0601C2D
:101A9000C4B201200CF0D2F80F48006808B1C82C7D
:101AA000F5DBC82C01DB012010BD002404E0601C24
:101AB000C4B201200CF0C2F80748006808B9F02C45
:101AC000F5DBF02C01DB0120EEE70020ECE7000065
:101AD0000008014000000140000121422DE9FF41C2
:101AE00000F0DCF800F0B4F8FFF7C0FFCC2000F005
:101AF000E1F8BE2000F0DEF800F098F8054600F0AE
:101B000095F80746072F05DDF843C7B2E843C5B28D
:101B1000002400E001243E46300206B2701906B2ED
:101B200030460EF091F880460DF054FECDE90201EA
:101B300008A00CC802980DF0DDFACDE900010DF007
:101B4000FDF906B21CB1304604B0BDE8F081704228
:101B500000B2F9E7000000000000E43F10B51048B3
:101B6000806940F004000E4988610E48006820F04A
:101B70000F000D49C1F800080846D0F8000840F0F1
:101B80000300C1F800080846D0F80C0840F0010036
:101B9000C1F80C0800F05CF8FFF768FF10BD00000A
:101BA00000100240000801400000014010B51B4831
:101BB000006820F00F001A49C1F800080846D0F864
:101BC000000840F00300154908600020154908602E
:101BD00002200CF033F801201349C1F880011048AD
:101BE000D0F8000820F00F000D49C1F800080846A1
:101BF000D0F8000840F00800084908600C200CF0FC
:101C00001DF808488038006808B1012400E000246D
:101C100032200CF013F8204610BD000000080140EF
:101C200000000140800121420000214270B50026E1
:101C3000012408E0FFF7BAFF0546E80140EA660024
:101C4000C6B2601CC4B2082CF4DD304670BD000082
:101C500010B50E48006820F00F000D49C1F80008CB
:101C60000846D0F8000840F003000849086000204A
:101C70000849086040F2EE200BF0E0FF0120064921
:101C8000C1F880010F200BF0D9FF10BD0008014002
:101C900000000140800121420000214210B5FFF701
:101CA000D7FFFFF7E3FECC2000F004F8442000F05B
:101CB00001F810BD70B504461948006820F00F0007
:101CC0001849C1F800080846D0F8000840F00300A1
:101CD000C1F80008012620E004F0010564106DB190
:101CE00000201149086002200BF0A8FF01200F49D5
:101CF000C1F880013C200BF0A1FF0CE000200A4954
:101D000008603C200BF09AFF01200849C1F88001CF
:101D100002200BF093FF701CC6B2082EDCDD70BDF4
:101D200000080140000001408001214200002142E2
:101D30002DE9F0472848006800F11004258826485E
:101D40000068067AD5B9042E18D1244800780128F5
:101D50000FD100212248006880B2801C214A42F83D
:101D6000101030202049088000BF00201B49087057
:101D700003E0072610201C49088027E0A788BD4201
:101D800001D8042000E002200646AF4200D92F46C9
:101D9000B8B2A16888478046002001F027FD81463F
:101DA000BAB2014640460BF009FCB9B2002009F076
:101DB000B5F92088C01B20806088384460803020BE
:101DC0000949088000020949088000BF02490968E2
:101DD0000E72BDE8F08700003C02002032020020B5
:101DE000505C0040006000404E0200204C02002089
:101DF0002DE9F0412848006800F110042588A0680A
:101E0000C0B1BDB1A688AE4200D92E46B0B2A1681D
:101E1000884707462088801B208060883044608087
:101E2000002001F0C1FC8046B2B20146384606F0FF
:101E3000A9F800BF208850B14FF4405017490880DE
:101E40000021084609F06AF93020154908802088E9
:101E5000A188884204DB03200F490968087218E052
:101E60002088002804DD05200B490968087210E06D
:101E7000208870B9062008490968087200210948BD
:101E8000006880B2801C084A42F8101030200449D3
:101E90000880BDE8F08100003C0200204C020020D8
:101EA0004E020020505C0040006000402DE9F05FD1
:101EB0009948006846780024A146062E1AD1964813
:101EC0000068007810F07F0F13D193490968887873
:101ED000012803D191490968CC690AE0022803D19D
:101EE0008E4909680C6A04E0032802D18B4909680D
:101EF0004C6A94E0002E64D187480068408800282E
:101F00005FD185480068C08802285AD1824800689D
:101F10000079002855D180480068007810F07F0FC4
:101F200005D17D480068808808B97D4C77E07A4803
:101F30000068007800F07F00012810D17649096818
:101F40004879764909688A6900219047002866D156
:101F500071480068807A002861D0714C5FE06E485B
:101F60000068007800F07F00022858D16A480068B5
:101F7000407900F00F0768480068407900F0700869
:101F800065480068407910F0800F07D0654800EB85
:101F90008700D0F8000C00F0300A06E0614800EB42
:101FA0008700D0F8000C00F4405A5F480078B8422F
:101FB00035D9B8F1000F32D1BAF1000F2FD0584CFB
:101FC0002DE0082E07D154480068007810F07F0FEC
:101FD00025D1564C23E00A2E21D14F4800680078C5
:101FE00000F07F0001281AD14B480068807AB0B118
:101FF00049480068408890B947480068007970B93E
:1020000045480068C088012809D1434909684879D2
:10201000424909688A690021904700B9444C54B18B
:102020003D480068A0F812903B4800688461002099
:10203000A04700250FE0384A12685078374A1268E6
:10204000116988470546032D05D1092032490968E1
:102050000872BDE8F09F30480068008AA0F57F4113
:10206000FF3904D109202C4909680872F1E7022DD3
:1020700003D029480068008A20B908202649096849
:102080000872E6E724480068007810F0800F3BD023
:1020900021480068B0F806B01F480068008A58451B
:1020A00004D91D490968A1F810B023E01A48006856
:1020B000008A19490968C98888421BDA16480068ED
:1020C000008A1649096891F82C10884203DA00202A
:1020D000184908700EE010480068008A0F49096826
:1020E00091F82C1090FBF1F201FB120010B90120C5
:1020F000104908700948006890F82C1006480068DC
:102100008182FFF715FE06E0032003490968087283
:102110000003094908809CE73C020020400200209F
:1021200049BA00080050004078030020CDB90008EB
:102130001DBA0008320200204C0200207CB54FF48A
:10214000FC60304908804FF61F0008802E488088C8
:10215000642190FBF1F090FBF1F201FB120085B2DB
:1021600000231022CDE9002302232A46C1210520A5
:1021700004F0C6F824488088642190FBF1F201FB4A
:10218000120085B200231022CDE9002302232A4643
:10219000C121152004F0B4F81CA2C121252004F0AF
:1021A00050FA002310221848CDE900238279022337
:1021B000C1212D2004F0A4F814A2C1213D2004F077
:1021C00040FA002310221048CDE90023C2790223EF
:1021D000C121452004F094F84FF478400949088063
:1021E000094BDA799979988806F068FF044601234B
:1021F0000748009350F824201023DA21152009F015
:10220000A3FA7CBD12000020180400202D0000005D
:102210001402002010B550480088504909884843EE
:1022200000B24F4908804F4800884F490988484309
:1022300000B24E4908804E4800884E4909884843FC
:1022400000B24D4908804448B0F900004549B1F951
:10225000001090FBF1F000B2484908803F48B0F907
:1022600000004149B1F9001090FBF1F000B244497F
:1022700008803948B0F900003D49B1F9001090FBE1
:10228000F1F000B23F4908803448B0F90000394904
:10229000B1F9001090FBF1F000B23B49088002F068
:1022A00019FF52E039480088401C00B237490880C5
:1022B0003748008870B10846B0F900003449B1F9D8
:1022C000001090FBF1F201FB120018B90120314916
:1022D000086002E000202F490860002002F092F818
:1022E000012002F08FF8022002F08CF8002001F0AB
:1022F0008DFA012001F08AFA022001F087FA09F034
:1023000033FD1548B0F900002349096801EBC0000E
:102310002149086021480068096888420BD80020DC
:102320001D4908600D48B0F900001D49096801EB1E
:10233000C0001B4908601848006830B91748406859
:1023400017490968884200D803E000F06DF90400DD
:10235000A8D000BF204610BDE4000020E600002009
:10236000F8000020E8000020EA000020FA00002029
:10237000EC000020EE000020FC000020F000002017
:10238000F2000020F4000020F6000020DC00002015
:10239000380100202C01002034010020840A002094
:1023A000300100202DE9FE4F9448B0F900000128CB
:1023B00017DB92480088401E00B290490880904880
:1023C0000088C0B2098840FA01F48E488B49B1F9FF
:1023D0000010405C8A49B1F9001008408849088023
:1023E00016E007F03BF8009084480088401E00B2D9
:1023F000824908808348B1F90010405C8049B1F9F6
:10240000001000EA010B0098C4117D48A0F800B04C
:1024100001273EE07948B0F90000012817DB774832
:102420000088401E00B27549088075480088C0B217
:1024300009880841029073487049B1F90010405C66
:102440006F49B1F9001008406D49088017E007F0A6
:1024500005F8009069480088401E00B2674908806E
:102460006848B1F90010405C6549B1F9001000EA14
:10247000010B0098C01102906148A0F800B00298CA
:1024800000EB4404781C07B2102F02DD0320BDE8E6
:10249000FE8F5D485D49097800EB4110791E30F8E8
:1024A0001100A042B6DC5A485849097800EB4110A7
:1024B000791E30F811000028ACD0564853490978ED
:1024C00000EB4110791E30F81100A042A2DB4E480B
:1024D0004E49097800EB4110791E30F81100201A9E
:1024E0004D494A4A127801EB42117A1E31F8121016
:1024F000084485B249484549097800EB412030F845
:10250000150000F0FF084FEA28104549088008F040
:102510000F09B9F1000F03D1002042490880B6E746
:10252000CA463648B0F90000484518DB33480088F1
:10253000A0EB090000B23149088031480088C0B2E0
:102540000988084186B22F482C49B1F90010405C37
:102550002B49B1F9001008402949088032E0284889
:10256000008886B225480088AAEB000000F0FF0A28
:102570000AE006F073FF0090009800EB062086B298
:10258000AAF1080000F0FF0ABAF1080FF1DC06F02A
:1025900065FF009019480088A0EB0A0000B21749B7
:1025A000088006FA0AF0154A128800991141084479
:1025B00086B214481149B1F90010405C00990840F6
:1025C0000F490880A9F1010046FA00F0C0B201905D
:1025D000019818B130B2134908800CE04FF6FF7132
:1025E0004E40084600FA09F085B286EA05004042EE
:1025F00000B20C490880002049E700001C010020BF
:102600001E010020A00C0108A81500200D010020CB
:10261000A80C002028150020280C0020280D0020E0
:1026200020010020220100202DE9F04171480068BE
:10263000C0B171480068801C6F4908600846006896
:1026400006F08EFA6C490968081A6B490860002088
:102650006A4908806A4908806A4908806A4908808E
:102660006A4908806A48B0F90000012879D0032837
:1026700078D1684C002523E06748017867480078E6
:1026800001F0A4FC064616B13046BDE8F08164486E
:1026900000885C490988084400B2614908800846FE
:1026A000008858490880002706E05D4830F8170088
:1026B00024F8020B781C07B2402FF6DB681C05B229
:1026C0005848B0F900005849B1F900104843A842F1
:1026D000D2DC002522E0554801785548007801F009
:1026E00075FC06460EB13046CFE74D480088444998
:1026F0000988084400B24A490880084600884049D1
:102700000880002706E0464830F8170024F8020B3E
:10271000781C07B2402FF6DB681C05B24548B0F9BB
:1027200000004549B1F900104843A842D3DC002518
:1027300024E03E4801783E48007801F047FC064618
:102740000EB13046A1E7364800882C490988084474
:1027500000B23349088008460088284908800027CD
:1027600008E015E040E02E4830F8170024F8020B8E
:10277000781C07B2402FF6DB681C05B22F48B0F971
:1027800000002F49B1F900104843A842D1DC2DE0E8
:10279000204C214801782148007801F017FC0646BA
:1027A0000EB1304671E71E48008816490988084472
:1027B00000B21B490880084600881249088000279B
:1027C00006E0174830F8170024F8020B781C07B20F
:1027D000402FF6DB002504E0002024F8020B681CE3
:1027E00005B2802DF8DB01E003204EE700BF00209A
:1027F0004BE700002C0100200001002028010020F0
:1028000026010020240100201C0100201E010020C0
:1028100004010020281600200A01002009010020E0
:1028200028200020E4000020E60000200C01002009
:102830000B010020E8000020EA000020EC0000204E
:10284000EE00002070B504460D462946204602F0F1
:10285000A9FEEF2C03DA2946601C02F0A3FEB5F5B1
:102860009F7F0BDC681C81B2204602F09BFEEF2CA0
:1028700004DA681C81B2601C02F094FE70BD2DE980
:10288000F04704460D4616460027B0460320A0EB4D
:10289000460954E0EA1B91B2A4EB080290B202F0A0
:1028A00081FEEA1B91B204EB080290B202F07AFEBC
:1028B00005EB080291B2E21B90B202F073FEEA1B34
:1028C00091B2A4EB080290B202F06CFEA5EB0802F4
:1028D00091B2E21B90B202F065FEEA1991B204EBEC
:1028E000080290B202F05EFEA5EB080291B2E21976
:1028F00090B202F057FE05EB080291B2E21990B2D5
:1029000002F050FEEA1991B2A4EB080290B202F074
:1029100049FE7F1CB9F1000F03DAB800801D814425
:1029200006E0A7EB080080000A308144A8F1010806
:1029300005EB080291B2E21990B202F033FE47456E
:10294000A8DDBDE8F0870000F8B504460D464DF659
:10295000D7604649088000270FE007EBC7002844EE
:1029600083B207EBC700284481B204F13F0082B272
:10297000204602F0B2FD781CC7B2042FEDDB002721
:1029800011E007EBC7002844401C83B207EBC700E7
:102990002844401C81B204F13F0082B2204602F07C
:1029A0009CFD781CC7B2042FEBDB00270FE0092148
:1029B00001FB07418AB2092101FB074188B205F1F9
:1029C0001C018BB2294602F088FD781CC7B2082F83
:1029D000EDDB002711E0092101FB0741491C8AB208
:1029E000092101FB0741491C88B205F11C018BB28A
:1029F000294602F072FD781CC7B2082FEBDB0026D7
:102A000031E000272BE0C6EBC600194901EB40007E
:102A100030F8173006EBC60E05F1020CF4440CF149
:102A2000060C00931FFA8CF307EBC70E04F1020C9F
:102A3000F4440CF1060C1FFA8CF206EBC60E05F1FD
:102A4000020CF4441FFA8CF107EBC70E04F1020CE0
:102A5000F4441FFA8CF002F0E7FD781CC7B2072F90
:102A6000D1DB701CC6B2032ECBDBF8BD12000020F8
:102A7000AA0C010870B504460D46A4F10C0188B2F9
:102A80002B4604F10D02294602F027FDA5F10C00AA
:102A900081B2193083B22246204602F01EFD681C26
:102AA00081B2601C02F07EFD611E88B2691C89B291
:102AB00002F078FD681E81B2601C02F073FD6A1E90
:102AC00091B2621E90B202F06DFD062229462046A8
:102AD000FFF7D5FE70BD10B504F0FAFC10BD10B5BF
:102AE00004F03EFD10BD000010B501200349086050
:102AF000FEF70EFE08B109F021FB10BD14040140E1
:102B000000B56548006810F4004F7ED04FF40040D7
:102B1000614908606148007820B900206049087068
:102B2000491E08705D480078401C5C4908700846E2
:102B30000078012818DD084600780A2814DA584879
:102B4000401E007840105649491E087055480068DC
:102B5000B8B10846007840F080000870481C007842
:102B6000401C491C08700CE04C4800780A2808D129
:102B70004C48006828B14A48007840F08000484935
:102B80000870464800780B283FD14548007800F08F
:102B90007F00424908700A46117801EBD172521049
:102BA000B1EB420204D13E4A127812F0800F0DD1EF
:102BB0003A4A107800EBD0725210A0EB4202012A80
:102BC0005AD1374A127812F0800F55D13648007822
:102BD00000F00F00314908703148401E0178334839
:102BE0002E4A127881542D4800780F2804DA2E4896
:102BF0000078401C2C4908702B48007800F0300009
:102C0000264908700846007800E043E020B110280B
:102C10000BD020282FD109E005F0C6F92248007812
:102C200040F080002049087025E024E0204800782A
:102C300070B91D48007800F00F0003281AD11A4817
:102C4000007840F080001849087005F0ADF911E0F7
:102C50001748007803280DD11348007800F00F00C2
:102C6000042807D11048007840F080000E49087011
:102C700005F09AF900BF0AE00B48007840F04000E8
:102C8000094908700846007800F0F000087000203C
:102C90000249087000BD0000140401403500002006
:102CA000370000203401214234000020220400209B
:102CB0002A0000202DE9F0410024002500262348A9
:102CC0008768C7F30317022F03D101202049087238
:102CD00037E034E01F480068002830D006F052F991
:102CE0000446FA2C00D12BE0C82C03DBFA2C01DAC5
:102CF000012517E0552C0ADBC82C08DA01201649FB
:102D0000087016480078401C1449087018E0322CEE
:102D100003DB552C01DA012604E00A2C02DB322CFD
:102D200000DA00265DB10E48006840000C490860DA
:102D30000846006830440860002008490870C9E768
:102D400000BF022007490860BDE8F0810000014093
:102D50003404002004012142290000202800002022
:102D600024000020140401401CB5002001901C48E0
:102D7000007820B11B4800681B49086002E0002071
:102D800019490860184800681849086026E04FF49F
:102D900078401749088017A003F0D2FF0123009361
:102DA000102316A20221582008F0CEFC4FF4F03078
:102DB00000F082FA0190BDF8040000B91CBD0020AB
:102DC00011490872114C01AB4FF4F032214606480C
:102DD000006800F009FE204606F0DEFBD7E70000A1
:102DE000C00000209C000020C4000020C80000207B
:102DF00012000020D1A1D4F100000000B5E7D7D324
:102E0000CDBCCAE90000000034040020B404002056
:102E100070B50D46CE1701EB9676B310CE1701EBC9
:102E20009676B610A1EB8606B606340E1D4DAD693A
:102E300045F001051B4EB5614FEAB63555F82360E4
:102E40000F25A540AE43184D45F8236055F8235093
:102E500000FA04F63543144E46F82350134D2E68FD
:102E600001258D402E43104D083DC5F8006412F039
:102E7000010F09D00D4D0C352E6801258D402E43D4
:102E8000094D083DC5F80C6412F0020F09D0074D3A
:102E900008352E6801258D402E43034D083DC5F8A9
:102EA000086470BD001002400800014000040140A9
:102EB0002DE9F041002400250026002707F076FACE
:102EC0008046B8F1FF0F02D20120BDE8F0813849F9
:102ED000002007F0F1FB08B10220F6E7344C04F5BE
:102EE000DF76B768B7EB582F01D3002716E0B0683C
:102EF0002F4907F0E1FB08B10320E6E72C4C2078CE
:102F0000E9280BD02078EB2808D0002721460020A4
:102F100007F0D2FB08B10420D7E7254C2078E92838
:102F200004D02078EB2801D00520CEE704F10B0572
:102F3000B5F80B0050B100201E490870B5F80B0021
:102F40001D49086002201D4908600AE00120194956
:102F50000870D5F8190018490860D5F821001749FC
:102F60000860288816490880A87816490880B5F8AE
:102F70000300384414490860E8881449086008468A
:102F80000068C0F316101249086068790A49096898
:102F90000D4A126800FB01200E49086008460068CF
:102FA0000B49096808440C49086000208DE70000BF
:102FB00034080020C0000020A80000209C00002051
:102FC000A4000020AC000020B0000020BC000020C5
:102FD000B8000020B4000020A000002070B5044616
:102FE0001148007808B1E60900E0260A022C01D257
:102FF0000E4870BD0E48006885190E49284607F036
:103000005BFB08B10948F4E70748007828B104F0F1
:103010007F06084850F8265003E0E6B2054830F82D
:1030200016502846E5E70000C0000020F8FFFF0F1B
:10303000B000002034080020816D81660021C16647
:103040007047000070B504460D46A06E0AF012FEEF
:103050000646E16E8819294607F02EFB08B10020CC
:1030600070BDE06E401CE0660F490988E06E884242
:1030700017D10020E066A06EFFF7B0FFA0660B48F6
:10308000007820B9A06EA0F57F41FF3907D008492C
:10309000A06E884203D0C91DA06E884201D10020D5
:1030A000DEE70120DCE70000AC000020C0000020CB
:1030B000F8FFFF0F2DE9FF4F9DB004460D461E4659
:1030C0004FF0000B002D4BD159480078002847D114
:1030D000814640E05749096801EB0900564907F06D
:1030E000EBFA48B100201790702201A92046FDF7A5
:1030F00041F921B0BDE8F08F4FF0000A24E04E48BE
:1031000000EB0A0B9BF80000E0B19BF80000E528FB
:1031100018D09BF80B000F2814D0594601A8FEF7D1
:1031200003FC1A9830420AD003A91F980BF0A9FAA1
:1031300028B1702201A92046FDF71CF9D9E700202B
:103140003E4908600AF1200ABAF5007FD7D309F199
:10315000010000F0FF093A4800688145BAD35EE0FB
:10316000A8465AE040460AF085FD07464FF00009A0
:103170003CE007EB0900304907F09EFA38B1002027
:103180001790702201A92046FDF7F4F8B1E74FF03F
:10319000000A24E0284800EB0A0B9BF80000E0B18D
:1031A0009BF80000E52818D09BF80B000F2814D0DE
:1031B000594601A8FEF7B8FB1A9830420AD003A975
:1031C0001F980BF05EFA28B1702201A92046FDF786
:1031D000D1F88EE70020194908600AF1200ABAF5F3
:1031E000007FD7D309F1010000F0FF0915480088DE
:1031F0008145BEDB4046FFF7F1FE80466FF0704030
:10320000804509D0C01F804506D00948007820B904
:10321000A8F57F40FF3800D100E0A3E700BF002001
:103220001790702201A92046FDF7A4F861E700007D
:10323000C0000020B4000020340800203C00002022
:10324000B8000020AC00002030B50446002505E0A1
:1032500004EB45100AF034FE681C05B2082DF7DBBC
:10326000002505E004EB85000AF020FD681C05B28E
:10327000082DF7DB30BD000010B50146002213E039
:10328000002309E0C85C0B4C54F82240E45CA042E7
:1032900000D003E0581CC3B2032BF3DB00BF032BA9
:1032A00000D103E0501CC2B2202AE9DB00BF01209C
:1032B000904010BD400000202DE9FE43044600BFB1
:1032C0001F20654908800020029001900026814659
:1032D000804602AB4FF4003229466048006800F097
:1032E00083FB01AB224629465C48006800F07CFB6A
:1032F000BDF80400BDF80810084487B2AAE0B8453C
:1033000029DAC6EBC600564901EB0015BDF80800E6
:1033100080450CDA08F1010080B200906B464FF452
:10332000003229464D48006800F05EFB0DE0BDF814
:103330000800A8EB0000401C80B200906B462246BB
:1033400029464648006800F04FFB701CC6B208F1E1
:1033500001001FFA80F8082E01D0B8457AD101216A
:10336000304608F023F88146B9F1070F24D008DC75
:10337000B9F1070F6CD2DFE809F06B191A1B1C1D9D
:103380001E00B9F1200F5CD009DCB9F1080F14D090
:10339000B9F1090F33D0B9F1100F59D143E0B9F1A8
:1033A000400F3FD0B9F1800F52D149E000BF00BFBC
:1033B00000BF00BF00BF00BF00BFA9F1010000F0C7
:1033C000FF09B1451ADAC9EBC900254901EB001024
:1033D000406EB0F5003F07D1C9EBC90001EB00100A
:1033E000806D1E4908606BE708EB0900BDF8081006
:1033F000401A801B401C80B2BDE8FE8328E01948BB
:10340000007828B11548006817490968884202D039
:103410001248006808B90020EEE7144800680F4918
:1034200008604DE700BFB8F1080F06DD06F108009F
:10343000A8EB00001FFA80F801E04FF0000807E059
:1034400000BFB84503D1A8EB06001FFA80F800BF03
:1034500000BF002653E7000012000020C400002037
:10346000B4040020C00000209C000020C800002000
:103470000EB50020009001221821684607F076FA68
:103480009DF80000AA2801D001200EBD08220021CD
:1034900001A807F06BFA0A49019808600822114652
:1034A00001A807F063FA0749019808600822102173
:1034B00001A807F05BFA0449019808600020E4E7DE
:1034C000D8000020D0000020D40000202DE9F047D3
:1034D00004460D4616461F46DDF820800848B0F821
:1034E0000090A0F80080E81983B2A01982B22946A2
:1034F000204601F0F2FF0248A0F80090BDE8F087F6
:10350000120000202DE9F84F04460D4616461F46CE
:10351000DDF82C804CF21863E819009383B2A019EF
:1035200082B22946204602F07FF84FF6FF730093DF
:103530000023324629462046FFF7C8FF4FF6FF73A7
:1035400000933B46002229462046FFF7BFFF4BF27F
:10355000B653701E82B200930023681C81B2601CB7
:1035600080B2FFF7B3FF4BF2B653781E009383B2DD
:103570000022681C81B2601C80B2FFF7A7FF48F2EE
:103580003143E81981B20093002332462046FFF709
:103590009DFF48F23143A11988B200933B460022B7
:1035A0002946FFF793FF4AF23553B01E82B2E8195D
:1035B000401E81B200930023601C80B2FFF786FF9B
:1035C0004AF23553791E00938BB2A119491E88B275
:1035D00000222946FFF77AFF102F01DABDE8F88FA5
:1035E0001048B0F800901048B0F800A04CF21860F5
:1035F0000C4908800C48A0F80080F3B2A7F1100B2A
:103600000BEBDB7005EB600081B200931023E0B29E
:103610000A9A08F0FBF80348A0F800900248A0F8C6
:1036200000A0DBE7140000201200002038B50024C1
:1036300093E000230093012348A24AA14C4803F0E1
:10364000A1F80446082C00D138BD002CF0D101208F
:1036500006F0B8F947480078052803DC45480078AB
:10366000032828DA032043490870002042490870E3
:103670004249088042490880012007F003FC0024E9
:1036800004E000203F490855601CC4B21A2CF8DB46
:10369000022007F0F7FB00221146104607F0DEFB80
:1036A00000221146012007F0D9FB0022114602201A
:1036B00007F0D4FB05E03048007810B9022006F08E
:1036C00081F948E02C48007848B100230093032397
:1036D00022A22DA12F4803F055F8044609E000234B
:1036E000009304231DA228A12A48001F03F04AF8D2
:1036F0000446082C00D12FE01F48007808B1601C58
:10370000C4B234B1012C07D0022C0BD0032C21D130
:103710000BE005F065F81DE001201749087005F081
:103720005FF817E004F0CCFD14E012480078C01EEA
:10373000C3B20093032309A217A11A4803F022F889
:103740000446032C05DAE01C0A49087001200A49E6
:10375000087000BF00BFB5E700BF6AE7C8B7B6A8EA
:1037600000000000D3CECFB7D1A1D4F100000000FB
:10377000B0010020A8010020A9010020AA0100201A
:10378000AC010020DC3A0020C6B4CDBCD3CECFB70C
:1037900000000000B8010020C4D1B6C8D1A1D4F106
:1037A00000000000C401002001460548006880B206
:1037B00000EBC100001D034A52F8100080B27047B0
:1037C000505C00400060004001460648006880B23E
:1037D00000EBC100801D044A52F81000C0F309003C
:1037E00070470000505C0040006000400146054802
:1037F000006880B200EBC100034A52F8100080B2AA
:1038000070470000505C0040006000402DE9F0432C
:1038100020B101280ED0022835D11DE0DFF8D0E01C
:10382000BEF90010DFF8CCE0BEF90020324FDFF81F
:10383000CCC028E0DFF8C8E0BEF90010DFF8C4E033
:10384000BEF90020304FDFF8C4E0BEF900E0DFF839
:10385000AC8008EBCE1C16E0DFF8B4E0BEF9001037
:10386000DFF8B0E0BEF900202B4FDFF8A0E0BEF992
:1038700000E0DFF8A880B8F90080C644DFF87C805B
:1038800008EBCE1C00BF00BF00232CE0002424E086
:1038900000251CE0002614E03CF8028B05EBC30E6B
:1038A000DFF84C90B9F900900EFB09FE4FEACE0EFE
:1038B0000EEBC40EB64427F81E8006F1010E0FFA77
:1038C0008EF6082EE8DB05F1010E0FFA8EF5082DB5
:1038D000E0DB04F1010E0FFA8EF48C42D8DB03F129
:1038E000010E0FFA8EF39342D0DBBDE8F0830000A7
:1038F000E4000020E6000020A8200020281B002073
:10390000E8000020EA000020A8220020F8000020A3
:10391000EC000020EE000020A8240020FA00002087
:1039200001461048006820F01F000F4AC2F8340416
:103930001046D0F834040843C2F834041046D0F8D6
:10394000080440F48000C2F8080400BF0548343879
:10395000006810F0020FF9D002481830006880B2F9
:1039600070470000342401400020014070B534202D
:10397000FDF74BF8044604F00F000A282DD104216E
:103980002820FDF72CF8044620460CF05DF905468A
:1039900013490BF0D3FF1349C86004212C20FDF715
:1039A0001EF8044620460CF04FF905460C490BF072
:1039B000C5FF0C49086102213020FDF710F80446CC
:1039C00020B20849888202213220FDF708F8044617
:1039D00020B20449C882012070BD0020FCE700002D
:1039E00020BCBE4C340400202DE9FF4F85B00446B6
:1039F00015461E46A0464FF0000B00200190009097
:103A000000BFC64908605FEA08047DD1C448007859
:103A10000028FAD18146A9E0C249096801EB0900F2
:103A2000C14906F049FE18B1002009B0BDE8F08F89
:103A30004FF0000A92E0BC48504401900198007891
:103A40002E2806D00198007818B101980078E52852
:103A500007D1019800782E287ED1019840782E2831
:103A60007AD10198C07A0F285ED1AF4850440090B7
:103A700000980078401E00F03F001A214843C0B271
:103A800003900398372867DAA848039908440290FE
:103A9000002003900CE00098401C0399405C0299C0
:103AA00008700298401C02900398401CC0B203901A
:103AB00003980A28EFDB002003900CE000980E30FA
:103AC0000399405C029908700298401C0290039888
:103AD000401CC0B2039003980C28EFDB0020039039
:103AE0000CE000981C300399405C02990870029821
:103AF000401C02900398401CC0B203900398042815
:103B0000EFDB0098007800E036E010F0400F02D0C4
:103B10000020029908600098007800F03F0001281A
:103B20001AD17E49086017E001980830FFF7A4FB1E
:103B3000284203D00BF101001FFA80FB308840B10E
:103B40003088584505D101990698FDF7EDFE012012
:103B50006BE70020714908600AF1200ABAF5007F7E
:103B6000FFF469AF09F1010000F0FF097048006837
:103B70008145FFF451AFC9E0CDF81080C4E004984E
:103B80000AF078F807464FF00009A3E007EB0900B8
:103B9000654906F091FD08B1002046E74FF0000AA4
:103BA00090E0614850440190019800782E2806D09A
:103BB0000198007818B101980078E52807D101989C
:103BC00000782E287CD1019840782E2878D1019851
:103BD000C07A0F285CD15448504400900098007877
:103BE000401E00F03F001A214843C0B203900398E2
:103BF000372865DA4D480399084402900020039065
:103C00000CE00098401C0399405C029908700298EF
:103C1000401C02900398401CC0B2039003980A28ED
:103C2000EFDB002003900CE000980E300399405C1D
:103C3000029908700298401C02900398401CC0B280
:103C4000039003980C28EFDB002003900CE0009811
:103C50001C300399405C029908700298401C029045
:103C60000398401CC0B2039003980428EFDB00982F
:103C7000007810F0400F02D00020029908600098F0
:103C8000007800F03F0001281AD12449086017E0AD
:103C900001980830FFF7F0FA284203D00BF1010039
:103CA0001FFA80FB308840B13088584505D1019912
:103CB0000698FDF739FE0120B7E600201749086095
:103CC0000AF1200ABAF5007FFFF46BAF09F1010099
:103CD00000F0FF09174800888145FFF657AF0498A8
:103CE000FFF77CF904906FF07041049888420AD085
:103CF000C91F0498884206D00948007820B9049862
:103D0000B0EB213100D100E039E700BF308818B9AD
:103D1000A6F800B0012088E6002086E63C000020DE
:103D2000C0000020B400002034080020340A002025
:103D3000B8000020AC00002010B5492201F8012B8A
:103D40004D2201F8012B472201F8012B0A2290FB9A
:103D5000F2F20A2392FBF3F403FB1422303201F84F
:103D6000012B0A2290FBF2F302FB1302303201F81E
:103D7000012B2E2201F8012B422201F8012B4D22AA
:103D800001F8012B502201F8012B00220A7010BD0E
:103D90002DE9F04704460D4616462778601C044678
:103DA00090F80080812F07DBB8F1400F04DBB8F1F9
:103DB000FF0F01D0FF2F0ED14FF0000906E00020C9
:103DC00005F8010B09F1010000F0FF09B9EB460FFE
:103DD000F5DBBDE8F087B8F17F0F04DAA8F1400009
:103DE00000F0FF0803E0A8F1410000F0FF08A7F190
:103DF0008100C7B2BE2000FB0780710000FB01FA02
:103E0000102E08D1084800680AEB0001202228463D
:103E100006F0ACFD07E0054800680AEB0001182237
:103E2000284606F0A3FDD4E7D0000020D4000020EF
:103E3000014629B90120034A126810820020704708
:103E40000148FCE73C020020740300200349088875
:103E500000040349B1F81C0870470000182800400E
:103E60000020004070B500241AE0002312E0194D34
:103E70002D7804FB053585420AD1174D2D785D4319
:103E80006D1D0D70144D2D7865436D1D157070BD41
:103E90005D1CEBB20F4D2D78AB42E8DB651CECB23C
:103EA0000C4D2D78AC42E0DB0A4D2D786D438542F8
:103EB0000ED1084D2D786D1E074E367875436D1D59
:103EC0000D70054D2D78034E367875436D1D1570B8
:103ED000DDE70000A8010020D001002010B5104B44
:103EE0001868104BD3F8EC170D4B08331A68A8B1BB
:103EF0000D4CA070030A2371030CA371030E2372EF
:103F0000A1720B0A23730B0CA3730B0E2374A27400
:103F1000130A2375130CA375130E237610BD00002E
:103F2000E8F7FF1F00F0FF1F1803002070B588B0EE
:103F30001020FFF7F5FC06460BF09FFE04460BF041
:103F400049FCCDE9060118A00CC806980BF0D2F880
:103F5000CDE904010AF054FC054628460BF03AFC72
:103F6000CDE9060112A00CC806980BF0EBF9CDE9DB
:103F7000040111A00CC804980AF0E0FDCDE902018B
:103F80000FA00CC802980AF085FCCDE900010AF0E8
:103F900037FC05460C4928460BF0A4FE054628468A
:103FA0000BF0EEFD08B070BD6666666666664A3F59
:103FB000E17A14AE47E1F63F22FDF675E09C713FD1
:103FC0000000000000003940000020412DE9F041D0
:103FD00004460D46002627480470FEF7E3F98046A4
:103FE000B8F1000F02D04046BDE8F0812248B0F998
:103FF00000203046711C0EB2204921F810201D48C7
:10400000057032E0FEF7CEF98046B8F1000F01D01E
:104010004046E9E71A48008870B91748008858B93F
:10402000374605E00020154921F81700781C07B233
:10403000402FF7DB402618E0002708E0002230463A
:10404000711C0EB20D4921F81020781C07B20C48E3
:10405000B0F900008742F1DB0748B0F90020304694
:10406000711C0EB2054921F81020402ECADB002039
:10407000BAE700000D0100202201002028200020C6
:104080002001002010B500200F4908600F4840684B
:1040900020F470400D4948600846406840F44050A4
:1040A000486000200A49C1F8AC01022009F0C6FDB1
:1040B000012005490860022009F0C0FD00200449E4
:1040C000C1F8B00110BD0000B00122420010014053
:1040D000000022420B48806940F0100009498861C5
:1040E0000948406820F47F20074948600846406836
:1040F00040F44C3048600846C06840F4C050C86086
:1041000070470000001002400010014010B5002070
:104110000F4908600F48406820F470400D4948601E
:104120000846406840F44050486001200A49C1F800
:10413000AC01022009F082FD01200549086002203F
:1041400009F07CFD00200449C1F8B00110BD000059
:10415000B0012242001001400000224270B5044626
:1041600000251748406820F470401549486008460B
:10417000406840F400404860002616E000201149E5
:104180000860022009F05AFD01200F49C1F8B00172
:104190006806050E0B488438006808B1681CC5B273
:1041A000012009F04BFD701CC6B2082EE6DB14B9E5
:1041B000FFF7ACFF01E0FFF765FF284670BD000088
:1041C00000100140B00122420000224270B50546B5
:1041D0001548406820F4704013494860084640681C
:1041E00040F440504860002010490860002417E067
:1041F000E8090E49091F08606806050E022009F04B
:104200001DFD01200A49C1F8B001022009F016FD88
:10421000002006490860022009F010FD601CC4B2AD
:10422000082CE5DB70BD000000100140B001224207
:104230000000224210B50F48406820F470400D493C
:1042400048600846406840F44050486001200A49F0
:1042500008600A49C1F8B001042009F0EFFC002011
:1042600005490860042009F0E9FC00200349C1F871
:10427000B00110BD00100140AC01224200002242FA
:1042800010B50F48406820F470400D49486008465A
:10429000406840F44050486000200A4908600A49DC
:1042A000C1F8AC01042009F0C9FC012005490860EF
:1042B0000549C1F8AC01042009F0C0FC10BD0000A4
:1042C00000100140B00122420000224210B500243B
:1042D0001348406820F4704011494860084640681F
:1042E00040F40040486001200E49086009F0A6FC37
:1042F00001200D49C1F8B00109F0A0FC07E0601CE5
:10430000C4B2FA2C03DDFFF7BBFF012010BD054846
:10431000803800680028F2D10249091D0860F5E7DD
:1043200000100140AC012242000022422DE9F04F72
:10433000C1B004460D46164626B1012E08D0022E05
:1043400012D10BE02B48D0F800A04FF0800B0BE00F
:104350002948D0F800A04FF0000B05E02748D0F81E
:1043600000A04FF0000B00BF00BF00271CE04FF083
:10437000000814E0224800EB471050F828000FFA1C
:1043800080F934F919003AF91910484301A901EBF1
:10439000471141F8280008F101000FFA80F8B8F140
:1043A000080FE7DB781C07B2082FE0DB01A80090BC
:1043B0000098FEF749FF002716E04FF000080EE0D6
:1043C00001A800EB471050F82800584400B208EB51
:1043D000C70125F8110008F101000FFA80F8B8F1C3
:1043E000080FEDDB781C07B2082FE6DB41B0BDE813
:1043F000F08F00001001002014010020180100209F
:10440000A00B01082DE9F047044624B1012C0DD082
:10441000022C39D11DE02B48B0F900502A48B0F9E0
:104420000060DFF8A8A0DFF8A8902DE02948B0F9D7
:1044300000502948B0F900602848B0F9000023492D
:1044400001EBC01A2548B0F90000214901EBC01961
:104450001AE02348B0F900502248B0F900601F4824
:10446000B0F900002049B1F900100844174901EBE8
:10447000C01A1A48B0F900001B49B1F900100844ED
:10448000134901EBC01900BF00BF002715E04FF032
:1044900000080EE007FB058209EBC21107FB05824D
:1044A0000AEBC2102246FFF741FF08F101000FFAA4
:1044B00080F8A845EEDB781C07B2B742E7DBBDE821
:1044C000F0870000E4000020E6000020281600200D
:1044D000281B0020E8000020EA000020F80000204F
:1044E000EC000020EE000020FA00002010B5184873
:1044F0000068047A022C01D0042C05D1FDF718FCC9
:1045000013480068047A1CE0062C19D11048006892
:10451000407805280ED10E480068007810F07F0F13
:1045200008D10B490968C87806F056FD09490968A1
:10453000086A80470849096888688047082400E0BD
:104540000824034909680C7204F0D4FC10BD000073
:104550003C02002048020020400200200022474B7D
:104560001A60474B1A60474B5A601A60464B1A80D4
:10457000464B1A80464B1A80464B1A80464B1A60AF
:10458000464B1A8000210DE0002007E00022444B3A
:1045900003EBC11323F81020421C10B24028F5DBB6
:1045A0004A1C11B20329EFDB00223E4B1A803E4B1E
:1045B0001A70002104E000223C4B5A544A1C11B2EC
:1045C0000329F8DB00211CE0002016E00022384B14
:1045D00003EB411323F81020364B03EB411323F870
:1045E0001020354B03EB411323F81020334B03EB22
:1045F000411323F81020421C10B21028E6DB4A1C9D
:1046000011B20429E0DB00210DE0002007E00022C8
:104610002B4B03EB412323F81020421C10B2FF2840
:10462000F5DD4A1C11B20429EFDB002108E000226D
:10463000244B23F81120244B23F811204A1C11B2DB
:10464000B1F5207FF3DB00210EE000221F4B23F8A1
:1046500011201F4B23F811201E4B23F811201E4B55
:1046600023F811204A1C11B24029EEDB00221B4B1B
:104670001A801B4B1A801B4B1A8070473401002094
:1046800030010020840A00202201002020010020A7
:104690001C0100201E0100202C01002038010020F8
:1046A000A80A0020040100200D01002006010020BE
:1046B000A80C0020280C002028150020A815002098
:1046C000280D002028160020281B0020A8200020EC
:1046D000A8220020A8240020282000202801002053
:1046E00026010020240100202DE9F04F87B0002092
:1046F0000690FE48FE4908600846006804F030FA5B
:10470000FB490968081AFA490860F5E3F8480068A7
:104710004478F7480068801CF5490860084600683E
:1047200004F01EFAF2490968081AF1490860DA2C07
:104730007ED006DCC02C7CD0C42C7BD0D92C7AD186
:10474000B5E3DB2C1BD0DD2C76D0E02CF7D1E8488C
:1047500000684078E6490968097840EA012005B216
:10476000E34800682844E24908600846006804F00D
:10477000F7F9DF490968081ADD490860BBE3DC483E
:1047800000684078DA490968097840EA012005B2F2
:10479000D7480068807800F00F0BD5480068C01C2F
:1047A0000290502D10DA00260BE002980078D149D3
:1047B00001EBCB1121F816000298401C0290701CEE
:1047C00006B2402EF1DB25E000260BE002980078CF
:1047D000C84901EBCB1121F816000298401C029049
:1047E000701C06B2402EF1DB029810F8011B01F09C
:1047F0000F0B029000260BE002980078BD4901EBF8
:10480000CB1121F816000298401C0290701C06B2D1
:10481000402EF1DBB64800682844B54908600846D8
:10482000006804F09DF9B2490968081AB04904E02B
:10483000E8E204E0D1E03CE3C1E208605BE3AC48BD
:1048400000684078AA490968097840EA012005B261
:10485000A74800680079A6490968C97840EA01209C
:10486000A5494860A24800688079A149096849794A
:1048700040EA0120A04908609D480068C0799F492E
:10488000088008460088012807D0084600880328C9
:1048900003D0032007B0BDE8F08F984800880328B4
:1048A0004ED193480068007A954908709048006896
:1048B000407A0011934908808D480068407A00F0E2
:1048C0000F00914908808A480068807A894901EB85
:1048D000C0108E49086086480068C07A88494870D0
:1048E00083480068007B001189490880804800687F
:1048F000007B00F00F00874908807D480068407BFE
:104900007C4901EBC0108449086079480068807BCD
:104910007B49887076480068C07B00117F49088019
:1049200073480068C07B00F00F007D490880704824
:104930000068007C6F4901EBC0107A4908603DE0D7
:104940006B480068007A6E49087069480068407AD0
:1049500000116C49088066480068407A00F00F003A
:104960006949088062480068807A624901EBC0109A
:10497000664908605E480068007A61494870012015
:10498000634908806349088059480068807A59491A
:1049900001EBC0106049086055480068007A58492A
:1049A000887001205D4908805D4908805048006892
:1049B000807A504901EBC0105A4908604C480068A1
:1049C00028444B4908600846006804F0C9F8484983
:1049D0000968081A464908608DE245480068407831
:1049E00043490968097840EA012005B2D02D7BDAF5
:1049F0003F4800688078001105903D480068807845
:104A000000F00F000490DDE9041001EB4009384884
:104A10000068C01C029000260BE002980078424912
:104A200001EB491121F816000298401C0290701CFD
:104A300006B2102EF1DB0027002623E03A4800EBF7
:104A4000491030F81600D8B14FF000080EE0029877
:104A500010F8011B0290354800EB492008EB0702D3
:104A600020F8121008F101000FFA80F82E4800EB30
:104A7000491030F916004045E9DC07EB080007B2A1
:104A8000701C06B2102ED9DB002601E0701C06B2A5
:104A9000254800EB491030F816000028F6D0002712
:104AA0000CE00020224901EB491121F817002149AF
:104AB00001EB491121F81700781C07B2B742F0DB6F
:104AC00000201B4901EB491121F81600164800EBA4
:104AD000491030F81600401E164901EB491121F823
:104AE0001600701C07B248E076E00000AA360020ED
:104AF00000010020A80A0020840A002004010020F0
:104B000006010020E4000020E60000201001002043
:104B1000E8000020EA00002014010020EC00002042
:104B2000EE00002018010020A80C0020280D002015
:104B3000A815002028150020F24800EB4910791E26
:104B400030F81100401C4004000CEF4901EB491102
:104B500021F81700EC4800EB491030F81700EB493A
:104B600001EB491131F817100844401EE54901EBEB
:104B7000491121F81700781C07B2102FDCDB002048
:104B8000E34901EB49110880012714E0DF4800EBFD
:104B90004910791E30F81100DD4901EB49117A1EE8
:104BA00031F81210084400B2D94901EB491121F83B
:104BB0001700781C07B2102FE8DBD648006828449D
:104BC000D44908600846006803F0CAFFD149096863
:104BD000081AD0490860F1E0CE48006890F802A0B9
:104BE000CC480068801CCB4908600846006803F088
:104BF000B7FFC8490968081AC6490860DAE04FEAF1
:104C00002A1005900AF00F000490DDE9041001EB72
:104C10004009C0480068401C029000200190002616
:104C200014E002980078B94901EB491121F8160007
:104C30000298401C0290B54800EB491030F816006D
:104C40000199084400B20190701C06B2102EE8DBF6
:104C50000198113000B201900027002624E0AB48F3
:104C600000EB491030F81600E0B14FF000080FE0FB
:104C7000029800780299491C0291A74901EB492149
:104C800008EB070221F8120008F101000FFA80F882
:104C90009E4800EB491030F916004045E8DC07EB70
:104CA000080007B2701C06B2102ED8DB002601E007
:104CB000701C06B2954800EB491030F81600002829
:104CC000F6D000270CE000208F4901EB491121F8B4
:104CD00017008C4901EB491121F81700781C07B225
:104CE000B742F0DB0020884901EB491121F816009A
:104CF000864800EB491030F81600401E814901EB50
:104D0000491121F81600701C07B220E07D4800EB25
:104D10004910791E30F81100401C4004000C7A49FB
:104D200001EB491121F81700774800EB491030F8E2
:104D30001700764901EB491131F817100844401E5D
:104D4000704901EB491121F81700781C07B2102FA8
:104D5000DCDB00206E4901EB49110880012714E0DB
:104D60006A4800EB4910791E30F81100684901EBE0
:104D700049117A1E31F81210084400B2644901EB5F
:104D8000491121F81700781C07B2102FE8DB6148A1
:104D90000168019808445F4908600846006803F00C
:104DA000DFFE5C490968081A5A490860084600682D
:104DB00090F800A0BAF1FF0F7FF421AF9BE05548B7
:104DC0000068407853490968097840EA012005B233
:104DD00050480068C0784F490968897840EA012046
:104DE00000B24E4908804B48006828444949086091
:104DF0000846006803F0B4FE46490968081A4549A8
:104E0000086078E0434800684078424909680978BA
:104E100040EA012005B23F4800688078039040498D
:104E2000B1F900100398884201D0032032E53948D7
:104E30000068C01C0290002623E0029800783949DF
:104E4000097888420CD102984078001136490870E0
:104E50000298407800F00F00801C344908700BE085
:104E6000029840780011324908700298407800F0AA
:104E70000F00801C2F4908700298801C0290701C43
:104E800006B22748B0F900008642D6DB2148006808
:104E90002844204908600846006803F061FE1D4967
:104EA0000968081A1B4908600120069023E00320C6
:104EB000F0E404F0F000D02817D0164800684078DD
:104EC00014490968097840EA012005B211480068D0
:104ED0002844104908600846006803F041FE0D4967
:104EE0000968081A0B49086004E00A480068801C39
:104EF0000849086000BF00BF069800283FF406ACD0
:104F00000020C7E428150020A8150020A80C0020C8
:104F1000280C002000010020280D0020380100206E
:104F20000401002006010020090100200A010020E0
:104F30000B0100200C01002010B503F0AFF84FF476
:104F4000487008F05FFE002060490870FF2003F001
:104F5000F5F804460CB1012010BD03F06FF80446CB
:104F6000FA2C01D00220F7E7002408E0601CC4B24C
:104F70000A2008F047FE322C01DD0320ECE75348FD
:104F8000007810F0800FF1D003F058F803F056F8D5
:104F9000F32003F0D3F803F051F8FA2801D00420ED
:104FA000DAE7C82003F0CAF803F048F8FA2801D07D
:104FB0000520D1E7F32003F0C1F803F03FF8FA2809
:104FC00001D00620C8E7642003F0B8F803F036F8F3
:104FD000FA2801D00720BFE7F32003F0AFF803F071
:104FE0002DF8FA2801D00820B6E7502003F0A6F8E3
:104FF00003F024F8FA2801D00920ADE7F22003F0ED
:105000009DF803F01BF8FA2801D00A20A4E703F06A
:1050100015F82F490870F32003F090F803F00EF80C
:10502000FA2801D00B2097E70A2003F087F803F055
:1050300005F8FA2801D00C208EE7F22003F07EF864
:1050400002F0FCFFFA2801D00D2085E702F0F6FF00
:105050001F490870E82003F071F802F0EFFFFA280A
:1050600001D00E2078E7032003F068F802F0E6FF95
:10507000FA2801D00F206FE7E62003F05FF802F076
:10508000DDFFFA2801D0102066E7F32003F056F880
:1050900002F0D4FFFA2801D011205DE7282003F0A8
:1050A0004DF802F0CBFFFA2801D0122054E7F4208B
:1050B00003F044F802F0C2FFFA2801D013204BE7B6
:1050C000202002490870002046E70000340000203C
:1050D0002A0000200C490D4A11600D4810E010F51F
:1050E000807F02DA6FF0FF0104E0FF2801DDFF217D
:1050F00000E00146054A126842F82010411C08B23F
:10510000B0F5007FEBDB7047A82E00203C010020AB
:1051100000FEFFFF03460848C069984203D10648D5
:10512000006A884206D0012A02D10348C3610162A5
:10513000012070470020FCE7840A002030B50446B7
:105140000A480088A518A8420EDC08480088A0423A
:105150000ADB06484088CD18A84205DC0348408891
:10516000884201DB012030BD0020FCE73404002030
:105170000146CA1701EB92729210B1EB820212D172
:10518000642091FBF0F200FB121050B94FF4C8708C
:1051900091FBF0F200FB121008B9012070470020CB
:1051A000FCE70120FAE70020F8E700000146084686
:1051B0004906084A926942F00102064B9A61064A82
:1051C000526822F0E062044B5A601A4652680A4361
:1051D0005A60704700100240000001401948806981
:1051E00040F00400174988611748006820F00F005C
:1051F0001649C1F800080846D0F8000840F0080039
:10520000C1F800081048001D0068114908400F4906
:10521000C1F804080C48001D00680E4908430B49FA
:10522000C1F804080846D0F80C0840F40050C1F852
:105230000C080846D0F80C0840F40040C1F80C08EF
:1052400070470000001002400008014000000140CB
:10525000FFFF0F0F0000808010B527488088264987
:10526000098888420FDD244A9188108806F0E8FFFB
:105270001E2818DD204AD188508806F0E1FF1E283C
:1052800011DA202010BD1C4A9188108806F0D8FF42
:105290001E2808DD184AD188508806F0D1FF1E2844
:1052A00001DA1020EEE71448C08813494988884283
:1052B0000FDD114AD188508806F0C2FF1E2818DD84
:1052C0000D4A9188108806F0BBFF1E2811DA802055
:1052D000D8E7094AD188508806F0B2FF1E2808DDB9
:1052E000054A9188108806F0ABFF1E2801DA40209D
:1052F000C8E70020C6E700003404002010B50220F3
:10530000FFF754FF2248007800282BD0214800687E
:1053100040B120480830006820B11E483438006889
:1053200001281FD10A2008F06DFC002018490870E0
:105330001848006820B90120FFF738FF012010BD90
:1053400014480830006820B90120FFF72FFF022021
:10535000F5E7104834380068012813D1FFF726FF1D
:105360000320ECE70B48006801280BD109480830FE
:105370000068012806D107483438006810B90120B8
:10538000034908700120FFF711FF0020D7E7000054
:10539000100000203401214230B5014601F01F0405
:1053A000C1F34513CA0AE50205EB43151544A8B23B
:1053B00030BD000070B5054600240021084600F00D
:1053C00081FF01F075F900BF0DE04FF480700849CE
:1053D0000861400048610748056080204861086115
:1053E00080000861641CB4F5963FEED370BD0000E8
:1053F000001001400C0C014000B50021072001F015
:105400005DF900BD00B540F27311072001F056F9B7
:1054100000BD2DE9FF4F85B004460D46164600201D
:1054200004900390A6EB04080898A0EB0509A34696
:105430000095B8F1000F02DD012001900AE0B8F1FB
:10544000000F02D10020019004E04FF0FF300190E6
:10545000C8F10008B9F1000F02DD4FF0010A09E0C0
:10546000B9F1000F02D14FF0000A03E04FF0FF3A0C
:10547000C9F10009C84502DDCDF8088001E0CDF88A
:105480000890002722E0009881B20BF0FF00FDF7A2
:10549000D9F9049840440490039848440390029931
:1054A0000498884205DD04990298081A049001982E
:1054B0008344DDE90210884206DDDDE90210401A6E
:1054C0000390009850440090781C87B20298401CCA
:1054D0008742D8DD09B0BDE8F08F2DE9FF4F85B0D8
:1054E00004460D461646002004900390A6EB0408DF
:1054F0000898A0EB0509A3460095B8F1000F02DD5E
:10550000012001900AE0B8F1000F02D100200190C3
:1055100004E04FF0FF300190C8F10008B9F1000F2E
:1055200002DD4FF0010A09E0B9F1000F02D14FF09E
:10553000000A03E04FF0FF3AC9F10009C84502DD57
:10554000CDF8088001E0CDF80890002722E000980F
:1055500081B21FFA8BF000F025F8049840440490C3
:1055600003984844039002990498884205DD049901
:105570000298081A049001988344DDE902108842D9
:1055800006DDDDE90210401A0390009850440090B7
:10559000781C87B20298401C8742D8DD09B0BDE86C
:1055A000F08F000070B504460D462946204600F0F5
:1055B00089FE222001F06AF84FF4807007490861E3
:1055C0004000486106480088064908608020034979
:1055D000486108618000086170BD00000010014052
:1055E000120000200C0C01402DE9F04104460D464C
:1055F00016461F462B46324629462046FFF76DFFCA
:105600003B46224629462046FFF767FF3B46324687
:1056100039462046FFF761FF3B4632462946304671
:10562000FFF75BFFBDE8F0812DE9F05F04460D4612
:1056300016461F46DDF828804FF0000B301B401C3B
:105640001FFA80FBA94620E04946204600F03AFEBA
:1056500001F02EF84FF0000A11E04FF480700D4970
:105660000861400048610C48C0F80C8C80204861FB
:105670000861800008610AF101001FFA80FADA452A
:10568000EBDB09F101001FFA80F9B945DCDDBDE86B
:10569000F09F0000001001400000014010B5FF48DD
:1056A000806940F00800FD4988610846806940F043
:1056B000100088610846806940F00100886101207F
:1056C000FFF774FDF64840686FF30B00F44948603B
:1056D0000846406840F233310843F14948600846C3
:1056E000006820F07F4008600846006840F04C5099
:1056F00008600846C06840F4F860C8604FF0333076
:10570000E8490860E849C1F8000C4FF6FF70E54928
:1057100008310860322008F075FA0121002000F0FD
:10572000CDFF322008F06EFA002000F095FDDF4931
:10573000088008460188DEA0FAF76AFDDB48008889
:10574000A0F51341253905D0D8480088A0F51341AC
:1057500028397ED11021E72000F0B0FF0121002080
:1057600000F0ACFF4FF48071012000F0A7FF4FF470
:10577000E061022000F0A2FF41F23001032000F0BE
:105780009DFF0021042000F099FF40F2072108202E
:1057900000F094FF0021092000F090FF00210A2072
:1057A00000F08CFF01210C2000F088FF00210D206B
:1057B00000F084FF00210F2000F080FF0021102066
:1057C00000F07CFF0721112000F078FF002112205B
:1057D00000F074FF0021132000F070FF322008F069
:1057E00011FA41F29051102000F068FF40F2272199
:1057F000112000F063FF322008F004FA9C211220EF
:1058000000F05CFF322008F0FDF94FF4C85113207E
:1058100000F054FF2321292000F050FF0E212B20FF
:1058200000F04CFF322008F0EDF90021202000F0BC
:1058300045FF40F23F11212000F040FF322008F0E8
:10584000E1F90721302000F039FF40F207713120E3
:1058500000E086E000F032FF0621322000F02EFF4B
:1058600040F20471352000F029FF41F60471362022
:1058700000F024FF0421372000F020FF0021382011
:1058800000F01CFF40F20671392000F017FF40F2D3
:1058900001713C2000F012FF0F213D2000F00EFFAF
:1058A000322008F0AFF90021502000F007FFEF216F
:1058B000512000F003FF0021522000F0FFFE40F2D3
:1058C0003F11532000F0FAFE4FF42741602000F012
:1058D000F5FE0121612000F0F1FE00216A2000F0B8
:1058E000EDFE0021802000F0E9FE0021812000F083
:1058F000E5FE0021822000F0E1FE0021832000F07F
:10590000DDFE0021842000F0D9FE0021852000F07A
:10591000D5FE1021902000F0D1FE0021922000F051
:10592000CDFE0321932000F0C9FE4FF4887195202D
:1059300000F0C4FE0021972000F0C0FE0021982056
:1059400000F0BCFE40F23311072000F0B7FE00214A
:10595000202000F0B3FE40F23F11212000F0AEFE07
:105960008CE252480088A0F51341203904D04F48FA
:105970000088B0F5134F7ED10021084600F09EFE4E
:105980004FF48071012000F099FE4FF4E061022095
:1059900000F094FE41F23001032000F08FFE002160
:1059A000042000F08BFE40F20221082000F086FE69
:1059B0000021092000F082FE00210A2000F07EFE76
:1059C00001210C2000F07AFE00210D2000F076FE6F
:1059D00000210F2000F072FE322008F013F940F28F
:1059E0000111072000F06AFE322008F00BF94FF495
:1059F0008651102000F062FE0721112000F05EFEAB
:105A00004FF48871122000F059FE4FF430611320DA
:105A100000F054FE0021292000F050FE44F2100155
:105A20002B2000F04BFE0021502000F047FEEF211C
:105A3000512000F043FE0021522000F03FFE40F2D2
:105A40003F11532000F03AFE4FF41C51602000F04B
:105A500035FE0121612000F031FE00216A2000F0B6
:105A60002DFE0021802000F029FE0021812000F081
:105A700025FE002100E03EE0822000F01FFE002114
:105A8000832000F01BFE0021842000F017FE00217F
:105A9000852000F013FE102190200FE0001002403E
:105AA00000100140040C01400000014016000020DD
:105AB000204C43442049443A25780A0000F0FEFD7A
:105AC0000021922000F0FAFD0121932000F0F6FD64
:105AD0004FF48871952000F0F1FD0021972000F02F
