:020000040800F2
:1000000058240020C9030008714400087344000804
:10001000774400087B4400087F440008000000008B
:1000200000000000000000000000000085440008FF
:100030008344000800000000770700088944000896
:10004000AB440008AD440008AF440008B1440008C8
:10005000B3440008B5440008B7440008B944000898
:10006000BB440008BD440008BF440008C144000868
:10007000C3440008C5440008C7440008C944000838
:10008000CB440008CD440008CF440008D144000808
:10009000D3440008D5440008D7440008D9440008D8
:1000A000DB440008DD440008E9440008EB44000894
:1000B000ED440008EF440008F1440008F344000850
:1000C000F5440008F7440008F9440008FB44000820
:1000D000FD440008FF4400080145000803450008EE
:1000E0000545000807450008094500080B450008BC
:1000F0000D4500080F45000811450008134500088C
:100100001545000817450008194500081B4500085B
:100110001D4500081F45000821450008234500082B
:100120002545000827450008294500082B450008FB
:1001300000F002F800F03CF80AA090E8000C8244BD
:100140008344AAF10107DA4501D100F031F8AFF29A
:10015000090EBAE80F0013F0010F18BFFB1A43F0A5
:1001600001031847045D0000245D0000103A24BF1D
:1001700078C878C1FAD8520724BF30C830C144BF0C
:1001800004680C607047000000230024002500264E
:10019000103A28BF78C1FBD8520728BF30C148BFEA
:1001A0000B6070471FB5AFF300801FBD10B510BDC9
:1001B00005F065FD1146FFF7F5FF00F094F805F036
:1001C00083FDFFF7F3FF05F089FD000010B50AE09D
:1001D0004FF48071534804F0CEF8002303221946EF
:1001E000184603F0FEF8F3E710B50AE04FF480710B
:1001F0004C4804F0C2F8002301221946184603F0C7
:10020000F0F8F3E710B500F05FFA01F09EF8022372
:10021000454A0021454802F090FD0423444A00214C
:10022000444802F08AFD4FF480713E4804F0A3F880
:100230004FF40071404804F09EF84FF480713E483E
:1002400004F099F880213C4804F095F840213A48A0
:1002500004F091F84FF40041384804F08CF84FF462
:100260008041364804F087F84FF480712D4804F03F
:1002700082F84FF40051314804F07DF84FF480517A
:100280002E4804F078F84FF400612C4804F073F81D
:100290004FF48061294804F06EF84FF4007127484C
:1002A00004F069F84FF48071244804F064F84FF4C6
:1002B0000041234804F05FF84FF48041204804F0E7
:1002C0005AF84FF400511E4804F055F84FF480518D
:1002D0001B4804F050F805E00A2003F053F8FF2013
:1002E00002F0CCFFF8E710B500F02FFF0123154A0C
:1002F0000021154802F021FD01F00FF8002010BD8B
:1003000000E0401E0028FCD1704707E0002100E01B
:10031000491C4CF250329142FAD3401E0028F5D1CC
:10032000704700000008014088030020E901000830
:1003300018050020CD010008001001400014014004
:10034000000C0140F80100200502000830BF704792
:1003500020BF704740BF7047BFF36F8F7047BFF338
:100360004F8F7047BFF35F8F704701DF7047EFF328
:100370001480704780F31488BFF36F8F7047EFF3DA
:100380000980704780F309887047EFF30880704751
:1003900080F30888704762B6704772B67047EFF313
:1003A0001080704771B6704761B67047EFF31380E5
:1003B000704780F311887047EFF31280704740BA9E
:1003C000704700BA704700000348004703480449DB
:1003D000044A054B7047000031010008581C0020FA
:1003E0005824002058200020582000200EB501215C
:1003F000C80204F001FCC64804F0C4FC4720ADF874
:1004000000000020ADF8020043F69820ADF804008B
:100410000020ADF806008DF808006946BC4804F0DD
:100420001CFD0121BA4805F015FA01221146B84811
:1004300004F08BFF0121B64804F06CFF0EBD1FB520
:100440000121C80404F0E5FB4FF4E13000900020E6
:10045000ADF80400ADF80600ADF80800ADF80C00EA
:100460000C20ADF80A006946AA4805F054FA40F29B
:100470002551A84805F086FB012240F22551A548E8
:1004800005F0C2FA0121A34805F0B2FA1FBD00B57C
:1004900087B00121880304F0AFFB0020ADF8040011
:1004A000ADF806004FF40070ADF808000020ADF87C
:1004B0000A0001A9984805F085FA4FF4E13003904D
:1004C0000020ADF81000ADF81200ADF81400ADF842
:1004D00018000C20ADF8160003A98F4805F01BFA90
:1004E00040F225518C4805F04DFB012240F2255188
:1004F000894805F089FA0121874805F079FA07B0A3
:1005000000BD10B586B001A804F008FB6421029874
:10051000B0FBF1F4204604F0E7FB042004F0D0FB2C
:10052000012004F0E5FB012004F0FDFB06B010BD46
:1005300008B54FF4E06004F046F827208DF800007D
:1005400000208DF8010001208DF802008DF80300D5
:10055000684604F03EF819208DF8000000208DF860
:10056000010002208DF8020001208DF8030068468A
:1005700004F02FF826208DF8000000208DF80100EF
:1005800003208DF8020001208DF80300684604F076
:1005900020F81C208DF8000000208DF801000420B8
:1005A0008DF8020001208DF80300684604F011F870
:1005B00000208DF800008DF8010005208DF8020064
:1005C00001208DF80300684604F003F808BD08B563
:1005D00001217C2004F010FB0121504803F0EEFEC5
:1005E0000121042004F008FB4FF48070ADF80000F6
:1005F00010208DF8030003208DF80200694648485A
:1006000003F012FE4FF47070ADF8000010208DF86A
:10061000030003208DF802006946424803F004FEFF
:100620004FF47F40ADF8000010208DF80300032048
:100630008DF8020069463C4803F0F6FD4FF4704027
:10064000ADF8000010208DF8030003208DF80200A3
:100650006946364803F0E8FD08BD10B504F060F9BE
:100660004FF4803004F07BF904F0B8F93049087099
:1006700008460078012826D1102003F0EBFA02206A
:1006800003F0D2FA002004F0EFF9002004F0FCF9A6
:100690004FF4806004F0F0F94FF4E0114FF4803033
:1006A00004F0C7F9012004F0CFF900BF392004F0AD
:1006B00079F90028FAD0022004F0C9F900BF04F04B
:1006C000CEF90828FBD110BD10B5FFF7C6FFFFF724
:1006D0007EFFFFF72DFFFFF714FFFFF7D8FEFFF7B0
:1006E000AEFEFFF783FE10BD10B50121C80204F075
:1006F00090FA4FF4C07005F088FA412005F08FFAA7
:10070000502005F0A2FA05F0ABFA05F094FA10BDFE
:10071000002C0140004C0040003801400004300033
:10072000000801400010014000140140000C01408D
:1007300000000020EFF3108072B6704780F310883D
:1007400070471D484FF0FF010170002080F30988B9
:100750001A48012101701A484FF08051016062B6B9
:10076000FEE717484FF080510160704714484FF082
:1007700080510160704772B6EFF3098028B12038CC
:1007800080E8F00F0F490968086000B50E488047FF
:100790005DF804EB0D480E490A78027009480D49CE
:1007A0000A680260106890E8F00F203080F3098832
:1007B0004EF0040E62B6704722ED00E02A000020E1
:1007C00004ED00E030000020850800081F00002034
:1007D00020000020380000200020334908807047A6
:1007E0007047704770477047704770B504461046B1
:1007F0004FF080750560051F28462C606FF00105DD
:10080000061F304635604FF01235061F3046356002
:100810004FF00335061F304635604FF00235061F96
:10082000304635606D10061F30463560051F28467E
:1008300029604FF01135061F304635604FF01035F6
:10084000061F304635604FF00935061F30463560CB
:100850004FF00835061F304635604FF00735061F4C
:10086000304635604FF00635061F304635604FF094
:100870000535061F304635604FF00435061F3046FB
:10088000356070BD7047704710B507480088401C40
:1008900005490880084600880A2803DB00200880F4
:1008A00003F0E9F810BD00000200002017481848C6
:1008B0001848194819481A481A481B481B481C4828
:1008C0001C481D481D481E481E481F481F482048F8
:1008D00020482148214822482248234823482448C8
:1008E0002448254825482648264827482748284898
:1008F0002848294829482A482A482B482B482C4868
:100900002C482D482D4800BF70470000F45C0008BB
:10091000F85C0008FC5C0008FE5C0008005D000854
:10092000025D0008045D0008065D0008085D00081F
:100930000A5D00080C5D00080E5D0008105D0008EF
:10094000125D0008145D0008165D0008185D0008BF
:100950001A5D00081C5D00081E5D0008205D00088F
:10096000225D0008245D0008265D0008285D00085F
:100970002A5D00082C5D00082E5D0008305D00082F
:10098000325D0008345D0008365D0008385D0008FF
:100990003A5D00083C5D00083E5D0008405D0008CF
:1009A000425D0008445D0008465D0008485D00089F
:1009B0004A5D00084C5D00084E5D0008505D00086F
:1009C0000246002005E011F8013B02F8013B431C00
:1009D000D8B20B78002BF6D1137070472DE9F04197
:1009E00004460D4616460027FF480078002804DD1F
:1009F000112030700020BDE8F0812078012808D057
:100A0000022807D0032802D0042804D100E000BF48
:100A100000BF00BF03E0012030700020EBE700BF03
:100A2000FFF788FE074604F113012846FFF7C8FFC9
:100A300080463846FFF782FE002030704046DAE7F5
:100A40000146002002E0491C421CD0B20A78002A6C
:100A5000F9D170472DE9F04104460D4617464FF095
:100A60000008E1480078002803DD12203870BDE856
:100A7000F0812078012808D0022807D0032802D06E
:100A8000042804D100E000BF00BF00BF02E0012045
:100A90003870ECE700BFFFF74DFE80462846FFF7B1
:100AA000CFFF06460F2E05DD4046FFF747FE0B2021
:100AB0003870DCE7294604F11300FFF781FF404658
:100AC000FFF73CFE00203870D1E7F0B510F8344F46
:100AD0008578467834380A46114613680EE003F1EB
:100AE0000B0717F804C02CEA060C07F804C03F5D9A
:100AF00017B99F7AAF439F72121D1368002BEED176
:100B0000F0BDBA49BA4A1278885CBA49095CB74A5A
:100B1000515C01EBC001B84A1170704710B5002458
:100B2000FFF708FE0446B0480078F0B9B3480078F3
:100B3000D8B9FFF7E6FFB0480078B1490978884294
:100B400013D0B048AC49097850F82100AE4908608C
:100B500008460068806B401C09688863AB480068E1
:100B6000401CAA490860FFF7FCFD2046FFF7E6FDA0
:100B700010BD70B50024A64D2D68EC61A44C24680E
:100B80002062014608460B681BE0A14C246894F8DB
:100B9000345003F10B04645D9D4D2D6895F835507C
:100BA0002C439B4D2D6895F8346003F10B05AC5533
:100BB0009C7A974D2D6895F836502C439C72091DF0
:100BC0000B68002BE1D1924C246894F83420894CB6
:100BD000A45C8F4D2D6895F83550AC43854DAC54D1
:100BE0002C46A45C44B98A4C246894F83650804C56
:100BF0002478AC437E4D2C7070BD2DE9FF5F044618
:100C00000D4616461F46DDF838800020009028600B
:100C1000A1464C46D9F800A019E09AF80000062831
:100C200007D2DFE800F00604050307080AE009E040
:100C300008E000BF00BF012088F80000002004B0D9
:100C4000BDE8F09F00BF09F10409D9F800A0BAF18E
:100C5000000FE2D164480078002804DD022088F803
:100C600000000020EBE765480078002804DD0D2037
:100C700088F800000020E2E7FFF75CFD009000200C
:100C8000039002900190A1464C46D9F800A073E071
:100C90009AF8000006285ED2DFE800F05D1C3303FE
:100CA0005E5FBAF8080000280FDDBAF80800401EA1
:100CB000AAF8080045F804AB01200390002001C603
:100CC0000298401C80B2029003E0019840F00100BD
:100CD00001904CE0DAF8040070B1DAF8040001C6C3
:100CE0000020CAF8040045F804AB012003900298E4
:100CF000401C80B2029003E0019840F00200019095
:100D000035E0DAF804B0BBF8160000281EDDDBF889
:100D10001010081DCBF81000086801C6DBF8081099
:100D2000DBF81000884203D1DBF80400CBF8100098
:100D3000BBF81600401EABF8160045F804AB0120C6
:100D400003900298401C80B2029003E0019840F0AA
:100D5000040001900BE000BF00BF0098FFF7EEFC1D
:100D600000202860012088F80000029867E700BF93
:100D700009F10409D9F800A0BAF1000F88D103984D
:100D8000012809D1002028600098FFF7D7FC002037
:100D900088F80000029852E71D48006890F830007B
:100DA000019941F0800108431949096881F8300030
:100DB00000201749096881F8310015480068C78587
:100DC0002046FFF7D6FE0098FFF7B8FCFFF7A6FE17
:100DD000FFF7B0FC00900E48006890F83100D8B1E1
:100DE000012836D0022815E01D000020525D0008C1
:100DF0002100002022000020200000201E000020F2
:100E00001F000020780C0020380000200400002083
:100E1000300000201CD100E000BFFD480068D0F881
:100E20001CA0BAF1000F08D045F804AB00202860E0
:100E30000298401C80B2029009E00120F449096840
:100E400081F831002146F2480068FFF73EFE06E0D7
:100E500000BF2146EE480068FFF737FE00BF00BF25
:100E6000EB48006890F8310020B101282CD002280E
:100E700029D122E09AF8000006280DD2DFE800F020
:100E80000C0607030D0E002001C611E000BFE0486C
:100E90000068406A01C60BE000BF00BF0098FFF782
:100EA0004DFC00202860012088F800000298C6E66A
:100EB00000BF002088F800000CE0002001C60E20D2
:100EC00088F8000006E000BF002001C60A2088F86C
:100ED000000000BF00BF0020CD49096881F8300044
:100EE000CB49096881F83100C9490968C861C84916
:100EF00009680862C649096848620098FFF71EFC45
:100F000002989CE67CB5002614E06946304602F063
:100F100072F9054665B9BF4850F8264044B1012C26
:100F200006D0D4E9020100EB810060640198A0645E
:100F3000701CC6B23F2EE8DD7CBD10B5002402E077
:100F4000142002F01FFAB44800780028F8D0B34803
:100F500000686421B0FBF1F0B04908600846006801
:100F600028B90020AE490870FF2002F087F900BFC1
:100F7000FFF7E0FB0446AB480068AB49086000207F
:100F8000A84908602046FFF7D9FBA7480068A34995
:100F90000968B0FBF1F0C0F16400A1490870FFF7E7
:100FA00023FCFFF7AFFF0A2002F0ECF9E0E700B501
:100FB00087B00323002280219C48CDE90323CDE99B
:100FC00001014FF6FE7300933E2300F5FE720021EF
:100FD000AFF2990001F008FF06AA95A13E2002F0A9
:100FE00079F807B000BD10B5002400BFFFF7A2FBE1
:100FF00004468C480068401C8A4908602046FFF778
:101000009DFBFFF7F0FBF1E700B587B0032300225B
:1010100080218B48CDE90323CDE901014FF6FF7311
:1010200000933F2300F5FE720021AFF2450001F06E
:10103000DBFE06AA83A13F2002F04CF807B000BDFA
:1010400004E0002200F8012B4A1E91B20029F8DCCE
:10105000704730B54FF434717E48FFF7F1FF7D4C97
:1010600004F1240500230AE00020207065603F2081
:10107000E0740021217524342435581C83B2132BCD
:10108000F2DB0020207060603F20E07400212175B9
:1010900070487149086030BD30B54FF4FD616F484C
:1010A000FFF7CEFF4FF480715A48FFF7C9FF6B4C32
:1010B00004F15C0500230AE065613F2084F84C00E0
:1010C00000214D2001555C345C35581CC3B2152BF2
:1010D000F2D3002060613F2084F84C0000214D20B5
:1010E000015500205E4908605C485E49086030BDDB
:1010F00000225D4B1A705D48002104E0002200F8D8
:10110000012B4A1CD1B20829F8DB0022584B1A7077
:10111000584B1A70584B1A603D4B1A6070470020AC
:101120005649086056490870564908705649087073
:1011300056490870564908603A4908603A490860BB
:101140003649086034490870704710B5FFF744FB12
:10115000FFF7E5FFFFF7CCFFFFF79EFFFFF779FFF3
:1011600000F005FF01F007F801F018FBFFF74CFF56
:10117000FFF71DFF02F0DCFCFFF732FBFFF796FBE9
:1011800010BD42480078012808D13D480078FF286A
:1011900004D23B480078401C39490870704710B5AC
:1011A00000243A480078012830D1FFF7C3FA0446FA
:1011B00033480078002804DD31480078401E30496B
:1011C00008702F480078F0B92E480078D8B9FFF79A
:1011D00098FC2848007826490978884213D00D48A1
:1011E0002449097850F8210023490860084600681E
:1011F000806B401C0968886325480068401C2449AE
:101200000860FFF7B3FA2046FFF798FA10BD000018
:1012100030000020780C00201C000020140000206A
:10122000100000202C00002018000020780800206A
:1012300075432F4F532D49492053746174000000AA
:10124000780A002075432F4F532D49492049646C7B
:10125000650000001C05002008000020780D00201B
:101260003C0000203400002021000020220000204B
:101270001F00002020000020380000204C0000202B
:101280001D0000201E0000202B0000202A0000204E
:101290000400002010B50024FF480078012811D177
:1012A000FFF748FA0446FD48007840B9FC4800784A
:1012B000FF2804D2FA480078401CF94908702046FB
:1012C000FFF73CFA10BD10B50024F3480078012860
:1012D00022D1FFF72FFA0446F1480078002818DDE4
:1012E000EF480078401EEE4908700846007860B963
:1012F000EA48007828B92046FFF720FAFFF70EFCED
:101300000AE02046FFF71AFA06E02046FFF716FA31
:1013100002E02046FFF712FA10BD10B5DE48007853
:1013200090B9FFF7EEFBDF480078DF490870DF482F
:10133000DC49097850F82100DD490860084600685A
:10134000DC490860FFF7FDF910BD10B5002402204C
:1013500002F018F8FFF7EEF904460020D6490860BD
:101360002046FFF7EBF90A2002F00CF8FFF7E2F94C
:101370000446D1480068D14908600120D04908706E
:101380002046FFF7DBF910BD70B50026FFF77CFAA9
:10139000FFF7D0F90646CB480068401CC9490860F1
:1013A0003046FFF7CBF9BC480078012854D1C64835
:1013B000007820B1012804D0022809D103E00125DA
:1013C0000BE0002509E001250120BF49087004E079
:1013D00001250020BC49087000BF00BF05B970BDE1
:1013E000BA48046834E0FFF7A5F90646E08D58B323
:1013F000E08D401E0004000CE08525D194F83000FB
:1014000010F0370F08D014F8300F20F0370020709C
:1014100001206070303C02E0002084F8310094F834
:10142000300010F0080F0FD13434A078A8490978A3
:101430000843A74908702078A649085C61780843EA
:1014400014F83419A34A505464693046FFF776F90A
:1014500094F832003F28C6D1C1E74FF48F7070472F
:10146000704710B590F8342001F10B039B5C90F8A5
:101470003540A34301F10B04A35423469B5C23B9DD
:101480008B7A90F83640A3438B7210BD2DE9F04F54
:1014900004460D4616461F46A07A8F4911F8009063
:1014A00004F10B0010F8090011F800A00AEBC900C4
:1014B00000F0FF0B7D4850F82B800020A8F82E008C
:1014C000C8F8245098F83000B04388F8300088F805
:1014D000317098F8300010F0080F0FD198F83600EE
:1014E0007B49097808437A4908707A4810F809005E
:1014F00098F835100843774901F80900214640461D
:10150000FFF7AFFFD8F8200030B14046D8F82010E0
:10151000FFF7DBFAC8F81C405846BDE8F08F10B55D
:10152000644A1268D061634A126892F8343000F15C
:101530000B02D25C5F4B1B6893F835301A435D4B4E
:101540001B6893F8344000F10B031A55827A594B0B
:101550001B6893F836301A438272564A126892F822
:1015600034105C4A525C534B1B6893F835309A43F5
:10157000584B5A541A46525C42B94E4A126892F875
:101580003630534A12789A43514B1A7010BD0023DB
:10159000837200F10B01002204E0002301F8013BFB
:1015A000531CDAB2082AF8DB704705E011F8013B5A
:1015B00000F8013B531E9AB2002AF7DC70472DE970
:1015C000F84F04460D4616461F46DDE90B9ADDF836
:1015D000288000200090FFF7ADF800903F48D0F839
:1015E00000B0BBF1000F7BD03C49DBF81400086071
:1015F0000098FFF7A3F8CBF800508BF8324000209A
:101600008BF830008BF83100ABF82E00CBF804904B
:10161000CBF80C80CBF80860ABF810A0ABF81270D8
:101620008BF83700E0108BF8340004F007008BF8DB
:1016300033009BF83410012088408BF836009BF86B
:101640003310012088408BF835000020CBF81C00B7
:10165000CBF82000CBF82800CBF82400CBF83800DA
:10166000CBF84000CBF83C00CBF84400CBF8480066
:101670003F208BF84C0000214D2000F80B105846FD
:10168000FFF701F95846FFF7ACF8FFF753F8009061
:10169000064840F824B024E02A0000201D00002065
:1016A0001E000020200000201F000020780C0020D9
:1016B00038000020300000202C0000201400002002
:1016C0001C0000204C000020400000203C000020B6
:1016D0002100002022000020525D0008340000207C
:1016E0002DE019480068CBF814000020CBF8180052
:1016F0001548006818B114480068C0F818B01248BE
:10170000C0F800B09BF836001049097808430F492B
:1017100008709BF834000E49085C9BF835100843AC
:101720009BF834100A4A50540A480078401C094972
:1017300008700098FFF702F80020BDE8F88F0098C5
:10174000FEF7FCFF4220F8E73C00002021000020CB
:10175000220000202B0000202DE9F05F04460D46FA
:1017600016461F464FF0000B2078052804D00120B4
:1017700038700020BDE8F09F06F08009B9F1000F35
:1017800004D026F080064FF0010A01E04FF0000A75
:1017900000203870FEF7CEFF83466EB3012E3ED098
:1017A000022E02D0032E4ED112E0208900EA050855
:1017B000A84507D1BAF1010F06D1208920EA080017
:1017C000208101E0702038705846FEF7B7FF42E0F4
:1017D000208900EA0508B8F1000F07D0BAF1010F1F
:1017E00006D1208920EA0800208101E070203870AD
:1017F0005846FEF7A3FF2EE0208925EA0008A845F9
:1018000007D1BAF1010F06D1208940EA08002081F2
:1018100001E0702038705846FEF790FF1BE02089E9
:1018200025EA0008B8F1000F07D0BAF1010F06D180
:10183000208940EA0800208101E070203870584675
:10184000FEF77CFF07E05846FEF778FF4FF00008F0
:101850006F20387000BF00BF40468BE72DE9F04194
:1018600004460D460027F8480078002804DD1020C3
:1018700028700020BDE8F081FEF75CFF0746F348C2
:10188000066896B100684068F0490860052030702D
:101890003481002070603F20B0720021F172384620
:1018A000FEF74CFF0020287004E03846FEF746FFA4
:1018B000722028703046DDE730B5436804682BB9E4
:1018C000C26854602CB10025656002E01C6004B160
:1018D0006360816800258D6230BDF0B504460D4619
:1018E000A66800202C3670803580307920F02000EA
:1018F00030710020707130792C3E88B93436B07860
:10190000D34909780843D24908703078D149085C36
:101910007178084316F83419CE4A5054012700E074
:1019200000272046FFF7C8FF3846F0BD2DE9F047F5
:1019300004460D4616464FF0000AC34800780028BA
:1019400004DD0F2030702046BDE8F08720780528A0
:1019500003D0012030702046F6E7FEF7EBFE82460A
:10196000606808B1012700E0002715B1012D40D1C2
:101970001BE09FB93F20A0720021E172002020707F
:10198000B2480068606000202081B0480460504682
:10199000FEF7D4FE00203070804605E05046FEF78A
:1019A000CDFE49203070A0462AE0D4F8049005E02E
:1019B00000214846FFF791FFD9F80090B9F1000FD8
:1019C000F6D13F20A0720021E172002020709F48D4
:1019D00000686060002020819C4804605046FEF74B
:1019E000ADFE012F01D1FFF799F80020307080463D
:1019F00006E05046FEF7A2FE07203070A04600BF6A
:101A000000BF4046A0E72DE9F04104460D461646CA
:101A100000278D480078002804DD11203070002058
:101A2000BDE8F081FEF786FE07462078052806D03F
:101A30003846FEF783FE012030700020F0E704F105
:101A40000A012846FEF7BCFF80463846FEF776FEC0
:101A5000002030704046E3E72DE9F04104460D4692
:101A600016464FF0000878480078002803DD122061
:101A70003070BDE8F081FEF75DFE804620780528D5
:101A800005D04046FEF75AFE01203070F1E72846A7
:101A9000FEF7D6FF07460F2F05DD4046FEF74EFE48
:101AA00073203070E5E7294604F10A00FEF788FF4D
:101AB0004046FEF743FE00203070DAE7F0B5059DA2
:101AC000654F3F6897F8307047F02007DFF888C10E
:101AD000DCF800C08CF830700027DFF87CC1DCF83F
:101AE00000C08CF831705C4F3F68FD855A4F3F68ED
:101AF000B9620A828B74584F3F688F6047680F60E5
:101B000000274F60C860466806B171604160524F5F
:101B10003F6897F834404F4F3F5DDFF83CC1DCF839
:101B200000C09CF835C027EA0C07DFF828C10CF884
:101B3000047067463F5D5FB9474F3F6897F836C00E
:101B4000434F3F7827EA0C07DFF804C18CF8007098
:101B5000F0BD2DE9F04F89B004460D4616461F46EC
:101B6000DDF848800020029037480078002806DD24
:101B7000022088F80000002009B0BDE8F08F374847
:101B80000078002804DD0D2088F800000020F3E72D
:101B90002078052804D0012088F800000020EBE719
:101BA00006F080000390039820B126F080064FF0E5
:101BB000010B01E04FF0000BFEF7BCFD0290002E80
:101BC00059D0012E7CD0022E02D0032E6CD122E0FF
:101BD000208900EA0509A94512D1BBF1010F03D103
:101BE000208920EA090020811B480068A0F82C9079
:101BF0000298FEF7A3FD002088F800004846BBE7E6
:101C000033462A4604A920460097FFF757FF02985B
:101C1000FEF794FD82E0208900EA0509B9F1000F82
:101C20001ED0BBF1010F03D1208920EA09002081D9
:101C300009480068A0F82C900298FEF77FFD00206C
:101C400088F80000484697E71D0000200C0000209F
:101C50002100002022000020300000201E00002073
:101C600033462A4604A920460097FFF727FF02982B
:101C7000FEF764FD52E0208925EA0009A94514D148
:101C8000BBF1010F03D1208940EA09002081C94836
:101C90000068A0F82C900298FEF750FD002088F80C
:101CA0000000484668E70BE02EE033462A4604A9C8
:101CB00020460097FFF702FF0298FEF73FFD2DE058
:101CC000208925EA0009B9F1000F12D0BBF1010FFC
:101CD00003D1208940EA09002081B6480068A0F8B5
:101CE0002C900298FEF72AFD002088F80000484654
:101CF00042E733462A4604A920460097FFF7DEFE56
:101D00000298FEF71BFD09E00298FEF717FD4FF061
:101D100000096F2088F8000048462DE700BFFEF755
:101D2000FDFEFEF707FD0290A248006890F8310022
:101D300038B3A048006890F831A000209D49096898
:101D400081F8310004A8FFF7B7FD00209949096820
:101D500081F830000298FEF7F1FC4FF00009BAF16B
:101D6000010F07D0BAF1020F03D10E2088F800004E
:101D700004E000BF0A2088F8000000BF00BF48460A
:101D8000FAE68C480068B0F82C90BBF1010F1CD12A
:101D900066B1012E0BD0022E02D0032E0CD100E032
:101DA00000BF208920EA090020810DE000BF2089C2
:101DB00040EA0900208107E00298FEF7BFFC6F208F
:101DC00088F800000020D7E600BF0298FEF7B6FCB6
:101DD000002088F800004846CEE670B50025FEF7E2
:101DE000A9FC054673480068848D2846FEF7A6FCCA
:101DF000204670BD2DE9FC5F04460D4616461F4681
:101E0000002000902078052804D0012038700020A0
:101E1000BDE8FC9FFEF78EFC009016B1012E08D1A4
:101E200003E02089A84320810AE0208928432081FB
:101E300006E00098FEF782FC712038700020E7E78A
:101E400000BF4FF00009D4F8048061E098F8120058
:101E500068B301283FD0022802D003284ED113E0F6
:101E60002089B8F8101000EA010AB8F810005045AF
:101E700009D151464046FFF730FD8346BBF1010FC3
:101E800001D14FF0010940E02089B8F8101000EAB4
:101E9000010ABAF1000F09D051464046FFF71DFD77
:101EA0008346BBF1010F01D14FF001092DE0B8F8D5
:101EB0001000218920EA010AB8F81000504509D124
:101EC00051464046FFF709FD8346BBF1010F01D1A2
:101ED0004FF0010919E0B8F81000218920EA010A41
:101EE000BAF1000F09D051464046FFF7F6FC834691
:101EF000BBF1010F01D14FF0010906E00098FEF798
:101F00001DFC6F203870002082E700BFD8F80080E9
:101F1000B8F1000F9AD10098FEF710FCB9F1010F4B
:101F200001D1FEF7FBFDFEF705FC00902089019032
:101F30000098FEF703FC00203870019868E72DE94F
:101F4000F04104460D4600272078052804D00120E2
:101F500028700020BDE8F081FEF7ECFB07462689DB
:101F60003846FEF7EBFB002028703046F2E770B5EC
:101F70008C211148FFF764F80F4D05F11C06002471
:101F80000AE0002028706E603F20A8720021E972EC
:101F90001C351C36601C84B2042CF2DB0020287037
:101FA00068603F20A8720021E97203480349086075
:101FB00070BD000030000020EC0700200C00002065
:101FC0002DE9F84F04460D4616461F4600200090A6
:101FD000FEF7B0FB00907948D0F80080006820B18F
:101FE000764800684068754908600098FEF7A6FBCF
:101FF000B8F1000F04D15A2038700020BDE8F88FE6
:10200000A24604EB06094FF0000B05E0CAF8009069
:10201000CA46B1440BF1010B681E5845F6D80020A2
:10202000CAF80000C8F80040C8F80440C8F81050CA
:10203000C8F80C50C8F8086038704046DEE72DE953
:10204000F04104460D460027FEF774FB0746206961
:1020500068B16668306860602069401E206138465B
:10206000FEF76CFB002028703046BDE8F081384652
:10207000FEF764FB5D2028700020F6E72DE9F041B3
:1020800004460D46164600274D480078002804DD1A
:10209000112030700020BDE8F081FEF74BFB0746B1
:1020A00004F114012846FEF78BFC80463846FEF703
:1020B00045FB002030704046EDE72DE9F041044635
:1020C0000D4616464FF000083D480078002803DD15
:1020D00012203070BDE8F081FEF72CFB80462846C8
:1020E000FEF7AEFC07460F2F05DD4046FEF726FB48
:1020F00063203070EEE7294604F11400FEF760FC1F
:102100004046FEF71BFB00203070E3E770B5044645
:102110000D460026FEF70EFB0646D4E90310884262
:1021200004D33046FEF70AFB5E2070BD606828606D
:1021300065602069401C20613046FEF7FFFA0020F0
:10214000F3E770B504460D460026FEF7F3FA06469F
:102150002068286060686860A068A860E068E8603F
:10216000206928613046FEF7E9FAD5E90301401AF3
:102170006861002070BD70B5B4211248FEF760FFA1
:10218000104D00240DE0601C00EBC0000D4901EB78
:10219000800068603F202875002169752435601C27
:1021A00084B2042CEFDB002068603F2028750021FA
:1021B000697504480149086070BD000044000020B2
:1021C0001D000020601500202DE9F04104460D4659
:1021D0004FF000082078022804D001202870002049
:1021E000BDE8F081FEF7A6FA80466768F88A002805
:1021F0000FDD3969081D38610E68F88A401EF882C3
:10220000B9683869884201D178683861002028703F
:1022100002E01F20287000264046FEF78FFA304665
:10222000DEE72DE9F04104460D464FF00008FF4877
:102230000078002802DD0020BDE8F081FEF77AFA80
:102240008046FB480668006820B1F948006840688D
:10225000F74908604046FEF771FA002E2BD0FEF7D2
:1022600069FA8046F3480768E7B100680068F149F9
:1022700008604046FEF762FA7C6004EB8500B860B7
:10228000FC603C61BD820020F8820220307000209A
:10229000308177603F20F074002131753046FFF7C0
:1022A00076F908E0E24800687060E1480660404660
:1022B000FEF744FA00263046BEE72DE9F047044613
:1022C0000D4616464FF0000A2078022804D001205F
:1022D00030702046BDE8F087D4480078002803DD40
:1022E0000F2030702046F5E7FEF724FA8246A07AE8
:1022F00008B1012700E0002715B1012D50D124E0DD
:10230000E7B93F20E07400212175D4F80480C94862
:102310000068C8F80000C748C0F80080002020709E
:10232000C3480068606000202081C14804605046B6
:10233000FEF704FA00203070814605E05046FEF7B3
:10234000FDF949203070A14631E005E00023042268
:1023500019462046FFF79AF8A07A0028F6D13F20C8
:10236000E07400212175D4F80480B2480068C8F8F0
:102370000000B048C0F8008000202070AC48006821
:10238000606000202081AA4804605046FEF7D6F91C
:10239000012F01D1FEF7C2FB00203070814606E01C
:1023A0005046FEF7CBF907203070A14600BF00BFB2
:1023B00048468FE770B504460026FEF7BBF906468F
:1023C00065686868E860686828610020E8823046CF
:1023D000FEF7B4F9002070BD2DE9F04704460D4624
:1023E00016464FF000092078022804D001203070F2
:1023F0000020BDE8F0878D480078002803DD02202A
:1024000030700020F5E78C480078002803DD0D20AF
:1024100030700020EDE7FEF78DF98146D4F8048096
:10242000B8F8160000281BDDD8F81010081DC8F8F1
:1024300010000F68B8F81600401EA8F81600D8F86B
:102440000810D8F81000884203D1D8F80400C8F862
:1024500010004846FEF772F9002030703846C8E791
:102460007648006890F8300040F00400734909682D
:1024700081F8300000207149096881F831006F4807
:102480000068C5852046FFF74AF84846FEF756F92A
:10249000FEF744FBFEF74EF981466848006890F865
:1024A000310020B101280DD002280AD105E063488F
:1024B0000068476A002030700DE000270E20307061
:1024C00009E000BF21465D480068FEF7CAFF00270B
:1024D0000A20307000BF00BF00205849096881F809
:1024E00030005649096881F8310054490968C861CB
:1024F0005249096808625149096848624846FEF72E
:102500001DF9384675E72DE9F04104460D4616469B
:102510004FF000082078022804D0012030700020FD
:10252000BDE8F081FEF706F98046A07A20B30027C7
:102530007DB1012D0CD107E00223042200212046A9
:10254000FEF7A4FF781CC7B2A07A0028F4D109E0F6
:1025500000BF0223042200212046FEF797FF781CCB
:10256000C7B200BF00BF4046FEF7E8F8FEF7D6FA54
:102570000E2030703846D3E74046FEF7DFF80020E3
:102580003070CDE72DE9F04104460D460027207854
:10259000022802D00120BDE8F081FEF7CBF8074603
:1025A000A07A60B10023042229462046FEF76EFF80
:1025B0003846FEF7C3F8FEF7B1FA0020EBE766688D
:1025C000F08AB18A884204DB3846FEF7B7F81E204D
:1025D000E1E7F168081DF0600D60F08A401CF082B0
:1025E000D6E90210884201D17068F0603846FEF7E3
:1025F000A5F80020CFE72DE9F04104460D4600275D
:102600002078022802D00120BDE8F081FEF792F880
:102610000746A07AC0B10023042229462046FEF7CF
:1026200035FF3846FEF78AF80AE000001D0000205A
:1026300008000020480000201E000020300000207C
:10264000FEF76CFA0020DFE76668F08AB18A8842FC
:1026500004DB3846FEF772F81E20D5E77168306952
:10266000884201D1B06830613069001F3061306943
:102670000560F08A401CF0823846FEF75FF80020C3
:10268000C2E72DE9F04104460D4616464FF000081A
:102690002078022802D00120BDE8F081FEF74AF838
:1026A0008046A07AE8B116F0010F0AD005E00023B9
:1026B000042229462046FEF7E9FEA07A0028F6D13A
:1026C00005E00023042229462046FEF7DFFE4046AF
:1026D000FEF734F816F0040F01D1FEF71FFA0020C0
:1026E000DAE76768F88AB98A884204DB4046FEF771
:1026F00025F81E20D0E716F0020F0BD07968386954
:10270000884201D1B86838613869001F386138697A
:10271000056009E0F968081DF8600D60D7E902104E
:10272000884201D17868F860F88A401CF8824046F7
:10273000FEF704F80020AFE72DE9F04704460D4608
:102740004FF0000A2078022802D00120BDE8F0876F
:10275000FDF7F0FF8246A07A287404F10B0805F11A
:102760000809002705E018F8010B09F8010B781C8F
:10277000C7B2082FF7DB6668F08A002803DD3069EE
:102780000068286001E000202860F08AA880B08AF4
:10279000E8805046FDF7D2FF0020D7E770B56021F2
:1027A0000A48FEF74DFC094D05F11806002404E027
:1027B0002E6018351836601C84B2032CF8DB00201C
:1027C000286002480249086070BD0000141600200D
:1027D0004800002070B5044600262078032801D068
:1027E000002070BDFDF7A6FF06462589002D02DDFD
:1027F0002089401E20813046FDF7A0FF2846F0E7E3
:1028000070B504460026DE480078002801DD00206F
:1028100070BDFDF78FFF0646DA480568006820B1F5
:10282000D84800684068D74908603046FDF786FF01
:102830005DB1032028702C81002068603F20E8747F
:10284000002129752846FEF7A2FE2846E0E72DE97B
:10285000F04704460D4616464FF00009207803283D
:1028600004D0012030702046BDE8F087C4480078CD
:10287000002803DD0F2030702046F5E7FDF75AFFF2
:102880008146A07A10B14FF0010801E04FF0000836
:1028900015B1012D41D11DE0B8F1000F13D13F203A
:1028A000E0740021217500202070B6480068606047
:1028B00000202081B34804604846FDF73FFF002018
:1028C0003070002705E04846FDF738FF492030709A
:1028D000274629E005E00023012219462046FEF79D
:1028E000D5FDA07A0028F6D13F20E07400212175A3
:1028F00000202070A3480068606000202081A1486B
:1029000004604846FDF71AFFB8F1010F01D1FEF748
:1029100005F900203070002706E04846FDF70EFF5D
:1029200007203070274600BF00BF38469CE72DE9DE
:10293000F04104460D46164600272078032803D0B0
:1029400001203070BDE8F0818D480078002802DD5C
:1029500002203070F6E78C480078002802DD0D2058
:102960003070EFE7FDF7E6FE07462089002808DD16
:102970002089401E20813846FDF7E0FE002030709F
:10298000E0E78248006890F8300040F001007F499D
:10299000096881F8300000207C49096881F831001D
:1029A0007A480068C5852046FEF7B9FD3846FDF730
:1029B000C5FEFEF7B3F8FDF7BDFE07467348006895
:1029C00090F8310020B1012809D0022806D102E098
:1029D000002030700BE00E20307008E000BF214670
:1029E0006A480068FEF73DFD0A20307000BF00BF56
:1029F00000206649096881F830006449096881F857
:102A0000310062490968C86160490968086238464E
:102A1000FDF794FE96E72DE9F04104460D46164673
:102A20004FF000082078032804D0012030700020E7
:102A3000BDE8F081FDF77EFE8046A07A20B3002736
:102A40007DB1012D0CD107E0022301220021204697
:102A5000FEF71CFD781CC7B2A07A0028F4D109E06B
:102A600000BF0223012200212046FEF70FFD781C43
:102A7000C7B200BF00BF4046FDF760FEFEF74EF84C
:102A80000E2030703846D3E74046FDF757FE002051
:102A90003070CDE770B5044600252078032801D0BA
:102AA000012070BDFDF746FE0546A07A60B1002307
:102AB000012219462046FEF7E9FC2846FDF73EFEB6
:102AC000FEF72CF80020ECE720894FF6FF718842D2
:102AD00007D22089401C20812846FDF72FFE0020C8
:102AE000DFE72846FDF72AFE3220DAE72DE9F04736
:102AF00004460D464FF000092078032802D001203B
:102B0000BDE8F087FDF716FE8146A07AA87204F1B1
:102B10000B06AF1C4FF0000807E016F8010B07F892
:102B2000010B08F1010000F0FF08B8F1080FF4DB19
:102B3000208928804846FDF701FE0020E0E72DE9C6
:102B4000F04104460D46164600272078032803D09E
:102B500001203070BDE8F081FDF7ECFD0746002054
:102B600030702089002801DD258105E0A07A08B9B0
:102B7000258101E0492030703846FDF7DFFDE9E7A7
:102B80001D000020080000201E0000203000002052
:102B90002DE9F04F85B004460D4600200090FDF76A
:102BA000C9FD0090FE4850F8250030B10098FDF7AF
:102BB000C5FD282005B0BDE8F08FFF2C03D1F948F2
:102BC000006890F83240F64850F82480B8F1000FC1
:102BD00004D10098FDF7B2FD2920EBE7B8F1010F11
:102BE00004D10098FDF7AAFD4320E3E74FEAE50989
:102BF00005F0070A012000FA09F0C0B20490012094
:102C000000FA0AF0C0B203900020E54941F8240020
:102C1000084640F8258098F834B098F836000290BD
:102C200098F835100191E04810F80B00019908421E
:102C30001FD0DD4810F80B0001998843DA4901F8EC
:102C40000B00084610F80B0028B9D8480078029904
:102C50008843D6490870D548007804990843D34979
:102C60000870D14810F8090003990843CE4901F8CB
:102C70000900D8F81C60F6B106F10B0010F80B1033
:102C80000198814306F10B0000F80B1010F80B00BF
:102C900018B9B07A02998843B072B07A049908439F
:102CA000B07206F10B0010F809000399084306F111
:102CB0000B0101F80900D8F8200038B3D8F82070CB
:102CC0003E6821E006F10B0010F80B0001998843E3
:102CD00006F10B0101F80B00084610F80B0018B9BB
:102CE000B07A02998843B072B07A04990843B072FE
:102CF00006F10B0010F809100398014306F10B00D0
:102D000000F809103F1D3E68002EDBD188F83250D4
:102D100088F8349088F833A0049888F8360003982F
:102D200088F835000098FDF709FDA14800780128D2
:102D300001D1FDF7F3FE00203CE72DE9FE4F0446EC
:102D40000D46164698464FF00009FDF7F3FC814604
:102D500098480078002805DD4846FDF7EFFC3C2048
:102D6000BDE8FE8F8E4850F8280058BB01208C49E2
:102D700041F828004846FDF7E1FC00233246294689
:102D80002046FDF732FD82460023009301931A4648
:102D9000514640460293FEF712FC074637B9844875
:102DA000007801280CD1FDF7B9FE09E0FDF7C2FC5F
:102DB000814600207A4941F828004846FDF7BEFCCC
:102DC0003846CDE74846FDF7B9FC2820C8E712F0A1
:102DD000010F08D012F0020F05D002E0491E0023B7
:102DE00008C00029FAD170472DE9F04F87B004469A
:102DF0000D4616461F46DDE912ABDDE910890020BD
:102E00000490FDF797FC04906A480078002806DDDE
:102E10000498FDF793FC3C2007B0BDE8F08F6048B4
:102E200050F82700002832D101205D4941F82700E1
:102E30000498FDF783FC51464846149AFFF7C7FFF4
:102E4000324629462046149BFDF7CFFC0690149B82
:102E5000CDE900AB029343464A4638460699FEF751
:102E6000AEFB0590059830B95148007801280CD187
:102E7000FDF754FE09E0FDF75DFC04900020484991
:102E800041F827000498FDF759FC0598C4E7049819
:102E9000FDF754FC2820BFE72DE9F0410446002748
:102EA00044480078002802DD4020BDE8F0813F2C36
:102EB00001D13E20F9E7FDF73DFC0746FF2C03D189
:102EC0003848006890F83240354850F8246026B9F8
:102ED0003846FDF733FC4320E7E7012E04D138469E
:102EE000FDF72CFC3D20E0E716F8340F2E49085C76
:102EF0007178884331782C4A505416F834091146B9
:102F0000085C30B996F8361028480078884327497D
:102F10000870F06918B13046F169FEF7A2FA306A1C
:102F200018B13046316AFDF7D0FDB56A15B12846B3
:102F3000FEF7C2FC0020F08586F8300086F83100EC
:102F40001D480078FF2804D21B480078401C1A490D
:102F500008703846FDF7F2FBFEF782FAFDF7EAFB50
:102F6000074615480078002804DD13480078401E05
:102F7000114908703046FDF735FC10480078401EB6
:102F80000E4908700020064941F82400B069C8B90C
:102F90000020716988610A497069086018E00000C2
:102FA000780C0020300000202200002021000020AA
:102FB0002A0000201D0000201E0000202B00002001
:102FC0003C000020D6E905014861D6E9051088617A
:102FD000E54800687061E44806603F2086F84C00D0
:102FE00000214D2081553846FDF7A8FBDF480078C9
:102FF000012801D1FDF792FD002056E72DE9F041AF
:10300000044600273F2C02D13E20BDE8F081FF2C72
:103010000BD1FDF78FFB0746D548006890F8375075
:103020003846FDF78BFB2846EFE7FDF783FB0746A5
:10303000D04850F8246026B93846FDF77FFB43207E
:10304000E3E7012E04D13846FDF778FB3D20DCE7AD
:103050003F2086F837003846FDF770FB0020D4E7A4
:103060002DE9F04704460D4616464FF00008C248C9
:103070000078002804DD112030700020BDE8F087C2
:10308000FDF758FB8046FF2C03D1B948006890F843
:103090003240B84850F8247037B94046FDF74EFB2F
:1030A000432030700020E9E7012F06D14046FDF7AC
:1030B00045FB432030700020E0E707F14C01284633
:1030C000FDF77EFC81464046FDF738FB002030705E
:1030D0004846D3E72DE9F04704460D4616464FF023
:1030E0000009A5480078002803DD12203070BDE8F3
:1030F000F087FDF71FFB8146FF2C03D19C48006839
:1031000090F832409B4850F82480B8F1000F05D168
:103110004846FDF713FB43203070E8E7B8F1010F94
:1031200005D14846FDF70AFB43203070DFE728460B
:10313000FDF786FC07460F2F05DD4846FDF7FEFA32
:1031400041203070D3E7294608F14C00FDF738FCE8
:103150004846FDF7F3FA00203070C8E770B5044622
:103160000026FDF7E7FA0646824850F8245025B9B4
:103170003046FDF7E3FA462070BD012D04D13046FC
:10318000FDF7DCFA4320F7E795F8300010F0080F60
:103190002CD015F8300F20F00800287015F83009F1
:1031A000F8B9E88DC8B93435A87874490978084366
:1031B0007249087028787249085C6978084315F8E4
:1031C00034196F4A50543046FDF7B8FA6748007812
:1031D000012809D1FDF7A2FC06E03046FDF7AEFA62
:1031E00002E03046FDF7AAFA0020C5E73046FDF7B9
:1031F000A5FA4420C0E72DE9F04704460D464FF0FC
:10320000000A002028606860FDF794FA8246FF2CCF
:1032100003D15748006890F83240564850F824606F
:103220002EB95046FDF78AFA4320BDE8F087012EFB
:1032300004D15046FDF782FA4320F6E7308A10F0B9
:10324000010F04D15046FDF779FA4520EDE74FF024
:103250000008D6F80C90B7685046FDF76FFA01E009
:1032600008F1010802CF0029FAD04FEA880028604F
:10327000A9EB0800800068600020D6E72DE9F04146
:1032800004464FF00008FDF755FA8046FF2C05D1A3
:103290003748006890F83240012508E0344800685B
:1032A00090F83200A04201D1012500E0002531480C
:1032B00050F824602EB94046FDF740FA4820BDE89A
:1032C000F081012E04D14046FDF738FA4320F6E79D
:1032D00096F834702A48C05D96F83510884328491E
:1032E000C8550846C05D30B996F8361023480078B6
:1032F00088432249087096F8300040F0080086F8AC
:1033000030004046FDF71AFA012D01D1FDF706FC09
:103310000020D4E72DE9F04104460D460027FDF7D3
:1033200009FA0746FF2C03D11148006890F8324093
:10333000104850F824602EB93846FDF7FFF92920CF
:10334000BDE8F081012E04D13846FDF7F7F943209E
:10335000F6E75C2231462846FEF727F93846FDF7A6
:10336000EDF90020ECE70000340000202A000020E6
:1033700030000020780C00201D00002021000020DB
:103380002200002070B50446002669480078002815
:1033900000DD70BD002C23DDFDF7CCF90646654845
:1033A000006890F834506448405D6249096891F8BB
:1033B00035108843604948550846405D40B95D482E
:1033C000006890F836105D48007888435B490870C3
:1033D00058480068C4853046FDF7B0F9FDF79EFBFC
:1033E000D7E72DE9F04704460D4616461F465048DC
:1033F0000078002802DD5520BDE8F087781D6421A3
:1034000048434FF47A71B0FBF1F14FF461606043CF
:10341000C5EB051200EB8200304400EBC00202EB6A
:10342000001001EB80094FEA19481FFA89F9484654
:10343000FFF7A8FF0BE04FF40040FFF7A3FF4FF4A6
:103440000040FFF79FFFA8F101001FFA80F8B8F1D4
:10345000000FF0DC0020CFE770B5044600263F2CBB
:1034600001DB2A2070BDFDF765F90646344850F8A7
:10347000245025B93046FDF761F94320F2E7012DCC
:1034800004D13046FDF75AF94320EBE7E88D20B927
:103490003046FDF753F95020E4E70020E88595F821
:1034A000300010F0370F08D015F8300F20F037003B
:1034B000287001206870303D02E0002085F831005E
:1034C00095F8300010F0080F15D13435A8781B4955
:1034D000097808431949087028781749085C697801
:1034E000084315F83419144A50543046FDF726F9AC
:1034F000FDF714FB02E03046FDF720F90020B1E7AC
:1035000070B50025FDF716F905460E4804682846F3
:10351000FDF714F9204670BD70B504460025FDF78F
:1035200009F90546074804602846FDF707F970BD0C
:103530001D0000203000002022000020210000207B
:10354000780C00204C00002010B5FA480068FFF706
:10355000A1FA10BDF848006808B900207047F64885
:103560000168F54AC86810600020C8600861F34827
:103570000088401CF14A1080F1480088401EF04A43
:1035800010800846EAE708B56A460021E948006865
:10359000FFF7CDF908BD2DE9F05F04460D4616464C
:1035A0001F46DDF83090DDF82880E64800780028D6
:1035B00005DD8B2089F800000020BDE8F09FFFF7B3
:1035C000E2FFFFF7C7FF8246BAF1000F06D1FFF70F
:1035D000BBFF862089F800000020EEE701208AF872
:1035E0003100CAF81840CAF81C508AF83060CAF88E
:1035F0000470CAF808800B98D0B10B98FDF720FA38
:103600008346BBF1100F05DA0AF120000B99FDF794
:10361000D7F90DE023208AF820000021212000F8AE
:103620000A108C2089F80000FFF78EFF5046C4E78F
:10363000FFF78AFF002089F800005046BDE700210F
:1036400080F8311080F83010C161416141608160C3
:103650003F2180F82010002221210A54002101611D
:10366000B5490968C160B4490860B4490988491E70
:10367000B24A1180B2490988491CB14A1180704789
:1036800030B5456905F00704AF4D05EBC4031D686F
:10369000854205D1C168196039B100250D6104E08A
:1036A0000169C268CA6002B11161012580F8315018
:1036B0000025C56005619D886D1E9D8030BD70B57B
:1036C00004460D462078642803D089202870002005
:1036D00070BD9C480078002803DD8B2028700020F6
:1036E000F6E7FFF750FF94F83100D8B101280FD06A
:1036F00002280ED003281BD12046FFF7C1FF204629
:10370000FFF79DFFFFF720FF002028700120DFE773
:1037100000BF2046FFF793FFFFF716FF0020287039
:103720000120D5E7FFF710FF872028700020CFE7A2
:10373000FFF70AFF8D2028700020C9E72DE9F0412E
:1037400004460D4616462078642804D0892030703F
:103750000020BDE8F0817B480078002803DD1120BF
:1037600030700020F5E7FFF70EFF94F8310098B1B4
:10377000012804D0022803D0032813D100BF00BFC2
:1037800004F120012846FDF71BF90746FFF7DCFE90
:10379000002030703846DCE7FFF7D6FE8720307017
:1037A0000020D6E7FFF7D0FE8D2030700020D0E754
:1037B00070B504460D462078642803D0892028700F
:1037C000002070BD5F480078002803DD8B20287042
:1037D0000020F6E7FFF7D7FE94F8310000282ED03E
:1037E00001280DD0022825D003282ED15749606921
:1037F0000968461AFFF7A8FE002028703046E0E767
:1038000094F8300001280CD0022809D1A06908B929
:10381000E66900E0A669FFF797FE0020287006E041
:1038200000BFA669FFF790FE0020287000BF00BF10
:103830003046C6E7FFF788FE00202870C1E7FFF793
:1038400083FE872028700020BBE7FFF77DFE8D20D8
:1038500028700020B5E770B504460E46207864282D
:1038600003D089203070002070BD364800780028D1
:1038700003DD8B2030700020F6E7FFF784FE94F81C
:10388000315035B1012D05D0022D04D0032D06D1C4
:1038900002E000BF00BF00BF0020307002E08D20BA
:1038A000307000BF00BFFFF74FFE2846DCE770B561
:1038B000032580F83150012905D1244EC5693668A9
:1038C000354445610CE085692DB9204EC5693668DF
:1038D0003544456104E01D4E8569366835444561CF
:1038E000456905F00703184D05EBC30425682DB99C
:1038F00020600025C5600125A58006E022682060C3
:10390000C2601061A5886D1CA5800025056170BD91
:1039100070B504460D462078642803D089202870AD
:10392000002070BD07480078002811DD8B2028702A
:103930000020F6E758000020600000205200002020
:10394000500000201D000020B41B00205400002067
:10395000FFF719FE94F83100E8B1012810D00228D1
:103960000FD003281DD12046FFF78AFE00212046F4
:10397000FFF79DFFFFF7E8FD002028700120D0E74A
:1039800000BF00212046FFF792FFFFF7DDFD00207A
:1039900028700120C5E7FFF7D7FD87202870002099
:1039A000BFE7FFF7D1FD8D2028700020B9E72DE992
:1039B000F04104460D46164698462078642805D006
:1039C000892088F800000020BDE8F0818148007857
:1039D000002804DD8B2088F800000020F4E7FFF7C2
:1039E000D2FD94F83100002837D001282ED00228CB
:1039F0002BD0032838D12046FFF742FE002088F85C
:103A00000000C5B1032D02D0042D15D109E067686F
:103A10001FB12046A168B84702E08F2088F8000057
:103A20000EE067681FB131462046B84702E08F209C
:103A300088F8000004E003E0842088F8000000BF5C
:103A400000BFFFF781FD0120BEE700BFFFF77CFD4F
:103A50008E2088F800000120B6E7FFF775FD87206B
:103A600088F800000020AFE7FFF76EFD8D2088F892
:103A700000000020A8E710B557480068FFF70AF8D3
:103A80000446204610BD2DE9F84300BF6A460021D8
:103A900051480068FEF74BFFFFF775FD4F4800687F
:103AA000401C4E4908600846006800F007074C4873
:103AB00000EBC708D8F800401AE0E568474960699C
:103AC0000968884213D1666816B12046A168B047DC
:103AD0002046FFF7D5FD94F83000022804D10121DB
:103AE0002046FFF7E4FE02E0022084F831002C4675
:103AF000002CE2D1FFF728FDC8E700B587B003230B
:103B0000002280213748CDE90323CDE901014FF69A
:103B1000FD7300933D2300F5FE7200213248FFF74C
:103B200063F906AA31A13D20FFF7D4FA07B000BD22
:103B3000F8B54FF450713148FDF782FA402128481A
:103B4000FDF77EFA2D4D05F1340600240FE06420C8
:103B50002870002085F83100EE603F2085F82000B5
:103B600000212120415534353436601C84B20F2C9D
:103B7000EDDB64202870002085F83100E8603F20EC
:103B800085F82000002121204155002013490860BC
:103B90001B49088010201B49088018481A490860F2
:103BA0000120FEF72DFE194908600020FEF728FECF
:103BB000094908606A4616A114480068FCF74AFFE4
:103BC0006A4616A104480068FCF744FFFFF795FF1A
:103BD000F8BD00001D0000205C0000205400002003
:103BE000B41B0020B4190020873A000875432F4FFA
:103BF000532D494920546D720000000074160020B6
:103C000052000020500000206000002058000020DA
:103C10004F532D546D724C6F636B00004F532D54F6
:103C20006D72536967000000FC49096801F03801B2
:103C3000FA4A116011460968014311607047F7495B
:103C4000096821F00801F54A11601146096801432D
:103C500011607047F149096821F01001EF4A1160C5
:103C600011460968014311607047ED48EB4948600F
:103C7000EC4848607047E948006940F08000E74937
:103C8000086170470420E549C96801F00101012974
:103C900001D101200EE0E149C96811F0040F01D003
:103CA000022007E0DD49C96811F0100F01D00320A0
:103CB00000E0042070470020FF2000E0401E0028A4
:103CC000FCD1704770B504460425FFF7DBFF0546BD
:103CD00005E0FFF7F0FFFFF7D5FF0546641E012D55
:103CE00001D1002CF5D104B90525284670BD70B569
:103CF0000446042540F6FF70FFF7E4FF0546042D57
:103D000019D1C648006940F00200C449086108465C
:103D10004461006940F04000086140F6FF70FFF721
:103D2000D1FF0546012D06D0BC48006941F6FD7162
:103D30000840BA490861284670BD10B5042440F611
:103D4000FF70FFF7BFFF0446042C18D1B348006989
:103D500040F00400B14908610846006940F04000A5
:103D6000086140F6FF70FFF7ADFF0446012C06D056
:103D7000AA48006941F6FB710840A849086120463D
:103D800010BD10B5042440F6FF70FFF79BFF0446FA
:103D9000042C3BD1A248A1498860A248886008460B
:103DA000006940F0200008610846006940F04000CA
:103DB000086140F6FF70FFF785FF0446042C1CD114
:103DC0009648006941F6DF71084094490861084649
:103DD000006940F010000861A520934908800F2079
:103DE000FFF770FF0446012C10D08C48006941F6A3
:103DF000EF7108408949086108E0012C06D0874826
:103E0000006941F6EF71084084490861204610BD01
:103E100070B504460D4604260F20FFF753FF0646F3
:103E2000042E25D17D48006940F001007B490861DE
:103E300025800F20FFF746FF0646042E0FD1280CE1
:103E400060800F20FFF73EFF0646012E10D073481A
:103E5000006941F6FE7108407049086108E0012ED2
:103E600006D06E48006941F6FE7108406B49086152
:103E7000304670BD70B504460D4604260F20FFF78E
:103E800021FF0646042E13D16448006940F001006A
:103E90006249086125800F20FFF714FF0646012EB6
:103EA00006D05E48006941F6FE7108405B49086132
:103EB000304670BD70B504460D4604260F20FFF74E
:103EC00001FF0646042E17D15548544988605548CD
:103ED00088600846006940F01000086125800F20C6
:103EE000FFF7F0FE0646012E06D04C48006941F669
:103EF000EF71084049490861304670BD2DE9F0472F
:103F000004464FF6FF752E462F46A8464FF004098B
:103F1000E443E5B2C4F30726C4F307474FEA146845
:103F20000F20FFF7CFFE8146B9F1040F41D13C4885
:103F30003A4988603B4888600846006940F01000B4
:103F40000861FF2D06D03848083005800F20FFF7A4
:103F5000B9FE8146B9F1040F08D1FF2E06D03248D0
:103F60000A3006800F20FFF7ADFE8146B9F1040F3D
:103F700008D1FF2F06D02C480C3007800F20FFF708
:103F8000A1FE8146B9F1040F09D1B8F1FF0F06D0A7
:103F90002648A0F80E880F20FFF794FE8146B9F15D
:103FA000010F06D01D48006941F6EF7108401B491A
:103FB00008614846BDE8F08770B50446042540F620
:103FC000FF70FFF77FFE0546042D4CD114481349BE
:103FD0008860144888600846006940F02000086145
:103FE0000846006940F04000086140F6FF70FFF7A6
:103FF00069FE0546042D2DD10848006941F6DF71A0
:104000000840064908610846006940F01000086150
:1040100074B10020044908800DE000000020024037
:1040200023016745AB89EFCD00F8FF1F00F0FF1FAC
:10403000A5204549088040F6FF70FFF743FE05467E
:10404000012D10D04148006941F6EF7108403F4909
:10405000086108E0012D06D03C48006941F6DF7197
:1040600008403A490861284670BD2DE9F0410446F0
:104070000D4616460427364834498860354888601E
:104080000F20FFF71FFE0746042F1AD12F480069A3
:1040900040F010002D49086144EA0500304340F02B
:1040A000F8002949891C08800F20FFF70BFE0746FE
:1040B000012F06D02548006941F6EF7108402349D9
:1040C00008613846BDE8F0812048C0698008704723
:1040D0001E48006A704700201C49C96911F0020F90
:1040E00001D0012000E00020704700201749096836
:1040F00011F0200F01D0012000E00020704729B10D
:10410000124A12690243114B1A6104E00F4A126904
:1041100082430E4B1A61704701460020012908D1E5
:104120000A4AD26912F0010F01D0012008E00020F4
:1041300006E0064AD2680A4201D0012000E00020D1
:1041400070470249C860704700F8FF1F0020024016
:1041500023016745AB89EFCD10B50446C049601A0D
:104160008C422FD009DCBF48201810D0B0F5806FEA
:1041700016D0B0F5006F4AD11BE0B0F5806F2AD0A1
:10418000B0F5006F30D0B0F5406F40D135E001217F
:10419000042000F04BFD0021042000F047FD37E033
:1041A0000121082000F042FD0021082000F03EFD22
:1041B0002EE00121102000F039FD0021102000F038
:1041C00035FD25E00121202000F030FD00212020D8
:1041D00000F02CFD1CE00121402000F027FD002113
:1041E000402000F023FD13E00121802000F01EFD9F
:1041F0000021802000F01AFD0AE00121080200F0F1
:1042000015FD00214FF4807000F010FD00E000BFAC
:1042100000BF10BD10B50121084600F007FD0021C8
:10422000012000F003FD10BDF0B5002200230024A2
:1042300000250026002791F803C00CF00F0291F82A
:1042400003C01CF0100F03D091F802C04CEA020228
:10425000B1F800C01CF0FF0F30D0066800242AE03F
:104260004FF0010C0CFA04F5B1F800C00CEA05039C
:10427000AB421FD1A5004FF00F0C0CFA05F7BE435F
:1042800002FA05FC4CEA060691F803C0BCF1280FBF
:1042900005D14FF0010C0CFA04FCC0F814C091F8E1
:1042A00003C0BCF1480F05D14FF0010C0CFA04FC1F
:1042B000C0F810C0641C082CD2D30660B1F800C04E
:1042C000BCF1FF0F34DD466800242EE004F1080C39
:1042D0004FF0010E0EFA0CF5B1F800C00CEA050320
:1042E000AB4221D1A5004FF00F0C0CFA05F7BE43ED
:1042F00002FA05FC4CEA060691F803C0BCF1280F4F
:1043000005D104F1080C0EFA0CFEC0F814E091F887
:1043100003C0BCF1480F07D104F1080C4FF0010EA7
:104320000EFA0CFEC0F810E0641C082CCED34660D8
:10433000F0BD4FF6FF710180022181700421C17030
:1043400070470246002093680B4201D0012000E034
:10435000002070470146886880B2704702460020FE
:10436000D3680B4201D0012000E0002070470146D5
:10437000C86880B2704701617047416170470AB1F7
:10438000016100E041617047C16070474FF48032C5
:104390000A43826181618261826982697047002279
:1043A000314B1A684FF680731A4042EA00120A43F2
:1043B0002D4B1A6070472D49C8617047F0B5002237
:1043C000002300250024284E7568C0F3034482B200
:1043D00000F44016B6F5401F08D125F07065224E56
:1043E000766826F07066204F7E6012E000F480163A
:1043F000B6F5801F06D1032606FA04F39D4345F067
:10440000706506E0460D360102FA06F6B54345F042
:10441000706521B1460D360102FA06F63543124E9B
:104420007560F0BD30B500228B071C0F0F2303FA17
:1044300004F20D4B08338C1053F8244094438D1034
:1044400043F825408C1053F824308C07240F00FAD1
:1044500004F42343044C08348D1044F8253030BD57
:104460000014014000F8FEBF00000140000020429F
:10447000704700BFFEE700BFFEE700BFFEE700BFDA
:10448000FEE770477047704710B5FCF753F90446D4
:1044900026480078401C254908702046FCF74EF954
:1044A000FCF772FFFCF77BFE10BD7047704770474A
:1044B0007047704770477047704770477047704744
:1044C0007047704770477047704770477047704734
:1044D00070477047704770477047704710B50121AB
:1044E000134801F0CBF910BD704770477047704713
:1044F0007047704770477047704770477047704704
:1045000070477047704770477047704770477047F3
:1045100070477047704770477047704770477047E3
:104520007047704770477047704770471D00002004
:10453000002C01400020411EF24A11600A09F14995
:104540008039C1F88420411E4FF0E022C2F8801269
:104550000A09ED490A6000BF04E00022EB4941F876
:104560002020401C0F28F8D3704700204FF0206116
:10457000E74A116000214FF0E022C2F8081DE5492A
:10458000E34A083211600021121D1160121D1160F2
:1045900000BF05E00022DE49143141F82020401C14
:1045A0000328F7D30021DA4A20321160491E4FF068
:1045B000E022C2F8281DD64A283211604FF0E022CE
:1045C000C2F8301D7047D3490143D14A0832116007
:1045D0007047F0B500210022002300240F25C67883
:1045E000002E36D0CA4E0836366806F4E066C6F5A8
:1045F000E066310AC1F10404CD40467806FA04F1C0
:1046000086782E40314309010678B607F60EB14090
:10461000BE4E0778BF1056F827200678B607F70E6B
:10462000FF2606FA07F39A4319400A43B74E077864
:10463000BF1046F82720067806F01F070126BE4067
:1046400007787F114FF0E02C0CEB8707C7F800616B
:104650000BE0067806F01F060127B740A94E90F838
:1046600000C04FEA6C1C46F82C70F0BD00210170B0
:1046700041708170C170704710B5FBF78EFE10BDA0
:1046800010B5FBF788FE10BD10B5FBF78BFE10BD13
:1046900010B5FBF789FE10BD10B504462001FBF7ED
:1046A00088FE10BD10B5FBF787FE10BD9848006866
:1046B000C0F30930704710B501460020002201F018
:1046C0001F04012303FA04F28E4B80334C1153F87C
:1046D00024301340934201D1012000E0002010BD9E
:1046E0008D490860704700F01F0101228A40864909
:1046F000091F431141F82320704785480068C0F323
:104700000900704710B501460020002201F01F0487
:10471000012303FA04F27C4B7C334C1153F8243010
:104720001340934201D1012000E0002010BD7848E1
:10473000001F00687047794A0A400243744B1B1DF2
:104740001A6070477348001D71490831086070474E
:104750007048401C6E4908310860704741B16C4A8E
:104760000C32126802434FF0E023C3F8102D07E02B
:10477000674A0C32126882434FF0E023C3F8102DD1
:10478000704710B5002200F01F04012303FA04F261
:1047900041B15F4B20331B6813434FF0E024C4F852
:1047A000243D07E05A4B20331B6893434FF0E0242D
:1047B000C4F8243D10BDF0B50023FF2400250026D9
:1047C000534F08373F6807F4E067C7F5E0673E0AD4
:1047D000C6F10403F44001FA03F602EA04073E437B
:1047E000360100F0C0039B09C0F30124E700BE407E
:1047F0004FEAC40CFF2707FA0CF5454F143757F85A
:1048000023C02CEA050C47F823C057F823C04CEA14
:10481000060C47F823C0F0BD10B501460020002269
:1048200000238B0A03F00F03012404FA03F3384C2E
:104830002034246804EA03029A4201D1012000E0F6
:10484000002010BD002100F01F01314A1368012231
:104850008A4013434FF0E022C2F8043D704710B580
:10486000002100F01F012A4A13684C1E0122A240B9
:1048700013434FF0E022C2F8043D10BD10B50146CD
:10488000002000230022C1F38332012404FA02F243
:104890001F4C2034246804EA0203934201D1012012
:1048A00000E0002010BD30B50146002000220023AA
:1048B000C1F38142C1F301531AB9154C2834206861
:1048C00011E0012A0CD1124C24342468DD0024FAB2
:1048D00005F0022B02D000F00F0004E0C0B202E0AD
:1048E0000B4C2C34206830BD014600200022C1F35F
:1048F00080521AB9064B3033186802E0044B343347
:104900001868704780E100E084E200E000E400E025
:1049100004ED00E00000FA0500EF00E080FFFF1F5B
:10492000DE48006840F00100DC4908600846406845
:10493000DB490840D949486008460068D949084021
:10494000D64908600846006820F4802008600846C0
:10495000406820F4FE004860002088607047CF491E
:10496000096821F48031CD4A11601146096821F4AB
:1049700080211160B0F5803F03D0B0F5802F0ED1BB
:1049800006E0C649096841F48031C44A116007E075
:10499000C249096841F4A021C04A116000E000BF8B
:1049A00000BF704710B501460022002300204A11C5
:1049B000012A02D1B94C236806E0022A02D1B74C81
:1049C000236A01E0B54C636A01F01F0201249440A0
:1049D0001C4201D0012000E0002010BD10B50024D1
:1049E00000BF3120FFF7DEFFAF490870081F0068E5
:1049F000401C091F0860081D007828B90846006897
:104A0000A0F58071FF39ECD13120FFF7CBFF08B161
:104A1000012400E00024204610BD00219F4A1168B7
:104A200021F0F80141EAC001116070479F49086018
:104A300070470022994B5A6822F47C1240EA010325
:104A40001A43964B5A607047984908667047002190
:104A5000924A516821F003010143516070478F4829
:104A6000406800F00C00704700218C4A516821F02A
:104A7000F0010143516070470021884A516821F4D8
:104A8000E0610143516070470021844A516821F47C
:104A9000605141EAC0015160704729B17F4A527AA2
:104AA00002437E4B5A7206E07C4A527AC343DBB221
:104AB0001A407A4B5A7270477C49D8310860704767
:104AC0000021764A516821F440410143516070470A
:104AD0000021724A20321170704A82F82010012899
:104AE00002D004280AD104E001216C4A203211705E
:104AF00005E00521694A2032117000E000BF00BFC7
:104B000070476B49086070476449096A0143634A0A
:104B100011627047664944390860704730B500211A
:104B20000022002300245D4D6D6805F00C0121B1C9
:104B3000042905D0082923D105E05E4D056022E057
:104B40005C4D05601FE0554D6D6805F4701202253F
:104B500005EB9242514D6D6805F480331BB9564DFB
:104B6000554305600BE04D4D6D6815F4003F03D0D3
:104B7000514D5543056002E04E4D5543056002E03E
:104B80004C4D056000BF00BF444D6D6805F0F0015D
:104B900009094A4D6C5C0568E54045603F4D6D680C
:104BA00005F4E061090A454D6C5C4568E5408560A7
:104BB0003A4D6D6805F46051C90A404D6C5C45681A
:104BC000E540C560354D6D6805F44041890B3B4DAE
:104BD00010356C5CC568B5FBF4F5056130BD29B1D5
:104BE0002E4A526902432D4B5A6104E02B4A526906
:104BF00082432A4B5A61704729B1284A926902437D
:104C0000264B9A6104E0254A92698243234B9A61BC
:104C1000704729B1214AD2690243204BDA6104E08E
:104C20001E4AD26982431D4BDA61704729B11B4A83
:104C3000D2680243194BDA6004E0184AD268824312
:104C4000164BDA60704729B1144A12690243134BBC
:104C50001A6104E0114A12698243104B1A617047CD
:104C600013494039086070471049C86470470B49C0
:104C7000C87170470948406A40F08070074948622F
:104C8000704701460020054A92680A4201D001207F
:104C900000E0002070470149887270470010024010
:104CA0000000FFF8FFFFF6FE68000020000042420F
:104CB0008004424200127A0000093D00525E000862
:104CC000042808D14FF0E021096941F004014FF0B8
:104CD000E022116107E04FF0E021096921F00401B1
:104CE0004FF0E022116170474FF0E02148617047BA
:104CF000012808D14FF0E021096941F001014FF08E
:104D0000E02211610EE0811C08D14FF0E021096919
:104D100021F001014FF0E022116103E000214FF08A
:104D2000E0229161704740B14FF0E021096941F004
:104D300002014FF0E022116107E04FF0E021096924
:104D400021F002014FF0E022116170474FF0E020A6
:104D50008069704710B50146002200230020CB1067
:104D6000022B03D14FF0E024226902E04FF0E0244F
:104D7000E26901248C40144201D0012000E00020AF
:104D800010BD000010B50446F849601A8C4245D0A9
:104D90000CDCB4F1804F1DD0F548201823D0B0F5BD
:104DA000806F29D0B0F5006F54D12EE0B0F5806F40
:104DB0003DD0B0F58E3F03D0B0F5923F4AD13FE0F1
:104DC0000121C802FFF732FF00214FF40060FFF716
:104DD0002DFF40E001210846FFF735FF00210120AB
:104DE000FFF731FF37E001210220FFF72CFF002100
:104DF0000220FFF728FF2EE001210420FFF723FF08
:104E000000210420FFF71FFF25E001210820FFF704
:104E10001AFF00210820FFF716FF1CE001211020D7
:104E2000FFF711FF00211020FFF70DFF13E0012114
:104E30002020FFF708FF00212020FFF704FF0AE0F1
:104E400001214803FFF7F2FE00214FF40050FFF765
:104E5000EDFE00E000BF00BF10BD028802F08F022F
:104E60000280CA884B881A4303881A4302808A88C2
:104E700082850A88028501228282BE4A904202D03F
:104E8000BD4A904201D10A7A0286704770B500226D
:104E900000230024058C4FF6FE7635400584038CF4
:104EA0008488028B4FF68F752A400D882A43751E21
:104EB0002B400D892B434D882B43CD888586AD4DE6
:104EC000A84202D0AC4DA84213D14FF6F7752B4043
:104ED0004D892B434FF6FB752B408D882B4347F6AE
:104EE000FF652C4047F6FF552C408D892C43CD891A
:104EF0002C4384800283038470BD70B5002200239C
:104F00000024058C4FF6EF7635400584038C8488A9
:104F1000028B48F6FF752A400D882D0642EA15429D
:104F20004FF6DF752B400D892D0543EA15434D885B
:104F30002D0543EA1543CD8805878E4DA84202D042
:104F40008D4DA8421BD14FF67F752B404D892D0505
:104F500043EA15434FF6BF752B408D882D0543EA74
:104F6000154347F6FF352C4047F2FF752C408D89DD
:104F7000AD0444EA1544CD89AD0444EA1544848067
:104F80000283038470BD70B5002200230024058CC9
:104F90004FF6FF6635400584038C8488828B4FF67C
:104FA0008F752A400D882A434FF6FF552B400D89F7
:104FB0002D0643EA15434D882D0643EA1543CD8857
:104FC00085876C4DA84202D06B4DA8421BD14FF291
:104FD000FF752B404D892D0643EA15434FF6FF35EB
:104FE0002B408D882D0643EA154346F6FF752C406D
:104FF00045F6FF752C408D892D0544EA1544CD8971
:105000002D0544EA154484808283038470BD70B505
:10501000002200230024058C4EF6FF7635400584DF
:10502000038C8488828B48F6FF752A400D882D06F4
:1050300042EA15424DF6FF752B400D892D0743EAD4
:1050400015434D882D0743EA1543CD88A0F84050FD
:10505000484DA84202D0484DA84205D1C4F30D04E2
:105060008D89AD0544EA154484808283038470BD34
:10507000828B4FF2FF331A408283828B0B0642EA07
:10508000134282837047F0B5002400250026078C68
:105090004EF6FF7C07EA0C070784848B058C0F070C
:1050A0003E0C40F6FF473C4017063F0C4FEA037C9E
:1050B00047EA1C473C434DF6FF773D4046F4805796
:1050C0003D4384830584F0BD828B4FF6F3731A4011
:1050D0008283828B0A4382837047F0B500240025C7
:1050E0000026078C4FF6FF6C07EA0C070784848BB9
:1050F000058C0F063E0C4FF60C773C401F0542EA2C
:1051000017473C434FF6FF573D4046F480773D43F9
:1051100084830584F0BD028B4FF2FF331A40028373
:10512000028B0B0642EA134202837047F0B500245B
:1051300000250026078C4FF6EF7C07EA0C07078452
:10514000048B058C0F053E0C40F6FF473C401F07C3
:1051500044EA1744170644EA17444FF6DF773D4008
:1051600046F010073D4304830584F0BD0010004065
:1051700000FCFFBF002C014000340140028B4FF6C1
:10518000F3731A400283028B0A4302837047F0B51F
:1051900000240025068C4FF6FE773E400684048BE3
:1051A000058C4FF60C7634401E0542EA1646344311
:1051B0007E1E354041F00106354304830584F0BD71
:1051C00070B504460D46288850B92B89AA8869888D
:1051D0002046FFF7DCFFE9882046FFF7CFFF25E0F8
:1051E000288804280AD12B89AA8869882046FFF7D5
:1051F0009DFFE9882046FFF78EFF17E028880828E2
:105200000AD12B89AA8869882046FFF766FFE988BA
:105210002046FFF759FF09E02B89AA8869882046B4
:10522000FFF731FFE9882046FFF722FF70BD2DE927
:10523000F04104460D4600260127688808B9022679
:1052400000E00026A888012801D1022700E00127FC
:105250002888A0B92B89AA8869882046FFF797FF7C
:10526000E9882046FFF78AFF2B893A4631462046D7
:10527000FFF75CFFE9882046FFF74DFF13E02B891D
:10528000AA8869882046FFF751FFE9882046FFF782
:1052900042FF2B893A4631462046FFF778FFE988DE
:1052A0002046FFF76BFFBDE8F0810A884B881A4360
:1052B0008B881A43CB881A430B891A434B891A43AC
:1052C0008B891A43A0F8442070474FF6FF71818004
:1052D00000210180C180418001727047002101805E
:1052E00041808180C180018141818181C18170477C
:1052F000002101804180012181800021C180018144
:1053000070470021018041808180C18001814181FD
:105310008181704721B1028842F00102028004E0DD
:10532000028840F2FE331A400280704731B1B0F873
:10533000442042F40042A0F8442005E0B0F84420A4
:10534000C2F30E02A0F84420704710B51AB1838949
:105350000B43838104E08389CC43A4B2234083813F
:1053600010BD8182704741EA0203A0F848307047BF
:1053700010B51AB183890B43838104E08389CC4340
:10538000A4B22340838110BD01894FF6F872114009
:1053900001817047002202894FF68F731A400A4339
:1053A0000281704730B504460D4629462046FFF776
:1053B000F1FF208940F00700208130BD2DE9F04148
:1053C00004460D4616461F46602D06D13B46012277
:1053D00031462046FFF7AAFE05E03B460122314652
:1053E0002046FFF7D4FE29462046FFF7D3FF208949
:1053F00040F007002081BDE8F08170B500240489E9
:10540000E4B241EA02051E0645EA16452C43048132
:1054100070BD2DE9F04104460D461646984600271A
:105420004346324629462046FFF7E7FF27894FF6D5
:10543000F870074047F007074FF68F70074047F0B6
:1054400070072781BDE8F081F0B504460D46164689
:105450001F463B46324629462046FFF7CEFF2089AD
:1054600040F480402081F0BD018582827047002297
:10547000028840F28F331A400A4302807047F0B529
:105480000024002500260489058B068C4FF6F8774A
:105490003C400C434FF6FC473D4040F201173D4372
:1054A0004FF6DD773E401F0542EA17473E43048131
:1054B00005830684F0BD0022028B4FF68F731A40DD
:1054C0000A43028370470022028B48F6FF731A409A
:1054D0000B0642EA1342028370470022828B4FF68A
:1054E0008F731A400A43828370470022828B48F6EA
:1054F000FF731A400B0642EA13428283704721B1C0
:10550000028842F08002028004E0028840F27F3389
:105510001A400280704721B1828842F004028280E2
:1055200004E082884FF6FB731A408280704721B1F5
:10553000828842F00802828004E082884FF6F77386
:105540001A408280704721B1828842F00102828035
:1055500004E082884FF6FE731A4082807047002272
:10556000028B4FF6F7731A400A43028370470022FA
:10557000028B4FF2FF731A400B0642EA134202837A
:1055800070470022828B4FF6F7731A400A438283DA
:1055900070470022828B4FF2FF731A400B0642EADB
:1055A0001342828370470022028B4FF6FB731A402E
:1055B0000A43028370470022028B4FF6FF331A40E2
:1055C0000B0642EA1342028370470022828B4FF699
:1055D000FB731A400A43828370470022828B4FF686
:1055E000FF331A400B0642EA1342828370470022BF
:1055F000028B4FF67F731A400A43028370470022E2
:10560000028BC2F30E020B0642EA1342028370477A
:105610000022828B4FF67F731A400A4382837047C1
:105620000022828BC2F30E020B0642EA13428283EF
:1056300070470022028C4FF6FD731A400A43028421
:1056400070470022028C4FF6F7731A400A43028417
:1056500070470022028C4FF6DF731A400B0542EAB6
:105660001342028470470022028C4FF67F731A4067
:105670000B0542EA1342028470470022028C4FF667
:10568000FF531A400B0642EA13420284704700227D
:10569000028C4FF2FF731A400B0642EA1342028457
:1056A00070470022028C4DF6FF731A400B0742EA46
:1056B00013420284704710B5038C01248C40E443EC
:1056C000A4B223400384038C02FA01F4A4B223435E
:1056D000038410BD10B5038C04248C40E443A4B2B1
:1056E00023400384038C02FA01F4A4B2234303840D
:1056F00010BD30B5048C01238B40DB439BB21C40B2
:10570000048409B1082912D100F1180303EB6103E5
:105710001C684FF68F731C4000F1180303EB610304
:105720001C6000F1180303EB61031A6019E00B1F02
:105730009CB200F1180303EB64031C6848F6FF7386
:105740001C400B1F9DB200F1180303EB65031C60A6
:1057500013061C0C0B1F9DB200F1180303EB65032D
:105760001C6030BD21B1028842F00202028004E0D8
:10577000028840F2FD331A400280704721B102884E
:1057800042F00402028004E0028840F2FB331A4037
:105790000280704721B1828842F08002828004E05A
:1057A00082884FF67F731A4082807047028840F2E9
:1057B000F7331A40028002880A43028070478288C9
:1057C0004FF68F731A40828082880A438280704726
:1057D00002894FF6F8731A40028102890A43028156
:1057E000704702894FF67F731A40028102890A438B
:1057F0000281704781847047818570478186704738
:105800000187704781877047A0F840107047028871
:10581000D2B2028002880A43028070470146888E15
:1058200070470146088F70470146888F70470146D0
:10583000B1F8400070470146888C70470146088DDA
:10584000704702460020138A0B4201D0012000E07D
:1058500000207047CA430282704730B502460020DC
:1058600000230024158A05EA0103958905EA01044D
:1058700013B10CB1012000E0002030BDCA43028208
:105880007047000010B50446D749601A8C422BD0EF
:1058900006DCD648201813D0B0F5806F38D119E057
:1058A000B0F5806F2AD0B0F56C4F31D1012188035B
:1058B000FFF7BCF900214FF48040FFF7B7F928E06B
:1058C00001214804FFF7BFF900214FF40030FFF732
:1058D000BAF91EE001218804FFF7B5F900214FF461
:1058E0008020FFF7B0F914E00121C804FFF7ABF9FD
:1058F00000214FF40020FFF7A6F90AE00121080576
:10590000FFF7A1F900214FF48010FFF79CF900E0A8
:1059100000BF00BF10BD2DE9F04786B004460D461C
:105920000026002700BF00BFB246A246268A4CF6DA
:10593000FF700640E88806432682A6894EF6F310DB
:105940000640A88829890843698908430643A68137
:10595000A68A4FF6FF400640A8890643A68201A802
:10596000FFF7DCF85446A248824501D1049F00E0CD
:10597000039F07EBC70000EB071029688900B0FB05
:10598000F1F86420B8FBF0F006013009642101FB56
:105990001089322101EB09106421B0FBF1F000F015
:1059A0000F000643268106B0BDE8F0874FF416517C
:1059B000016000218180C18001810C214181002191
:1059C0008181704710B50022028A4FF2FF031A400E
:1059D0000B884C8823438C882343CC8823431A4369
:1059E000028210BD0021018041808180C18070470A
:1059F00021B1828942F40052828104E082894DF60D
:105A0000FF731A4082817047F0B5002400250026FC
:105A100000230346C1F3421401F01F05012707FAD2
:105A200005F6012C01D10C3304E0022C01D1103316
:105A300000E014331AB11F6837431F6002E01F688B
:105A4000B7431F60F0BD10B51AB1838A0B43838240
:105A500004E0838ACC43A4B22340838210BD028A2F
:105A60004FF6F0731A400282028A0A43028270479C
:105A700082894FF2FF731A40828182890A438281B0
:105A8000704721B1828942F00202828104E082895A
:105A90004FF6FD731A4082817047028A4FF6DF731A
:105AA0001A400282028A0A430282704721B1028AA6
:105AB00042F48042028204E0028A4BF6FF731A40ED
:105AC00002827047C1F308028280704701468888CD
:105AD000C0F308007047818941F00101818170475E
