:020000040800F2
:100000000804002001010008FD010008F9010008B2
:10001000FB0100084901000801030008000000007E
:1000200000000000000000000000000019020008AD
:100030004B01000800000000FF010008AD020008AD
:100040001B0100081B0100081B0100081B01000820
:100050001B0100081B0100081B0100081B01000810
:100060001B0100081B0100081B0100081B01000800
:100070001B0100081B0100081B0100081B010008F0
:100080001B0100081B0100081B0100081B010008E0
:100090001B0100081B0100081B0100081B010008D0
:1000A0001B0100081B0100081B0100081B010008C0
:1000B0001B0100081B0100081B0100081B010008B0
:1000C0001B0100081B0100081B0100081B010008A0
:1000D0001B0100081B0100081B0100081B01000890
:1000E0001B0100081B0100081B010008DFF80CD0F1
:1000F00000F018F800480047210300080804002019
:100100000648804706480047FEE7FEE7FEE7FEE7B1
:10011000FEE7FEE7FEE7FEE7FEE7FEE7B1020008C6
:10012000ED000008064C074D06E0E06840F00103D2
:1001300094E8070098471034AC42F6D3FFF7DAFF93
:100140007803000898030008FEE770472DE9F041A6
:10015000CA780025D30602F00F0201D58B781A4326
:100160000B884FF00F084FF0010C13F0FF0F1CD05D
:10017000D0F800400E880CFA05F31E409E4210D1C4
:10018000AF0008FA07F624EA060602FA07F4344339
:10019000CE78282E02D0482E02D002E0436100E043
:1001A00003616D1C082DE5D304600B88FF2B1DD95E
:1001B0004468002505F108060CFA06F30E881E4077
:1001C0009E420FD1AF0008FA07F624EA060602FAAB
:1001D00007F43443CE78282E00D14361CE78482EE0
:1001E00000D103616D1C082DE4D34460BDE8F081AB
:1001F0004161704701617047FEE7FEE77047704755
:10020000044A0029916901D0014300E081439161D2
:100210007047000000100240704700002148002194
:10022000026842F4803202604FF4A0630268491C05
:1002300012F4003F01D19942F8D10168890330D509
:1002400019490A6842F010020A600A6822F00302A3
:100250000A600A6842F002020A604168416041682F
:100260004160416841F480614160416821F47C1142
:100270004160416841F4E8114160016841F08071DA
:10028000016001688901FCD5416821F003014160EA
:10029000416841F0020141604168C1F381010229D6
:1002A000FAD1704700100240002002407047000061
:1002B0000F4810B5016841F00101016041680D4A25
:1002C0001140416001680C4A11400160016821F44D
:1002D00080210160416821F4FE0141604FF41F015B
:1002E0008160FFF79BFF05494FF00060086010BD7B
:1002F000001002400000FFF8FFFFF6FE08ED00E0EE
:10030000FEE702E008C8121F08C1002AFAD17047B0
:100310007047002001E001C1121F002AFBD1704785
:1003200001210820FFF76CFF10484FF48271104D37
:100330000180032181701021C17001462846FFF71A
:1003400005FF0C4CAE1531462846FFF753FF2046FB
:10035000401EFDD12046401EFDD131462846FFF704
:1003600047FF2046401EFDD1EDE7000000000020C1
:10037000000C0140FFFF0F00980300080000002060
:1003800004000000020300089C0300080400002091
:0C0390000404000012030008000000003C
:04000005080000ED02
:00000001FF
