:020000040800F2
:1000000080080020010100086F0A00081D0900088F
:100010006D0A000821020008F11800080000000025
:100020000000000000000000000000005510000863
:10003000B1060008000000007B0C000865150008F0
:10004000511B00084D0C000867150008830F0008BD
:1000500071070008E50E0008ED060008F10600082B
:10006000F3060008F5060008F7060008FD0300087F
:10007000FF03000801040008030400080504000849
:1000800007040008090400081F020008D917000827
:10009000A91800082D0200082F020008F906000820
:1000A000691500086F1500086D1500086B1500082C
:1000B000711500087315000875150008210900085E
:1000C0001F0900082509000823090008511000082D
:1000D0005310000879150008A1150008A3150008A1
:1000E000EF060008810F0008BD170008DFF80CD0EC
:1000F00000F064F800480047F5230008800800205D
:1001000000480047ED000008D2B201E000F8012BE2
:10011000491EFBD270470022F6E710B50446084698
:10012000114602462046FFF7EFFF204610BD01466C
:10013000002000E0401C0A5C002AFBD1704730B56B
:1001400004460020034600E05B1C934203D2E05CBF
:10015000CD5C401BF8D030BD2DE9F05F0546002096
:1001600092469B4688460646814640241BE0284628
:1001700041464746224600F042F852465B46801A06
:10018000994110D310461946224600F029F82D1A3D
:1001900067EB01084F4622460120002100F020F8BD
:1001A00017EB00094E41201EA4F10104DFDC484694
:1001B00031462A464346BDE8F09F0000064C074DF5
:1001C00006E0E06840F0010394E807009847103427
:1001D000AC42F6D3FFF78EFF3427000854270008FF
:1001E000202A04DB203A00FA02F1002070479140F7
:1001F000C2F1200320FA03F3194390407047202AEC
:1002000004DB203A21FA02F00021704721FA02F3C0
:10021000D040C2F120029140084319467047704710
:10022000FEE7C1B2000A40EA0120704770477047FC
:100230002DE9F05F4BF68F7848F6BF7940F68F7561
:10024000DFF840B148F60F7A2BE047F6FF701060F8
:1002500008884D4C10F00F0020702BD00BEB800065
:100260005E4601688FB239040AD5016889B2294017
:1002700001604648217800EB810050F8040C80476B
:1002800038060ED5207806EB8000016889B201EAB5
:100290000A0101603E48217800EB810050F8040C0F
:1002A0008047384A443210683A4908800004CCD468
:1002B000BDE8F09FDBF800005C46374EC0F301302C
:1002C0004FEA00303080DBF80000C0F301104FEA45
:1002D00000107080DBF8000080B200EA080080F4B3
:1002E0000050CBF80000DBF8000080B200EA090003
:1002F00080F0200020600888C00620680AD481B2FF
:1003000001EA0A01216000F00FFB206810F4084F99
:100310000CD11AE087B2380606D5206880B200EA10
:100320000A00206000F000FB380506D5206880B286
:100330002840206000F064FF07E0380405D52068FD
:1003400080B22840206000F053FC2068318880B2E1
:1003500000EA0800CA0401D580F48050890401D560
:1003600080F4005020602068718880B200EA0900A3
:10037000CA0601D580F01000890601D580F0200062
:1003800020608EE7005C0040E20000202400002096
:100390000800002004000020F2000020074901EBC3
:1003A00080000168490407D5016848F68F7289B258
:1003B000114041F48041016070470000005C004042
:1003C000074901EB80000168490607D5016848F636
:1003D0008F7289B2114041F0400101607047000006
:1003E000005C0040044901EB8000016848F68F6220
:1003F00089B2114001607047005C0040704770474F
:100400007047704770477047704700002DE9F0470C
:10041000DFF87890DFF87880D9F8001001F1100447
:10042000088A097A08B9042904D0A588A84206D800
:10043000042605E007261021A8F8001020E0022677
:10044000854200D90546A8B2A1680746884782467A
:10045000002000F055FA01463A46504601F04AFAAB
:100460003946002000F082FE20883021401B208089
:10047000608828446080A8F80010080205490880B8
:10048000D9F800000672BDE8F0870000E400002003
:10049000F4000020F20000202DE9F047234EDFF8A1
:1004A00090904FF03008346834F8100FA168B1B163
:1004B00008B3A588854200D90546A8B207468847F3
:1004C00082462088401B208060882844608000206D
:1004D00000F0F6F901463A46504600F0A9FB2088A4
:1004E00048B114494FF4405008800021084600F0FC
:1004F0003DFEA9F800802088A188884201D303200E
:1005000001E020B1052031680872BDE8F08731684C
:1005100006200872084900200968084A89B202EBDF
:1005200041014860A9F80080EFE70000E4000020E6
:10053000F4000020F2000020505C00400060004009
:1005400070B5534C534D0926206829684278062A15
:1005500005D0AAB1082A4BD00A2A4ED06AE0027808
:10056000520667D18078012804D0022804D00328DD
:1005700004D05FE0C96954E0096A52E0496A50E07A
:100580004288A2BBC288022A54D102797ABB02787F
:10059000530601D1838833B102F07F02012A04D0CF
:1005A000022A0CD046E03C493BE08A6940790021B0
:1005B0009047E0B92068807A0028F4D13AE0417988
:1005C00001F00F0001F070020B06344951F82010C1
:1005D00003D5C1F30111090102E0C1F3013109039F
:1005E0002F4B1B78834225D90AB90029DBD121E0A2
:1005F000007840061ED12B4913E0027802F07F02FA
:10060000012A17D1827AAAB142889AB902798AB9A5
:10061000C288012A0ED18A6940790021904748B9E1
:10062000214939B120680022428281611046884701
:10063000002006E029682068096940788847032877
:1006400007D021680A8AA2F57F43FF3B04D10E72CE
:1006500070BD2068067270BD02280FD072B1087894
:1006600000060ED5C888824200D90882286890F812
:100670002C008882BDE87040FFF7C8BE08200872D1
:1006800070BD0320087209490003088070BD000096
:10069000E4000020E8000020B5130008005C0040E2
:1006A000AC000020491300088D130008F200002060
:1006B000704700000149002048607047D8000020C2
:1006C00010B5032000F00CF90649024608604FF40B
:1006D0008871054800F0ACFABDE81040032000F036
:1006E00027BD0000D800002024010020704770477B
:1006F0007047704770477047704700000149C860F5
:10070000704700000020024070B5054640F6FF76B5
:10071000304600F06FF8042813D10A4C206940F0ED
:10072000020020616561206940F040002061304690
:1007300000F060F8012804D0216941F6FD721140F3
:10074000216170BD0020024008490420CA68D20718
:1007500001D001207047CA68520701D502207047B6
:10076000C968C906FBD5032070470000002002407D
:100770007047000004490A6822F010020A600A6803
:1007800002430A60704700000020024070B5054631
:100790000E460F2000F02EF804280FD1084C2069D7
:1007A00040F0010020612E800F2000F023F8012886
:1007B00004D0216941F6FE721140216170BD000034
:1007C0000020024004490A6802F038020A600A6800
:1007D00002430A60704700000020024003480249BB
:1007E0004160034941607047230167450020024092
:1007F000AB89EFCD00B50346FFF7A6FF05E0FF216B
:10080000491EFDD1FFF7A0FF5B1E012803D0002B7E
:1008100000D1052000BD002BF1D1FAE7F0B5CC786E
:10082000002204F00F03E40601D58C7823430C88E2
:100830004FF00F0C14F0FF0F4FF0010E19D00568A8
:100840000E880EFA02F42640A6420ED196000CFA4B
:1008500006F7BD4303FA06F63543CE78282E00D1BD
:100860004461CE78482E00D10461521C082AE7D397
:1008700005600A88FF2A1DD94568002202F1080692
:100880000EFA06F40E882640A6420FD196000CFA06
:1008900006F725EA070703FA06F5CE783D43282E2A
:1008A00000D14461CE78482E00D10461521C082A40
:1008B000E4D34560F0BD41617047016170470000BD
:1008C0000549096889B201EBC000044901EB400009
:1008D000806880B270470000505C004000600040BB
:1008E0000549096889B201EBC000044901EB4000E9
:1008F000C068C0F309007047505C004000600040D1
:100900000449096889B201EBC000034951F810009D
:1009100080B27047505C004000600040FEE77047C6
:10092000704770477047000010B5134C2068017A7B
:10093000022904D0042902D0062905D015E0FFF7CA
:1009400065FD2068007A11E04178052909D1017818
:10095000490606D1C07800F087FB08480068006AA5
:10096000804707480068806880470820216808722F
:10097000BDE8104000F082B9E4000020EC00002047
:10098000E8000020F8B500F0F5F94FF4803528466E
:1009900000F088FA00F0DCFA3049AC110128087048
:1009A00025D11020FFF7E6FE0220FFF70BFF002005
:1009B00000F06EFA002000F0A1FA204600F094FA50
:1009C000600100F0B5F94FF4E011284600F0A6FAF6
:1009D000012000F09DFA392000F03AFA0028FAD000
:1009E000022000F0A5FA00F04BFA0828FBD1012103
:1009F00044F22C0000F0B2F94FF4E040ADF80000F2
:100A000010208DF8030003258DF802506946144824
:100A1000FFF704FF4FF40076ADF800608DF8025048
:100A200014208DF8030069460E48FFF7F7FEADF875
:100A3000004004200C4C8DF8030069462046FFF767
:100A4000EDFEADF800608DF8025018208DF803001F
:100A500069462046FFF7E2FEF8BD000000000020D6
:100A6000000C01400014014000080140FEE77047FF
:100A700070470000F0B50F23C278017801264FF0CF
:100A8000E0273AB3184A126802F4E062C2F5E06265
:100A9000120AC2F10404D3404278A24084781C4078
:100AA000144323018A0721F00304D20E0F49934017
:100AB00065182C68FF2191408C430B401C432C602F
:100AC000007800F01F018E40400907EB8000C0F85D
:100AD0000061F0BD01F01F008640480907EB80006F
:100AE000C0F88061F0BD00000CED00E000E400E023
:100AF0000249084302490860704700000000FA05F7
:100B00000CED00E0024A11400143024801607047C9
:100B100080FFFF1F08ED00E070B5304D28680178B8
:100B200044784A0606D001F07F0001282BD0022825
:100B30002ED038E0092C06D0052C07D0032C0ED07F
:100B4000012C17D02FE000F07BFC2BE0C1787F292F
:100B500031D8817879BB818869BB807A2AE0C178F5
:100B6000012920D18188F1B9407A80061BD500F097
:100B700083FC17E0C178012915D1818899B9407AA1
:100B800080060AD40FE00B2C0DD100F0C7FC09E061
:100B9000012C02D0032C03D005E000F065FB01E03E
:100BA00000F07CFC58B10E4800684169E0B288470B
:100BB000032802D018B108200DE009200BE0094AF3
:100BC000062000211268084B92B203EB42025160EA
:100BD000064A302111802968087270BDE4000020A7
:100BE000E8000020505C004000600040F40000205D
:100BF00010B50D4C2068007A032804D0052802D0D7
:100C0000072805D008E0FFF747FC2068007A04E0D9
:100C100006480068C0688047082021680872BDE85F
:100C2000104000F02BB80000E4000020E800002095
:100C3000054B521C520803EB410104D008C920F8AF
:100C4000023B521EFAD17047006000407047018895
:100C5000A1F5B442A53A0FD1817815290CDA1129F2
:100C600008D0132908D1C2784168121FD2B20830C7
:100C700000F092B900F03AB8704770470C4810B5D0
:100C800090F82C10002000F01DFA0A480068007A45
:100C9000082802D0092809D006E007494FF48050FF
:100CA0000880064910200880002010BD012010BDDA
:100CB0005C000020E4000020F2000020F40000208E
:100CC00010B5012000F07CFD0648012101600021E3
:100CD000054A0160031D19604FF4E0511180016065
:100CE000002010BD405C0040F000002000B591B035
:100CF00040216846FFF70FFA0C480268001D0068A3
:100D00000A490831096845F6A523ADF800301223D9
:100D10008DF80230CDE902010C238DF803300192E9
:100D20001021684600F0C2FD11B000BDE8F7FF1FBA
:100D3000034A516821F4404101435160704700006B
:100D400000100240044A0029D16901D0014300E0AB
:100D50008143D1617047000000100240044A00291D
:100D6000916901D0014300E0814391617047000027
:100D7000001002400E480021C1600161142242614E
:100D80008161C161026842F0010202604268094B60
:100D90001A4042600268084B1A400260026822F45E
:100DA00080220260426822F4FE0242608160704745
:100DB000001002400000FFF8FFFFF6FE204A10B5C9
:100DC0005168204B11F00C0103D0042901D00829EF
:100DD00001D0036011E05168022301F4701103EBAC
:100DE0009141536813F4803F02D053689B0301D5AF
:100DF000154B00E0134B594301605168134B01F050
:100E0000F00109095C5C0168E1404160546804F448
:100E1000E064240A1C5D21FA04F48460546804F43C
:100E20006054E40A1B5DD940C1605268074B02F46C
:100E30004042920B1B1F9A5CB1FBF2F1016110BDA5
:100E40000010024000127A0000093D00222700082D
:100E5000034600205909094A01290AD002290AD06B
:100E6000516A03F01F02012393400B4200D001207E
:100E700070471168F5E7116AF3E7000000100240BF
:100E80000248406800F00C0070470000001002406B
:100E9000034A516821F0F00101435160704700009E
:100EA000001002400B490A6822F480320A600A6886
:100EB00022F480220A60B0F5803F07D0B0F5802F81
:100EC00003D1086840F4A02008607047086840F427
:100ED0008030F9E7001002400149086070470000C7
:100EE0000000424270470000034A516821F4E0616B
:100EF000014351607047000000100240034A5168EE
:100F000021F4605141EAC000506070470010024077
:100F1000014908667047000000004242034B5A68CE
:100F2000084322F47C1210435860704700100240BE
:100F3000034A516821F003010143516070470000EA
:100F4000001002400149086070470000D80042428A
:100F500010B50A4C3120FFF77BFF20706068401C01
:100F60006060207810B96068FF28F3D13120FFF766
:100F70006FFF002800D0012010BD0000F800002005
:100F80007047704710B5002302E0C45ACC529B1C36
:100F90009342FAD310BD00002DE9F047814629485D
:100FA00092460E182848B6B00024016842684908E5
:100FB000806801EB920101EBD0003390234834901C
:100FC000254610A933A801F0D5F915E009EB04076F
:100FD000301980460822394600F0BBFD082230A9AE
:100FE0004046FFF7CFFF0822394630A8FFF7A7F8A1
:100FF00008B16D1CADB208345445E7DB45F6A520B9
:10100000ADF8000014208DF802000C208DF80300CC
:1010100001A9002061C16DB109EB040050F8081C62
:10102000049150F8040C0590DDE93001CDE906018A
:10103000202100E01021684600F038FC36B0BDE801
:10104000F087000000700208180100202001A55A56
:101050007047704770470000024920F007000860A1
:1010600070470000505C0040F0B50C490C4E48F64B
:101070008F770D78002108E0CBB206EB830214686D
:10108000A4B23C401C431460491CA942F4D3044957
:1010900040F080004C310860F0BD0000AC00002042
:1010A000005C0040054A21F00101126892B202EB97
:1010B000C000034A02EB400081607047505C004072
:1010C000006000400D4A12683E2992B202EBC00057
:1010D0000B4A02EB400209D94809C90601D1401E5A
:1010E00080B24FF4004141EA802005E04808C9077A
:1010F00001D0401C80B2800210607047505C0040FC
:101100000C600040094A02EB800210684BF68F73B6
:1011100080B200EA0300CB0401D580F4805089043A
:1011200001D580F40050106070470000005C004062
:10113000054901EB800001684BF68F7289B21140BE
:1011400081F4405101607047005C0040054A21F085
:101150000101126892B202EBC000034A42F810107B
:1011600070470000505C004000600040044A126874
:1011700092B202EBC000034A02EB400041607047AC
:10118000505C004000600040094A02EB8002106899
:1011900048F6BF7380B200EA0300CB0601D580F0A9
:1011A0001000890601D580F0200010607047000013
:1011B000005C0040054901EB8000016848F6BF7201
:1011C00089B2114081F0300101607047005C00403D
:1011D000054A02EB8000026848F68F1392B21A406B
:1011E0000A43026070470000005C004010B5002018
:1011F000FFF7A8FE0121BDE81040C805FFF7A2BD1A
:1012000070B516480068174D81B2154800EB4101D2
:10121000896889B200EB41042868017A09290FD056
:101220002178017061784170A088FEF7FAFF296883
:1012300048802089FEF7F5FF29688880A089C8804A
:10124000286801210172C08828B1FFF779F9BDE84B
:101250007040FFF713BDFFF75FFCF8E7505C0040FC
:1012600000600040E400002070B532480168087852
:1012700010F07F0002D0022805D059E0487A00F033
:10128000DF00487245E04888002851D10879E8BB62
:101290004A792A4C22F080001306274D54F820305A
:1012A00003D5C3F301131B0102E0C3F301331B0396
:1012B0002E78054686423BD943B3897A31B311066D
:1012C0000ED554F82010C1F3011101291BD1E8B249
:1012D0000446FFF775F830212046FFF755FF12E06E
:1012E00004EB80052968C1F3013101290BD14BF6CC
:1012F0008F7680B1C0B2FFF751F8286880B23040D5
:1013000080F4405028600E48006800E010E040691A
:101310008047002070BD0B4890F82C100020FFF78C
:10132000D1FE206880B2304080F440502060EAE76F
:10133000022070BDE4000020AC000020005C0040F2
:10134000EC0000205C00002010B5074C30B10748CD
:1013500000680068804720680A3010BD21680120BD
:101360000882002010BD0000E4000020EC000020F6
:10137000054A13685A8A10B1086810447047888873
:10138000801A188200207047E400002010B5074C36
:1013900030B1074800688068804720680C3010BD75
:1013A000216801200882002010BD0000E400002018
:1013B000EC0000201E4910B5096860B11D480022EC
:1013C00002800A7853060AD002F07F02012A13D065
:1013D000022A13D001E002200882002010BD497AC1
:1013E0008A0603D5027842F002020270490610D440
:1013F000017801F0FE010FE00E4810BD4A7902F0BD
:101400000F0113060C4A52F8211007D5C1F3011140
:1014100006E0017841F00101017003E0C1F3013100
:101420000129F6D00548006800698047E4E700001C
:10143000E4000020E0000020005C0040EC00002000
:101440000A4810B500680A4AC1785278914203D818
:1014500082780AB982880AB1022010BD81720548DB
:10146000006840688047002010BD0000E4000020B4
:10147000AC000020EC000020064810B50068417A5E
:1014800041F02001417204480068C0698047002093
:1014900010BD0000E4000020EC00002070B51B48E7
:1014A00002681B48517921F0800500EB85000B068E
:1014B000036821F0800403D5C3F301131B0102E08C
:1014C000C3F301331B03134D2D78A5420FD9548864
:1014D0006CB963B1927A52B109060029016889B2E8
:1014E00007DA48F6BF72114081F0100106E00220D1
:1014F00070BD4BF68F72114081F480510160064837
:10150000006880698047002070BD0000E400002072
:10151000005C0040AC000020EC00002010B50E4C38
:101520000E4A20681268C178926940799047216814
:101530008A7A22B118B9087908B9887808B10220E6
:1015400010BD07480068C068804720684179C172B3
:10155000C1780173002010BDE4000020E8000020E5
:10156000EC00002070477047704770477047704725
:10157000704770477047000070B5084D40F2255421
:101580002146284600F094F8002805D02146284638
:10159000BDE8704000F006B870BD000000380140A2
:1015A00070477047090A01228A40018891430180EF
:1015B00070470029818902D041F4005101E021F4F3
:1015C000005181817047000010B5224C22492268E9
:1015D000A2F59660884224D221792048002321B1C7
:1015E000012904D002291CD104E0C38005E04FF496
:1015F000405101E04FF40051C180617921B10129CE
:1016000004D002290DD104E0038105E04FF480618C
:1016100001E04FF4C0610181A179072905D00829B3
:1016200005D000F01FF8002010BD838002E04FF4C9
:1016300080518180026043810C218181084C0749DF
:10164000204600F06DF801212046FFF7B2FF01208F
:1016500010BD00004400002051BD01000001002029
:101660000038014010B510484FF4E1314FF4C0622A
:10167000016000218180C180028141810C22828130
:10168000C18101824FF4007242828182074C01467F
:10169000204600F045F82046BDE81040012240F207
:1016A000255100F024B8000000010020003801405E
:1016B00070B501F01F0601250024C1F3421305FA9D
:1016C00006F2012B0FD0022B0FD0838A4FEA112193
:1016D0000088134205FA01F500EA050001D000B1C7
:1016E0000124204670BD8389F0E7038AEEE710B538
:1016F000C1F3421301F01F040121A140012B07D0C7
:10170000022B07D01430002A026805D00A4304E0F7
:101710000C30F8E71030F6E78A43026010BD000095
:1017200030B50C46018A85B005464CF2FF000140F9
:10173000E088E289638A1043228A1A431043A28A0E
:10174000104308432882A9894EF6F3100140A0886F
:1017500022891043A2890A431043A881A98A4FF61F
:10176000FF40014060890843A8826846FFF726FBD6
:101770001148854201D1039800E00298642200EBF1
:10178000C00101EB001021686FF018048900B0FB64
:10179000F1F0B0FBF2F109010B09634300EB8300A8
:1017A000322303EB0010B0FBF2F000F00F0008430F
:1017B000288105B030BD00000038014070470000AE
:1017C000044A00284FF40071104601D0FFF773B8A7
:1017D000FFF773B800140140704700000648054940
:1017E000022201600A72064A0449C0E9011208682F
:1017F0000047000064040020E40000205C0000209A
:10180000B000002038B500214FF00060FFF77AF9F2
:101810004FF4C060FFF76CF914208DF80000002031
:101820008DF801008DF8020001248DF80340684610
:10183000FFF720F925208DF800008DF8014068465B
:10184000FFF718F938BD000070B5134D2868134C28
:1018500060806088124E31880840400505D54FF6FB
:10186000FF3028600F484068804761883088014019
:10187000890506D54FF6FF512960217801F1010154
:101880002170618801EA0001080403D5BDE87040B9
:10189000FEF7CEBC70BD0000445C0040020000209A
:1018A000F00000205C000020FFF7CEBF70B50F4DA8
:1018B00000244029296001D9402129608AB2C02131
:1018C00000F018F8286881B20120FFF74FFC0120D2
:1018D000FFF770FC4EF66020296801E0641CA4B29A
:1018E000002901D08442F9D370BD0000DC00002043
:1018F000FEE70000084B10B5521C520803EB4101F3
:1019000008D003784478801C43EA042321F8043B80
:10191000521EF6D110BD000000600040104A10B504
:1019200000211268212802D0202807D016E0107864
:1019300000F07F00212811D10A4908E0107800F05A
:101940007F00212800D10849084B2020187029B1B8
:101950000020916150828847002010BD022010BDF8
:10196000E400002089190008C11A00084000002086
:101970000149FFF7FDBC0000540000200149FFF7BA
:10198000F7BC00004C00002008B10448704704492F
:1019900008200968088200207047000044000020E9
:1019A000E40000200349044A0968C97802EBC10138
:1019B000FFF7DEBCE40000208C00002009B90128FC
:1019C00001D90220704700207047000007490968CC
:1019D000097801F07F01212903D1022803D02228B0
:1019E00001D002207047002070470000E400002072
:1019F000314810B5006800218172C1720846FFF7B6
:101A00002BFB4FF400710020FFF7E2FB10210020B8
:101A1000FFF7BAFB40210020FFF744FB80210020A4
:101A2000FFF794FB0020FEF7DDFC244890F82C1013
:101A30000020FFF747FB0020FFF77AFB0021012081
:101A4000FFF7C6FBC0210120FFF780FB202101200A
:101A5000FFF79AFB00210120FFF754FB4FF4C06110
:101A60000220FFF7B5FB4FF480710220FFF76EFBF9
:101A700000210220FFF746FB20210220FFF784FB14
:101A800000210320FFF7A4FB4FF488710320FFF728
:101A900009FB40210320FFF715FB4FF440510320C1
:101AA000FFF730FB00210320FFF76EFBBDE810407D
:101AB0000020FFF7D9BA0000E40000205C000020FD
:101AC00008B10448704704490820096808820020CA
:101AD0007047000044000020E400002010B5044CD2
:101AE0002078202803D1FFF76FFD0020207010BD63
:101AF000400000207047000070B5104C00252068A1
:101B00008572FFF7DDF80E4805600E494FF4064078
:101B100008800B49091F08600B482168C07948728A
:101B2000FFF7A0FD01E0FEF7A3FF2068807A002800
:101B3000F9D006490520087070BD0000E4000020BF
:101B4000445C0040F0000020EE250008D400002096
:101B500070472DE9F0470025074691460E462C4672
:101B600014E007EB04085FEA485002D14046FEF754
:101B7000CBFD315B4046FEF709FE0146385B325B28
:101B80006D1C824201D0052DF3DBA41C4C45E8D32B
:101B90000846BDE8F08700000FB4084B10B504A953
:101BA00002AA039800F01CF8044602A9002000F0E5
:101BB00052FA204610BC5DF814FB000057200008C4
:101BC00002E008C8121F08C1002AFAD17047704706
:101BD000002001E001C1121F002AFBD17047000064
:101BE0002DE9FF4F8DB005460F460026E9E1252877
:101BF00079D100246D1CF74AA246A14601212B7819
:101C0000203B01FA03F0104202D004436D1CF6E7BA
:101C100028782A2810D06FF02F022878A0F1300100
:101C2000092915D80AEB8A0102EB410144F00204AC
:101C300000EB010A6D1CF0E757F804ABBAF1000F96
:101C400003DA44F40054CAF1000A44F002046D1CA3
:101C500028782E2817D115F8010F44F004042A28FB
:101C60000ED06FF02F022878A0F1300109290AD890
:101C700009EB890102EB410100EB01096D1CF2E760
:101C800057F8049B6D1C28786C280FD006DC4C2874
:101C900017D068280DD06A2814D104E0742810D019
:101CA0007A280FD10DE044F400140AE044F48014C3
:101CB00001E044F440146978814202D16D1C04F5BE
:101CC00080146D1C95F800C0BCF16E0F2AD012DC98
:101CD000BCF1630F3CD007DCBCF1000F76D0BCF147
:101CE000580F19D1A7E018E0BCF1640F6FD0BCF118
:101CF000690F11D16BE0BCF1730F32D006DCBCF17F
:101D00006F0F71D0BCF1700F06D196E0BCF1750F6A
:101D10006BD0BCF1780F69D06046DDE90F129047B7
:101D2000761C4DE1C4F30250022806D003280AD0E5
:101D3000042801CF0AD0066042E101CF4FEAE671E4
:101D4000C0E900613CE101CF068039E1067037E16E
:101D500001CF8DF8000000208DF80100EB46012036
:101D600003E057F804BB4FF0FF3061074FF000016C
:101D700002D40DE008F10101884649450FDA80459B
:101D8000F8DB1BF808100029F4D108E008F1010184
:101D900088468142FADB1BF808100029F6D1DDE9FC
:101DA0000F23AAEB08008146214600F03CF930449D
:101DB00000EB080604E0DDE90F121BF8010B904769
:101DC000B8F10108F7D221464846F4E0FDE00A21C7
:101DD000C4F302524FF0000B0891022A07D001CF42
:101DE000C117032A09D00AE030E022E023E0FF1DFA
:101DF00027F00707F7E8020105E000B2C117042A3F
:101E000001D140B2C117002906DA0023D0EB03004C
:101E100063EB01012D2202E0220504D52B228DF86F
:101E20002420012203E0E20701D02022F7E79046B8
:101E30004EE00A210BE0102109E010214FF0000BC9
:101E400044F004044FF00809089103E008214FF022
:101E5000000B0891C4F30252022A04D001CF0021E2
:101E6000032A06D007E0FF1D27F00707F7E8020165
:101E700005E080B20021042A01D1C0B200214FF058
:101E80000008220724D5BCF1700F29D0089B83F0ED
:101E9000100353EA0B0309D150EA010206D03022A5
:101EA0008DF824208DF825C002229046089B83F0EF
:101EB000080353EA0B030BD150EA010201D1620778
:101EC00006D530228DF824204FF00108A9F1010930
:101ED000BCF1580F09D040A20B9208AA0A9211E057
:101EE00040228DF824200122DFE740A2F4E75B4680
:101EF000089AFEF731F90B9B9B5C0A9AA2F101024A
:101F00000A92137050EA0102F1D10A98ADEB000079
:101F100000F1200B600702D524F4803401E04FF07B
:101F20000109D94502DDA9EB0B0000E0002000EB20
:101F30000B0141440890AAEB01000B90E00306D48A
:101F4000DDE90F2321460B9800F06DF806444FF0B1
:101F500000090DF1240A07E0DDE90F121AF8090063
:101F60009047761C09F10109C145F5DBE0030CD56A
:101F7000DDE90F2321460B9800F055F8064404E0F4
:101F8000DDE90F1230209047761C0899481E089012
:101F90000029F5DC08E00A980A990078491C0A91A2
:101FA000DDE90F129047761CBBF10001ABF1010B8C
:101FB000F1DC0B982146DDE90F2300F021F80644FF
:101FC0006D1C287800287FF412AE11B03046BDE8B1
:101FD000F08F0000092801003031323334353637B4
:101FE0003839616263646566000000003031323365
:101FF0003435363738394142434445460000000005
:102000002DE9F0410446002517461E46880405D4F4
:1020100006E039462020B04705F10105641EF8D5D9
:102020002846BDE8F0812DE9F041044600259046A0
:102030001E46C80301D5302700E02027880405D5B7
:1020400006E041463846B04705F10105641EF8D563
:102050002846BDE8F0810A68531C0B601070704779
:102060002DE9F04F9B46A4B092460023C04E1A467D
:102070006D46875C0021745C3C4000D001245B1CF1
:10208000DBB2491CC9B2EC540829F4D3521CD2B2B9
:10209000082AEED300200DF14C092A46115C09F8FC
:1020A0000010401CC0B24128F8D3B14901200831CA
:1020B0000B5C19F803301354401CC0B24128F7D30D
:1020C0000024234601204D46111891F82010295470
:1020D000401CC0B22128F7D39DF825008DF844009C
:1020E0009DF829008DF845009DF82D008DF84600DB
:1020F0009DF831008DF847009DF835008DF84800B7
:102100009DF839008DF849009DF83D008DF84A0092
:102110009DF821008DF84B009DF820809DF840002F
:102120008DF820000027D119F01991F820C080788F
:10213000BCF1000F05D09DF844C04CEA000C8DF8AE
:1021400044C091F824C0BCF1000F05D09DF845C0F3
:102150004CEA000C8DF845C091F828C0BCF1000F86
:1021600005D09DF846C04CEA000C8DF846C091F8A9
:102170002CC0BCF1000F05D09DF847C04CEA000C04
:102180008DF847C091F830C0BCF1000F05D09DF824
:1021900048C04CEA000C8DF848C091F834C0BCF13E
:1021A000000F05D09DF849C04CEA000C8DF849C0DD
:1021B00091F838C0BCF1000F05D09DF84AC04CEA38
:1021C000000C8DF84AC091F83C1021B19DF84B10DD
:1021D00001438DF84B107F1CFFB2052FA3D32021A4
:1021E0008DF820800020491CC9B2401C5354491C62
:1021F000C9B2C0B25354491CC9B25354491CC9B2E4
:1022000008285354EFD39DF821009DF830108DF825
:1022100021109DF82A108DF830109DF82F108DF8A0
:102220002A109DF83F108DF82F109DF824108DF87E
:102230003F109DF835108DF824109DF840108DF852
:1022400035109DF839108DF840109DF833108DF839
:1022500039109DF838108DF833109DF829108DF83D
:1022600038108DF829009DF822009DF827108DF870
:1022700022109DF83C108DF827109DF826108DF83F
:102280003C109DF82C108DF826109DF83A108DF812
:102290002C109DF82D108DF83A109DF825108DF812
:1022A0002D109DF83D108DF825109DF836108DF8F5
:1022B0003D109DF83B108DF836109DF83E108DF8BE
:1022C0003B109DF82B108DF83E109DF837108DF8BF
:1022D0002B109DF823108DF837109DF834108DF8D1
:1022E00023109DF82E108DF834109DF832108DF8C3
:1022F0002E109DF828108DF832109DF831108DF8B1
:1023000031008DF828100120111812F800C011F8C2
:10231000207F87EA0C070F70295C1154401CC0B263
:102320002128F1D3641CE4B2102CFFF4CBAEDFF80B
:10233000408000245946254608F149080B700020CA
:1023400018F80470641CE4B2D75D2FB10F7816F84A
:1023500000C047EA0C070F70401CC0B20828EFD33A
:102360006D1C491CEDB2082DE8D324B0BDE8F08FF8
:10237000952600082DE9F04391B000231B4D8946B6
:102380001A46EC46865C00216C5C344000D0012487
:102390005B1CDBB2491CC9B20CF803400829F3D31B
:1023A000521CD2B2082AEDD3114A0024A0460020C4
:1023B00009EBC403022103F8008012F8016B1CF83A
:1023C00006601EB11E5C6F5C3E431E54491CC9B2C0
:1023D0000829F2D3401CC0B20828EBD3641CE4B235
:1023E000102CE4D311B0BDE8F0830000952600085E
:1023F00064010020B6B00024FEF7C4FAFEF7F6FE32
:10240000FFF700FAFFF7EAF90120FEF765FDFEF796
:10241000E5F93420FEF772F9DFF840A14FF4E04906
:1024200049465046FEF749FA4D4801684D4801605B
:102430004B49091D09684160494908310968DFF8BD
:1024400028814A4F4A4D00268160402120A8FDF78F
:1024500062FE641C44450CD9002246A120A8FFF767
:102460009BFB20A8FDF763FE014620A8FFF71EFA9C
:10247000002428680028E8D03878002401280BD1EF
:1024800081035046FEF717FA41A0FDF750FE0146C2
:102490003FA0FFF70BFA2E60387802280BD1C1025B
:1024A0005046FEF708FA3DA0FDF741FE01463BA06D
:1024B000FFF7FCF92E60387803280CD14FF4005157
:1024C0005046FEF7F8F938A0FDF731FE014636A078
:1024D000FFF7ECF92E60387804280BD149465046B6
:1024E000FEF7EBF933A0FDF722FE014631A0FFF71E
:1024F000DDF92E603878312829D131A0D0E90010DB
:10250000CDE93310694633A8FFF734FF38683090BF
:102510007868319033AB0122694630A8FFF7A0FDFF
:102520002AA030ABD0E90010CDE930100022694676
:1025300033A8FFF795FD30A8FDF7F9FD014630A857
:10254000FFF7B4F9012124A0FFF7B0F92E60074886
:102550002968FEF77CFB2E6077E70000000C014045
:10256000E8F7FF1F1801002040420F00240100205F
:10257000D800002077616974696E6720666F7220E9
:10258000636F6D6D616E64282564293A0000000058
:102590004C45443120B5E3C1C10D0A004C454432DD
:1025A00020B5E3C1C10D0A004C45443320B5E3C159
:1025B000C10D0A004C454420C8ABC3F00D0A000011
:1025C0003031323334353637380000003030303077
:1025D00030303030000000000A000000120100021C
:1025E0000200004083044057000101020301090278
:1025F0004300020100C000090400000102020100C2
:102600000524001001052401000104240202052410
:10261000060001070582030800FF09040100020A01
:10262000000000070503024000000705810240008A
:1026300000040309041803510069006E004A006990
:1026400000610020005400650063006800320353FD
:102650000054004D0033003200200043006F006E34
:1026600000740072006F006C00200042006F006177
:102670000072006400200050006F007200740016A9
:1026800003440065006D006F00200031002E003013
:1026900000300030008040201008040201003A326F
:1026A0002A221A120A023C342C241C140C043E3632
:1026B0002E261E160E0640383028201810083931F4
:1026C0002921191109013B332B231B130B033D3522
:1026D0002D251D150D053F372F271F170F0708281C
:1026E00010301838204007270F2F17371F3F0626B6
:1026F0000E2E16361E3E05250D2D15351D3D0424C6
:102700000C2C14341C3C03230B2B13331B3B0222D5
:102710000A2A12321A3A01210929113119390204FF
:10272000060800000000010203040102030406077A
:1027300008090000542700080000002000010000E4
:10274000C01B00085428000800010020800700007A
:10275000D01B00080000000000000000B5060008C3
:10276000710A0008710A0008710A0008710A00085D
:10277000710A0008710A0008710A0008710A00084D
:10278000C1060008710A0008710A0008710A0008F1
:10279000710A00080000000000C2010000000800EB
:1027A000DC25000812000000EE25000843000000B0
:1027B000F91A0008F1190008DD1A0008F51A0008D6
:1027C0001D190008CD190008BD1900087D19000861
:1027D00071190008A5190008000000004000000061
:1027E000312600080400000035260008180000000B
:1027F0004D260008320000007F2600081600000069
:1028000004010000710A0008710A0008710A00083A
:10281000710A0008710A0008710A0008710A0008AC
:10282000710A0008710A00080000000000000000A2
:102830000000000000000000000000000000000098
:102840000000000000000000000000000000000088
:042850000000000084
:04000005080000ED02
:00000001FF
