:020000040800F2
:1000000008040020D50000089D0100089B0100089D
:1000100000000000000000000000000000000000E0
:10002000000000000000000000000000B90100080E
:1000300000000000000000009F01000855020008B9
:10004000E7000008E7000008E7000008E7000008F4
:10005000E7000008E7000008E7000008E7000008E4
:10006000E7000008E7000008E7000008E7000008D4
:10007000E7000008E7000008E7000008E7000008C4
:10008000E7000008E700000800000000E7000008A3
:10009000E7000008E7000008E7000008E7000008A4
:1000A000E7000008E7000008E7000008E700000894
:1000B000E700000800000000E70000080000000062
:1000C0000348854600F014F800480047D9020008AC
:1000D000080400200448804704480047FEE7FEE784
:1000E000FEE7FEE7FEE7FEE759020008C100000850
:1000F000064C0125064E05E02046E36807C82B4361
:1001000098471034B442F7D3FFF7DEFF240300080A
:100110004403000806E00021491C89B26429FBD38E
:10012000401E80B20028F6D17047F0B500220124AD
:1001300023460D6893401D409D422AD10D79012D23
:1001400001D0022D12D1876855000326AE40B74377
:1001500087604E79AE4085682E43866085889D43D2
:10016000858085888B7993401D438580066855007E
:100170000323AB409E4306600E790768AE403E43C2
:100180000660C6689E43C660CB79AB40C5682B430A
:10019000C360521C102ACBD3F0BDFEE770477047F6
:1001A000044A0029516901D0014300E081435161B3
:1001B0007047000000100240704700001CB500218D
:1001C000224801910091026801231B041A43026036
:1001D0005B000522120204681C400094019C641C10
:1001E0000194009C002C02D1019C9442F3D102683E
:1001F000920328D501210091154A1121116041680F
:1002000041604168416041683F221204914341606E
:100210004168112212041143416001680122120653
:100220001143016001688901FCD541688908890092
:100230004160416802221143416041680907890F0A
:100240000229FAD11CBD00911CBD00000010024023
:10025000002002407047000010B5144801680122D8
:10026000114301604168124A114041600168114A1E
:1002700011400160016801229204914301604168CC
:100280003F22120491434160C16A09090901C16218
:10029000016BFF22543291430163416B49084900CD
:1002A000416300218160FFF789FF10BD001002400B
:1002B0000CB8FFF8FFFFF6FE02E008C8121F08C1E5
:1002C000002AFAD170477047002001E001C1121FD7
:1002D000002AFBD17047000001218804FFF760FF6E
:1002E0000D48022401210460017100218171032263
:1002F0004271C171094D01462846FFF716FF074BB1
:10030000074A2033AC611046FFF704FF1C811046FA
:10031000FFF700FFF6E7000000000020000400489F
:10032000204E0000440300080000002008000000E8
:10033000B80200084C030008080000200004000078
:0C034000C80200080000000000000000DF
:04000005080000C12E
:00000001FF
