:020000040800F2
:100000002816002039110008C5080008C708000894
:10001000CB080008CF080008D30800080000000043
:10002000000000000000000000000000D7080008E9
:10003000D908000800000000DB080008DD080008FF
:100040005311000853110008531100085311000800
:1000500053110008531100085311000853110008F0
:1000600053110008531100085311000853110008E0
:1000700053110008531100085311000853110008D0
:1000800053110008531100085311000853110008C0
:1000900053110008531100085311000853110008B0
:1000A00053110008531100085311000853110008A0
:1000B0005311000853110008531100085311000890
:1000C0005311000853110008531100085311000880
:1000D0005311000853110008531100085311000870
:1000E0005311000853110008531100085311000860
:1000F0005311000853110008531100085311000850
:10010000531100085311000853110008531100083F
:10011000531100085311000853110008531100082F
:10012000531100085311000853110008531100081F
:1001300000F002F800F05CF80AA090E8000C82449D
:100140008344AAF10107DA4501D100F051F8AFF27A
:10015000090EBAE80F0013F0010F18BFFB1A43F0A5
:1001600001031847D0330000F03300000A444FF079
:10017000000C10F8013B13F0070408BF10F8014B06
:100180001D1108BF10F8015B641E05D010F8016B4B
:10019000641E01F8016BF9D113F0080F1EBF10F8AF
:1001A000014BAD1C0C1B09D16D1E58BF01F801CBD2
:1001B000FAD505E014F8016B01F8016B6D1EF9D555
:1001C0009142D6D37047000000230024002500266A
:1001D000103A28BF78C1FBD8520728BF30C148BFAA
:1001E0000B6070471FB501F02CFE1FBD10B510BD90
:1001F00001F0EDFD1146FFF7F5FF00F035FB01F0D2
:100200000BFE03B4FFF7F2FF03BC01F013FE000086
:1002100010B502464FF0010000E050430B00A1F181
:100220000104E1B2F9D110BD024600BF108910F0FF
:10023000020FFBD0918100BF108910F0010FFBD09D
:100240009089C0B2704700B503461946FF48FFF7D2
:10025000EBFF00BD10B504464FF01001FC4801F063
:10026000A7F82046FFF7EFFF10BD10B504464FF08A
:100270001001F74801F09CF82012FFF7E4FFE0B20C
:10028000FFF7E1FF10BD10B504464FF01001F04834
:1002900001F090F82046FFF7D6FF10BD70B5044678
:1002A0000D46E0B2FFF7EFFFA8B2FFF7DEFF70BD2B
:1002B0002DE9F04104460D4616461F464FF02A0030
:1002C000FFF7E1FF2012FFF7C5FFE0B2FFF7C2FF23
:1002D0003012FFF7BFFFF0B2FFF7BCFF2B20FFF794
:1002E000D2FF2812FFF7B6FFE8B2FFF7B3FF3812CC
:1002F000FFF7B0FFF8B2FFF7ADFF2C20FFF7C3FF09
:10030000BDE8F0812DE9F04104464FEA242704F0CE
:10031000FF084FF09F034FF07F024FF000010846A7
:10032000FFF7C6FF4FF0000510E04FF0000608E0B1
:100330003846FFF78FFF4046FFF78CFF06F10100BC
:1003400086B2A02EF4DB05F1010085B2802DECDB36
:10035000BDE8F0812DE9F84F80460D4691461E46D6
:10036000AA46BC480788A9F1200000F0FF0905F162
:100370000F0083B208F1070082B229464046FFF71A
:1003800097FF0A9800284FD104464AE00C2E07D167
:1003900009EB4900B04901EB800010F804B004E01B
:1003A000AE4800EB091010F804B04FF000000090C8
:1003B00030E01BF0010F02D0A648078003E0A848F8
:1003C0000088A4490880A3480088FFF74EFF4FEA41
:1003D0006B0B05F1010085B2A248C088A84203DC7E
:1003E0009C480780BDE8F88FA5EB0A00B0420CD10D
:1003F000554608F101001FFA80F89A488088404568
:1004000002DC94480780EDE707E0009800F1010066
:10041000C0B2009000980828CBDB00BF04F10100B7
:10042000C4B2B442B2DB4EE04FF0000449E00C2EFF
:1004300007D109EB4900884901EB800010F804B0AE
:1004400004E0864800EB091010F804B04FF00000FB
:1004500000902FE01BF0010F02D07E48078003E0E0
:100460007F4800887B4908807A480088FFF7FDFEB6
:100470004FEA6B0B05F1010085B27A48C088A842AB
:1004800002DC74480780ADE7A5EB0A00B0420CD14E
:10049000554608F101001FFA80F8724880884045EF
:1004A00002DC6C4807809DE707E0009800F101003E
:1004B000C0B2009000980828CCDB00BF04F1010016
:1004C000C4B2B442B3DB6348078000BF8AE710B50B
:1004D00002464FF0010000E050430B00A1F101047F
:1004E000E1B2F9D110BD2DE9FF4F81B00746914629
:1004F0001E460E9D4FF0000A54463DE0301B401E44
:10050000C1B20A20FFF7E3FFB9FBF0F04FF00A0198
:10051000B0FBF1F201FB120000F0FF08BAF1000F8E
:1005200016D1701EA04213DDB8F1000F0ED10020CD
:10053000AB4605EBDB71491001FB0471009088B2FA
:100540002B4620220299FFF705FF12E04FF0010A27
:100550000020AB4605EBDB71491001FB04710090F4
:1005600088B22B4608F13001CAB20299FFF7F2FEB9
:1005700000BF04F10100C4B2B442BFDB05B0BDE866
:10058000F08F2DE9FF4F83B0064692461F46DDE906
:1005900010484FF000000290054652E0781B401EC4
:1005A000C1B20A20FFF793FFBAFBF0F04FF00A0147
:1005B000B0FBF1F201FB120000F0FF09029858BBFA
:1005C000781EA84228DDB9F1000F22D118F0800F63
:1005D0000FD008F00100A34604EBDB71491001FBCA
:1005E0000561009088B2234630220499FFF7B2FEDD
:1005F0000EE008F00100A34604EBDB71491001FB9B
:100600000561009088B2234620220499FFF7A2FEDC
:1006100014E04FF00100029008F00100A34604EB43
:10062000DB71491001FB0561009088B2234609F196
:100630003001CAB20499FFF78DFE00BF05F1010039
:10064000C5B2BD42AADB07B0BDE8F08F0030014063
:1006500000100140980F0020D02A0008442F000805
:100660009A0F0020B80F00202DE9F84F04460D46E0
:1006700090469946DDE90A6704F0FF0A08EB04009A
:100680001FFA80F809EB05001FFA80F918E04445CD
:1006900003DB544605EB060085B24D4500DB15E053
:1006A000012000903A78334629462046FFF752FE53
:1006B000304606EBD07104EB61018CB207F1010703
:1006C00038787E2802DC38782028E0DA00BFBDE8E0
:1006D000F88F2DE9F04704460D461746DFF8B48140
:1006E00005F11F0083B204F11F0082B2A9B2A0B2CB
:1006F000FFF7DEFD08EBC7184FF000091DE04FF0D3
:10070000000612E098F80000012101FA06F1084203
:1007100004D061480088FFF7A8FD03E05F48008827
:10072000FFF7A3FD06F10100C6B2082EEADB08F1CF
:10073000010809F1010000F0FF09B9F1800FDEDBCB
:10074000BDE8F0871CB54FF47840FFF7DBFD4FF4B0
:100750007A7000F078FC4FF4FC60FFF7D3FD4FF4A3
:100760007A7000F070FC1F20FFF7CCFD4FF47A7018
:1007700000F069FC4FF6FF70FFF7C4FD4FF6E07024
:10078000464908804FF47840434908804FF0000202
:100790004FF005010846FFF79CFF012205212520A7
:1007A000FFF797FF4FF6E0703C4908804FF4784020
:1007B000394908803AA04FF010010B464FF0C802AB
:1007C000CDE900104FF032014FF00500FFF74CFF6C
:1007D0001CBD2DE9F041FFF7B5FF4FF0020630E0F8
:1007E0004FF0000529E006EB8607FF002737BBB274
:1007F00005EB8507FF002737BAB206EB8607FF0433
:10080000390C05EB8507FF04380CFFF751FD4FF05D
:1008100000040DE0012101EB4401264A505CFFF782
:1008200019FD244911F81400FFF714FD04F1010427
:10083000B4F5C86FEEDB05F10105032DD3DB06F13E
:100840000106042ECCDBBDE8F08110B504464FF064
:10085000010019490860204600F0F5FB4FF0000048
:100860001649C1F8B00110BD4FF0A0001449C8806E
:100870004FF08000888000F0ABFB00F013FC00F02C
:100880001FF900F0FCFA00F055F9FFF7A2FF00BFD6
:10089000FEE70000800C0020980F00209A0F002037
:1008A0007466746D63752E74616F62616F2E636F11
:1008B0006D00000000000020B00122420000224232
:1008C000B80F0020704700BFFEE700BFFEE700BF83
:1008D000FEE700BFFEE770477047704770470000B3
:1008E0004FF0000108466D4A126842F480326B4BAB
:1008F0001A6000BF694A126802F4003001F1010178
:1009000010B9B1F5A06FF5D1644A126812F4003F36
:1009100002D04FF0010001E04FF00000012842D169
:100920005F4A126842F010025D4B1A601A46126864
:1009300022F003021A601A46126842F002021A609C
:10094000564A5268554B5A601A4652685A601A46BF
:10095000526842F480625A601A46526822F47C124D
:100960005A601A46526842F4E8125A601A461268EF
:1009700042F080721A6000BF484A126812F0007F8D
:10098000FAD0464A526822F00302444B5A601A4693
:10099000526842F002025A6000BF404A526802F0B8
:1009A0000C02082AF9D1704710B5FFF799FF10BD66
:1009B00010B53A48006840F0010038490860084620
:1009C0004068384900EA0100344948600846006838
:1009D000354900EA0100314908600846006820F402
:1009E000802008600846406820F4FE0048604FF40C
:1009F0001F008860FFF7D8FF4FF000602B490860A8
:100A000010BD10B54FF0000108460246234B5B684D
:100A100003F00C0121B1042906D008292CD107E0EC
:100A2000234B244C23602BE0214B224C236027E0F6
:100A30001A4B5B6803F47010184B5B6803F4803248
:100A40004FF0020303EB90402AB91B4B00FB03F36A
:100A5000184C23600FE0114B5B6813F4003F05D086
:100A6000154B00FB03F3134C236004E0104B00FB19
:100A700003F3104C236003E00D4B0E4C236000BFCA
:100A800000BF064B5B68C3F303130C4CE15C094BDE
:100A90001B6823FA01F3074C236010BD00100240CD
:100AA000002002400000FFF8FFFFF6FE08ED00E026
:100AB00000127A00840F002000093D00880F0020FA
:100AC00008B50121582000F0C1FE4FF02000ADF81C
:100AD00000004FF010008DF803004FF003008DF878
:100AE00002006946104800F0A7FB20210E4800F0E4
:100AF0005FFC4FF02000ADF8000069460B4800F0A5
:100B00009BFB2021094800F055FC4FF48050ADF8C4
:100B100000006946064800F08FFB4FF480510448FE
:100B200000F048FC08BD0000000C01400018014026
:100B30000010014010B501217C4800F03BFC0A2068
:100B400000F081FA0121794800F032FC0A2000F01F
:100B50007AFA1021764800F02BFC0A2000F073FA94
:100B60001021734800F026FC1120FFF78CFB782041
:100B700000F069FAB120FFF786FB0520FFF76AFB5A
:100B80003C20FFF767FB3C20FFF764FBB220FFF738
:100B90007AFB0520FFF75EFB3C20FFF75BFB3C2068
:100BA000FFF758FBB320FFF76EFB0520FFF752FB62
:100BB0003C20FFF74FFB3C20FFF74CFB0520FFF7E5
:100BC00049FB3C20FFF746FB3C20FFF743FBB420EA
:100BD000FFF759FB0320FFF73DFBC020FFF753FB56
:100BE0002820FFF737FB0820FFF734FB0420FFF72E
:100BF00031FBC120FFF747FBC020FFF72BFBC220D2
:100C0000FFF741FB0D20FFF725FB0020FFF722FB3C
:100C1000C320FFF738FB8D20FFF71CFB2A20FFF7CE
:100C200019FBC420FFF72FFB8D20FFF713FBEE20ED
:100C3000FFF710FBC520FFF726FB1A20FFF70AFB82
:100C40003620FFF720FBC020FFF704FBE020FFF772
:100C50001AFB0420FFF7FEFA2220FFF7FBFA072019
:100C6000FFF7F8FA0A20FFF7F5FA2E20FFF7F2FA5D
:100C70003020FFF7EFFA2520FFF7ECFA2A20FFF7E4
:100C8000E9FA2820FFF7E6FA2620FFF7E3FA2E20FC
:100C9000FFF7E0FA3A20FFF7DDFA0020FFF7DAFA73
:100CA0000120FFF7D7FA0320FFF7D4FA1320FFF74C
:100CB000D1FAE120FFF7E7FA0420FFF7CBFA16207C
:100CC000FFF7C8FA0620FFF7C5FA0D20FFF7C2FAB2
:100CD0002D20FFF7BFFA2620FFF7BCFA2320FFF7ED
:100CE000B9FA2720FFF7B6FA2720FFF7B3FA252035
:100CF000FFF7B0FA2D20FFF7ADFA3B20FFF7AAFA75
:100D00000020FFF7A7FA0120FFF7A4FA0420FFF75D
:100D1000A1FA1320FFF79EFA3A20FFF7B4FA052054
:100D2000FFF798FA2920FFF7AEFA10BD000C01403A
:100D30000008014070B505464FF0000406E004F1DC
:100D40000100C4B2C82C01DD002070BD02219B4807
:100D500000F074FF0028F2D02946984800F014FFF4
:100D60004FF0000406E004F10100C4B2C82C01DD1C
:100D70000020EAE70121914800F060FF0028F2D04E
:100D80008E4800F003FFC0B2DFE700B587B0012155
:100D9000082000F05BFD0121880300F066FD4FF4A0
:100DA0006040ADF818004FF018008DF81B004FF0B0
:100DB00003008DF81A0006A9814800F03DFA4FF4AF
:100DC00060417F4800F0F4FA4FF00000ADF80400F5
:100DD0004FF48270ADF806004FF00000ADF8080047
:100DE0004FF00200ADF80A004FF00100ADF80C0022
:100DF0004FF40070ADF80E004FF01800ADF8100081
:100E00004FF00000ADF812004FF00700ADF81400ED
:100E100001A96A4800F0B6FD0121684800F072FEA1
:100E2000FF20FFF787FF07B000BD10B504466348F9
:100E300000884FF6C77100EA010060490880084643
:100E4000008840EA040008804FF001015B4800F090
:100E500059FE10BD10B504465A4800884FF6C771B8
:100E600000EA0100574908800846008840EA04006B
:100E700008804FF00101534800F044FE10BD00B55A
:100E800087B00121042000F0E1FC0121080300F0FB
:100E9000DDFC4FF0A000ADF818004FF018008DF801
:100EA0001B004FF003008DF81A0006A9464800F019
:100EB000C3F94FF01000ADF818004FF003008DF8A3
:100EC0001A004FF010008DF81B0006A93E4800F0F4
:100ED000B3F910213C4800F06DFA4FF01000ADF866
:100EE00018004FF003008DF81A004FF010008DF835
:100EF0001B0006A9354800F09FF91021334800F087
:100F000059FA4FF00100ADF818004FF003008DF8CA
:100F10001A004FF010008DF81B0006A9284800F0B9
:100F20008BF90121264800F045FA4FF00000ADF89A
:100F300004004FF48270ADF806004FF00000ADF8E9
:100F400008004FF00200ADF80A004FF00100ADF8C4
:100F50000C004FF40070ADF80E004FF00000ADF83B
:100F60001000ADF812004FF00700ADF8140001A911
:100F7000144800F007FD0121124800F0C3FD07B03E
:100F800000BD70B504464FF0000506E005F1010014
:100F9000C5B2C82D01DD002070BD0221094800F056
:100FA0004DFE0028F2D02146064800F0EDFD4FF03E
:100FB0000005044800F0EAFDC0B2EDE7003800404B
:100FC000000C0140003001400008014000100140C9
:100FD00010B56FF0040000F0D4FE2E4800682E49D2
:100FE000B0FBF1F02D490870084600784FF47A7193
:100FF00000FB01F02A49088010BD0146274A1278FB
:1010000001FB02F24FF0E0235A614FF000029A61B7
:101010001A46126942F001021A6100BF4FF0E02245
:10102000106910F0010F02D010F4803FF6D04FF09D
:10103000E022126922F001024FF0E0231A614FF022
:1010400000029A6170470146154A128801FB02F2BC
:101050004FF0E0235A614FF000029A611A4612697C
:1010600042F001021A6100BF4FF0E022106910F057
:10107000010F02D010F4803FF6D04FF0E022126949
:1010800022F001024FF0E0231A614FF000029A6152
:1010900070470000840F002000127A009E0F00208D
:1010A000A00F002010B54FF4A06000F00DFE10BDA1
:1010B00010B50A4603464FEAE07400EB14544FEAB9
:1010C000243404F1300414704FEAE07400EB14543B
:1010D0004FEA2434A0EB0434A1B20B464FEAE1748A
:1010E00001EB14644FEA242404F1300454700346E5
:1010F0004FEAE07400EB14644FEA2424A0EB0424CC
:10110000A1B20B464FEAE17401EB14744FEA2414C8
:1011100004F13004947003464FEAE07400EB147459
:101120004FEA2414A0EB0414A1B201F13003D370F0
:101130004FF02003137110BD09488047094800474C
:10114000FEE7FEE7FEE7FEE7FEE7FEE7FEE7FEE777
:10115000FEE7FEE704480549054A064B70470000D4
:10116000B1090008310100082810002028160020CD
:10117000281200202812002010B50446DE488442C0
:1011800008D10121042000F07FFB0021042000F0A1
:101190007BFB46E0D948844208D10121082000F0B9
:1011A00073FB0021082000F06FFB3AE0D448844232
:1011B00008D10121102000F067FB0021102000F071
:1011C00063FB2EE0CF48844208D10121202000F0AB
:1011D0005BFB0021202000F057FB22E0CA4884423C
:1011E00008D10121402000F04FFB0021402000F0F9
:1011F0004BFB16E0C548844208D10121802000F055
:1012000043FB0021802000F03FFB0AE0C0488442FD
:1012100007D10121801500F037FB0021A01500F057
:1012200033FB10BD10B50121084600F02DFB002155
:10123000012000F029FB10BD2DE9F04102464FF0DE
:1012400000052E46284603460446074691F803C08B
:101250000CF00F0591F803C01CF0100F03D091F8AB
:1012600002C04CEA0505B1F800C01CF0FF0F35D0F4
:1012700014684FF000002EE04FF0010C0CFA00F360
:10128000B1F800C00CEA03069E4222D14FEA800367
:101290004FF00F0C0CFA03F724EA070405FA03FCDD
:1012A0004CEA040491F803C0BCF1280F06D14FF0BA
:1012B000010C0CFA00FCC2F814C00AE091F803C05B
:1012C000BCF1480F05D14FF0010C0CFA00FCC2F83C
:1012D00010C000F101000828CED31460B1F800C09E
:1012E000BCF1FF0F38DD54684FF0000031E000F131
:1012F000080C4FF0010808FA0CF3B1F800C00CEA32
:1013000003069E4223D14FEA80034FF00F0C0CFAE4
:1013100003F724EA070405FA03FC4CEA040491F8F5
:1013200003C0BCF1280F05D100F1080C08FA0CF835
:10133000C2F8148091F803C0BCF1480F07D100F146
:10134000080C4FF0010808FA0CF8C2F8108000F100
:1013500001000828CBD35460BDE8F0814FF6FF713F
:1013600001804FF0020181704FF00401C17070479D
:1013700002464FF0000093680B4202D04FF001008C
:1013800001E04FF0000070470146886880B2704766
:1013900002464FF00000D3680B4202D04FF001002C
:1013A00001E04FF0000070470146C86880B2704706
:1013B00001617047416170470AB1016100E041611C
:1013C0007047C16070474FF4803242EA0102826187
:1013D0008161826182698269704702464FF0000034
:1013E0004C4B18684FF6807300EA030040EA021085
:1013F00040EA0100474B186070474749C861704791
:10140000F0B50A464FF000031C4619460D4600F0A1
:101410000046B6F1004F02D13E4EF16901E03D4E6B
:101420007168C0F3034583B200F44016B6F5401F5F
:1014300008D121F07061374E766826F07066354F1E
:101440007E6017E000F48016B6F5801F08D14FF0DB
:10145000030606FA05F421EA040141F0706109E08F
:101460004FEA50564FEA061603FA06F621EA06013D
:1014700041F070613AB14FEA50564FEA061603FA4E
:1014800006F646EA010100F00046B6F1004F02D12F
:10149000204EF16101E01F4E7160F0BD30B54FF09C
:1014A00000024FEA81734FEA13744FF00F0303FAFF
:1014B00004F21A4B4FEAA10453F8243023EA020342
:1014C000164C4FEAA10544F8253023464FEAA10403
:1014D00053F824304FEA81744FEA147400FA04F48C
:1014E00043EA04030D4C4FEAA10544F8253030BD12
:1014F0000B4908607047000000080140000C0140E3
:10150000001001400014014000180140001C01407F
:10151000002001400000014000002042080001407E
:10152000DC002042F748006840F00100F5490860FF
:1015300008464068F44900EA0100F249486008465C
:101540000068F24900EA0100EE49086008460068B8
:1015500020F4802008600846406820F4FE004860BF
:101560004FF41F0088607047E649096821F4803114
:10157000E44A11601146096821F480211160B0F538
:10158000803F03D0B0F5802F0ED106E0DD49096819
:1015900041F48031DB4A116007E0DA49096841F41F
:1015A000A021D84A116000E000BF00BF704710B50D
:1015B00001464FF00002134610464FEA6112012A1D
:1015C00002D1D04C236806E0022A02D1CD4C236A16
:1015D00001E0CC4C636A01F01F024FF0010404FAF1
:1015E00002F41C4202D04FF0010001E04FF0000075
:1015F00010BD70B54FF000042546264600BF3120CF
:10160000FFF7D5FF064604F10104B4F5A06F01D041
:10161000002EF4D03120FFF7CAFF10B14FF00105C2
:1016200001E04FF00005284670BD01464FF0000074
:10163000B44A106820F0F80040EAC100106070471A
:10164000B3490860704702464FF00000AD4B586840
:1016500020F47C1042EA010343EA0000A94B5860E1
:101660007047AB490866704701464FF00000A54A35
:10167000506820F0030040EA010050607047A14824
:10168000406800F00C00704701464FF000009D4A92
:10169000506820F0F00040EA0100506070470146B9
:1016A0004FF00000974A506820F4E06040EA0100E3
:1016B0005060704701464FF00000924A506820F495
:1016C000605040EAC1005060704731B18D4A527A93
:1016D00042EA00028B4B5A7208E08A4A527A6FEA59
:1016E0000003DBB202EA0302864B5A727047894953
:1016F0000860704701464FF00000824A506820F4AD
:10170000404040EA0100506070474FF00001824ABB
:1017100011707C4A82F82010012802D004280AD1D6
:1017200004E04FF001017C4A117005E04FF0050123
:10173000794A117000E000BF00BF70477749086028
:1017400070477049096A41EA00016E4A11627047A8
:1017500073490860704730B54FF000010A460C46E7
:101760000B46684D6D6805F00C0121B1042905D0C8
:10177000082927D105E06B4D056026E0694D05601D
:1017800023E0604D6D6805F470125E4D6D6805F4E0
:1017900080344FF0020505EB924224B9624D02FB02
:1017A00005F505600DE0574D6D6815F4003F04D058
:1017B0005D4D02FB05F5056003E05A4D02FB05F5A2
:1017C000056002E0574D056000BF00BF4D4D6D68DC
:1017D00005F0F0014FEA1111544D6B5C056825FAD4
:1017E00003F54560474D6D6805F4E0614FEA11214E
:1017F0004E4D6B5C456825FA03F58560414D6D687B
:1018000005F460514FEAD121484D6B5C456825FADB
:1018100003F5C5603B4D6D6805F440414FEA9131D9
:10182000434D6B5CC568B5FBF3F5056130BD31B167
:10183000344A526942EA0002324B5A6105E0314AA9
:10184000526922EA00022F4B5A61704731B12D4A8A
:10185000926942EA00022B4B9A6105E0294A92699B
:1018600022EA0002274B9A61704731B1254AD269BA
:1018700042EA0002234BDA6105E0224AD26922EAF9
:101880000002204BDA61704731B11E4AD26842EA49
:1018900000021C4BDA6005E01A4AD26822EA000214
:1018A000184BDA60704731B1164A126942EA0002F9
:1018B000144B1A6105E0134A126922EA0002114B27
:1018C0001A6170471B49086070471149C864704726
:1018D0000C49C87170470B48406A40F08070094954
:1018E0004862704701464FF00000064A92680A427B
:1018F00002D04FF0010001E04FF0000070470149B5
:1019000088727047001002400000FFF8FFFFF6FEEB
:1019100000004242D800424220100240800442426D
:101920003C04424200127A0000093D00A20F002050
:10193000B20F00204004424210B50446DF48844202
:1019400008D101218014FFF79FFF0021A014FFF7A9
:101950009BFF16E0DA48844208D101210014FFF70A
:10196000A2FF00212014FFF79EFF0AE0D548844221
:1019700007D10121C013FFF796FF0021E013FFF705
:1019800092FF10BD10B54FF00002028802F44152E0
:101990000B884C8843EA04038C8843EA0403CC8810
:1019A00043EA04030C8943EA04034C8943EA040331
:1019B0008C8943EA0403CC8943EA040343EA020224
:1019C0000280838B4FF2FF7403EA040383830B8A44
:1019D000038210BD2DE9F04F85B005460C464FF04F
:1019E00000094FF002074FF000084FF0010B4FF0D5
:1019F0000006B246A88B4FF2400100EA0100A8831E
:101A00004FF002002884B5F81C90A068022801D18C
:101A100000BF3BE0A08810B94FF0010B01E04FF090
:101A2000020BA748854200D100E000BF6846FFF7DF
:101A300092FEDDF800A0E088B0F5007F0CD14FEAFF
:101A40001A2000EB80004FEA4000A168B0FBF1F0E3
:101A500000F1050086B20DE04FEA4B10BAFBF0F042
:101A600000EB80004FEA4000A168B0FBF1F000F10C
:101A7000050086B24FF00A00B6FBF0F606F001084A
:101A8000A6EB0800C0F34F074FEA0828022F01DB3E
:101A9000FF2F03DD4FF002074FF00008E08840EA17
:101AA000080040EA07002884A088A18940EA0100D4
:101AB000618840EA0100218840EA010040F40060AA
:101AC00040EA0909A5F81C9005B0BDE8F08F4FF079
:101AD0000001018041808180C1800181418181813B
:101AE000C1814FF00701018270474FF00001018072
:101AF00041808180C1804FF0020181604FF0000180
:101B00008181704721B1028842F04002028005E0E5
:101B100002884FF6BF7302EA03020280704721B1C8
:101B2000828B42F48062828305E0828B4FF6FF3322
:101B300002EA03028283704770B54FF00004234627
:101B40004FEA21144FF0010505FA04F5ABB222B1BA
:101B5000858845EA0305858006E085886FEA0306E7
:101B6000B6B205EA0605858070BD10B522B183883E
:101B700043EA0103838006E083886FEA0104A4B28C
:101B800003EA0403838010BD818170470146888980
:101B90007047A1F57E42FF3A04D0028842F4807279
:101BA000028005E002884FF6FF6302EA030202802A
:101BB000704721B1828842F00402828005E0828869
:101BC0004FF6FB7302EA03028280704702884FF2ED
:101BD000FF7302EA03020280028842EA01020280E5
:101BE0007047018841F480510180704721B102881B
:101BF00042F40052028005E002884DF6FF7302EACB
:101C000003020280704702464FF00000012901D014
:101C1000108B00E0908A70470146088A7047B1F542
:101C2000804F04D1028842F48042028005E002889D
:101C30004BF6FF7302EA03020280704702464FF040
:101C4000000013890B4202D04FF0010001E04FF079
:101C5000000070476FEA010202817047F0B502464A
:101C60004FF0000004460346054601F00F074FF011
:101C7000010606FA07F6B4B24FEA21134FF0010647
:101C800006FA03F6B3B2968806EA030516892642D9
:101C900003D015B14FF0010001E04FF00000F0BD9E
:101CA00010B54FF0000201F00F044FF0010303FAEA
:101CB00004F39AB26FEA0203038110BD00300140C1
:101CC00000380040003C0040384940EA0101384AF1
:101CD0001160704770B54FF000010B464FF00F02D6
:101CE000C4784CB3324C246804F4E064C4F5E06476
:101CF0004FEA1421C1F1040322FA01F2447804FAF4
:101D000003F1847804EA020444EA01014FEA011174
:101D1000284C0678A155047804F01F054FF0010403
:101D200004FA05F405784FEA65154FF0E02606EB56
:101D30008505C5F800410CE0047804F01F054FF05C
:101D4000010404FA05F41C4D06784FEA661645F8BE
:101D5000264070BD194A01EA020242EA0002184B0D
:101D60001A60704731B1174A126842EA0002154BF7
:101D70001A6005E0134A126822EA0002114B1A6049
:101D80007047042808D14FF0E021096941F00401AF
:101D90004FF0E022116107E04FF0E021096921F0E6
:101DA00004014FF0E0221161704700000000FA05C5
:101DB0000CED00E000E400E080E100E080FFFF1FA8
:101DC00008ED00E010ED00E0704770477047754681
:101DD00000F028F8AE4605006946534620F007009B
:101DE000854618B020B5FFF7B5F9BDE820404FF0A3
:101DF00000064FF000074FF000084FF0000B21F0F5
:101E00000701AC46ACE8C009ACE8C009ACE8C009C1
:101E1000ACE8C0098D4670470446AFF30080204609
:101E2000FEF7EFF900487047C80F002000487047E0
:101E3000CC0F002001491820ABBEFEE726000200AF
:101E4000704710B5FFF7F2FF4FF00001016010BDC1
:101E5000FFFFFFFFFFFFFFFFFFFFFFFFFFFFFFFF92
:101E6000FFFFFFFFFFFFFFFFFFFFFFFFBEF77DEF5D
:101E7000BAD6B6B5F39CB294B39CB29434A5F7BD70
:101E8000FBDE7DEFFFFFFFFFFFFFFFFFFFFFFFFF19
:101E9000FFFFFFFFFFFFFFFFFFFFFFFFFFFFFFFF52
:101EA000FFFFFFFFFFFFFFFFFFFFFFFFFFFFFFFF42
:101EB000FFFFFFFFFFFFFFFFBEF7FBDEF39CCB5AE8
:101EC000C739042182104210421041088318452965
:101ED000C7390C6375AD3CE7BEF7FFFFFFFFFFFF9F
:101EE000FFFFFFFFFFFFFFFFFFFFFFFFFFFFFFFF02
:101EF000FFFFFFFFFFFFFFFFFFFFFFFFFFFFFFFFF2
:101F0000FFFFFFFFFFFF3CE7B2940842C3188210B7
:101F100004214529863186318631863145290421BF
:101F200082104108C3180842F39C3CE7FFFFFFFF03
:101F3000FFFFFFFFFFFFFFFFFFFFFFFFFFFFFFFFB1
:101F4000FFFFFFFFFFFFFFFFFFFFFFFFFFFFFFFFA1
:101F5000FFFFFFFFFBDE0C63C318C3184529C73919
:101F6000084208420842084208420842C739C739B5
:101F700086318631042141088210CB5ABAD6FFFF40
:101F8000FFFFFFFFFFFFFFFFFFFFFFFFFFFFFFFF61
:101F9000FFFFFFFFFFFFFFFFFFFFFFFFFFFFFFFF51
:101FA000FFFFFBDECB5A82104529C73908420842A1
:101FB000094A494A494A494A494A494A0842C739A5
:101FC000C739C7398631452983180000C84138C64A
:101FD000FFFFFFFFFFFFFFFFFFFFFFFFFFFFFFFF11
:101FE000FFFFFFFFFFFFFFFFFFFFFFFFFFFFFFFF01
:101FF0007DEF8E7382104529C7390842094A8A52FB
:102000003084CF7B8A52494A4A52494ACB5ACF7BC5
:102010000C630842C73986314529C3180000494A74
:10202000BAD6FFFFFFFFFFFFFFFFFFFFFFFFFFFF2E
:10203000FFFFFFFFFFFFFFFFFFFFFFFFFFFFFFFFB0
:10204000F39CC3180421C7390842494A494A72948B
:102050007DEF7DEFB2944A52494A8A5275ADBEF780
:10206000BAD64D6BC739C73986314529C3184108DF
:10207000CF7B7CE7FFFFFFFFFFFFFFFFFFFFFFFFBF
:10208000FFFFFFFFFFFFFFFFFFFFFFFFFFFFBAD6CE
:1020900008428210C7390842494A494A8E73FBDE1A
:1020A000FFFFBEF7BAD68E73084230843CE77DEF5F
:1020B000FFFFB6B5494AC739863145290421410891
:1020C0004529B6B5FFFFFFFFFFFFFFFFFFFFFFFF43
:1020D000FFFFFFFFFFFFFFFFFFFFFFFFBEF7718C5A
:1020E000410845290842494A494A4A52B294BEF732
:1020F000BEF7B294CF7BCF7B494AB6B5F39C0C6355
:1021000038C6BAD60C638739C73986314529C31812
:10211000410830847DEFFFFFFFFFFFFFFFFFFFFF60
:10212000FFFFFFFFFFFFFFFFFFFFFFFF3CE7CB5A73
:102130004108C7390842494A4A528A52F39CFFFF74
:102140007DEFC739C3180C63CB5AB6B5B294CB5ADE
:1021500075ADFAD64D6B8739C739863145290421CB
:1021600041088A5279CEFFFFFFFFFFFFFFFFFFFF0D
:10217000FFFFFFFFFFFFFFFFFFFFFFFF38C68631B6
:102180000421C841494A494A4A52494AB18CBEF7DA
:10219000BEF7B294CF7BCF7B494A74A57DEF7CE735
:1021A000BEF779CE0C63C739C7398631452904217A
:1021B0008210452975ADBEF7FFFFFFFFFFFFFFFF50
:1021C000FFFFFFFFFFFFFFFFFFFFFFFF34A58210B0
:1021D00086310842494A494A8A52494A4D6BBAD621
:1021E000FFFFFFFF79CE0D63C739CF7B7DEFFFFF88
:1021F000FFFF75AD08428631C7398631452945292B
:10220000C318C318B2947DEFFFFFFFFFFFFFFFFF6E
:10221000FFFFFFFFFFFFFFFFFFFFBEF7B28C41088C
:10222000C7390842494A494A8A528A524A4AD07BA7
:102230007AC67BBE906BC9398831C939B384BBC6B5
:10224000F8B5CC5A8631C739C73986314529452971
:10225000C420410830843CE7FFFFFFFFFFFFFFFF82
:10226000FFFFFFFFFFFFFFFFFFFF3CE78A4AC310AE
:10227000C7390842494A494A4A4A4A42093A084A39
:10228000096B497BC67A05834683C57AC672097B8A
:10229000485A873188218829863186314529452940
:1022A000042141084A4ABAD6FFFFFFFFFFFFFFFFA4
:1022B000FFFFFFFFFFFFFFFFFFFFF7C58250054154
:1022C000C7290842494A4A42494A097B889BC6B302
:1022D00021D4A0DCE1E461ED61ED21EDA0E420DC9E
:1022E00080CB43ABC482065A47214629452904299D
:1022F000041982108218F39C7DEFFFFFFFFFFFFFA0
:10230000FFFFFFFFFFFFFFFF7DEF4D9300A082B8AF
:10231000C7310932494A867A43C36BEDF4F6EBFDC7
:1023200020FD20FD60FDA0FDA0FD60FD60FD20FD05
:10233000E0FCA0FC60F4C1DB839AC549452904197F
:10234000C42082380050CB6ABAD6FFFFFFFFFFFFE0
:10235000FFFFFFFFFFFFFFFFFBEE04A100C000F047
:10236000C3A0C8414942059B20FCA4FC69FDE8FDCF
:1023700063FD20FD60FD60FD60FD20FD20FDE0FCB3
:10238000E0FCA0FC60FC20FC41D3C5494519C438E1
:10239000826841880070495A79CEFFFFFFFFFFFF36
:1023A000FFFFFFFFFFFFFFFFFBF682C000D086C1EB
:1023B00046F141C8457989528862866AC67AC4BBAB
:1023C000E1FC60FD60FDA0FDA0FD60FD60FDE0FCA6
:1023D00060E403938472446AC5414529C35841A807
:1023E000409800B000600C6B79CEFFFFFFFFFFFF4D
:1023F000FFFFFFFFFFFF7DEFCE83828800F8C4D888
:102400000CF38AFA82E882B04569C7510842083A5B
:10241000865A839BA2BC22CD21CDA1C422B4C47A0A
:10242000063A862945290531C450419000C000A8CC
:1024300000A000A800304A4ABAD6FFFFFFFFFFFF06
:10244000FFFFFFFF7DEF8E73C318053982A800F8E8
:10245000C3F84DFB4DFBC7F9C3F082D8C3B004816C
:102460004561465186498649464145414541454178
:1024700005490461829041B000D000C800A800A8BE
:1024800000B8415882108210B294BEF7FFFFFFFFE0
:10249000FFFFBEF7CF7B8210042186298641049975
:1024A00040E841F886F9CBFA49FA82F800F800F0E2
:1024B00000E841D841D041C041C041C041C041C8FD
:1024C00000D000E000E000D800D000B800A84188AB
:1024D0008248821082100000452979CEFFFFFFFF5D
:1024E000BEF7F39C8210C31845298631C731307C72
:1024F000F3DC86E100F000F841F841F800F800F85C
:1025000000F800F800F800F800F800F800F800F80B
:1025100000E800E000E000D800C841A08A9A0C63FF
:10252000041182108210410800004D6B7DEFFFFF07
:10253000FBDE08424210452986318631494A38BEC1
:10254000FFFF38D686A900C800E000F000F800F8C8
:1025500000F800F800F800F800F800F800F000F0CB
:1025600000E800E000D0C3988A8AB2A4BAC6F7B5E2
:10257000084241088210410800004529F7BDFFFFCD
:10258000718C410804214529863186310C633CE772
:10259000FFFF79D646B900E042C882A882B041D890
:1025A00082E882F041E841E841E841F041E841D861
:1025B00004C108924D8B34A5FBC6FBD6BACE3CE7CE
:1025C0003084C3184108410800004108CF7B7DEFEB
:1025D000494A000004214529463186313084FFFFF5
:1025E000FFF7F7DD09DA83F801F042C08298499AD3
:1025F000F3B4F3CC71BC8EBB8EBB30BC71BCF3BCEE
:10260000B6BDFBCEBEE77DE73BDFBAD679CEFBDEBB
:1026100075AD86314108410800000000494AFBDEE3
:10262000042141080421452945298739B294FFFF37
:10263000BEF734DD0CEB09FA00F001D800D88BD2DC
:102640007DE7FFFFFFFFFFFFFFFFFFFFFFFFFFFF34
:10265000FFFFBEFF7DEFFBDEFBDEBAD679CEBAD63A
:1026600078C6C7390000410800000000C73979CE9C
:1026700000008210C318042105298631B39CFFFF96
:10268000FFF775DDC7E9C7F901F801F000E849E295
:10269000FBEEFFFFFFFFFFFFFFFFFFFFFFFFFFFF5F
:1026A000FFFFBEF77DEFFBDEFBDEBAD679CEBAD6F2
:1026B000B9CE08420000000000000000C73938C64B
:1026C0000000821082100421042145293084FFFF7C
:1026D000FFFF38DEC4D000F001F800F800F008D2A7
:1026E000FBE6FFFFFFFFFFFFFFFFFFFFFFFFFFFF17
:1026F000FFFFBEF77DEFFBDEBAD679CE79CEBAD634
:1027000079CEC7394108000000000000863138C684
:1027100000000000C318CB5A8631C318CB5A7DEF96
:10272000FFFF7DEFCFBBC3B041D041D082B84DB3E6
:102730007DE7FFFFFFFFFFFFFFFFFFFFFFFFFFFF43
:10274000BEF7BEF73DEFFBDEBAD679CE79CEFAD62C
:10275000F7BD04218631042100000000863138C60F
:102760008631C318CB5A75ADCF7B41088631F7BD92
:10277000FFFFFFFFBEEF74B5309C309C72A4BBD648
:10278000FFFFFFFFFFFFFFFFFFFFFFFFFFFFFFFF59
:10279000BEF77DEF3CE7FBDEBAD679CE79CE3CE7DB
:1027A000718C81080C63CF7B821000008A5238C67E
:1027B00075AD718CB6B53CE7FBDEC7390000CF7351
:1027C000FFFFFFFFFFFFFFFFFFFFFFFFFFFFFFFF19
:1027D000FFFFFFFFFFFFFFFFFFFFFFFFFFFFBEF752
:1027E0007DEF7DEF3BDFFAD679CE79CEFBDEB9CE39
:1027F000C739C420718CBAD6718CCB5AB294BAD670
:10280000FFFF7DEF7DEFFFFFFFFFB6B546290519FE
:1028100075A5FFFFFFFFFFFFFFFFFFFFFFFFFFFFAC
:10282000FFFFFFFFFFFFFFFFFFFFFFFFFFFFBEF701
:102830007DEF3CE7FBDEBAD679CEBAD6FCDE4E633E
:1028400042080C63F7BDBEF7FFFFFBDEFBDEBEF701
:10285000FFFFFFFFFFFFFFFFFFFFFFFFF49C0421CF
:102860000521B6A5FFFFFFFFFFFFFFFFFFFFFFFFF3
:10287000FFFFFFFFFFFFFFFFFFFFBEF7BEF77DEF8C
:102880003CE7FBDEBAD679CEFBDEBBD6D17383182C
:102890008639349DBDEFFFFFFFFFFFFFFFFFFFFF06
:1028A000FFFFFFFFFFFFFFFFBEFF35D6EBCC43B3BB
:1028B00040510519F58CBEEFFFFFFFFFFFFFFFFF43
:1028C000FFFFFFFFFFFFBEF7BEF77DEF7DEF3CE7A9
:1028D000FBDEBADEBAD63CDF3ABE4F63824940A384
:1028E00023B4CC833ABEFFFFFFFFFFFFFFFFFFFFD4
:1028F000FFFFFFFFFFFFBFF7B5BD829220F4A0FCF2
:1029000060E4408284418F6B77AD3DE7FFFFFFFFBE
:10291000FEFFBEF7BEF7BEF77DEF7DEF3CE7FBDEC7
:10292000FBDE3DE7BBCE369D0B6B416A60C420FEEB
:1029300060F5008BC76A38C6BEF7FFFFFFFFFFFFD9
:10294000FFFFFFFFFFFF7DEF4B7B80B2A0FCA0FCF1
:10295000E0FCE0FCC0CBC18A45624D6BB394F7BD8F
:102960003DDFFFF7FFFFBEF77DEF7DEF7DE73DDF4A
:10297000BAC675A58D7B847A40B3E0ECE0FDE0FD3E
:1029800060F520E5A0D40A6BFBDEFFFFFFFFFFFF31
:10299000FFFFFFFFFFFF7DEFCC9340EB60FCA0FC4F
:1029A000E0FC20FD60FD20F5A0D4C0BB429B458B20
:1029B0006B9CAE9C718CB394339D34A5F2A4F0B49F
:1029C000CA9B049B40BB20E420FDA0FDA0FDE0FDD0
:1029D000E0FDE0FD20C4885A38BEFFFFFFFFFFFF87
:1029E000FFFFFFFFFFFFFFFF78D646AB40DB20F481
:1029F00060FCA0FCE0FC60FDA0FD60FD20F5A0DC1B
:102A0000C0B3C05186290D638F7B0D5BC741018226
:102A100000C3C0E360FCA0FCE0FCE0FC60F560F5F6
:102A200020E5809B8662308479CEFFFFFFFFFFFFA9
:102A3000FFFFFFFFFFFFFFFFFFFF38C62D9C059341
:102A400043A382B3C2BBC2BB22B482A34293C37A64
:102A500085620B637184B6B579CE79C6B5AD7094D5
:102A60004A8B06830493049B439B439B43930483B9
:102A700008738D73B39479CE7DEFFFFFFFFFFFFFE7
:102A8000FFFFFFFFFFFFFFFFFFFFFFFF3CDF38BE41
:102A900075B533A533A5F39CF39CF39CF394F39C99
:102AA00035A5F8BDFBDEBEF7FFFFFFFFFFFF7EEFA2
:102AB000BBD6F8BDB6AD75AD34A5339D349D35A5F7
:102AC000B7AD79C63CE7BEF7FFFFFFFFFFFFFFFF93
:102AD00000000000000000000000000000000000F6
:102AE0003F400000000000000000300040003000C7
:102AF0004000000009000BC03D000BC03D00090074
:102B000018C024407FE0224031800000180024C01B
:102B10001B000D803240018003801C4027401C8038
:102B200007400040100060000000000000000000AE
:102B30000000000000001F802040402000004020D6
:102B400020401F8000000000090006001F800600D2
:102B500009000000040004003F800400040000009D
:102B600000100060000000000000000004000400ED
:102B70000400040004000000000000400000000009
:102B800000000000002001C00600380040000000E6
:102B90001F802040204020401F8000000000104087
:102BA0003FC000400000000018C0214022402440E7
:102BB0001840000010802040244024401B8000006A
:102BC00002000D0011003FC0014000003C80244085
:102BD00024402440238000001F80244024403440AF
:102BE000038000003000200027C0380020000000D3
:102BF0001B802440244024401B8000001C0022C075
:102C0000224022401F800000000000000840000019
:102C10000000000000000000046000000000000050
:102C2000000004000A001100208040400900090053
:102C30000900090009000000000040402080110048
:102C40000A0004001800200023402400180000009F
:102C50001F802040274029401F400000004007C03F
:102C600039000F0001C0004020403FC024402440F4
:102C70001B8000001F80204020402040308000004A
:102C800020403FC0204020401F80000020403FC027
:102C900024402E4030C0000020403FC024402E0081
:102CA000300000000F0010802040224033800200DE
:102CB00020403FC0040004003FC02040204020408E
:102CC0003FC02040204000000060202020203FC066
:102CD0002000200020403FC024400B0030C0204096
:102CE00020403FC020400040004000C03FC03C00AA
:102CF00003C03C003FC0000020403FC00C40230008
:102D00003FC020001F802040204020401F80000046
:102D100020403FC024402400180000001F802140B4
:102D2000214020E01FA0000020403FC0244026009A
:102D300019C0004018C024402440224031800000C7
:102D4000300020403FC020403000000020003F8085
:102D5000004000403F80200020003E0001C00700EE
:102D600038002000380007C03C0007C038000000D1
:102D7000204039C0060039C0204000002000384003
:102D800007C0384020000000304021C026403840B5
:102D900020C00000000000007FE040204020000034
:102DA000000070000C000380004000000000402084
:102DB00040207FE0000000000000200040002000D4
:102DC00000000000001000100010001000100010A3
:102DD0000000000040000000000000000000028031
:102DE0000540054003C0004020003FC004400440AF
:102DF00003800000000003800440044006400000FF
:102E000000000380044024403FC0004000000380D5
:102E10000540054003400000000004401FC024405E
:102E200024402000000002E0055005500650042018
:102E300020403FC00440040003C0004000000440A4
:102E400027C000400000000000100010041027E020
:102E50000000000020403FC00140070004C00440C3
:102E6000204020403FC000400040000007C0040058
:102E700007C0040003C00000044007C00440040071
:102E800003C00040000003800440044003800000B1
:102E9000041007F004500440038000000000038089
:102EA0000440045007F00010044007C00240040032
:102EB00004000000000006400540054004C000007A
:102EC000000004001F800440004000000400078050
:102ED0000040044007C000400400070004C0018017
:102EE00006000400060001C0070001C00600000043
:102EF000044006C0010006C0044000000410071092
:102F000004E00180060004000000044005C0064003
:102F1000044000000000000004007BE040200000AE
:102F2000000000000000FFF0000000000000402052
:102F30007BE0040000000000400080004000200012
:102F40002000400000000000000000000000000021
:102F50000000000000000008080808080808000039
:102F60001818000000486C24120000000000000047
:102F7000000000000000002424247F1212127F129F
:102F8000121200000000081C2A2A0A0C1828282AFD
:102F90002A1C080800000022251515152A5854542B
:102FA000542200000000000C1212120A762529118A
:102FB000916E0000000606040300000000000000FF
:102FC0000000000000402010100808080808081041
:102FD0001020400000020408081010101010100803
:102FE000080402000000000008086B1C1C6B0808A5
:102FF0000000000000000000080808087F0808081A
:1030000008000000000000000000000000000000B8
:10301000060604030000000000000000FE0000009F
:1030200000000000000000000000000000000000A0
:103030000606000000008040402020101008080410
:10304000040202000000001824424242424242426E
:1030500024180000000000080E08080808080808E6
:10306000083E00000000003C4242422020100804BC
:10307000427E00000000003C4242201820404042B6
:10308000221C0000000000203028242422227E2060
:10309000207800000000007E0202021A2640404212
:1030A000221C0000000000382402021A264242427C
:1030B000241800000000007E2222101008080808D2
:1030C000080800000000003C42424224182442420A
:1030D000423C000000000018244242426458404034
:1030E000241C000000000000000018180000000070
:1030F0001818000000000000000000080000000098
:103100000008080400000040201008040204081011
:10311000204000000000000000007F0000007F0051
:1031200000000000000000020408102040201008E9
:10313000040200000000003C424246402010100003
:10314000181800000000001C225A555555552D42F4
:10315000221C00000000000808181414243C22421D
:1031600042E700000000001F2222221E22424242AB
:10317000221F00000000007C4242010101010142C7
:10318000221C00000000001F2242424242424242F2
:10319000221F00000000003F4212121E12120242C3
:1031A000423F00000000003F4212121E12120202B3
:1031B000020700000000003C2222010101712122CF
:1031C000221C0000000000E7424242427E4242428E
:1031D00042E700000000003E080808080808080848
:1031E000083E00000000007C10101010101010109D
:1031F0001010110F0000007722120A0E0A1212227C
:10320000227700000000000702020202020202020E
:10321000427F000000000077363636362A2A2A2AF6
:103220002A6B0000000000E346464A4A52525262AE
:10323000624700000000001C2241414141414141E0
:10324000221C00000000003F424242423E020202B5
:10325000020700000000001C2241414141414D5342
:10326000321C60000000003F4242423E1212222205
:1032700042C700000000007C424202041820404285
:10328000423E00000000007F4908080808080808BE
:10329000081C0000000000E7424242424242424213
:1032A000423C0000000000E742422224241414188B
:1032B000080800000000006B49494949555536226D
:1032C00022220000000000E74224241818182424B9
:1032D00042E70000000000772222141408080808C2
:1032E000081C00000000007E212010100804044289
:1032F000423F000000780808080808080808080885
:1033000008087800000002020404080808101020D1
:1033100020204040001E101010101010101010102F
:1033200010101E00003844000000000000000000E3
:10333000000000000000000000000000000000008D
:10334000000000FF00060800000000000000000070
:1033500000000000000000000000003C42784442F1
:1033600042FC0000000000030202021A2642424210
:10337000261A00000000000000000038440202028B
:10338000443800000000006040404078444242421F
:1033900064D80000000000000000003C427E0202F1
:1033A000423C0000000000F08808087E0808080879
:1033B000083E0000000000000000007C22221C02E9
:1033C0003C42423C000000030202023A46424242B2
:1033D00042E700000000000C0C00000E080808087E
:1033E000083E00000000003030000038202020207F
:1033F0002020221E0000000302020272120A16128E
:10340000227700000000000E0808080808080808D5
:10341000083E0000000000000000007F929292929F
:1034200092B70000000000000000003B464242420C
:1034300042E70000000000000000003C424242421F
:10344000423C0000000000000000001B26424242F7
:10345000221E0207000000000000007844424242A1
:10346000447840E000000000000000774C040404B1
:10347000041F0000000000000000007C42023C40ED
:10348000423E0000000000000008083E080808084E
:103490000830000000000000000000634242424289
:1034A00062DC000000000000000000E74224241459
:1034B0000808000000000000000000EB49495555D5
:1034C00022220000000000000000007624181818D6
:1034D000246E000000000000000000E742242414D5
:1034E00018080807000000000000007E22100808ED
:1034F000447E000000C0202020202010202020201A
:103500002020C000101010101010101010101010FB
:10351000101010100006080808080810080808080D
:10352000080806000C32C200000000000000000085
:10353000000000005435000800000020B80F000013
:103540006C0100087C3F0008B80F002070060000E6
:10355000C80100080A19FF01180EBEF77DEFBAD6A0
:10356000B6B5F39CB294B30408091A34A5F7BDFBB1
:10357000DE7DEF3409184C180EFBDEF39CCB5AC7E6
:103580003904218210420208112A41088318452972
:10359000C7390C6375AD3CE7BEF74E48113CE7B246
:1035A000940842C3188210042145298631022B4514
:1035B000295C080B264108C3180842F39C3CE74EDF
:1035C0003808FBDE0C63C318C38E8B0842022DC77C
:1035D00039C73958080B24042141088210CB5ABA44
:1035E000D64E6DCB5A82104C7C094A490249522969
:1035F0005425452983180D1EC84138C64E6D7DEFF0
:103600008E734E180E094A8A523084CF7B8A5249F3
:103610004A4A042FCB5ACF7B0C635629521AC35205
:103620000B1E494AA42FF39CC31804214E2992284B
:103630000972947DEF7DEFB2944E680B8A5275AD9E
:10364000BEF7BAD64D6BA4080918C3184108CF7B42
:103650007CE74E6FBAD6084282104E2F8E73FBDE87
:10366000FFFF4448118E73084230843CE77DEFFF32
:10367000FFB6B5494A50080916042141084529B644
:10368000B54E2DBEF7718C22494E981E4A52B29407
:10369000BEF7BEF7B294CF7BCF7B494AB6B5F39C59
:1036A0000C6338C6BAD60C6387A22B308466091225
:1036B000014F3CE7CB5A41089E181C4A528A52F3EC
:1036C0009CFFFF7DEFC739C3180C63CB5AB6B5B268
:1036D00094CB5A75ADFAF2695029A20D148A527929
:1036E000CE50480938C686310421C8419EAD494AAA
:1036F000B18CA0780E74A57DEF7CE7BEF779CE0C77
:1037000063C7500809128210452975ADBEF7504FA6
:1037100034A582108631EE1A8A502D4D6BBAD61818
:103720001C79CE0D424BCF7BD84F75AD0842863108
:103730005029F20D12C318B294F2198A6A8CEE293C
:1037400050281B8A524A4AD07B7AC67BBE906BC9EE
:10375000398831C939B384BBC6F8B5CC5A4E6950E3
:10376000080910C420410830843CE7506F3CE78AC8
:103770004AC310501901482042093A084A096B49C6
:103780007BC67A05834683C57AC672097B485A8709
:1037900031882188298631504F042141084A4AC87E
:1037A000C9012809F7C582500541C729501A4A04A2
:1037B0002822097B889BC6B321D4A0DCE1E461ED1B
:1037C00061ED21EDA0E420DC80CB43ABC482065A3E
:1037D0004721464EE80A29041982108218F39CF208
:1037E000157DEF4D931815A082B8C7310932494AAB
:1037F000867A43C36BEDF4F6EBFD20021C60FDA05E
:10380000021A6002180F20FDE0FCA0FC60F4C1DB8E
:10381000839AC549501619C4208238EC50CB6AA24D
:1038200015FBEE04A112C03813F0C3A0C8414942F1
:10383000059B20FCA4FC69FDE8FD6350494C294E22
:1038400039501EFC20FC41D350100819C43882683E
:103850004188DE70495A79CE5014F682C02816D0BD
:1038600086C146F141C8457989528862866AC67A1E
:10387000C4BBE1FC4C69A01015E0FC60E403938438
:1038800072446AC5414529C35841A8409812B0CC3A
:10389000600C6B50177DEFCE8382881830F8C4D847
:1038A0000CF38AFA82E882B04569C7510842083AA7
:1038B000865A839BA2BC22CD21CDA1C422B4C47A56
:1038C000063A862945290531C4504190D012A81ADC
:1038D000A004AC304A4AF0100B7DEF8E73C318057C
:1038E0003982A8381DF8C3F84DFB4DFBC7F9C3F06A
:1038F00082D8C3B004814561465186498649464114
:103900004502100905490461829041B012D01AC8DD
:103910004A12A8480CB8415882108210B294BEF7DF
:103920004E101BBEF7CF7B821004218629864104EE
:103930009940E841F886F9CBFA49FA82F812F81270
:10394000F05808E841D841D041C0021AC8481AE0EE
:10395000021AD80812B82EA8418882484E214B4539
:1039600029F21815BEF7F39C8210C3184529863139
:10397000C731307CF3DC86E1461BF841021950095F
:1039800010025AE850280AC841A08A9A0C63041110
:1039900050234108280D4D6B7DEFFFFFFBDE0842F1
:1039A00042104E180D8631494A38BEFFFF38D68680
:1039B000A9CC2AE056D9022AF0B0191A4810D0C36F
:1039C000988A8AB2A4BAC6F7B50842410850480D91
:1039D0004529F7BDFFFF718C4108042150100B0CE5
:1039E000633CE7FFFF79D646B93810E042C882A8A9
:1039F00082B041D882E882F041E80229082818D82C
:103A000004C108924D8B34A5FBC6FBD6BACE3CE769
:103A10003084C31841085020094108CF7B7DEF490D
:103A20004A29501A465048393084FFFFFFF7F7DD26
:103A300009DA83F801F042C08298499AF3B4F3CCD2
:103A400071BC8EBB8EBB30BC71BCF3BCB6BDFBCEB3
:103A5000BEE77DE73BDFBAD679CEFBDE75AD8631BA
:103A600050214F494AFBDE0421A010114529873916
:103A7000B294FFFFBEF734DD0CEB09FA14F001D865
:103A80001DD88BD27DB2C9012809BEFF7DEFFBDEB8
:103A9000FBDE502FBAD678C6C7399C4125C7397985
:103AA000CE18088210C318042105F22BB39CA0186D
:103AB0000875DDC7E9C7F901A211FEE849E2FBEE8E
:103AC00050AAF75085B9CE08422DC73938C6502DB7
:103AD00082100421A439F01EFF38DEC4D09E12F8F3
:103AE00012F80E14F008D2FBE650294E29504D79F9
:103AF000CEC7399E212B863150212FC318CB5A8631
:103B000031061C7DEFFFCEE80DCFBBC3B041D041E5
:103B1000D082B84DB3F07EBEF7BEF73D50680BFAC9
:103B2000D6F7BD042186310421504948380B75ADC4
:103B3000CF7B41088631F7BD34080C12EF74B530E5
:103B40009C309C72A4BBD69E6B3CE750200D3CE79A
:103B5000718C81080C63CF7B8210280B8A5238C687
:103B600075AD718CB6B52223C739EBCF7340091000
:103B70004E3E7DEF3BDFFA4E1CFBDEB9EE180EC465
:103B800020718CBAD6718CCB5AB294BA8029222972
:103B90002C08091EB6B54629051975A550699E1849
:103BA00008BAD6FCDE4E63429E280BF7BDBEF7FF77
:103BB000FFFBDEFBDE088901080815F49C042105E3
:103BC00021B652ABBEF74E380EFBDEBBD6D17383A7
:103BD000188639349DBD90D92ED80FFF35D6EBCC41
:103BE00043B340510519F58CBE22494C594E19502A
:103BF000E8113CDF3ABE4F63824940A323B4CC8333
:103C00003ABE4E2817BFF7B5BD829220F4A0FC60E3
:103C1000E4408284418F6B77AD3DE71A3AFE4C89D0
:103C20004E1013FBDE3DE7BBCE369D0B6B416A6049
:103C3000C420FE60F5CE8BC76A38C6EA180C7DEF4B
:103C40004B7B80B2A0FCA0FCE0021810C0CBC18A64
:103C500045624D6BB394F7BD3DDFFF2A4950C81F45
:103C60007DE73DDFBAC675A58D7B847A40B3E0EC75
:103C7000E0FDE0FD60F520E5A0D40A6BFBDE503EE0
:103C8000CC9340EB6050182A20FD60FD20F5A0D4B5
:103C9000C0BB429B458B6B9CAE9C718CB394339D97
:103CA00034A5F2A4F0B4CA9B049B40BB20E420FDE1
:103CB000A0022952D808E0FD20C4885A38F44809E7
:103CC00078D646AB40DB20F4541A602C39561012DB
:103CD000DCC0B3C05186290D638F7B0D5BC74101EA
:103CE000824CC3C0E32419262AF59EC809809B860E
:103CF00062308479CE502832FFFF38C62D9C059360
:103D000043A382B3C2BBC2BB22B482A34293C37A91
:103D100085620B637184B6B579CE79C6B5AD709402
:103D20004A8B06830493049B4302E80E93048308A2
:103D3000738D73B39479CE7DEF50380FFFFF3CDF66
:103D400038BE75B533A533A5F39C02480C94F39C9B
:103D500035A5F8BDFBDEBEF72268197EEFBBD6F8AD
:103D6000BDB6AD75AD34A5339D349D35A5B7AD79E0
:103D7000C63CE72093FFFF2AC0041A0304AA0104EB
:103D8000180A02E0C00107E0FFFF0708FA03040B6E
:103D900010FFFF14C9181A104469041A18041A38BD
:103DA000041278041780FF3F1A063C220F4B801F35
:103DB0008D32E032301A1C139A07041B0318041EBC
:103DC0003CFCFFFF7F0829100924041A84042AF808
:103DD0005729DCF11B600818127914C0E1E0380A99
:103DE000C073C001C0708003E00421137030141848
:103DF0007830163CF0FFFF67323829041418800130
:103E000014FCFF031A5C9114CCC0011ACE04238E5B
:103E1000E123866123077313033E1C80011EEF1903
:103E20000411127F146080F3100B30E0E10718706A
:103E3000807F0C1C1B3EC487C11A404F1CC0010769
:103E4000042A03081A080410091CC001873FC00D8A
:103E5000FF1023C0FD0F03C00F8E07D807CC23D857
:103E600003FC30D8017830DC017C30CE01EF33CE5A
:103E7000C1817FC0781478C0081A06D310090FC01A
:103E8000FCFF09C0817314E0877114E08E71181271
:103E900060DC712070DC702030F870203870703079
:103EA0001805DE0C1CE07F868019A5190419151C65
:103EB000C0010604120F1BC021041EF107C0FF9FA2
:103EC000911AC19D19DC1BC0F104277138FCFFFF5A
:103ED0007F231C40320E22071A803823C8C114F8F1
:103EE000E0011478F801233C3C16BF070C80FB145A
:103EF0000CE0381B0C38041A0E04111A383114F86F
:103F0000FF1F0411F0FF0F32605AE004290C1270F9
:103F10001A08041E1CF8FFFF3F0812203230290443
:103F20002A380419AD1C18C0014C12031ADC0C1AF3
:103F3000DC351A8C0419F0111A86042307331B038D
:103F40003F971A1ECB1A1CDB123E146080F3100B35
:103F500030C0E1031870801F0C1C1C7F8607908105
:103F600084A24A0420090102030406070809A3FFEA
:0C3F7000FF2916691A250204060800004B
:0400000508000131BD
:00000001FF
