:020000040800F2
:1000000028160020CD010008090B0008B5060008DD
:10001000050B0008CD030008571D00080000000074
:10002000000000000000000000000000A919000806
:10003000D1030008000000005B020008BD1A0008A0
:10004000E7010008E7010008E7010008E7010008F0
:10005000E7010008E7010008E7010008E7010008E0
:10006000E7010008E7010008E7010008E7010008D0
:10007000E7010008E7010008E7010008E7010008C0
:10008000E7010008E7010008E7010008E7010008B0
:10009000E7010008E7010008E7010008E7010008A0
:1000A000E7010008E7010008E7010008E701000890
:1000B000E7010008E7010008E7010008E701000880
:1000C000E7010008E7010008E7010008E701000870
:1000D000E70100082D1B0008E7010008E701000800
:1000E000E7010008E7010008E7010008E701000850
:1000F000E7010008E7010008E7010008E701000840
:10010000E7010008E7010008E7010008E70100082F
:10011000E7010008E7010008E7010008E70100081F
:10012000E7010008E7010008E7010008E70100080F
:1001300000F002F800F03AF80AA090E8000C8244BF
:100140008344AAF10107DA4501D100F02FF8AFF29C
:10015000090EBAE80F0013F0010F18BFFB1A43F0A5
:1001600001031847882F0000A82F0000103A24BF71
:1001700078C878C1FAD8520724BF30C830C144BF0C
:1001800004680C607047000000230024002500264E
:10019000103A28BF78C1FBD8520728BF30C148BFEA
:1001A0000B6070471FB51FBD10B510BD00F0C8F83B
:1001B0001146FFF7F7FF01F0D9FE00F0FAF803B49B
:1001C000FFF7F2FF03BC01F0C8FD000009488047BB
:1001D00009480047FEE7FEE7FEE7FEE7FEE7FEE729
:1001E000FEE7FEE7FEE7FEE704480549054A064B41
:1001F00070470000CD1A00083101000828100020C7
:10020000281600202812002028120020EFF310806A
:1002100072B6704780F310887047204C204D2560DF
:100220004FF0000484F309881E4C4FF0010525703F
:100230001D4C4FF08055256062B6FEE730B41A4C75
:100240004FF08055256030BC704730B4164C4FF0ED
:100250008055256030BC704700BF72B6EFF309804F
:1002600028B1203880E8F00F10490968086000B50F
:100270000F4880475DF804EB0E480F490A7802707A
:100280000A480E490A680260106890E8F00F2030B2
:1002900080F309884EF0040E62B6704720ED00E04E
:1002A0000000FFFF5E00002004ED00E0640000207D
:1002B0006511000853000020540000206C0000204D
:1002C000704700000FB4044910B503AA029800F06B
:1002D00009F810BC5DF814FB1C0000207047704743
:1002E00070477047074B70B50D467B4400F011F81E
:1002F0000446284600F020F810B14FF0FF3070BDE2
:10030000204670BD631B000001694A1C0261087829
:10031000704700B58FB0CDE9013100210591054945
:100320007944CDE903101146684600F02EF80FB06D
:1003300000BD0000E5FFFFFF007B00F0800070477C
:10034000754600F03FF8AE4605006946534620F07A
:100350000700854618B020B5FFF746FFBDE82040EE
:100360004FF000064FF000074FF000084FF0000B71
:1003700021F00701AC46ACE8C009ACE8C009ACE824
:10038000C009ACE8C0098D4670472DE9F04106462A
:100390000024D6E90170F5688046304603E0414606
:1003A000B847641C3046A8470028F8D12046BDE86D
:1003B000F08110B50446AFF300802046BDE8104040
:1003C000FFF7FDBE00487047C80F002000BFFEE7E2
:1003D00070472DE9F0410246002500260020002349
:1003E0000024002791F803C00CF00F0591F803C01A
:1003F0000CF0100CBCF1000F03D091F802C04CEAD5
:10040000050591F800C0BCF1000F31D01468002040
:100410002BE04FF0010C0CFA00F3B1F800C00CEA2D
:1004200003069E4220D183004FF00F0C0CFA03F715
:10043000BC4305FA03FC4CEA040491F803C0BCF188
:10044000280F06D14FF0010C0CFA00FCC2F814C0C2
:100450000AE091F803C0BCF1480F05D14FF0010C40
:100460000CFA00FCC2F810C0401C0828D1D314605C
:10047000B1F800C0BCF1FF0F34DD546800202EE05D
:1004800000F1080C4FF0010808FA0CF3B1F800C0B5
:100490000CEA03069E4221D183004FF00F0C0CFAA8
:1004A00003F7BC4305FA03FC4CEA040491F803C0CB
:1004B000BCF1280F05D100F1080C08FA0CF8C2F8BD
:1004C000148091F803C0BCF1480F07D100F1080C6B
:1004D0004FF0010808FA0CF8C2F81080401C0828F8
:1004E000CED35460BDE8F0810246002093680B40F3
:1004F0000BB1012000E0002070470161704700004F
:100500002DE9F84F0746884693469A46DDF828902D
:100510000097B3E099F8000080283DDA99F8006070
:100520000D2E05D1009F08F110001FFA80F830E071
:10053000202E03DDA6F1200086B200E00026002474
:1005400022E000251CE004EB06105049085C8021E5
:100550002941084040B108EB040291B27A1990B2E7
:100560005A4600F097F809E0D34507D008EB04029B
:1005700091B27A1990B2524600F08CF8681CC5B25C
:10058000082DE0DB601CC4B2102CDADB07F1080098
:1005900087B209F1010971E0002668E006EB061058
:1005A0003B4911F8100099F8001088425DD106EB24
:1005B0000610374901EB4000407899F80110884255
:1005C00053D100244FE0002520E006EB061030490F
:1005D00001EB4000801C10F81410802028410140DD
:1005E00041B108EB040291B27A1990B25A4600F078
:1005F00051F809E0D34507D008EB040291B27A190B
:1006000090B2524600F046F8681CC5B2082DDCDBFB
:10061000002524E006EB06101D4901EB4000801C7C
:10062000012101EB4401405C80212941084048B18F
:1006300008EB040291B27A19083290B25A4600F0DF
:1006400029F80AE0D34508D008EB040291B27A19E0
:10065000083290B2524600F01DF8681CC5B2082D51
:10066000D8DB601CC4B2102CADDB701C86B2062E29
:1006700094DB09F1020907F1100087B299F8000034
:1006800000287FF447AFBDE8F88F00004021000844
:10069000B22E000870B504460D461646681C83B29B
:1006A000601C82B22946204600F0D4F9304600F0A2
:1006B00069F870BD00BFFEE708B50121042001F014
:1006C000D9F80120ADF8000048208DF803006946F4
:1006D0000148FFF77EFE08BD0008014010B5044642
:1006E00014B10120104908700F48007888B1012129
:1006F0000E48FFF7F9FE60B90A2001F05FFB002009
:100700000949087001210948FFF7EEFE48B90120A8
:1007100010BD01210548FFF7E7FE012801D102497C
:1007200008700020F4E700001400002000080140D9
:1007300008B50121182001F09DF84FF47040ADF884
:10074000000003208DF8020010208DF80300694698
:100750000A48FFF73EFEC020ADF8000003208DF8E8
:10076000020010208DF8030069460548FFF731FEAE
:100770008020034908614861086108BD000C014000
:100780000010014010B504464FF48050084908603D
:10079000402008490861201201F0E6F8E0B201F0BB
:1007A000E3F84FF480500249091F086010BD0000B3
:1007B000140C01400010014008B50121042001F093
:1007C00059F84FF48070ADF8000010208DF8030048
:1007D00003208DF8020069460448FFF7FAFD4FF444
:1007E00080710248FFF789FE08BD00000008014043
:1007F00070B506467F231A460021084600F02AF904
:100800002C2000F069F9002408E0002503E03046C0
:10081000FFF7B8FF6D1C802DF9D3641C802CF4D336
:1008200070BD10B5FFF784FF00F00CF9112000F047
:1008300053F9782001F0C2FAB12000F04DF90120FF
:1008400000F034F92C2000F031F92D2000F02EF9C1
:10085000B22000F041F9012000F028F92C2000F02E
:1008600025F92D2000F022F9B32000F035F9012000
:1008700000F01CF92C2000F019F92D2000F016F9D9
:10088000012000F013F92C2000F010F92D2000F0C9
:100890000DF9B42000F020F9072000F007F9C0207E
:1008A00000F01AF9A22000F001F9022000F0FEF891
:1008B000842000F0FBF8C12000F00EF9C52000F004
:1008C000F5F8C22000F008F90A2000F0EFF8002047
:1008D00000F0ECF8C32000F0FFF88A2000F0E6F802
:1008E0002A2000F0E3F8C42000F0F6F88A2000F097
:1008F000DDF8EE2000F0DAF8C52000F0EDF80E206B
:1009000000F0D4F8362000F0E7F8C82000F0CEF868
:10091000E02000F0E1F80F2000F0C8F81A2000F005
:10092000C5F80F2000F0C2F8182000F0BFF82F2003
:1009300000F0BCF8282000F0B9F8202000F0B6F84C
:10094000222000F0B3F81F2000F0B0F81B2000F0C8
:10095000ADF8232000F0AAF8372000F0A7F8002017
:1009600000F0A4F8072000F0A1F8022000F09EF8A3
:10097000102000F09BF8E12000F0AEF80F2000F00E
:1009800095F81B2000F092F80F2000F08FF8172048
:1009900000F08CF8332000F089F82C2000F086F865
:1009A000292000F083F82E2000F080F8302000F09D
:1009B0007DF8302000F07AF8392000F077F83F20F9
:1009C00000F074F8002000F071F8072000F06EF8D5
:1009D000032000F06BF8102000F068F82A2000F0E7
:1009E0007BF8002000F062F8002000F05FF80020A3
:1009F00000F05CF87F2000F059F82B2000F06CF834
:100A0000002000F053F8002000F050F8002000F023
:100A10004DF89F2000F04AF8F02000F05DF801202A
:100A200000F044F8F62000F057F8002000F03EF8FF
:100A30003A2000F051F8052000F038F8292000F0A5
:100A40004BF810BD10B5642001F0B8F9322001F068
:100A5000B5F910BDF0B504460D4616461F462A20CE
:100A600000F03AF8002000F021F8A11CC8B200F014
:100A70001DF8002000F01AF8B11CC8B200F016F8FA
:100A80002B2000F029F8002000F010F8E91CC8B273
:100A900000F00CF8002000F009F8F91CC8B200F0D2
:100AA00005F82C2000F018F8F0BD000010B5044641
:100AB0004FF48050064908604020064908612046EE
:100AC00000F052FF4FF480500149091F086010BD2B
:100AD000140C01400010014010B504464FF4805042
:100AE00006490860402006494861204600F03CFF66
:100AF0004FF480500149091F086010BD140C0140DB
:100B00000010014000BFFEE7704710B54FF4A06031
:100B100000F03AF810BD000070B5002100230F224C
:100B2000C47804B3154C246804F4E064C4F5E064AC
:100B3000210AC1F10403CA40447804FA03F184781D
:100B40001440214309010E4C0678A155047804F0A5
:100B50001F050124AC4005786D11AD0005F1E025BD
:100B6000C5F8004109E0047804F01F050124AC40F9
:100B7000044D0678761145F8264070BD0CED00E076
:100B800000E400E080E100E002490143024A116014
:100B9000704700000000FA050CED00E010B500F011
:100BA00013F800F0EBFB00F013FC00F033FC00F056
:100BB000BBFB00F08DFB00F0C7FC00F06BFC00F00D
:100BC00091FC00F002F810BD7047704706480078AD
:100BD000012808D105480078FF2804D2034800788E
:100BE000401C0249087070475E0000205100002040
:100BF00010B500241A480078012830D1FFF706FB11
:100C000004461848007820B116480078401E15495F
:100C1000087014480078F8B913480078E0B900F07B
:100C2000F5FC12481249097850F821001149086072
:100C30000F4800781049097888420DD00D480068A7
:100C4000806B401C0B49096888630C480068401C95
:100C50000A490860FFF7F9FA2046FFF7DBFA10BDF2
:100C60005E0000205100002052000020600A002099
:100C7000540000206C0000205300002038000020A9
:100C800010B50B48007890B900F0C0FC0948007816
:100C90000949087009480749097850F821000849AE
:100CA00008600846006807490860FFF7B6FA10BDFB
:100CB0005E0000205400002053000020600A002045
:100CC0006C0000206400002010B50024022000F019
:100CD0004BFAFFF79BFA044600200B4908602046B8
:100CE000FFF798FA142000F03FFAFFF78FFA044656
:100CF000054800680549086001200549087020463C
:100D0000FFF788FA10BD00006000002048000020B6
:100D100050000020704700002DE9FE4F06460F46A8
:100D200090461C464FF00009FFF770FA81461F48B5
:100D3000007828B14846FFF76DFA3C20BDE8FE8FE9
:100D40001B4850F8240060BB0120194941F82400D9
:100D50004846FFF75FFA002342463946304600F026
:100D60005FF98246002000900190034602465146FA
:100D70000290204600F060FC054635B90D48007829
:100D800001280CD100F008FC09E0FFF73FFA81468A
:100D90000020074941F824004846FFF73BFA28465F
:100DA000CCE74846FFF736FA2820C7E75100002075
:100DB000600A00205E0000202DE9F04F85B08146DA
:100DC0008A4693461C46DDE90F78129D0020039069
:100DD000FFF71CFA03902348007830B10398FFF71F
:100DE00019FA3C2005B0BDE8F08F1F4850F82400E8
:100DF00088BB01201C4941F824000398FFF70AFA38
:100E00002A464146384600F027FD2B465A465146B1
:100E1000484600F005F904901198CDE9008002954C
:100E20003A4620460E9B049900F006FC064636B969
:100E30000E48007801280CD100F0AEFB09E0FFF766
:100E4000E5F903900020084941F824000398FFF7D2
:100E5000E1F93046C6E7FFE70398FFF7DBF9282002
:100E6000C0E7000051000020600A00205E00002062
:100E7000704770472DE9F04106460F4614464FF083
:100E800000081548007818B112202070BDE8F081E4
:100E9000FFF7BCF98046FF2E03D11048006890F898
:100EA00032600F4850F826502DB94046FFF7B2F98E
:100EB00043202070EAE7012D05D14046FFF7AAF94B
:100EC00043202070E2E7EF644046FFF7A3F90020DB
:100ED000207000BFDAE7000051000020640000200D
:100EE000600A002070B505460026FFF78FF9064618
:100EF000234850F8254024B93046FFF78BF94620A7
:100F000070BD012C04D13046FFF784F94320F7E788
:100F100094F8300000F0080060B314F8300F00F0CF
:100F2000F700207014F83009F8B9E06AC8B9343411
:100F3000A0781449097808431249087020781249AA
:100F4000085C6178084314F834190F4A505430464D
:100F5000FFF760F90D480078012809D100F01CFB6B
:100F600006E03046FFF756F902E03046FFF752F947
:100F70000020C5E73046FFF74DF94420C0E70000E8
:100F8000600A002055000020560000205E0000206E
:100F9000704700002DE9F04707460D464FF0000A64
:100FA000002028606860FFF731F98246FF2F03D1E7
:100FB0001948006890F83270184850F827402CB94A
:100FC0005046FFF727F94320BDE8F087012C04D1F4
:100FD0005046FFF71FF94320F6E7207C00F00100A0
:100FE00020B95046FFF716F94520EDE70026D4F862
:100FF0000C90D4F808805046FFF70CF900E0761CFE
:1010000058F8041B0029FAD0B0002860A9EB0600AC
:10101000800068600020D7E764000020600A00209C
:1010200070B5044610464FF080750560051F2846D0
:101030002C606FF00106051F28462E604FF0123617
:10104000051F28462E604FF00336051F28462E60E8
:101050004FF00236051F28462E607610051F2846E1
:101060002E60051F284629604FF01136051F2846BF
:101070002E604FF01036051F28462E604FF00936BF
:10108000051F28462E604FF00836051F28462E60A3
:101090004FF00736051F28462E604FF00636051F15
:1010A00028462E604FF00536051F28462E604FF06B
:1010B0000436051F28462E6070BD00002DE9F04162
:1010C00005464FF00008FFF7A1F88046FF2D05D137
:1010D0002048006890F83250012608E01D4800685A
:1010E00090F83200A84201D1012600E000261A48FB
:1010F00050F825402CB94046FFF78CF84820BDE851
:10110000F081012C04D14046FFF784F84320F6E734
:1011100094F834701148C05D94F8351088430F4935
:10112000C8550846C05D30B994F836100C480078B0
:1011300088430B49087094F8300040F0080084F8A8
:1011400030004046FFF766F8012E01D100F024FA86
:101150000020D4E764000020600A00205600002030
:10116000550000207047000070B50546002617485E
:10117000007800B170BD1648007800B1FAE71DB3E1
:10118000FFF744F806461348006890F834401248C8
:10119000005D1049096891F8351088430E490855DB
:1011A0000846005D40B90B48006890F836100B48BF
:1011B000007888430949087006480068C5623046CF
:1011C000FFF728F800F0E8F900BFD3E7510000204E
:1011D000520000206400002056000020550000202E
:1011E00070B5002600F072F8FFF710F80646314897
:1011F0000068401C2F4908603046FFF70BF82E4866
:101200000078012853D12D48007820B1012804D05E
:10121000022809D103E001250BE0002509E00125A2
:1012200001202649087004E00125002023490870A8
:1012300000BF00BF05B970BD2148046833E0FEF768
:10124000E5FF0646E06A50B3E06A401EE062E06AED
:1012500028BB94F8300000F0370040B114F8300F8C
:1012600000F0C800207001206070303C02E00020D7
:1012700084F8310094F8300000F0080078B9343474
:10128000A0781049097808430E49087020780E4963
:10129000085C6178084314F834190B4A50546469A7
:1012A0003046FEF7B7FF94F832003F28C7D100BFA1
:1012B000C1E700007C0000205E00002074000020D8
:1012C00070000020550000205600002070470000EC
:1012D0002DE9F0415021114800F02CF900250DE0D6
:1012E000681C86B20D4800EB051400EB06170020C1
:1012F000207067600AA0E060681C85B2042DEFD3FF
:10130000064800EB051400202070606004A0E06037
:10131000024804490860BDE8F08100001006002082
:101320003F0000004000002070B5C821114800F0C7
:1013300001F900230FE0581C85B203EB83000D492F
:1013400001EB800405EB850001EB80060020207096
:101350006660581C83B2092BEDD303EB830005496B
:1013600001EB80040020207060600846024908609C
:1013700070BD0000480500203C00002000200A4904
:1013800008600A4908700A4908700A4908700A4941
:1013900008700A4908600A4908600A4908600A4951
:1013A00008600A49087070477C0000205100002046
:1013B000520000205F0000205E0000203800002066
:1013C000600000204C000020480000205000002059
:1013D00000210A4A1170002004E00021084A11543B
:1013E000411CC8B20828F8D30021064A1170064AE9
:1013F0001170064A1160064A1160704755000020BE
:101400005600002053000020540000206C000020F3
:101410006400002070B54FF47C71194800F08AF820
:101420004FF48071174800F085F8002413E0601C29
:10143000C5B2C4EBC40000EB4000114901EB8003CE
:10144000C5EBC50000EB400001EB80065E610EA01D
:10145000D864601CC4B20B2CE9D3C4EBC40000EB0D
:101460004000074901EB80030020586106A0D864C2
:1014700000200649086002480549086070BD000068
:10148000600B0020600A00203F0000007000002078
:101490006800002000B587B00320002180220A4B9D
:1014A000CDE90132CDE903104FF6FF703F23074A23
:1014B00000900748FFF780FC06AA06A13F20FFF72F
:1014C000D9FC07B000BD0000600800205C0A0020C5
:1014D0006D17000875432F4F532D49492049646CFF
:1014E0006500000000B587B00320002180220A4B70
:1014F000CDE90132CDE903104FF6FE703E23074AD5
:1015000000900748FFF758FC06AA06A13E20FFF707
:10151000B1FC07B000BD0000600600205C080020A0
:101520009517000875432F4F532D49492053746177
:101530007400000004E0002200F8012B4A1E91B262
:101540000029F8D1704700002DE9F04178211048BA
:10155000FFF7F0FF00240DE0601C86B204EB4400AE
:101560000B4901EBC00506EB460001EBC0072F60FD
:10157000601C84B2042CEFD304EB4400044901EB5B
:10158000C00500202860084602490860BDE8F081D7
:10159000500F00207800002010B50024FEF736FE22
:1015A000044613480078F8B912480078E0B900F012
:1015B0002DF811481149097850F8210010490860A8
:1015C0000E4800780F49097888420DD00C48006811
:1015D000806B401C0A49096888630B480068401CFE
:1015E00009490860FEF72AFE2046FEF713FE10BDEB
:1015F0005100002052000020600A0020540000200A
:101600006C00002053000020380000200649074AE3
:101610001278885C0649095C034A515C01EBC00101
:10162000044A117070470000EA2F0008550000209E
:1016300056000020540000202DE9F84F05460F46C3
:1016400090469946DDE90AAB00200090FEF7DEFDEA
:1016500000903F480468002C74D0183454F8040CEF
:101660003B4908600098FEF7D5FD44F8187CA57644
:10167000002020766076606144F814BC44F80CAC1D
:1016800044F8108C0C9824F8080C24F8069C0020D0
:10169000E077E810207705F00700E076217F012051
:1016A0008840A077E17E012088406077002060605C
:1016B000E060A0602062A0626062E062206325A01A
:1016C0006063183C002606E0002104F1500040F859
:1016D0002610701CC6B2002EF6D02046FFF71AFB6B
:1016E0002046FFF7C5FBFEF791FD00901A4840F831
:1016F00025401A48006860610020A0611748006812
:1017000010B1164800688461144804603434A0782D
:101710001349097808431249087020781149085C78
:101720006178084314F834190E4A50540E48007872
:10173000401C0D4908700098FEF76CFD0020BDE8C4
:10174000F88FFFE70098FEF765FD4220F7E70000FD
:10175000680000203F000000600A002070000020A8
:1017600055000020560000205F000020002400BF2C
:1017700000BFFEF74BFD044605480068401C0449C5
:1017800008602046FEF746FDFFF773FBF1E7000017
:1017900060000020002400BF02E02820FFF7E4FCE6
:1017A000194800780028F8D0184800686421B0FB78
:1017B000F1F0164908600846006828B9002014496D
:1017C0000870FF20FFF77AFC00BFFEF71FFD0446FC
:1017D000104800681049086000200E490860204643
:1017E000FEF718FD0C48006808490968B0FBF1F0E5
:1017F000C0F1640006490870FFF7CAFB00F00EF85C
:101800001420FFF7B1FCE0E7500000204800002062
:1018100044000020600000204C0000207CB5002522
:1018200014E069462846FFF7B5FB064666B9094845
:1018300050F8254044B1012C06D0D4E9020100EB58
:10184000810060640198A064681CC5B23F2DE8D98E
:101850007CBD0000600A002002F0010343B102F0E9
:1018600002032BB102E0491E002308C00029FAD16F
:101870007047000029B1064A92690243044B9A61FD
:1018800004E0034A92698243014B9A617047000069
:101890000010024030B500210022002400232D4D0D
:1018A0006D6805F00C0121B1042905D0082923D168
:1018B00005E0294D056022E0274D05601FE0254D1C
:1018C0006D6805F47012234D6D6805F480340225AF
:1018D00005EB92421CB9214D554305600BE01D4DAF
:1018E0006D6805F400351DB11C4D5543056002E0DF
:1018F000194D5543056002E0174D056000BF00BF5C
:10190000144D6D6805F0F0010909154D6B5C056813
:10191000DD4045600F4D6D6805F4E061090A104D2A
:101920006B5C4568DD4085600A4D6D6805F460516B
:10193000C90A0B4D6B5C4568DD40C560054D6D689F
:1019400005F44041890B074D6B5CC568B5FBF3F5A9
:10195000056130BD0010024000127A0000093D0010
:1019600022000020320000200021082117E000F0B2
:10197000800222B14FF400420A4B1A6004E04FF497
:101980000042084B1B1D1A604FF40052054B1B1DF3
:101990001A601B1F1A604206100E4A1ED1B200299F
:1019A000E5DC7047100C0140704710B500F002F8FC
:1019B00010BD00000CB50020019000903348006875
:1019C00040F480303149086000BF3048006800F4BE
:1019D000003000900198401C0190009818B90198BF
:1019E000B0F5A06FF1D12948006800F4003010B1C3
:1019F0000120009001E0002000900098012843D1D0
:101A00002348006840F0100021490860084600683B
:101A100020F0030008600846006840F002000860FB
:101A20001A484068194948600846406848600846B6
:101A3000406840F4806048600846406820F47C10AC
:101A400048600846406840F4E8104860084600686E
:101A500040F08070086000BF0C48006800F0007023
:101A60000028F9D00948406820F003000749486081
:101A70000846406840F00200486000BF03484068E4
:101A800000F00C000828F9D10CBD00000010024045
:101A900000200240042808D14FF0E021096941F0FC
:101AA00004014FF0E022116107E04FF0E0210969E5
:101AB00021F004014FF0E0221161704710B5FFF7EB
:101AC00085F8FFF78DFBFFF793F810BD10B51348AD
:101AD000006840F00100114908600846406810495C
:101AE00008400E494860084600680E4908400B4906
:101AF00008600846006820F48020086008464068B6
:101B000020F4FE0048604FF41F008860FFF74DFF8F
:101B10004FF000600449086010BD00000010024052
:101B20000000FFF8FFFFF6FE08ED00E010B5FFF73C
:101B30004DF840F225511E4800F04CF810B31C48F7
:101B400000F004F9C4B21B48008800F40040C8B992
:101B50001848008800F4804060B10A2C03D00020AF
:101B60001449088020E01348008840F400401149DF
:101B7000088019E00D2C06D10E48008840F4804002
:101B80000C49088010E00B480088C0F30D000A499A
:101B90000C5408480088401C064908800846008804
:101BA000C72801DD00200880FFF722F810BD0000E3
:101BB00000380140200000208004002021B18289EB
:101BC00042F40052828104E082894DF6FF731A408C
:101BD0008281704770B50246002400230025002052
:101BE00040F66A16B14200D100BFC1F3421501F0C0
:101BF0001F03012606FA03F3012D02D19689334013
:101C000006E0022D02D1168A334001E0968A334065
:101C10000C12012606FA04F41688344013B10CB1F4
:101C2000012000E0002070BDF0B50346002400262E
:101C30000025002040F66A17B94200D100BF1846BF
:101C4000C1F3421401F01F06012707FA06F5012C23
:101C500001D10C3004E0022C01D1103000E014302E
:101C60001AB107682F43076002E00768AF430760B7
:101C7000F0BD00002DE9F04786B005460E46002471
:101C8000A24600BFA1460027B08900B100BF2F4681
:101C90002C8A4CF6FF700440F08804432C82AC89F7
:101CA0004EF6F3100440B088318908437189084327
:101CB0000443AC81AC8A4FF6FF400440B089044332
:101CC000AC8201A8FFF7E6FD1F48874202D1DDF88C
:101CD00010A001E0DDF80CA0A88900F4004040B19C
:101CE0000AEBCA0000EB0A1031684900B0FBF1F8BA
:101CF00007E00AEBCA0000EB0A1031688900B0FB6C
:101D0000F1F86420B8FBF0F004012009642101FB24
:101D10001089A88900F4004040B1322000EBC900CE
:101D2000B0FBF1F000F00700044308E0322000EBC4
:101D300009106421B0FBF1F000F00F0004432C8186
:101D400006B0BDE8F08700000038014001468888F1
:101D5000C0F30800704700BFFEE700BF70470000F7
:101D600010B56FF00400FFF795FE104800681049A9
:101D7000B0FBF1F00F4908700C4800680C49B0FB4B
:101D8000F1F441F28830444305200B4908804FF0BC
:101D9000E020006940F002004FF0E02108610846B1
:101DA0004461006940F00100086110BD000000209E
:101DB00000127A00160000201800002070B50446BA
:101DC0000E480078012811D10D480088844206DBB6
:101DD0000B48008894FBF0F52846FFF7C5F9084842
:101DE000008894FBF0F100FB114084B24FF47A714B
:101DF00004FB01F000F006F870BD00005E0000205A
:101E00001800002070B5034600224FF0E0267569E7
:101E10000E4E367803FB06F400BF4FF0E026B169A2
:101E200010E04FF0E026B06988420BD0884202D221
:101E30000E1A324402E02E1A0E4432440146A242E7
:101E400000D300E0EDE700BF70BD000016000020E9
:101E500000BF054A128802F04002002AF9D0C2B23F
:101E6000014B1B1D1A8070470038014008B53CE04B
:101E70000020FEF733FC0446002C1BD101201B4937
:101E800008600720FFF71AF919A04EF67D731F228C
:101E9000502100900020FEF733FB19A0FEF712FA44
:101EA0001BA0FEF70FFA1EA0FEF70CFA1BA0FEF710
:101EB00009FA17E00720FFF715F81EA04EF67D730C
:101EC0001F22502100900020FEF71AFB1DA0FEF7F4
:101ED000F9F90FA0FEF7F6F911A0FEF7F3F90FA03C
:101EE000FEF7F0F90A20FFF769FFC1E7A0012142E0
:101EF000204C4544205461736B2053746F70000074
:101F00004C4544205461736B20B9D2C6F00D0A00D1
:101F1000C7B6C8EBCABDBFAAB7A2CDF80D0A00006C
:101F20006D63756465762E74616F62616F2E636F89
:101F30006D0D0A00204C4544205461736B2052758E
:101F40006E2020004C4544205461736B20D4CBD0CC
:101F5000D00D0A0006E00020034908604FF4FA7033
:101F6000FFF72CFFF7E70000A001214208B5FFF7BB
:101F7000F7FEFEF7CAFD4FF4165000F091F8FEF799
:101F80001BFCFEF799FBFEF74CFC4EF67D70FEF74E
:101F90002FFC17A04EF67D734FF47842102100906D
:101FA0000020FEF7ADFA17A04EF67D731F22202108
:101FB00000900020FEF7A4FA17A04EF67D731F22B2
:101FC000302100900020FEF79BFA18A0FEF77AF966
:101FD0001AA0FEF777F9FEF7E1FD0A231C4A00215B
:101FE0001C48FEF799FEFEF74BFE002008BD0000DE
:101FF0002020202053544D33322055434F5320206E
:10200000200000002020C7B6C8EBCABDBFAAB7A2F7
:10201000CDF82020000000006D63756465762E7495
:10202000616F62616F2E636F6D200000C7B6C8EBF1
:10203000CABDBFAAB7A2CDF80D0A00006D637564D2
:1020400065762E74616F62616F2E636F6D0D0A008D
:102050007C0100205920000870B50446002500BF0F
:10206000FEF732FEFEF7D2F805460723084A0021A4
:102070000848FEF751FE0323074A00210748FEF7F0
:102080004BFE0A20FFF71AF82846FEF7C3F870BD8A
:102090007C020020551F00087C0400206D1E0008F3
:1020A00010B586B00446012144F20400FFF7E2FBBC
:1020B0004FF40070ADF8140003208DF816001820BE
:1020C0008DF8170005A91C48FEF783F94FF48060CE
:1020D000ADF8140004208DF8170005A91648FEF786
:1020E00078F925208DF8000003208DF801008DF887
:1020F000020001208DF803006846FEF70DFD0194F3
:102100000020ADF80800ADF80A00ADF80C00ADF8FD
:1021100010000C20ADF80E0001A90848FFF7AAFD39
:10212000012240F225510548FFF77EFD01210348B9
:10213000FFF744FD06B010BD000801400038014023
:10214000000000000000000000000000000000008F
:1021500000101010101010101010000010100000CF
:1021600000006C6C2424000000000100000000004E
:102170000024242424FE48484848FC909090900075
:1021800000103C549290503814121292547810005F
:102190000000225C94A8481010242A5254880000A1
:1021A000000030484850206E54948C888A74000097
:1021B000000030301010000000000000000000009F
:1021C00000040810102020202020201010080400F7
:1021D000008040202010101010101020204080009F
:1021E00000000000105438103854100000000000A7
:1021F00000000010101010FE101010100000000061
:10220000000000000000000000000000101020008E
:1022100000000000000000FE0000000000000000C0
:10222000000000000000000000000000101000008E
:1022300000000404080810102020404080800000A6
:102240000000384482828282828282824438000086
:10225000000010701010101010101010107C0000F2
:1022600000003844828204081020408284FC000070
:10227000000038448202043804020282443800001C
:102280000000040C141424244444FE04040E000032
:102290000000FC808080B8C4820202828478000042
:1022A00000003C428280B8C48282828244380000AE
:1022B00000007E428204040808081010101000007C
:1022C00000003844828244384482828244380000CC
:1022D0000000384482828282463A028244380000FA
:1022E00000000000101000000000101000000000AE
:1022F000000000001010000000000010102000007E
:102300000000000006186080601806000000000051
:10231000000000000000FE0000FE000000000000C1
:1023200000000000C0300C020C30C00000000000B3
:1023300000384482820204081010100010100000BF
:1023400000003844829AAAAAAAAAAA9680423C000F
:10235000000010101028282844447C4444EE00005B
:102360000000FC424242427C4242424242FC0000A7
:1023700000003C448280808080808282443800005B
:102380000000F844424242424242424244F80000C5
:102390000000FC444240447C4440404244FC000075
:1023A0000000FC444240447C4440404040F0000077
:1023B0000000344C828080808E8484844C34000001
:1023C0000000EE444444447C4444444444EE000051
:1023D00000007C101010101010101010107C000065
:1023E00000003E08080808080808088888700000EF
:1023F0000000EE44484850605048484444EE000015
:102400000000E040404040404040404244FC00006A
:102410000000C6446C6C6C545454444444EE0000B8
:102420000000CE4464646454544C4C4C44E40000BA
:102430000000384482828282828282824438000094
:102440000000F844424242447840404040E00000EE
:102450000000384482828282828282BA443C020036
:102460000000F048444444487048444444E60000B6
:1024700000003C44828040300C020282447800001C
:1024800000007C5492101010101010101038000032
:102490000000EE444444444444444444443800006E
:1024A0000000EE444444442828282810101000005E
:1024B0000000EE4454545454545428282828000052
:1024C0000000EE44442828101028284444EE000060
:1024D0000000EE4444282828101010101038000086
:1024E00000007E44840808102020408284FC000004
:1024F000001C1010101010101010101010101C00E4
:102500000000EE445454FE54545428282828000057
:10251000007010101010101010101010101070001B
:1025200000304884000000000000000000000000AF
:102530000000000000000000000000000000FE009D
:10254000004020000000000000000000000000002B
:102550000000000000007884047C84848C760000F5
:102560000000C0404040586442424242645800006B
:102570000000000000003844808080804438000063
:1025800000000C040404344C848484844C36000021
:10259000000000000000788484FC808084780000C3
:1025A000000018242020F820202020202070000087
:1025B0000000000000003A444478807C82827C0065
:1025C0000000C040404058644444444444EE00008D
:1025D0000000101000003010101010101038000013
:1025E000000010100000301010101010109060004B
:1025F0000000C04040405C485060504844EE00003D
:1026000000003010101010111010101010390000C0
:10261000000000000000ACD29292929292D600008C
:1026200000000000000058E44444444444EE00002C
:10263000000000000000384482828282443800009A
:10264000000000000000D864424242645840E000AC
:10265000000000000000364C8484844C34040E00DA
:102660000000000000006C302020202020700000BE
:10267000000000000000788884601884447800001E
:10268000000000202020F820202020202418000016
:10269000000000000000C64242424242463A0000AA
:1026A000000000000000EE4444282828101000001C
:1026B000000000000000EE44445454282828000084
:1026C000000000000000EE442810102844EE000036
:1026D000000000000000EE444428281010A0C000B4
:1026E0000000000000007E448810204284FC0000AE
:1026F000000C1010101010601010101010100C00B2
:1027000000101010101010101010101010101000E9
:1027100000C0202020202018202020202020C000C1
:1027200000000000000000728C00000000000000AB
:102730000000000000001FE000003FF000003FF03C
:1027400000001FE0000180060003C00F0003C00F5F
:102750000003C00F0003C00F0003C00F0003C00F31
:102760000003C00F0003C00F0003000300000000BF
:102770000000000000000000000300030003C00F81
:102780000003C00F0003C00F0003C00F0003C00F01
:102790000003C00F0003C00F0003C00F000180063C
:1027A00000001FE000003FF000003FF000001FE0CD
:1027B0000000000000000000000000800000018018
:1027C00000000380000007800000078000000780F1
:1027D00000000780000007800000078000000780DD
:1027E000000007800000078000000180000000005A
:1027F00000000000000000000000018000000780D1
:1028000000000780000007800000078000000780AC
:10281000000007800000078000000780000007809C
:102820000000038000000180000000800000000024
:102830000000000000001FE000003FF00000FFF07B
:102840000001FFE0000000060000000F0000000F84
:102850000000000F0000000F0000000F0000000F3C
:102860000000000F0000000F00001FE300007FF8D1
:1028700000007FF800001FE0000300000003C0001C
:102880000003C0000003C0000003C0000003C0003C
:102890000003C0000003C0000003C000000180006E
:1028A00000001FF000003FF800003FFC00001FFE8A
:1028B000000000000003FF800001FFC00000FFC017
:1028C00000007F80000000180000003C0000003C79
:1028D0000000003C0000003C0000003C0000003C08
:1028E0000000003C0000003C00007F8C0001FFE085
:1028F0000001FFF000007F800000000C0000003CA1
:102900000000003C0000003C0000003C0000003CD7
:102910000000003C0000003C0000003C00000018EB
:1029200000007F800000FFC00001FFC00003FF80A7
:10293000000000000000000000020001000300038E
:10294000000380070003C00F0003C00F0003C00F87
:102950000003C00F0003C00F0003C00F0003C00F2F
:102960000003C00F0003C00F00031FE300007FF847
:1029700000007FFC00001FE0000000030000000FCB
:102980000000000F0000000F0000000F0000000F0B
:102990000000000F0000000F0000000F0000000FFB
:1029A000000000070000000300000001000000001C
:1029B0000000000000001FFC00003FF800003FF096
:1029C00000001FE0000180000003C0000003C00001
:1029D0000003C0000003C0000003C0000003C000EB
:1029E0000003C0000003C00000031FE000007FF8E8
:1029F00000007FF800001FE0000000030000000F4F
:102A00000000000F0000000F0000000F0000000F8A
:102A10000000000F0000000F0000000F0000000683
:102A200000003FE000007FF00000FFF00001FFE049
:102A30000000000000001FFC00003FF800003FF015
:102A400000001FE0000180000003C0000003C00080
:102A50000003C0000003C0000003C0000003C0006A
:102A60000003C0000003C00000031FE000007FF867
:102A700000007FFC00001FE0000300030003C00F04
:102A80000003C00F0003C00F0003C00F0003C00FFE
:102A90000003C00F0003C00F0003C00F0001800639
:102AA00000001FE000003FF000003FF000001FE0CA
:102AB000000000000007FFE00003FFC00001FF88E6
:102AC0000000FF18000000380000007800000078C7
:102AD0000000007800000078000000780000007816
:102AE00000000078000000780000001800000000DE
:102AF0000000000000000000000000180000007846
:102B000000000078000000780000007800000078E5
:102B100000000078000000780000007800000078D5
:102B2000000000380000001800000008000000004D
:102B30000000000000001FE000003FF000003FF038
:102B400000001FE0000180060003C00F0003C00F5B
:102B50000003C00F0003C00F0003C00F0003C00F2D
:102B60000003C00F0003C00F00031FE300007FF845
:102B700000007FFC00001FE0000300030003C00F03
:102B80000003C00F0003C00F0003C00F0003C00FFD
:102B90000003C00F0003C00F0003C00F0001800638
:102BA00000001FE000003FF000003FF000001FE0C9
:102BB0000000000000001FE000003FF000003FF0B8
:102BC00000001FE0000180060003C00F0003C00FDB
:102BD0000003C00F0003C00F0003C00F0003C00FAD
:102BE0000003C00F0003C00F00031FE300007FF8C5
:102BF00000007FFC00001FE0000000030000000F49
:102C00000000000F0000000F0000000F0000000F88
:102C10000000000F0000000F0000000F0000000681
:102C200000001FE000003FF000007FF00000FFE028
:102C30000000000000000000000000000000000094
:102C40000000000000000000000000000000000084
:102C50000000000000000000000000000000000074
:102C60000000000000000000000000000000000064
:102C70000000000000000000000000000000000054
:102C800000000000000078000000780000007800DC
:102C900000007800000078000000780000000000CC
:102CA0000000000000000000000000000000000024
:102CB0000000000000000000000000000000000014
:102CC0000000000000000000000000000000000004
:102CD0000000070000000F8000000F8000000F8040
:102CE00000000700000000000000000000000000DD
:102CF00000000000000000000000000000000700CD
:102D000000000F8000000F8000000F80000007000F
:102D100000000000000000000000000000000000B3
:102D200000000000000000000000000000000000A3
:102D30000000000000000000000000000000000093
:102D40000007C006000FE0060000000C0030181855
:102D5000003018180030183000301830003018607B
:102D6000003008C00007C0C0000FE0800000000075
:102D70000000000FE0000607C000063018000C300D
:102D800018000C301800183018003030180030309F
:102D9000180060000000C00FE000C007C000000085
:102DA0000000000000000000000000000000000023
:102DB0000000000000000000000000000000000013
:102DC0000000000000000000000700E0000887FC91
:102DD00000088E030008980180071800800030006A
:102DE0000000300000007000000060000000600083
:102DF0000000600000006000000060000000700043
:102E00000000300000003000000038000000180111
:102E100000000C03000007FC000001F000000000AF
:102E200000000000000000000000000000000000A2
:102E30000000000000000000000000000000000092
:102E40000000000000000000000000000000000082
:102E50000000000000000000000000000000000072
:102E600000000000000000000000000000003FF033
:102E700000007FF000007FE00000FFC000000000C5
:102E80000000000000000000000000000000000042
:102E90000000000000000000000000000000000032
:102EA0000000000000000000000000000000000022
:102EB0000000C7B60100210821083FF800202220A9
:102EC000223EFF42229422103E10221022283E2849
:102ED00022440082C8EB040002000100010001004E
:102EE0000280028002800440044008200820101064
:102EF000201040088006CABD00480044004400403D
:102F0000FFFE004000403E400840084008200822E4
:102F10000F12780A20060002BFAA00007FFC0820DA
:102F20000820082008200820FFFE0820082008208C
:102F300008201020102020204020B7A201001110EE
:102F4000110822003FFC0200040007F80A080908E3
:102F5000111010A0204040A003181C06CDF800005E
:102F60007FFC40044004421452944A5444244424B4
:102F70004A544A54529461044004401440080000EA
:102F80000000000000000000000000000000000041
:102F90000000000000000000000000000000000031
:102FA0000000000000000000000000000000000021
:102FB0000000000000000000000000000000000011
:102FC0000000000000000000000000000000000001
:102FD00000000000000000000000000000000000F1
:102FE00000000000000000000000000001000200DE
:102FF00001000300010002000100040001000200C2
:1030000001000300010002000100050001000200B0
:1030100001000300010002000100040001000200A1
:10302000010003000100020001000600010002008F
:103030000100030001000200010004000100020081
:103040000100030001000200010005000100020070
:103050000100030001000200010004000100020061
:10306000010003000100020001000700010002004E
:103070000100030001000200010004000100020041
:103080000100030001000200010005000100020030
:103090000100030001000200010004000100020021
:1030A000010003000100020001000600010002000F
:1030B0000100030001000200010004000100020001
:1030C00001000300010002000100050001000200F0
:1030D00001000300010002000100040001000200E1
:1030E0000100030001000200010000000C31000893
:1030F00000000020800000006C0100088C310008F6
:1031000080000020A81500008801000800A24A04E1
:103110000000000000000000010203040607080987
:10312000010000000000000000000000000000009E
:103130000000010203040102030406070809020457
:103140000608000000000000000000000000000071
:10315000000000000000000000000000000000006F
:10316000000000000000000000000000000000005F
:10317000000000000000000000000000000000004F
:0C31800000000000000000000000000043
:0400000508000131BD
:00000001FF
