:020000040800F2
:1000000098020020890100084D0300084103000800
:100010004B030008250200085D09000800000000ED
:1000200000000000000000000000000015060008AD
:100030003902000800000000030400081706000849
:100040005F09000801040008190600080F060008EF
:1000500049020008790500083B0200083F02000839
:100060004102000843020008450200082B02000874
:100070002D0200082F020008310200083302000898
:100080003502000837020008230200085909000859
:100090005B0900082702000829020008470200083F
:1000A0001B060008210600081F0600081D060008A0
:1000B00025060008F1060008F306000845030008BD
:1000C000430300084903000847030008110600081D
:1000D00013060008510900085309000855090008D3
:1000E0003D0200080D0600085709000800F002F85C
:1000F00000F03CF80AA090E8000C82448344AAF186
:100100000107DA4501D100F031F8AFF2090EBAE883
:100110000F0013F0010F18BFFB1A43F0010318473B
:10012000D0080000F0080000103A24BF78C878C159
:10013000FAD8520724BF30C830C144BF04680C60ED
:10014000704700000023002400250026103A28BF35
:1001500078C1FBD8520728BF30C148BF0B60704739
:100160001FB5AFF300801FBD10B510BD00F01FF824
:100170001146FFF7F5FF00F0F3FB00F03DF8FFF745
:10018000F3FF00F043F80000034800470348044928
:10019000024A044B70470000ED0000089800002060
:1001A00098020020980000207047704770477546FD
:1001B00000F028F8AE4605006946534620F00700D7
:1001C000854618B020B5FFF7E1FFBDE820404FF0AD
:1001D00000064FF000074FF000084FF0000B21F031
:1001E0000701AC46ACE8C009ACE8C009ACE8C009FE
:1001F000ACE8C0098D4670470446AFF30080204646
:10020000FFF7BDFF004870473800002003494FF05A
:100210001800ABBE70470000090000002600020075
:100220007047704770477047704770477047704716
:100230007047704770477047704770477047704706
:1002400070477047704770477047000004490A685C
:1002500022F010020A600A6802430A607047000038
:100260000020024004490A6802F038020A600A6865
:1002700002430A60704700000020024008B50F20CA
:10028000ADF8000018208DF8030003208DF802005F
:100290006946024800F004F808BD0000000801406B
:1002A000F0B5CB780022DC0603F00F0301D58C7883
:1002B00023430C880F2714F0FF0F4FF0010C1CD0C4
:1002C000D0F800500E880CFA02F42640A64210D155
:1002D000960007FA06FE25EA0E0E03FA06F5CE781A
:1002E00045EA0E05282E00D14461CE78482E00D173
:1002F0000461521C082AE5D305600A88FF2A1ED92A
:100300004568002202F108060CFA06F40E88264021
:10031000A64210D1960007FA06FE25EA0E0E03FA51
:1003200006F5CE7845EA0E05282E00D14461CE7838
:10033000482E00D10461521C082AE3D34560F0BD69
:10034000704770477047704770477047704708B5EF
:1003500000214FF0006000F049F81C208DF80000EB
:1003600000208DF801008DF8020001208DF80300B7
:10037000684600F001F808BDF0B50F23C278017897
:100380004FF0E024012742B3D4F80C2D467802F454
:10039000E062C2F5E062120AC2F10405D34082783D
:1003A000AE401A40324315018A07D20E954021F023
:1003B00003010B19D3F80064FF2191408E430D40D7
:1003C0002E43C3F800640078410900F01F0004EBDD
:1003D00081018740C1F80071F0BD01F01F00874026
:1003E000480904EB8000C0F88071F0BD024A11405A
:1003F000014302480160704780FFFF1F08ED00E0E5
:1004000070477047044A0029D16901D0014300E0D8
:100410008143D1617047000000100240044A002966
:10042000916901D0014300E0814391617047000070
:100430000010024010B500F03DF84FF48034204623
:1004400000F080F800F0C8F819490870C0B201281F
:1004500024D1002000F06CF8002000F099F84FF44F
:10046000A06000F08BF80220FFF7FCFE1020FFF7E1
:10047000EDFE4FF4E011204600F09AF8012000F064
:1004800091F8392000F034F80028FAD0022000F06A
:1004900099F800BF00F044F80828FBD10121084674
:1004A000FFF7B0FF0121BDE810400420FFF7B6BF01
:1004B000100000200B48016841F001010160416813
:1004C000094A114041600168084A11400160016811
:1004D00021F4802101604268002122F4FE02426082
:1004E00081607047001002400000FFF8FFFFF6FE39
:1004F000034600205909094A012901D1116804E085
:10050000022901D1116A00E0516A03F01F020123A0
:1005100093400B4200D001207047000000100240C1
:100520000248406800F00C007047000000100240D4
:10053000034A516821F0F001014351607047000007
:10054000001002400B490A6822F480320A600A68EF
:10055000B0F5803F22F480220A6007D0B0F5802FEA
:1005600003D1086840F4A02008607047086840F490
:100570008030F9E70010024070470000034A5168DC
:1005800021F4E06101435160704700000010024017
:10059000034A516821F4605141EAC000506070473D
:1005A0000010024001490866704700000000424206
:1005B000034B5A68084322F47C121043586070477A
:1005C00000100240034A516821F0030101435160C9
:1005D000704700000010024030B50B4C40F2FF1590
:1005E0003120FFF785FF20706068401C6060207834
:1005F00010B96068A842F3D13120FFF779FF0028D5
:1006000000D0012030BD000014000020704770476A
:100610007047704770477047704770477047704722
:100620007047000070B502214D07284600F079F8A8
:100630002A4C78B10221284600F05CF8284600F0E8
:1006400067F827492080098880B2084481B228468B
:1006500000F056F90421284600F063F878B104212F
:10066000284600F047F8284600F054F81D496080FD
:10067000098880B2084481B2284600F043F9082175
:10068000284600F04EF878B10821284600F032F8EC
:10069000284600F041F81449A080098880B2084437
:1006A00081B2284600F030F91021284600F039F8D0
:1006B000002811D01021284600F01CF8284600F030
:1006C0002DF80A49E080098880B2084481B22846A2
:1006D000BDE8704000F01AB970BD000000000020B5
:1006E000080000200A0000200C0000200E0000205E
:1006F00070477047C943018270470029018802D0C2
:1007000041F0010102E040F2FE32114001807047E9
:10071000808E7047008F7047808F7047B0F8400020
:1007200070470246138A002092890B4202EA0102B6
:1007300002D0002A00D001207047002A828901D00F
:100740000A4300E08A43828170470000F0B5028CC2
:1007500022F001020284058C8288038B0C8823F02E
:1007600070030E8925F002051C434B882E43CF8869
:100770000C4D33438786A84202D00B4DA8420DD1C1
:100780004D8923F008031D4325F004068B8822F4CD
:10079000034533438E89CA892E43324382800483C2
:1007A0000384F0BD002C01400034014070B5028C80
:1007B00022F010020284028C8388048B22F0200233
:1007C00024F4E0450C88164E240645EA14440D89AD
:1007D0002D0542EA15454A88120545EA1242CD88A0
:1007E000B042058702D00F4DA84215D14D8922F0A5
:1007F00080022D0542EA15458A8825F0400512053C
:1008000045EA12428D89C989AD0423F40C4343EAB9
:100810001545890445EA114383800483028470BD31
:10082000002C01400034014070B5028C22F480722B
:100830000284058C8388828B0C8822F070020E89DA
:10084000144325F40075320645EA12464A88CD88DD
:10085000120646EA1242104E8587B04202D00F4D72
:10086000A84215D122F400654A8923F430431206C8
:1008700045EA124222F480658A88120645EA12424D
:100880008D89C9892D0543EA1545090545EA1143B6
:1008900083808483028470BD002C014000340140B9
:1008A00070B5028C22F480520284058C8288838B7E
:1008B00025F4005523F4E0440B880F4E1B0644EA50
:1008C00013430C89240745EA14444D882D0744EA54
:1008D0001545CC88B042A0F8404002D0074CA04259
:1008E00005D18989C2F30D04890544EA1142828049
:1008F0008383058470BD0000002C0140003401405A
:10090000818670470187704781877047A0F8401043
:100910007047000010B5028802F08F020280CA887A
:100920004B8804881A43224302808A88064C01239C
:1009300082850A88A0420285838202D0034A9042BF
:1009400001D1097A018610BD002C0140003401401C
:1009500070477047704770477047704770477047DF
:100960002DE9F041FFF766FDFFF7F1FCFFF786FC8C
:100970001E484FF6FF718180022606800021C1804B
:100980004180014677073846FFF7C4FF174C3020F7
:100990000A3420800125658040F2FF70E0802681C6
:1009A00021463846FFF7D2FE658040F2FF30E080F6
:1009B00021463846FFF7FAFE658040F2FF10E080DE
:1009C00021463846FFF730FF6580FF20E080214652
:1009D0003846FFF765FF01213846FFF78EFE0122FA
:1009E0001E213846FFF7A9FEFEE700001C0000208C
:1009F000100A0008000000201C0000002801000868
:100A00002C0A00081C0000207C02000044010008A1
:100A100000000000000000000080004000200010E6
:0C0A2000000000000000000000000000CA
:04000005080000ED02
:00000001FF
