:020000040800F2
:1000000070420020010100080501000807010008F6
:10001000090100080B0100080D01000800000000A4
:1000200000000000000000000000000011010008B6
:100030000F010008000000005F020008B5EA000898
:1000400051EB00085FE7000835EB0008C1E9000844
:100050000DBD0008E9E8000885BC000889BC00085F
:100060008BBC00088DBC000891BC000819B60008C4
:100070001BB600081DB600081FB6000821B6000810
:1000800023B6000825B600087BB400084DEB000835
:100090004FEB000815B6000817B60008E1BC0008D1
:1000A00037EB00083DEB00083BEB000839EB00089C
:1000B0003FEB000841EB000843EB0008BFD4000809
:1000C000BDD40008C3D40008C1D4000849EA000820
:1000D0004BEA000845EB000847EB000849EB000835
:1000E00087BC00087DE900084BEB00080000000019
:1000F0000000000000000000000000000000000000
:1001000004480047FEE7FEE7FEE7FEE7FEE7FEE7FE
:10011000FEE700001901000800F002F800F063F8A3
:100120000AA090E8000C82448344AAF10107DA4552
:1001300001D100F058F8AFF2090EBAE80F0013F041
:10014000010F18BFFB1A43F0010318477CC00100E0
:100150009CC001000A444FF0000C10F8013B13F062
:10016000070408BF10F8014B1D1108BF10F8015B10
:10017000641E05D010F8016B641E01F8016BF9D103
:1001800013F0080F1EBF10F8014BAD1C0C1B09D15A
:100190006D1E58BF01F801CBFAD505E014F8016BCC
:1001A00001F8016B6D1EF9D59142D6D3704700005E
:1001B0000023002400250026103A28BF78C1FBD870
:1001C000520728BF30C148BF0B60704778290AF03A
:1001D000A386002070471FB5AFF300800AF0DEFE53
:1001E0001FBD10B510BD0BF01DF91146FFF7F3FF51
:1001F0000FF058FB0BF03BF9FFF7F3FF0FF0ECFAB1
:1002000002480349034A044B70470000703E002037
:10021000704200207040002070400020EFF31080FA
:1002200072B6704780F31088704724484FF0FF0182
:100230000170002080F309881D48012101702048C9
:100240004FF08051016062B6FEE71D484FF08051CB
:10025000016070471A484FF0805101607047EFF31A
:10026000098028B1203880E8F00F12490968086039
:1002700000B50A4880475DF804EB0B480B490A7843
:1002800002700C480C490A680260106890E8F00F90
:10029000203080F309884EF0040E70473DDF0008DF
:1002A0000DDA0008120000201400002015000020C4
:1002B00017000020300000203800002022ED00E070
:1002C00004ED00E070B50E46044681181546801A0C
:1002D00000F08EF92A463146204600F03DF8BDE890
:1002E000704000F0A7B97CB505460E46144607F0ED
:1002F0006FFB09F0E7FA054409F0EEFA06443F48BF
:1003000090F85D1021B990F85C00454346434443A2
:10031000281B00F087F9ADF80000281900F082F9D9
:10032000ADF80400301B00F07DF9ADF80200301983
:1003300000F078F9ADF80600684605F0F2FF06E037
:10034000224631462846FFF7BDFF05F0C3FF0028CF
:10035000F6D107F035FB7CBD2DE9F05F07468B46F3
:1003600002FB02F002EBD27100EB61082348164653
:100370000069ABEB02090BEB020A48B1B0F90610B9
:10038000514500DA8A46B0F90200484500DD814651
:100390000025344614E0ABEB050149450FDB514520
:1003A0000DDC05FB05F000E0641E04FB0402424581
:1003B000FADC124B3A199B6D381B1B6898476D1C71
:1003C000B542E8DB0025344614E00BEB0501494556
:1003D0000FDB51450DDC05FB05F000E0641E04FB5E
:1003E00004024245FADC054B3A199B6D381B1B6829
:1003F00098476D1CB542E8DBBDE8F09F2839002026
:1004000010B5914CD4E90110421A521C0021206809
:1004100006F099FD8D48810CC4E90301606110BDAF
:100420002DE9F047DFF82082DFF82492D8F8142075
:10043000D8F8040099F85C60D8F81010171A7643C1
:100440000C1A30E0D8F800204146105D50B3B0429D
:100450001AD1254604E050194078B04202D16D1CF3
:10046000BD42F8DB4868A54207D08B6942191B687A
:100470002044C96898472C4614E0D9F858202044F5
:100480005268C96890470DE0C0EB001006EBD672C9
:1004900000EB620090FBF6F0C2B24868C9682044E5
:1004A00007F014FD641CBC42CCDDBDE8F047A7E7B3
:1004B0002DE9F041044688461546824259DB644FD7
:1004C000614E97F85C1098FBF1F0F168884206D015
:1004D000FFF7A6FF97F85C0098FBF0F0F06097F844
:1004E0005C00336994FBF0F195FBF0F2994200DA7D
:1004F000316173699A4200DD72617368994201DA71
:1005000000FB03F4B1688A4203DD491C00FB01F5DE
:100510006D1EA5422DDB94FBF0F1A1EB030C95FBC6
:10052000F0F1CA1AA2EB0C013668491C6644012995
:1005300004D13178281B401C084419E09C440CF17C
:10054000010C0CFB00FCACEB0400347802E03078CA
:1005500097F85C40491E204406F8010B0129F6DC9F
:1005600097F85C10D01800FB11503178401C0844FB
:100570003070BDE8F0813649334A8B8891F85C00D1
:100580001C3243431380CB88434353800B895B1C4D
:1005900043435B1E93804989491C4143491ED180D6
:1005A000704770B50024002800DA00200A1AB2F55E
:1005B000A07F01DB00F23F11814201DA01460124F4
:1005C000234D214AAB6D5E6896629361214E02F124
:1005D00024031E60AB65204BC2E900309160FFF739
:1005E0000FFFFFF7C8FF18481C302861204670BD78
:1005F000174A92F85C2090FBF2F091FBF2F1D0E701
:10060000134981F85C00B6E7114890F85C00704728
:100610000F49002081F85D0070470D49012081F8E5
:100620005D0070470A4991F85C1009B190FBF1F048
:1006300000B2704710B5FFF7F3FE03488169044824
:100640008165011D016110BD5C01002001C0FFFF3B
:1006500028390020B1040008802000202DE9F0474F
:10066000DFF820E10D4604469EF85DC0714601208A
:1006700091F85C7016469A46BCF1000F00D13846DE
:10068000B4F9002080461346012108E034F9210026
:10069000904200DA0246984200DD0346491CA94216
:1006A000F4DBF146BCF1000F02D19919901905E075
:1006B000981990FBF7F1901990FBF7F0FFF771FF95
:1006C000B0BB99F85D0090B94A460EE034F82010AE
:1006D00092F85C30594324F8201004EB80014B88D9
:1006E00092F85C707B434B80401CA842EEDB0AFB17
:1006F00008F306FB08F22946204600F034FF99F87B
:100700005D004A46A0B911E034F9201092F85C303F
:1007100091FBF3F124F8201004EB8001B1F90230D1
:1007200092F85C60401C93FBF6F34B80A842EBDB35
:10073000BDE8F047FFF77EBF2DE9F04780468946C8
:1007400015461C4607F044F909F0BCF8461909F0B3
:10075000C3F80719002005F0E4FD78B1094D3B46C8
:10076000A86C3246446B494640460CB1A04701E0B4
:10077000FFF774FF05F0AEFD0028F0D1BDE8F047AB
:1007800007F01EB92839002010B50022C0F30B0075
:10079000B0F5006F02DDA0F500600122B0F5806FBA
:1007A00001DDC0F500608311FA4C00F03F0034F821
:1007B0001310C0F140004143402806D004EB43032E
:1007C0005B88C0F1400003FB0011203189094842D9
:1007D000002A00D1084610BD00F58060D4E7EE4B3A
:1007E0001A7D012A02D19A6D52681047521E02EBFF
:1007F000D272521001F074BC2DE9F84F141A05465C
:100800005F1A884691469B464FF0000A54EA07005B
:1008100004D141462846BDE8F84FE0E7204600F005
:1008200025FA0646384600F021FA86420ADA2046C2
:100830003C4607462846454680464846D9468346B4
:100840004FF0010A204600F011FAA04203D06442A2
:100850007F424D46D84604EBD4704FEA6009002F22
:1008600001DAC9F10009DFF830B300269BF8160061
:10087000C8B914E007FB069090FBF4F04044BAF1CD
:10088000000F06D1DBF85810AB194A68014618462C
:1008900003E0DBF85820A91952689047761CA6425D
:1008A000E8DDBDE8F88F19E007FB069090FBF4F057
:1008B00040440090304600F01EFA70B9BAF1000FC3
:1008C00005D1DBF85810A8194A68009904E0DBF854
:1008D0005800A919426800989047761CA642E3DDAB
:1008E000DFE72DE9FF470446AB481646027D0D467B
:1008F0009846012A07D1434632462946204604B08D
:10090000BDE8F04778E7A01BA5EB080150EA01031A
:1009100068D0A2F1010900F0ADF900F5806C00F596
:100920000060FFF731FF00FB09F76046FFF72CFF7F
:1009300000FB09F0002F04DAC7F500718912494263
:1009400002E007F50077B912002804DAC0F500705C
:100950008012404202E000F500708012002904DDA0
:100960004A1C02EBD272521003E001EBD17252101A
:10097000491E01EBD1714B10002804DD411C01EB35
:10098000D171491003E000EBD0714910401EA71847
:10099000ADF800706F18ADF80270E71A00EBD07078
:1009A0004010ADF804702F1AF31AADF80830A8EB18
:1009B0000000ADF80A00B018ADF80C0008EB01001B
:1009C000ADF80E000023ADF806701A460421684603
:1009D00000F0C9FD2946204600F0C8F941463046DE
:1009E00000F0C4F9BDE8FF872DE9F04104460D464B
:1009F00016461F4606F0ECFF6749086C496C044434
:100A000006440D440F44002005F08BFC07E03B46F4
:100A1000324629462046FFF764FF05F05BFC0028BC
:100A2000F5D1BDE8F04106F0CBBF70B55A4C054694
:100A30000E46B4F92810B4F9260033462A46FFF7CB
:100A400050FFE584268570BD534AD08411857047D8
:100A50002DE9F0410D46B0F9021006460446B0F902
:100A600000001746984619441044FFF7EDFF08E0D0
:100A7000B4F9060000EB080134F9040F3844FFF71D
:100A8000D4FF6D1E002DF3DCB4F90010B6F90000A0
:100A9000814205D1B4F90210B6F90220914207D083
:100AA000B6F90220384402EB0801BDE8F041BCE78A
:100AB000BDE8F0812DE9F04106460F4614461D467B
:100AC00006F086FF3448016C406C0C44054400205D
:100AD00005F027FC07E02B46224639463046FFF753
:100AE000B7FF05F0F7FB0028F5D1BDE8F04106F0AF
:100AF00067BF70B505460C4606F06AFF2648C18CF4
:100B00002944C184018D21440185BDE8704006F06F
:100B100057BF70B504460D4606F05AFF002005F099
:100B200000FC60B11C4EB6F92810B6F926004B192E
:100B30000219FFF7D6FE05F0CDFB0028F3D12946B8
:100B40002046FFF7D6FFBDE8704006F039BF70B50C
:100B500005460E4606F03CFF0F4C206C0544606CC9
:100B60000644002005F0DDFB09E0B4F92810B4F9D3
:100B7000260033462A46FFF7B4FE05F0ABFB0028FB
:100B8000F3D131462846FFF75FFFBDE8704006F01D
:100B900017BF0000F03501082839002070B5054660
:100BA0000C4606F015FF7449086C496C2844214432
:100BB000FFF74AFFBDE8704006F002BF2DE9FC4197
:100BC00006460C461546984606F002FF6A4A107D16
:100BD000116C526C4F19401E0E44311AADF80010C2
:100BE00039181444ADF80410211A02EB0805284402
:100BF000ADF80600ADF80210684605F092FB15E06E
:100C00003A462146304606F08FFF3A46294630469E
:100C100006F08AFF6A1E611C304607F0F3F86A1E70
:100C2000611C384607F0EEF805F054FB0028E7D1C8
:100C300006F0C6FEBDE8FC8170B504460D4606F020
:100C4000C7FE4D48016C406C0C440544002005F083
:100C500068FB05E029462046FFF7C1FD05F03AFB99
:100C60000028F7D1BDE8704006F0AABE002800DCDD
:100C70004042704710B50022002801DA01224042AC
:100C8000002902DA42F002024942814204DD0B46A9
:100C90000146184642F00402890200EBD07301EBD2
:100CA000630191FBF0F08010031100F00F00334C52
:100CB000C0F1100134F913004843102907D004EBA8
:100CC0004303B3F90230C1F1100103FB0100083006
:100CD0004FEAE07100EB11704FEA2010510701D587
:100CE000C0F58060D10701D0C0F50060910701D543
:100CF000C0F5805010BD20490122897D012915D001
:100D000002291ED0032926D004292DD1182190FBB9
:100D1000F1F201FB12000C2806DBA0F11001022900
:100D200002D3143802281FD201207047801DC1173A
:100D300000EB117121F00F01401A0C2809DB002291
:100D400007E0C11700EB917121F00301401A02285E
:100D5000F5DA10467047142190FBF1F201FB120006
:100D60000C28E1DB1038DDE700207047024A527D95
:100D7000002A00D133E570472839002012360108D7
:100D800070B5054606F024FE284600F04EFF04002C
:100D900006D0204600F057FF2A46002106F0D3F87F
:100DA00006F00EFE204670BD10B5044606F010FE9B
:100DB000204606F0FBFF00B206F0FCFF044606F0FA
:100DC000FFFD204610BD10B50446FFF7EDFFA04221
:100DD00001D1012010BD002010BD10B50446FFF761
:100DE000E3FF01462046BDE8104006F095B900003B
:100DF0007CB5294C0546608C216C08446084A08C2D
:100E0000616C0844A084284601F030F8618CADF88C
:100E100000100844401EADF8040000F0D8FCA18C7E
:100E2000ADF802100844401EADF80600684605F013
:100E300078FA04E0284600F0E6FF05F04BFA0028B7
:100E4000F8D10A2D03D0BDF80400401C6084608CEA
:100E5000216C401A6084A08C616C401AA0847CBD17
:100E600010B5044606F0B4FD2046FFF7C1FFBDE80B
:100E7000104006F0A5BD70B506460D46144606F0B6
:100E8000A7FD0548458484843046FFF7B1FFBDE8DF
:100E9000704006F095BD0000283900202DE9FC4780
:100EA000050071D006F094FD00F094FF374E074620
:100EB000B6F9229000F0C1FFB18C8046081AB084C8
:100EC00053E047F6FF71284606F023FC82460146B0
:100ED000284606F036FC0446B08D00F003000128D9
:100EE00005D0022805D104EBD470401002E0204662
:100EF00000E00020718C6A46081A7084ADF800008A
:100F0000611E0844ADF80400B08CADF80200791EF3
:100F10000844ADF806005146284606F029FCBDF805
:100F20000200B0845146284606F091FB054428781B
:100F30000A2801D00D2811D1B08D00F0030001283E
:100F400001D0022808D14846708428780A2809D19F
:100F5000B08C3844B08405E0308CF5E7BDF8000073
:100F600020447084287818B16D1C28780028A8D1F6
:100F7000B18C01EB0800B084B08D20F00300B08587
:100F8000BDE8FC4706F01CBDBDE8FC872839002001
:100F900070B506460D46144606F01AFD0448458411
:100FA00084843046FFF77AFFBDE8704006F008BD44
:100FB000283900202DE9F04104460A480D46B0F9D1
:100FC0002C00164640F0020000F05CFD0746324659
:100FD00029462046FFF7DCFF3846BDE8F04100F027
:100FE00051BD0000283900202DE9F0410446C768B2
:100FF00086B00E469046002000F02AFD054620F0FF
:1010000002001FB1397909B145F0020000F020FD5E
:10101000276967B1D4E9020101238DE80B0003932E
:10102000638822883C6841463046A04717E0E06864
:1010300006F0D0FF20B9E1880020012900D11F4827
:10104000A1880346E088A26802AF0FC7012300937E
:101050000193638822884146304606F0A0FD284669
:1010600006B0BDE8F04100F0F3BC7CB505460E4685
:10107000144606F0ADFC1148016C406C0E4404446B
:101080002988701E0844ADF80400ADF80060698836
:10109000601E0844ADF80600ADF80240684605F051
:1010A00040F906E0224631462846FFF79DFF05F04D
:1010B00011F90028F6D106F083FC7CBD2839002008
:1010C0002DE9FF4F8BB000200A900090AC48B0F99A
:1010D00006200592B0F90A0004900B98199A00882E
:1010E00008900B984088079019984042002A00DB2E
:1010F0001046069005DA0898A0EB03030698A3F1C2
:10110000010343434FF47A7293FBF2F0A1EB000921
:1011100018981A9940424843114605F0ABFE0D99C4
:1011200008440390401C1A9902904FF0FF300029A8
:1011300000DB012001900B98C06818B1007908B15C
:1011400001200090002091E01899039F401A1A99FD
:10115000401C48434FF47A7105F08CFE0D99084409
:101160000390029887427FD002970598874270DBF0
:10117000049887426DDC00254FF0FF362C46AA46C6
:10118000284657E006980444B4F57A7F50DB199856
:101190004146002803DC0898A0EB0801491E099A83
:1011A0000B9806F0FBF80A991FFA80FB8B4501D1DA
:1011B000701C36D1BBF1000F0FD1009868B1BAF1A5
:1011C000000F2CD009EB0502521E09EB0600394630
:1011D00006F0AAFC4FF0000A21E0BAF1000F09D096
:1011E000701C07D009EB0502521E09EB06003946B8
:1011F00006F09AFC0B982E4600694FF0010A18B1D0
:1012000041685846884704E00B98C068806850F8E9
:101210002B005B49896C0968884706F045FCCDF8CE
:1012200028B04FF47A706D1CA4F57A748442FADA0F
:1012300008F10100089980468842A3DBBAF1000F4B
:1012400007D009EB0502521E09EB0600394606F0ED
:101250006BFC019807441A980028039802DA874229
:1012600083DC01E0874280DB0998401C07990990E4
:101270008842FFF669AF0FB0BDE8F08F2DE9F04F5F
:1012800087B0DDE910A706460C4615469946DDF8FD
:10129000488006F09DFB06F0E6F8069038484FF4CB
:1012A0007A7B016C406C0C440544C9F10000784322
:1012B000002F594610DB05F0DDFD2044ADF810008D
:1012C0003188A1EB0900401E7843594605F0D2FD54
:1012D0002044ADF814000FE005F0CCFD2044ADF83B
:1012E00014003188A1EB0900401E7843594605F0EF
:1012F000C1FD2044ADF81000CAF1000000FB08F069
:10130000B8F1000F594611DB05F0B4FD2844ADF8E3
:1013100012007188A1EB0A00401E00FB08F059463C
:1013200005F0A8FD2844ADF8160010E005F0A2FD78
:101330002844ADF816007188A1EB0A00401E00FB9E
:1013400008F0594605F096FD2844ADF8120004A8AF
:1013500004F0E7FF0BE0CDE900A74B462A46214603
:101360003046CDF80880FFF7ABFE04F0B3FF00284D
:10137000F1D1069800F019FB06F022FB07B07BE7DD
:10138000283900202DE9F04106460F4614461D4637
:1013900006F01EFB3248016C406C0C4405440020F2
:1013A00004F0BFFF07E02B4622463946304600F0E6
:1013B00008F804F08FFF0028F5D1BDE8F04106F0F1
:1013C000FFBA2DE9FF5F26480F4600691646B0F9BF
:1013D0000280B0F90690002460B1B0F90010B1426B
:1013E00000DD8C1BF119B0F90400491E814201DDBA
:1013F000871B7F1CBC4231DA0098039930F9140036
:10140000014428E00098039A30F9140085184145FA
:1014100001DA45451EDB494501DD4D451ADC6818FA
:1014200000EBD0704FEA600B04EB06008246A94245
:10143000A0F1010005DC5A4606F0E4FC2A465946B4
:1014400005E00A46594606F0DDFC5A462946504654
:1014500006F0D8FC2946641CBC42D3DBBDE8FF9FE4
:10146000283900202DE9FC4105460E46174606F0B6
:10147000AFFA104C206C616C064407440D44ADF883
:101480000060ADF80470ADF80250ADF80650684643
:1014900004F047FF07E0A06D3A460368294630464E
:1014A000984704F017FF0028F5D106F089FABDE847
:1014B000FC810000283900207CB504460D46164604
:1014C00006F086FA0E48016C406C0C440544064454
:1014D000ADF80040ADF80440ADF80250ADF806603C
:1014E000684604F01EFF06E032462946204606F014
:1014F00089FC04F0EFFE0028F6D106F061FA7CBD0D
:101500002839002010B50B480024006810B180472E
:1015100000B1012405F086F800B10124204610BD79
:1015200010B5002400E00124FFF7ECFF0028FAD1F9
:10153000204610BDA801002030B5894D2B680C2B2A
:1015400010DA884C190009D004EB410232F9022C60
:10155000824203DB24F81120491EF5D124F8110042
:101560005B1C2B6030BD2DE9FE4F064640F6FF7434
:101570006042894617469A46002101900BE006EB2F
:101580008100B0F90200A04200DA0446019A9042BC
:1015900000DD0190491C4945F1DB7348006970B1D9
:1015A000B0F90610019AA1EB0A01914200DA01910B
:1015B000B0F90210A1EB0A00A04200DD0446A9F137
:1015C00001000290A7E04FF00008DFF894B1454613
:1015D000CBF800807EE0029940468D4200DA681C1C
:1015E00006EB850EBEF9021006EB8003B3F902206C
:1015F0008C46A14239D1A24213D15B4A36F925105B
:1016000036F92000926DCB193844D2F800C004EBB3
:101610000A01834202DA0246184600E01A46E04711
:1016200057E0284600230BE0411E08B9A9F101014B
:10163000084606EB8101B1F90210A14204D15B1CFE
:1016400002998B42F0DB2146A14242D0091B36F9B8
:101650002500121B51403AD4434A3844926D04EBA2
:101660000A0113680246984733E0A24231D001DBF9
:10167000A14203DDA1422CDBA2422ADC6146944553
:101680000ADC0846A14224DC1146A24221DBBEF955
:1016900000C0B3F9002008E01046A24219DCA142C4
:1016A00017DBB3F900C0BEF90020231AA2EB0C022D
:1016B0005A43002AA1EB000302DD02EB630202E0C1
:1016C000A2EB6302521C081A92FBF0F06044FFF791
:1016D00033FF6D1C4D45FFF67EAF04EB0A00009012
:1016E00000208046054611E01E49B8F1000F31F98F
:1016F00015B007D01C4907EB0B02896D38440B6805
:101700000099984788F0010858466D1C14490968EB
:101710008D42E9DB641C019884427FF754AFBDE839
:10172000FE8F2DE9F04106460F4614461D4606F091
:101730004FF90D48016C406C0C440544002004F046
:10174000F0FD07E02B46224639463046FFF70BFFF7
:1017500004F0C0FD0028F5D1BDE8F04106F030B935
:1017600088010020C0210020283900202DE9FC41FB
:1017700004460D4616461F4606F02AF91049086C25
:10178000496C044406440D440F44ADF80040ADF8E4
:101790000460ADF80250ADF80670684604F0C1FD73
:1017A00007E03B4632462946204606F0D8F904F0C9
:1017B00091FD0028F5D106F003F9BDE8FC81000099
:1017C00028390020002801D005F06FB8704710B507
:1017D00006F0FEF805F05CFB044606F0F1F8204642
:1017E00010BD00000448332101703921817030217F
:1017F000C1706121017170478C01002010B5044651
:1018000006F0E6F80F488484002406F0D9F8204654
:1018100010BD10B5044606F0DBF80A4844840024E5
:1018200006F0CEF8204610BD70B505460C4606F011
:10183000CFF8044845840025848406F0C1F8284682
:1018400070BD00002839002030B4002821D011B329
:101850000AB3B1F90030B2F90040A34200DD2346DB
:101860000380B1F90230B2F90240A34200DD234601
:101870004380B1F90430B2F90440A34200DC2346AE
:101880008380B1F90610B2F90620914200DC1146BE
:10189000C18030BC704701B9114630BC082209F044
:1018A000F5BB00001F49002248684A6070471D4987
:1018B0004A68002A00D14860704700B5FFF7F2FF80
:1018C0000028FBD100BD174A083203C21549012088
:1018D0000860704770B5002406F07AF8114908686E
:1018E00078B1401E01F108040860D4E9005128468F
:1018F00008F0BCF96068012802D12846FFF7D7FF3D
:10190000012406F05DF8204670BD70B504460D4612
:1019100008F0ACF9002804D129462046BDE8704003
:10192000D1E770BD9401002010B506F051F81248BF
:10193000047D06F045F8204610BD10B506F048F8C5
:101940000D48447D06F03CF8204610BD70B50546B4
:1019500006F03EF80848047D057506F031F820468B
:1019600070BD70B5054606F033F80348447D4575F3
:1019700006F026F8204670BD283900206022044970
:1019800009F00FBC01466022014809F00ABC0000C2
:101990002839002010B5044606F01AF8204606F053
:1019A0000DFABDE8104006F00BB810B5044606F07D
:1019B0000FF8204606F00EFABDE8104006F000B819
:1019C00010B5044606F004F80C496FF07040486307
:1019D000204606F072F8BDE8104005F0F1BF10B5E2
:1019E000044605F0F5FF05496FF070400863204696
:1019F00006F05AF8BDE8104005F0E2BF2839002093
:101A000010B50020FFF7C6FF6FF07F40FFF7CDFF56
:101A10000120FFF79BFF002000F034F8002000F0C9
:101A20003FF8002000F014F8084800F01DF8BDE869
:101A30001040002005F0A0BD10B505F0C9FFFFF76C
:101A4000DFFFBDE8104005F0BBBF0000383D0108D6
:101A500010B5044605F0BCFF204606F037F80446F2
:101A600005F0AEFF204610BD70B5054E0446B569C1
:101A700005F0AEFF04B1B46105F0A2FF284670BDC9
:101A80002839002070B5054605F0A2FF0348B0F9DB
:101A90002C40858505F094FF204670BD2839002034
:101AA00070B5054605F094FF0348B0F92A40458516
:101AB00005F086FF204670BD283900202DE9F0474B
:101AC00080464FF0FF390020BE4F1BE037F8120070
:101AD000498806EB4605014437F91500411A0CB256
:101AE00044450EDA6CB1B849014407EB4500B0F942
:101AF0000220081B09F010FB37F81500001B27F81F
:101B00001500304600EB400207EB42010E79002E33
:101B1000DCD100EB400107EB420237F91110B2F9BA
:101B20000220114441F28832521A424500DB8146BC
:101B30000FFA89F0BDE8F087A4489D2141608160DB
:101B400041F28831C18101820021016081819D487B
:101B500004224280018001719D4901200870704774
:101B60002DE9F041044600F027F9E41C24F00300BD
:101B7000DFF8588204B2B8F90E00A04218DB914E8B
:101B8000012000EB400106EB4101498809B905B28B
:101B900003E0401C9E28F4DB00254DB1204600F0F8
:101BA000E0F8411C07D12046FFF788FF411C02D115
:101BB0000020BDE8F08100EB400236F8121006EB81
:101BC000420CBCF8022005EB45078B189CF804106A
:101BD00006EB4702548026F81730117121B101EB52
:101BE000410106EB41014D7150718CF80450D8F859
:101BF00000004146401CC8F80000D8F80400401E10
:101C0000C8F80400D8F80820824200DD886088897E
:101C100020448881C889001B00B2C881B1F9102016
:101C2000824200DD08822846C3E710B5040000D1D7
:101C300010BD05F0CDFE2046FFF792FF044605F0EB
:101C4000BFFE204610BD002806D05E4900EB4000D4
:101C500031F910005C490844704710B500F0ACF849
:101C60005A48B0F90E0010BD70B5002405F0B0FE62
:101C700000F0A2F80021534A0DE032F813106B88EF
:101C8000194400EB400332F81330591A09B2A1424B
:101C900000DD0C46014601EB410302EB43052879C8
:101CA0000028EAD101EB410002EB430132F81000B9
:101CB0004988084441F28831081A00B2A04200DD88
:101CC000044605F07DFE204670BD002806D03D4943
:101CD00000EB400001EB4000B0F90200704710B586
:101CE000040008D005F074FE204600F013F8BDE8AB
:101CF000104005F065BE10BD10B5044605F068FE45
:101D0000B4F90000FFF7EBFF00202080BDE8104091
:101D100005F056BE2B4A10B500EB400002EB400127
:101D2000B1F9020000281BD0284BDC890444DC8177
:101D30009C89201A9881002048800879497901EB14
:101D4000410402EB4404207120B100EB400002EB9F
:101D5000400041715868401C58601868401E186067
:101D600010BD30B50021174C0CE034F91330B5F933
:101D700002502B4402EB420534F91550EB1A834212
:101D800015DA114601EB410304EB43052A79002AD9
:101D9000EBD101EB410204EB430334F91220B3F918
:101DA00002301A4441F288339A1A824201DB08B2A7
:101DB00030BD4FF0FF3030BD05480078002800D11D
:101DC000BAE6704760350020D82100201439002081
:101DD000A401002010B505F0FBFD2B488069447D6F
:101DE00005F0EEFD204610BD10B505F0F1FDFFF742
:101DF000F1FF25498A8C10448884088C4884BDE80A
:101E0000104005F0DDBD10B504460A2802D1BDE83A
:101E10001040E9E70D2C0FD005F0DAFD1A48806973
:101E20000168204688471948016809B1204688475B
:101E3000BDE8104005F0C4BD10BD10B5002405F08C
:101E4000C7FD1149888D00F00C0004280AD008282D
:101E500001D00C2802D18869007D440805F0B0FD4E
:101E6000204610BD8869047D641EF7E710B504465E
:101E700005F0AEFD04488069416820468847044665
:101E800005F09EFD204610BD28390020B00100203D
:101E90002DE9F0433F4D0446A86987B0B5F92A60A3
:101EA0008069214600F06BF8002847D0416800881F
:101EB000201A01EBC004A778304605F007FE6268DF
:101EC0008146CDE903722B46012005930290A86953
:101ED000C37D827DCDE90023037D2278B5F92410EE
:101EE000B5F9220005F05BFEA869477D017D8F42B0
:101EF00019D9C07D474301FB00F8022E13D005F02D
:101F0000B2FA064605F099FAFFF74FFDB5F922003F
:101F100021784218B5F92410CB19414405F01FFE71
:101F20003046FFF742FD484605F0D0FDAA69B5F9F5
:101F300022006178927D01FB0200688407B0BDE851
:101F4000F08370B5134C0546A0692946806900F0FE
:101F500016F8002807D041680088281A11F83000C8
:101F6000A169897D484370BD01200880704710B584
:101F7000806900F004F8002800D0012010BD06E0C0
:101F800002888A4202D842888A4202D280680028A7
:101F9000F6D17047283900202DE9FC5F0546104432
:101FA000DFF8E4830190D8F8580017460E4601EB9D
:101FB000030942681C46494601989047E81B009077
:101FC000D8F858004946426800989047D8F8580019
:101FD00006EB070B05EB0409426859464846904753
:101FE000D8F85800A6EB070A426851464846904781
:101FF000002C1AD0D8F85800371B4268464639469C
:1020000001989047B06D3946426800989047B06D8E
:102010002C1B4268594620469047B06D5146426895
:10202000204602B0BDE8F05F1047BDE8FC9F2DE9F7
:10203000F0478046894640F2C32050434FF47A71FE
:1020400090FBF1F602FB02F002EBD27100EB6107AC
:10205000761C1446002349464046FFF79DFF0125A4
:1020600013E005FB05F004FB0400B84206DD23463F
:102070002A4649464046FFF78FFF641E23462A46FC
:1020800049464046FFF788FF6D1CB542E9DDBDE8D3
:10209000F0877CB505460E46144605F099FCBA4813
:1020A000016C406C0D440644281BADF80000281953
:1020B000ADF80400301BADF802003019ADF8060091
:1020C000684604F02EF906E0224631462846FFF71E
:1020D000AEFF04F0FFF80028F6D105F071FC7CBDDE
:1020E0002DE9F84F06460F4640F2C32050434FF407
:1020F0007A7190FBF1F000F1010802FB02F002EBB3
:10210000D27100EB6100B1180090DFF87CB2144688
:10211000B01ADBF8582013680A463946984701255B
:1021200030E005FB05F004FB04000099884216DD51
:10213000444513DD7219DBF858309146701B521E6E
:10214000391982461B68401C9847DBF85830A9F1C2
:1021500001021B68391B0AF101009847641EDBF875
:10216000580006EB0409A6EB040A036879194A46ED
:1021700050469847DBF85800791B03684A4650469A
:1021800098476D1C4545CCDDBDE8F88F70B5044619
:102190000E46154605F01CFC7B48016C406C0C4457
:1021A0000644002004F0BDF806E02A4631462046E9
:1021B000FFF796FF04F08EF80028F6D1BDE87040D6
:1021C00005F0FEBB2DE9FC5F074602FB02F08346EB
:1021D0005843894600FB03F11E4601EB50081446A4
:1021E0000025DFF8A4A123E005FB05F00BFB00F1BF
:1021F00006FB06F200E0641E04FB04F002FB001084
:10220000002C01DD4045F6DC3A19381BCDE900020F
:10221000DAF8583009EB05011B6898473DB1DAF848
:102220005800A9EB05010368DDE9000298476D1C21
:10223000B542D9DDF9E62DE9FC4104460D461646C6
:102240001F4605F0C5FB5048016C406C0C4405442A
:10225000A01BADF80000A019ADF80400E81BADF814
:102260000200E819ADF80600684604F05AF807E0E5
:102270003B46324629462046FFF7A4FF04F02AF8E1
:102280000028F5D105F09CFBBDE8FC812DE9F04F5D
:102290008B4685B002FB02F104915943064601FBCF
:1022A00003F000EB510014469A4691460025009039
:1022B0003BE001D1002410E0049905FB05F0414307
:1022C0000AFB0AF200E0641E04FB04F002FB0010AB
:1022D000002C02DD009B9842F5DC25B3301B0390F7
:1022E000ABEB0507A6EB0900791C3B460290039A6D
:1022F000FEF782FA0BEB0508DDE90202A8F1010105
:102300004346FEF779FA3019B14402460190791C30
:102310003B464846FEF770FAA8F10101434648469D
:10232000019AFEF769FAA1466D1C5545C1DD05B05D
:10233000BDE8F08F2DE9FC4104460D4616461F46C8
:1023400005F046FB1048016C406C0C440544A01B92
:10235000ADF80000A019ADF80400E81BADF80200CC
:10236000E819ADF80600684603F0DBFF07E03B46DE
:10237000324629462046FFF789FF03F0ABFF0028CD
:10238000F5D105F01DFB7FE72839002010B5044684
:1023900005F01EFB204605F009FD044605F010FB84
:1023A000204610BD2DE9FC4104460D4616461F4649
:1023B00005F00EFB042005F089FB33498046086CCC
:1023C000496C044406440D440F44ADF80040ADF898
:1023D0000460ADF80250ADF80670684603F0A1FF46
:1023E00007E03B4632462946204605F0B8FB03F09D
:1023F00071FF0028F5D1404605F068FB05F0E0FAD2
:10240000BDE8FC8110B500210846FFF70DFA40F643
:10241000FF725042BDE8104013460146C2E770B556
:102420001A492E2008700BF021F81948164C006844
:10243000251D2561A064201D05F008FD1548A06537
:1024400015482561A0610120207504F051FAA0878C
:10245000032084F85C006FF070402063606300200C
:1024600005F0ACFC6FF07F4005F0B4FC0B48E06178
:1024700005F0F6FA05F081FC044604F038F905F0A1
:10248000F5FA204670BD000028390020A501002083
:102490008802002034360108383D0108ACB3010839
:1024A0000AF0E2BF70B504460AF0DEFF0519052602
:1024B00007E0FFF735F83046052C00DC20460AF02F
:1024C000BFFF0AF0D1FF2C1A002CF2DC70BD1FB543
:1024D00001AB00936B4604F0CCFD01A8FEF7DEFCD7
:1024E0001FBD7FB50D4601A900911446694604F051
:1024F000B1FD6D1EE9B26B46224604F0BAFD01A89B
:10250000FEF7CCFC7FBD1FB501A90091694604F020
:1025100080FD01A8FEF7C2FC1FBD7FB5051E01A806
:102520000C46009006DA6946284604F093FD641EC6
:102530000546E4B2284604F079FDC1B2202003E04C
:10254000009A02F8010B00920A46491CC9B2A24245
:10255000F6D36946284604F05CFD01A8FEF79EFC10
:102560007FBD0022BDE70022B1E77FB515460C46CE
:1025700001AA194600926B46002204F07AFD2A4611
:10258000214601A8FEF704FD7FBD4FF480310928E4
:1025900016D2DFE800F00507090B0E151510130021
:1025A0000846704700F014B800F015B84FF4A0705A
:1025B0007047F020704742F2684070471020704723
:1025C000A0F58050884201D205F0F4BB002070478E
:1025D0004FF4A0707047F02070474FF4A070704720
:1025E000F0207047102070474FF480307047012072
:1025F00070470120704740F2352070472DE9FF4FAA
:1026000087B08A460021774C0591217BDDE916B918
:1026100041F34001491C054604911598012149EAFE
:102620000B03012B00D1002102916E490B884988D0
:1026300063F30F0261F31F42039230B1816821B14D
:1026400005F0C8FC059000287AD0B9F1010F0AD135
:1026500064480A9AB0F90A10A1EB0A00411C9142A1
:1026600001DA401C0A904FF000084446ADE014988F
:1026700000780190149810F8017F401C1490019884
:1026800000287ED00599384609B131F8170005F0C9
:102690000BFA049947EA01000690019808EB00063E
:1026A0000998864200DB06460198A6EB0807C01B86
:1026B000C0B201900698B0B1029860B10BFB08500F
:1026C00009FB04A1421E01EB09030BFB07225B1E61
:1026D00005F045FA07E07219521E04EB0A0105EBFA
:1026E000080005F021FA0998B046864202D1641C20
:1026F0004FF0000801980028CFD166E014980499A3
:10270000007800901498401C1490009851EA101022
:102710001FD000980599000909B131F810000299FD
:1027200079B105F0C1F90BFB085009FB04A101EBDD
:10273000090300EB0B025B1E521E05F010FA08E0C5
:102740004DE005EB0803024604EB0A01184604F0CD
:1027500021FF099808F10108804502DB4FF00008CD
:10276000641C701EC7B286B30098049900F00F0075
:1027700001431ED0059909B131F81000029981B1C9
:1027800000E01EE005F090F90BFB085009FB04A1E6
:1027900001EB090300EB0B025B1E521E05F0DFF993
:1027A00007E005EB0803024604EB0A01184604F0B3
:1027B000F1FE099808F10108804502DB4FF000089E
:1027C000641C791ECEB2002F98D10A988442FFF67D
:1027D0004EAF0449039808800398000C48800BB062
:1027E000BDE8F08F283900202DE9F84FDDF828A04A
:1027F0000400884693461F4621D00026B4F90010F5
:102800003046002900DB08468146B4F90200002862
:1028100000DB0646FFF7DCFE411EB4F9040000F0C1
:1028200058F80546FFF7D7FE411EB4F9060000F040
:1028300050F8A5EB0904641C851B6D1C08E04FF0E3
:1028400000094E46FFF7C4FE0446FFF7C4FE0546E6
:1028500007B96F42002C01DD002D02DC0020BDE82D
:10286000F88F3B46224631464846CDF800A005F099
:102870006CFC5FEA000A04D15846414688470120B3
:10288000EDE7504605F0A2FD0746504605F08FFCE7
:10289000002415E0291BB94202DA504605F0ACFDD0
:1028A0003CB132194946504605F0C0FD504605F08E
:1028B00071FD584641468847504605F061FD3C444D
:1028C000AC42E7DB504605F0C1FB002005F06FFC91
:1028D000C4E7884200DD0846704700002DE9F04358
:1028E0000446E68C87B008464FF00009C6F3002581
:1028F00007F028F808B12F4600E00227206CFFF708
:10290000B3F8B4F9480010B1FFF79DF9814605A866
:10291000FEF758FFDDE90501CDE903012DB9206A75
:1029200000688047206A42690DE0002005F052FAF5
:10293000BDF91A30BDF91820BDF91410BDF9160003
:10294000FEF73CF9012203A903A804F022FB04EBE3
:1029500087008046806A05F031FAD8F8340005F027
:1029600039FA03A807F00EFBFFF74CFD022F06DA39
:10297000B4F84C10002031B12DB1012003E0B4F8BF
:102980004E0000B1022004EB40000022B0F94A00E2
:10299000114605F0FCFFDDE90301CDE9010125B198
:1029A0000122114601A804F0AFFD0220FFF778F8DC
:1029B000B4F9442001A9484604F09AFCF00706D077
:1029C000002005F007FA022105A804F097FC00207A
:1029D00007F0D8FA07B0BDE8F08370B5B0F904602D
:1029E00005463046FFF72FF904462946304606F0E3
:1029F000FCFC00283FD028680B282BD00C2806D0E0
:102A00000F2833D131462046BDE8704066E7A868FC
:102A1000C8B1007A0028E08C4FEAC0500FD00028DF
:102A200029DB4FF48071304606F0ABFCA08B8007A9
:102A300021D53046BDE87040012107F00FB90028CC
:102A400019DA022200E0032221463046BDE8704038
:102A500000F0ACB804F14800FFF74EF904F14A0069
:102A6000FFF74AF904F14C00FFF746F92846BDE8A4
:102A7000704003F0E1BD70BD2DE9FF47DDE90C9822
:102A800004460D4616461F46DDF83CA004F0A0FFA4
:102A90003023AFF2B9021FFA88F1CDE90091CDE9F8
:102AA00002233B4632462946204603F0D0FA040072
:102AB0000DD02046FFF7C7F805461022514606F014
:102AC0008EFC2022454905F1280008F06AFB04F03D
:102AD00077FF204604B0BDE8F08770B504000D46CE
:102AE00010D004F075FF2046FFF7ADF829464830B6
:102AF00004F05CFA10B1204603F0A7FABDE870407C
:102B000004F05EBF70BD70B504000D460CD004F03B
:102B10005FFF2046FFF797F80564204603F095FA1B
:102B2000BDE8704004F04CBF70BD70B504000D46A8
:102B3000164610D0022D0ED804F04AFF2046FFF7AB
:102B400082F800EB85008662204603F07EFABDE83D
:102B5000704004F035BF70BD70B504000D461646D8
:102B600010D0022D0ED804F033FF2046FFF76BF88B
:102B700000EB85004663204603F067FABDE870402D
:102B800004F01EBF70BD06F0DABB4FF4807200295E
:102B9000114601D006F0F5BB06F00ABC00294FF043
:102BA000100101D006F0EDBB06F002BC70B50C467A
:102BB000064615464FF4807106F0FAFBA08B80079D
:102BC00003D52946304607F049F8022D05D1B4F95E
:102BD0002400BDE87040FEF76ABE70BDC001002051
:102BE0002DE9FF410D461F46DDE90A311646002258
:102BF000CDE90021CDE902233B4632462946FFF7C5
:102C00003BFF04B0BDE8F0812DE9FF410D461F46B2
:102C10000446DDE90B3116460A9800228DE80F00C4
:102C20003B46324629462046FFF726FFE9E77FB5B7
:102C30000446084615461E46B4F90830628A00214B
:102C40008DE80F00B4F90C00B4F910308119B4F913
:102C50000A00B4F90E202844FFF70EFF054661680C
:102C6000FFF73BFF284604B070BD00003F480068F6
:102C700070473E49024608680A6070473EB5002228
:102C80006C46134615462CC42A22029100926946CE
:102C900003F042F83EBD0EB5002269461346944645
:102CA00081E80C102A210091694603F035F802985A
:102CB0000EBD2DE9F8430D4616461946DDE90823F9
:102CC000044600962668B047064603F005FE804697
:102CD000618A304606F055FB304604F042F8404623
:102CE00007E00023009354F8187F1A464146204617
:102CF000B84704F036F86D1E002DF2DC304607F0C0
:102D000065F81E21404606F0CDFF3046BDE8F88349
:102D100070B505460C46FFF7BEFF08B1012112C091
:102D20002846BDE8704003F024B81CB5002269466F
:102D300013460CC16946FFF7A1FF04E0FEF7F0FB64
:102D400008B90AF085FB00980028F7D001981CBD4F
:102D50007CB514461D46DDE90623CDE900232B464C
:102D60002246FFF7A6FFBDE87C40DEE7E001002039
:102D70002DE9F04704468AB008464FF0000806F0F7
:102D8000E1FD04EB8000806E05F018F8206E05F080
:102D900021F8E06DFEF768FE04A9204603F013F960
:102DA00008A9204606F090FAB4F9280010B1FEF701
:102DB0004AFF8046DDE90801CDE90601BDF818109B
:102DC000A06D02AA0144491CADF81810BDF81C10F2
:102DD000081A401EADF81C0006A94046636D03F0BA
:102DE000F9FFE08CC00745D0CDF8048094F8490085
:102DF000012500B10546B8F1000F3BD094F848001A
:102E000008B9606C30B3404604F04AF8216C814246
:102E100020DA606CA8B100250E460AE03146404633
:102E200004F015FC404404F0DDFBFFF71FF80544F7
:102E3000761CD4E910010844B042EFDC55B90125F5
:102E400008E0404604F003FC404404F0CBFBFFF7ED
:102E50000DF80546DDE90269002708E001A804F045
:102E6000E3FBFFF703F8304460F30F067F1C206C90
:102E7000B842F3D1002003F054FA002822D04FEAE0
:102E8000264A6D1E36B235444FEA294708A807F096
:102E900079F802AB06AA08A9404606F087FCE08C48
:102EA000C00705D03B462A465146304604F0FAFAA0
:102EB000002007F067F8204606F074FB03F00AFADA
:102EC0000028E3D10AB0BDE8F08770B50546B0F937
:102ED00028000C46002819D0FEF7B5FE03F0E0FFED
:102EE00095F8481001B10121002C00DA0024844239
:102EF00000DD0446B5F92A00401AA04200DA044673
:102F0000286CA04200D02C640020686470BD2DE9BC
:102F1000F84F5FEA00090C465CD004F059FD4846C2
:102F2000FEF791FE0546B0F9280000284ED0FEF7C6
:102F30008AFE0090E86DFEF797FD8246484603F052
:102F400030FD0746009804F09AFA0646686D00F0D6
:102F50000300012808D002280CD1B81B401C00EB4C
:102F6000D070A4EB60040BE0A96DB81B401A241AC2
:102F7000641C05E0296AA86D49690844241A641E86
:102F8000009803F08DFF8046002C01DA002114E048
:102F9000B44201DD414610E00026374608E06846AD
:102FA00004F042FBFEF762FF0744A74204DC761CF4
:102FB000464501DAA742F2DB31462846FFF785FF96
:102FC0005046FEF751FD484603F03FF8BDE8F84F84
:102FD00004F0F6BCBDE8F88F70B50446808D461845
:102FE000B4F92800314604F0C3FC050009D0208D57
:102FF00020B92846FEF727FE00210170A685258509
:10300000012070BD70B504460D46B4F928100020AB
:1030100021B10846FEF717FE08F019F8A18D2844E3
:10302000411A491C002905DD10312046FFF7D4FF65
:10303000002800D0012070BD70B50546B1F9280008
:103040000C46002819D0FEF7FEFD0646216C04F060
:10305000FEFA0446304607F0FAFFA0420DD9344488
:10306000204604F0B1FA2118204607F0CBFF28468D
:10307000BDE87040052106F0F1BD70BD70B5044695
:10308000B4F92810002000290BD00846FEF7DBFD1C
:103090000546216C04F0DBFA2844BDE8704004F0DA
:1030A000A1BA70BD70B506000D4678D004F090FC52
:1030B0003046FEF7C8FD040076D0E26C1AB129460E
:1030C000304690476DE0122D66D019DC082D3DD0BA
:1030D0000D2D66D0102D33D0112D4ED1B4F928000E
:1030E00000285ED0FEF7AFFD0546216C04F0AFFA74
:1030F0004419204604F076FA7F2852D2401C19E089
:10310000132D06D01B2D4CD01D2D29D01E2D34D1B2
:1031100021E0B4F92800002843D0FEF794FD0546CD
:10312000216C04F094FA4419204604F05BFA20283C
:1031300037D9401E20700521304606F08FFD30E063
:10314000216C491E2046FFF7C0FE2AE0216C204674
:10315000491EFFF7BAFE21463046FFF76DFF20E01B
:1031600094F84800012803D1002084F8480018E0B2
:10317000012084F84800216CE4E7202D11DB94F84D
:10318000480018B121463046FFF756FFAAB2214643
:10319000304600F0C4F920B1216C491CD2E707E0A9
:1031A00002E0304602F051FFBDE8704004F008BC78
:1031B00070BD2DE9F041B0F9047004463846FEF7C1
:1031C00042FD0546384606F0BDFB06462146384618
:1031D00006F00BF900282CD020680B2813D00C28FF
:1031E00008D00E2814D00F281ED139462846BDE835
:1031F000F041BDE5A068B8B1017AA9B101683846CF
:10320000FFF785FE10E005F12800FEF775FD0BE0E5
:1032100056B1A0684168002906DD0168092903D07C
:103220003846BDE8F0413DE72046BDE8F04103F0F7
:1032300003BABDE8F0812DE9FF4105460E46DDE900
:103240000A0189B2DDE90D8417469C4641F480519C
:103250005023D14A41F002018DE80F0063463A46FF
:103260003146284602F0F3FE060025D004F0B0FBFC
:103270003046FEF7E8FC05461022414606F0AFF85E
:103280001C22C64905F1540007F08BFF012185F887
:103290004910082004B1204601B269850020A885A4
:1032A0002885491C2846FFF797FE18B9304602F0DA
:1032B00060FD002604F084FB304604B0B9E770B529
:1032C00004000D460DD004F083FB2046FEF7BBFC46
:1032D00018B1C565204602F0B8FEBDE8704004F0A4
:1032E0006FBB70BD70B505000C46164611D004F0DA
:1032F0006FFB2846FEF7A7FC38B1022C05D200EB85
:1033000084008666284602F0A0FEBDE8704004F006
:1033100057BB70BD70B505000C46164611D004F0C1
:1033200057FB2846FEF78FFC38B1022C05D200EB84
:1033300084000666284602F088FEBDE8704004F06E
:103340003FBB70BD2DE9F0415FEA00080E4645D055
:1033500004F03EFB4046FEF776FC04467EB3B4F92B
:103360002800002520B1FEF76EFC07F070FE451C1A
:10337000304603F095FDB4F92A10814200DA084680
:103380000146304604F063F9471C791B2046FFF7DD
:1033900039FEE0B1B4F92800FEF755FC3A46314653
:1033A00007F074FE7F1E2764B4F92A0087420ED10D
:1033B00094F8480001280AD17F1E276407E0FFE740
:1033C00004F12800FEF798FC0020A0852064404608
:1033D00002F03BFEBDE8F04104F0F2BA29E72DE926
:1033E000F04107460C00154622D000262670002F1B
:1033F0001ED004F0EDFA3846FEF725FCB0F928009F
:1034000090B1FEF720FC074603F04AFDA84200DD1C
:1034100028460146384604F01AF905460246394660
:10342000204607F033FE6655BDE8F04104F0C8BA07
:10343000FFE670B504004FF0000507D004F0C8FAAD
:103440002046FEF700FCC56B04F0BAFA284670BDB2
:1034500070B505000C461FD004F0BAFA2846FEF7F6
:10346000F2FB016BA14200DD0C46416BA14200DA88
:103470000C46C16BA1420BD0C463016D09B1284653
:103480008847284602F0E1FD0521284606F0E6FBC4
:10349000BDE8704004F094BA70BD2DE9F04106001B
:1034A0000D4628D004F094FA3046FEF7CCFB0446D3
:1034B000B0F92A00A8421AD00FDDB4F9280060B193
:1034C000FEF7C1FB074603F0EBFCA84205DD2946E9
:1034D000384604F0BCF800213954A08D291A491C43
:1034E0002046FFF779FD6585304602F0AEFDBDE868
:1034F000F04104F065BA9CE670B504000D460DD0AD
:1035000004F066FA2046FEF79EFB18B1456520469A
:1035100002F09BFDBDE8704004F052BA70BD2DE989
:10352000F0410546B1F92A000C46904600280DDD11
:10353000B4F92810002021B10846FEF784FB03F0FF
:10354000AFFCB4F92A10401C884223DC404604F04A
:1035500067F8064601462046FFF754FDD0B1B4F99E
:103560002800FEF770FB0746216C04F070F83C1849
:10357000204607F06CFD421CA019214607F0CCFD47
:103580004146204604F03CF80521284606F066FB3B
:1035900001204EE600204CE6B3310008E401002093
:1035A000F0B50F4615461E460446B0F90820418A7C
:1035B000436985B00020CDE9007002A80EC0B4F9BF
:1035C0000C00B4F910308119B4F90A00B4F90E20D6
:1035D0002844FFF730FE050003D0618A2846FFF734
:1035E0008BFF284605B0F0BD70B506460D46FEF7C8
:1035F0002AFB040037D0102D1DD0112D09D0122D1B
:1036000016D0132D1DD1204600F086F8401E0DD493
:1036100006E0204600F080F8401C012800DD002074
:1036200032462146C0B200F067F817E00120F7E704
:10363000216C491C01E0216C491E2046FFF745FC26
:103640000CE0303D012D01D94FF0FF35002D05DB99
:1036500032462146E8B200F04FF8E9E73046BDE8CF
:10366000704000F039B870BD2DE9F04180460F463A
:1036700016461D4604F0ACF9B8F1000F28D04046BC
:10368000FEF7E1FA2A49C1642A49C76301650021AE
:103690000164B0F92A1004460A1E06DC28460021FF
:1036A00001E04008491C0028FBD1202900DD202131
:1036B0008A4202D04046FFF7F0FEC4E90C650120C3
:1036C00084F84800404600F007F8404602F0BDFC90
:1036D000BDE8F04104F074B938B5FEF7B4FA044619
:1036E000B0F92800FEF7AFFA0090608D6A46C1B2CB
:1036F000E06B03F07CFC38BD30B4044610464A8DC4
:103700000B6CC96BD31A5B1E01229A409C409143FB
:10371000214330BCFFF79CBE418D026CC06B891AFF
:10372000491E01228A401040C840C0B270470000C4
:10373000E9350008D936000830B4B0F92A30056CF4
:103740000C4601215B1B5B1E00E009015B1EFCD2E5
:10375000002A01DAC943491CC06B0144204630BC31
:10376000FFF776BE2DE9F04106460D46FEF76BFAEF
:10377000040018D0102D11D0112D06D0122D0AD012
:103780004FF0FF32132D13D100E0012231462046C5
:10379000FFF7D2FF07E0216C491C01E0216C491EB4
:1037A0002046FFF792FB3046BDE8F04100F057B8E5
:1037B000A5F130073846092F08D925F02000A0F1DF
:1037C0004101052901D8373800E010460028EADB1E
:1037D000618D226C891A491E89000F228A40884017
:1037E000E16B914301433046FFF732FED3E72DE909
:1037F000F04180460F4616461D4604F0E9F8B8F140
:10380000000F28D04046FEF71EFA1D49C1641D492D
:10381000C763016500210164B0F92A1004460A1E3D
:1038200006DC2846002101E00009491C0028FBD1E4
:10383000082900DD08218A4202D04046FFF72DFE0C
:10384000C4E90C65012084F84800404600F007F800
:10385000404602F0FAFBBDE8F04104F0B1B838B5DB
:10386000FEF7F1F90446B0F92800FEF7ECF90090F4
:10387000608D6A46C1B2E06B03F036FC38BD0000D3
:10388000653700085F38000870B504460D46FEF73E
:10389000DAF9B0F85C100A0725B1002A0DDB41F017
:1038A000080103E0002A08DA21F00801A0F85C1002
:1038B0002046BDE8704002F0C8BB70BD10B501469F
:1038C000CA8C0020920607D5B1F94000002803D128
:1038D000886A03F0DEFD801C10BD2DE9F05F4FF01B
:1038E000000805460C46C146B0F9426003F04BF8AB
:1038F0008346284603F04EF88246E88C800601D5C0
:10390000B5F944902846FFF7D9FF0746B5F94E00B0
:1039100010B103F059F880462780A4F80280ABEB81
:10392000060006EB0901A680401ECA19208102EBA1
:103930000801E180AAEB0601491E6181A68120826F
:10394000F019E681401E6082B5F9180022E0FEF70A
:103950007AF9B0F90010B5F90020B0F90430891AED
:103960009A1AB0F90230B5F90270DB1BB3420FD1DD
:10397000838B1B0606D5B4F910208A4208DB491E4A
:10398000218205E0B4F90C10914201DC521CA281A5
:10399000B0F91A000028DAD1BDE8F09F2DE9F04F08
:1039A0008BB0044602F0F7FB06464FF0000B02F026
:1039B000F8FF0546304603F007F80646B4F94280A2
:1039C00005A92046FFF789FFB4F85C00C0F3C007E3
:1039D000B4F9500010B1FEF736F98346BDF818006F
:1039E000ADF80C00BDF81C00ADF81000BDF82200C9
:1039F000ADF80E00401CADF82200BDF82000BDF867
:103A00002610401CADF81210ADF82000BDF82400BF
:103A1000401EADF82400A06AFEF726F8B4F95A302B
:103A200008A901AA58460A9103F0D4F9BDF9140077
:103A300000EB080A002002F074FC002844D0AAF130
:103A4000010904EB8707F86A04F0B8F9786B04F011
:103A5000C1F901AB03A958460A9A05F0A7FEFF4831
:103A600004F0B8F90021A8F101036A1E0846FDF729
:103A70007DFEBDF918200021521E731E0846FDF779
:103A800075FEBDF91C00731E401C6A1E0021FDF767
:103A90006DFEBDF91E10731E491C6A1E0020FDF745
:103AA00065FEB4F944006A1E00EB0903514600208C
:103AB000FDF75CFEB4F94200022801DB05F056FE7A
:103AC00002F008FC0028BED10BB0BDE8F08F70B545
:103AD00004000D4609D003F07BFF29462046FFF77E
:103AE000D3FEBDE8704003F06BBF70BD2DE9F0411F
:103AF000B0F90460054688B03046FEF7A4F80446E5
:103B0000D5F80880476E05E0796828468847002880
:103B100028D13F68002FF7D12868172845D032DC1C
:103B20000D2875D021DC0B2871D00C283CD1AD6854
:103B3000002D17D0287A002814D0B4F85C000007B4
:103B400002D4304603F0A6F8304602F073FEB4F813
:103B50005C00C00606D5C2482946B0F900203046B0
:103B600006F0EEF808B0BDE8F0810F2819D014284F
:103B70007AD103A92046FFF7B0FE082204A94046E7
:103B800007F084FAEEE71F2821D021284DD02628FF
:103B90000ED02A2868D1A86808B12066E2E7206E16
:103BA0002DE02046FFF7FAFE5EE0B4F94C0026E077
:103BB000A8680228D6D1ADF80660A8680290272030
:103BC0000090B5F90600694602F0A6F8CAE7A868B1
:103BD000012816D1B4F95E0002F027FF20B1B4F934
:103BE0005E0003F057F805E0B4F94C0006F0EEF87B
:103BF000A4F85E0001213046FFF769FF0020A860AD
:103C0000B0E700213046FFF762FFABE700E027E0B6
:103C1000B4F85C00000727D4A8688068F8B1007A7F
:103C2000E8B1304603F036F81EE0AF68BFB1B7F92F
:103C30000200314605F081FE20B101213046FFF738
:103C400023FE11E000213046FFF71EFEB7F9000009
:103C5000314605F061FE10B13888A4F85E0003E03B
:103C600004F15000FEF748F82946304605F0BDFB48
:103C7000002887D0284602F0DFFC73E72DE9FE43D9
:103C80000446B0F90400074605F096FF8046FDF7AC
:103C9000DAFF0546866C2068172855D008DC0E2808
:103CA0003CD00F280CD014284ED015284CD042E020
:103CB0001F2819D020282AD022283CD1E86B24E0E4
:103CC000E86B6FF07041884203D004F077F8FEF79C
:103CD00099FB002E06D00ECC68460EC0ADF80470DD
:103CE0006846B047BDE8FE83A0680028FAD0B5F961
:103CF0005E0020B1B84202D002F0CCFF04E03846AA
:103D000006F064F8A5F85E000020A060EAE721460E
:103D1000404603B0BDE8F04305F067BBA0684168CA
:103D2000002908DD0068092805D1384606F04EF85C
:103D3000A5F85E00D6E73EB1A4F804802046B4465C
:103D400003B0BDE8F04360472046BDE8FE4302F003
:103D500073BC10B50446B0F84C0086B018B9B4F87E
:103D60004E00002829D001A92046FFF7B6FDB4F97E
:103D70004C00A8B1BDF90A20BDF9081005F046FFB6
:103D8000BDF90E00BDF90A10421ABDF90C00BDF9CB
:103D90000810521C411A491CB4F94C0006F08EF868
:103DA000B4F94E00002808D0BDF90A10BDF906206C
:103DB0008A1ABDF9081005F029FF06B010BD70B5CC
:103DC00004000D4610D003F003FE2046FDF73BFF34
:103DD0002946503003F0EAF810B1204602F035F9D8
:103DE000BDE8704003F0ECBD70BD2DE9F04F89B027
:103DF00005460E4612A890E8030E17469C4641F46D
:103E000080544823174AA1B2DDF85C808DE80F008A
:103E100063463A463146284602F019F906004BD06F
:103E200003F0D6FD3046FDF70EFF05463022514621
:103E300005F0D5FA0A492022091D05F1280007F0EE
:103E4000B0F9002048356882C5F80080A5F81490C4
:103E5000E882E880E861483D04A905E0AAAAAA0032
:103E600000020020ED3A00082846FFF736FD41F237
:103E70008271CDE900610023284ACDE90223BDF912
:103E80001A00BDF91610BDF91820431ABDF9140027
:103E90005B1C121A521C02F0DAF8A5F84C0042F230
:103EA0000400044202D1304602F082FF59463046F7
:103EB000FFF785FF03F084FD304609B005E670B5D5
:103EC00005000C4611D003F083FD2846FDF7BBFE2C
:103ED000B0F95A10A14204D0A0F85A40284602F086
:103EE000B4F8BDE8704003F06BBD70BD70B5040060
:103EF0000D4611D003F06CFD2046FDF7A4FE30F80E
:103F00005C1F15B141F0100101E021F010010180AA
:103F1000BDE8704003F054BD70BD00007D3C00085A
:103F200010B50168272911D1B0F906402046FDF7E8
:103F30008AFEB0F85C000006204603D5BDE81040BC
:103F400004F0D9BBBDE8104004F0C4BBBDE810408C
:103F5000FEF743BD1CB5684605F0D2FD8049BDF8AB
:103F60000020086C0244ADF80020BDF80220496C26
:103F70000A44ADF80220BDF804201044ADF8040056
:103F8000BDF806000844ADF80600684602F0C9F91D
:103F900038E0BDF90420BDF90210BDF90000521E41
:103FA000491C401C03F0C0FDBDF90420BDF90210FE
:103FB000BDF90000521E891C401C03F0B5FDBDF97F
:103FC0000420BDF90610BDF90000521E491E401C18
:103FD00003F0AAFDBDF90620BDF90210BDF90000ED
:103FE000521E491C401C03F00DFFBDF90620BDF90F
:103FF0000210BDF90400521E491C401E03F002FFCE
:1040000002F068F90028C4D11CBD1CB5684605F053
:1040100077FD5348BDF80010026C114409B2ADF8A9
:104020000010BDF80230406C0344ADF80230BDF81A
:1040300004301A4412B2ADF80420BDF8063018441A
:10404000ADF80600501A4000801C032190FBF1F4EB
:10405000684602F066F960E0BDF90400BDF902109F
:10406000421E491C001B03F05FFDBDF90400BDF9B1
:104070000210421E891C001B03F056FDBDF9020010
:10408000BDF904200119BDF90000521E204403F0BF
:104090004BFDBDF90600BDF90210021BBDF904007D
:1040A000491C001B03F0AEFEBDF90210BDF904006F
:1040B0000A19491C401E03F0A5FEBDF90000BDF918
:1040C00006100219091B401C03F02EFDBDF900006B
:1040D000BDF906100219091B491C401C03F024FD00
:1040E000BDF90000BDF906100219491E401C03F07D
:1040F0001BFDBDF90600421E011BBDF90000401C5E
:1041000003F080FEBDF90600421E011BBDF9000050
:10411000204403F077FE02F0DDF800289CD11CBD9E
:1041200010B502F038F805F047FDFDF78CFDB0F84A
:104130005C00000602D5BDE8104066E7BDE810400F
:1041400008E710B5072304F01CFA0446054A0021CD
:1041500004F0A7F90449204602F060FD204610BD96
:104160002839002021410008213F000810B50168CE
:10417000272911D1B0F906402046FDF764FDB0F8BB
:104180005C004006204603D5BDE8104004F0B3BAF9
:10419000BDE8104004F08DBABDE81040FEF71DBC2C
:1041A00010B501F0F8FF05F007FDFDF74CFDB0F884
:1041B0005C00400603D5BDE8104000F04EB8BDE8F5
:1041C000104000F00FB810B5082304F0DAF90446E7
:1041D0003F4A002104F065F93E49204602F01EFDE9
:1041E000204610BD7CB5684605F08AFC3A48BDF80B
:1041F0000010026C114409B2ADF80010BDF8023095
:10420000406C0344ADF80230BDF804301A4412B2D9
:10421000ADF80420BDF806301844ADF80600501A79
:10422000401C4510684602F07CF813E001240DE0C4
:10423000BDF90600001BA0EB6501BDF90400021BDF
:10424000BDF90000204403F06FFC641CAC42EFDBBE
:1042500002F040F80028E9D17CBD7CB5684605F045
:104260004FFC1D48BDF80010026C114409B2ADF8B6
:104270000010BDF80230406C0344ADF80230BDF8C8
:1042800004301A4412B2ADF80420BDF806301844C8
:10429000ADF80600501A401C4510684602F041F87F
:1042A00013E001240DE0BDF9020004EB65010144B7
:1042B000BDF90400021BBDF90000204403F034FCEA
:1042C000641CAC42EFDB02F005F80028E9D17CBDAC
:1042D000A14100086D41000828390020F0B587B0E1
:1042E0000CAD1C46E0CD0B4600210291CDE9031038
:1042F0000593CDE900123B46324629462046FFF79A
:1043000074FD07B0F0BDF0B587B016461F46DDE975
:104310000CC2DDE90E3E0D46CDE900CE044600217B
:10432000029103A80EC03B46324629462046FFF7BD
:104330005CFDE6E7F0B587B00F4615461E4604461D
:104340000C9BB0F908104268408ACDE90423002391
:10435000CDE90073CDE90201B4F90C00B4F91030D5
:104360008119B4F90A00B4F90E202844FFF73DFD85
:1043700007B0F0BD2DE9F04106460F4603F028FBDB
:104380008EB13046FDF75FFC0446FFF797FA05460D
:104390002046A762FFF7DDFC2946204604F087F897
:1043A000304601F052FEBDE8F04103F009BB0000C9
:1043B00010B50024283004F0E0FA00B1441D204676
:1043C00010BD2DE9FF470446406830B301280FD0E7
:1043D00002287ED1B4F90000FDF735FC0446806C5C
:1043E00003F05BF8B4F87610084404B0BDE8F08739
:1043F000B4F90000FDF727FC0546806CFDF734FB9F
:1044000006462846A168FFF7D3FF03F038F80446B4
:104410003046FDF729FB2046E7E7B4F90000A6681F
:10442000FDF711FC05463146283004F095FAFDF7FA
:104430000AFC074602A805F063FBFDF7CBFC8046AB
:104440003879C0F3400100F0010295F8740040078C
:1044500005D529B90AB102200DE000200BE009B111
:10446000032008E0B5F97200B042F6D1E98C0220D1
:10447000C90700D1012005EB8007386D03F09EFCD1
:10448000386E03F0A7FC31462846FFF791FF8146BE
:104490000220FDF705FBFDF7B5FFD4E90312491C27
:1044A0004846FCF775FD95F8740040071FD5B5F92F
:1044B0007200B0421BD1E068ADF800002069ADF891
:1044C0000200BDF80C00ADF80400A8F1010021695C
:1044D00000E00CE00844ADF80600386D6FF07F4155
:1044E000081A03F077FC0021684602F007FF00205D
:1044F0007BE7283004F0A5B92DE9F0470E46804649
:104500009146114606F1280004F037FA040001D064
:1045100065886DB9B06CFDF7A7FA07464B460222D5
:104520003146404600F096FC05463846FDF79CFAB9
:1045300004B16580284659E72DE9F84F83460027E6
:10454000FDF781FB80462830009004F07AF981461F
:1045500000261CE03146009804F00FFA040001D058
:10456000258875B9D8F84800FDF77EFA82463346AB
:1045700001224146584600F06DFC05465046FDF7C5
:1045800073FA04B12580AF4200DA2F46761C4E45FF
:10459000E0DB3846BDE8F88F2DE9F04180460F4654
:1045A000164601F1280004F04CF9B04210D97C6B9A
:1045B000B4420DDC002506E0224639464046FFF7AE
:1045C0009BFF0544641CB442F6D32846BDE8F08145
:1045D0004FF0FF30FAE72DE9F04780468946012485
:1045E000283004F02EF90646012816DD002548463D
:1045F00000F03FFC0746344607E022464146484665
:10460000FFF77AFF0544BD4201DC641EF5D5341B7B
:10461000641E012C01DA0120E8E62046E6E63EB5FC
:104620000D460021044668460A460B460EC0204649
:10463000FDF709FBB0F9700010B9204605F0BCFA8F
:10464000262100910295ADF80640694601F064FB11
:104650003EBD2DE9F041B1F972504E6B80460C46DB
:10466000002D25DB04F1280004F0EBF8A84219DD49
:10467000606BA84216DC2A4621464046FFF78CFFB5
:1046800007462A4621464046FFF736FFC5194046F1
:1046900000F0EFFBA84205DAB4F97200A16B401AF2
:1046A000401C6063B4F97200616B884200DA606399
:1046B00004F13000054605F0C2F904F13C0007465C
:1046C00005F0BDF93A462946404604F0F9FE606B14
:1046D000801B7BE710B5283004F04FF9002802D08A
:1046E00000210180418010BD1CB50446694605F0DB
:1046F0000FFA6946204601F072FC1CBD2DE9FC4111
:1047000006460F46151E1DDB2A4639463046FFF782
:1047100043FF041E16DB2A4639463046FFF7ECFEFF
:1047200005466946304605F0F3F9BDF80200011967
:10473000681E0844ADF80210ADF806006946304620
:1047400001F04DFCBDE8FC817CB50546002A11DB7B
:104750002846FFF721FF041E0CDB6946284605F0BA
:10476000D7F9BDF8020069462044ADF8020028469A
:1047700001F035FC7CBD70B591F87540054614B963
:1047800004F068FC0446FF21284602F0D5F80646EE
:10479000FE21284602F0D0F805462146304604F0B6
:1047A00089FC21462846BDE8704004F083BC7CB5F6
:1047B000054600F069FB2846FDF745FA0446283017
:1047C00004F03FF8206329462046FFF704FFA0636A
:1047D0006946284605F09CF92846FFF7ADFEE063E0
:1047E000BDF90400BDF90010411A491C616421465D
:1047F0002846FFF72EFF7CBD2DE9F04106000C4650
:104800003ED003F0E5F83046FDF71DFA05462830A6
:10481000804604F016F800B1401E844200DD0446D4
:104820004FF0FF37002C09DB2146404604F094F896
:1048300028B1FDF708FA0079800700D53C46B5F9A4
:104840007270A74218D0A5F8724029463046FFF78B
:1048500000FF18B13046FFF747FF09E03A46294606
:104860003046FFF74BFF224629463046FFF746FF0A
:1048700004213046FFF7D3FEBDE8F04103F0A0B8B5
:10488000A4E62DE9F04180468CB00C46154601F1B6
:10489000280003F0D6FF0746A06CFDF7E5F80822D4
:1048A00001A8A96806F0F2FBB4F902004242B4F98B
:1048B0000000414201A802F027FE05A9404605F08C
:1048C00027F905A901A802F0F8FABDF80400ADF82F
:1048D0000C00BDF80800ADF8100000200890ADF8FD
:1048E0001C80BDF91400216C401A0A90BDF9160015
:1048F0000B90656B26E000B2BDF90A10ADF80E0012
:10490000884221DC2A4621464046FFF7F5FD06464F
:10491000BDF80E10401E084400B2BDF90610ADF8F7
:10492000120088420ADB03A805F02CFB0995E16A16
:1049300007A809B1884701E0FFF743FD0B986D1CFC
:1049400030440B90BD42D6DB002005F01BFB0B98DA
:10495000ADF80E00BDF81A00ADF81200206D03F09E
:104960002DFA03A802F0F8FB204604F01BFE0CB061
:104970002CE670B5054691F874000C4616464007C3
:1049800018D5314604F1280003F0E6FF002811D0C5
:10499000FDF759F901798A070CD481F00101017101
:1049A00004212846FFF73BFE324621462846BDE853
:1049B0007040A3E670BD70B504004FF0FF3508D01D
:1049C00003F006F82046FDF73EF9B0F9725002F008
:1049D000F7FF284670BD2DE9F04780460F464FF09F
:1049E000FF35FDF730F906464046FFF7E4FF044681
:1049F00006F12800814603F024FF0646E4190FD48F
:104A0000B4420DDA2146484603F0A6FF28B1FDF76F
:104A10001AF90079800700D42546002DEEDB01E06D
:104A2000002D04DB29464046BDE8F047E4E6DDE41E
:104A300010B504000AD002F0CBFF4FF0FF31204642
:104A4000FFF7C9FFBDE8104002F0BABF10BD10B5B6
:104A5000040009D002F0BCFF01212046FFF7BBFF94
:104A6000BDE8104002F0ACBF10BD2DE9F04180461A
:104A70000C46FDF7E8F8122C13D007DC102C1CD0E4
:104A8000112C28D14046FFF7D3FF50E0132C1ED045
:104A9000202C20D1B0F9722001464046FFF769FF73
:104AA00045E0B0F84C20016C11440AE04046FFF7A5
:104AB0007EFE4046FFF718FE39E0B0F84C20016C4E
:104AC000891A3C3004F0E1FF0028EFD12FE0404686
:104AD000FFF7BDFF2BE0204600F013FAA0F16101C3
:104AE000192904D93038092801D900206EE540463B
:104AF000FDF7A9F80646204600F003FA0546002413
:104B000006F128070EE021463046FFF751FC0078F9
:104B100000F0F7F9A84204D121464046FFF76CFEA9
:104B200005E0641C384603F08CFEA042EBD801205F
:104B30004CE570B504000E464FF0000508D002F0B9
:104B400047FF31462046FFF790FF054602F038FF49
:104B5000284670BD2DE9F047B0F904A0044686B0A0
:104B60005046FDF770F805462146504604F03DFCDE
:104B700038B920681F2872D1A06800286FD10B2196
:104B80008DE021680E296BD00DDC052969D00B2939
:104B900068D00C2915D1A06800287FD0007A0028A1
:104BA0005DD102217BE00F292FD0112933D0262996
:104BB000F0D1A068052805D00628EBD15046FFF7B4
:104BC000F6FD87E0504605F008F80146B4F9060006
:104BD000814205D103A905F003F8049868630CE04D
:104BE000504604F0F7FF0146B4F90600814271D146
:104BF00003A904F0F5FF049828645046FFF774FDFC
:104C00000A215046FFF70BFD64E022462946504634
:104C1000FFF737FE5EE0A068017A00295AD090C8FD
:104C20004FF0FF3801A9504604F072FFBDF90400AF
:104C3000A04224DCBDF90600B84220DCBDF9080022
:104C4000A0421CDBBDF90A00B84218DB05F12800C0
:104C500003F0F7FD8146BDF906606C6B0DE021E0C5
:104C600027E031E020E0B74200DBA046224629469B
:104C70005046FFF741FC0644641C4C45F3DBB8F199
:104C8000000408DB224629465046FFF772FE214603
:104C90005046FFF7B1FD012101E0FFE70321504637
:104CA000FFF7BDFC06B046E405F1280003F0FAFD6D
:104CB00010E0A068416800290CDD01685046FFF74C
:104CC00038FF0028EED105E05046FFF770FD504652
:104CD00001F0BBF9204601F0AFFCE3E72DE9F0411C
:104CE00007000C462DD002F073FE3846FCF7ABFFF0
:104CF0000646283003F0A5FD054684421DDA002C47
:104D00000FDA002404E021463046FFF7E3FC641C80
:104D1000AC42F8DB3846FFF74AFD3846FFF7E4FCC3
:104D20000BE021463046FFF7D5FC3846FFF73FFD44
:104D3000224631463846FFF707FDBDE8F04102F054
:104D40003FBE43E42DE9FC4105000E4630D0002E65
:104D50002ED0002168460A4606C002F039FE2846D9
:104D6000FCF771FF0446304606F071F9821D04F12C
:104D700028006946804603F066FDB8B9404603F056
:104D800060FD471E3946404603F0F7FD3146401DA1
:104D900006F038F939462046FFF79CFC2846FFF715
:104DA00006FD3A4621462846FFF7A8FC02F008FE19
:104DB000C8E470B506000D4615D002F009FE4DB1ED
:104DC000002403E03046FFF7BDFF641C55F82410B3
:104DD0000029F7D14FF0FF313046FFF77FFFBDE8E4
:104DE000704002F0EDBD70BD2DE9FF4704460D4651
:104DF000DDE90C01DDE90F9816461F465823444AA9
:104E000089B28DE80F003B4632462946204601F024
:104E10001EF904001BD002F0DBFD2046FCF713FF57
:104E200005461022494604F0DAFA2822394905F1EC
:104E3000480006F0B6F9B8F1000F03D0414620460D
:104E4000FFF7B7FF2046FFF7B2FC02F0B9FD20469E
:104E500004B0ECE500B585B00192ADF80000029316
:104E6000C96A684611B1884705B000BDFFF7A9FAC5
:104E7000FAE71CB5694604F04BFEBDF90600BDF922
:104E80000210401A401C1CBD7CB50546FCF7DBFE39
:104E9000044690F87400800710D529462046FFF795
:104EA0009AFB064604F1280003F0CBFC864201D2AF
:104EB000012100E00021284604F0F2FF94F874007C
:104EC000C00714D02846FFF737FB06466946284638
:104ED00004F01EFEBDF90400BDF90010401A401C8C
:104EE0000121864200DC0021284604F0CBFF94F823
:104EF0007500002804D021462846BDE87C403AE4ED
:104F00007CBDA0F14101192900D820307047000074
:104F1000554B000824020020F0B585B084461E469B
:104F20000C46DDE90A3011460022CDE90102CDE947
:104F3000032C009232462046FFF756FF05B0F0BD25
:104F4000F0B585B01D46DDE90A63844614460022AB
:104F50000C98CDE90102CDE9032C00913246294697
:104F60002046FFF741FFE9E7F0B50F4615461E461C
:104F7000418A85B00023B0F90820CDE901310097BE
:104F8000CDE903230446B0F91030B0F90E20B0F992
:104F90000C008119B4F90A002844FFF725FF05B079
:104FA000F0BD70B504000D460ED002F011FD204694
:104FB000FCF749FE85644FF0FF312046FFF78EFE77
:104FC000BDE8704002F0FCBC70BD70B504004FF04D
:104FD000000507D002F0FCFC2046FCF734FE856C8F
:104FE00002F0EEFC284670BD30B5026AB0F9004010
:104FF0005369B0F90420141BD0E91220641C9142BB
:1050000000DA1146814200DD01465D4204EB4504B1
:10501000891A4C43801A94FBF0F0184430BD2DE9F6
:10502000F04100EB810415461E46069F206B02F0FE
:10503000C5FEA06B02F0CEFEFDF7E4F9314628462E
:10504000FCF7F2FB3846BDE8F041FBF727BF13B58C
:10505000B0F9401021B10846FCF7F5FD044613E015
:10506000826A816CC06C521A6423401A5A4392FBC4
:10507000F0F0019C01A901F0CCFF0198252100F876
:10508000011B00210190017020461CBD2DE9F0415B
:1050900005460C461046B5F90410B5F900208F1AE4
:1050A000B5F90610B5F902207F1C891A01F1010833
:1050B00002F0E5F90646FCF78AFB296AB5F84620B6
:1050C000496902F00302012A06D0022A07D1B91B5E
:1050D00001EBD171491002E0BA1B511A491E21801F
:1050E000A8EB000101EBD1714A106280218835F8EC
:1050F000423F761E194421806B8831441A446280F5
:10510000401EA1801044E080BDE8F08170B5B0F988
:10511000045004460146284604F067F9002814D0DC
:1051200020680B2806D00F280AD12846BDE8704019
:1051300000F066B92846FCF786FD4030FCF7DCFD40
:105140002046BDE8704001F077BA70BD2DE9FF41FF
:1051500004460D46DDE90A0116461F463023D34AB0
:1051600089B2DDF834808DE80F003B46324629468F
:10517000204600F06CFF050020D002F029FC2846F4
:10518000FCF761FD04460022414604F028F9C849B5
:10519000284604F08BFBC749E162C74921634900F7
:1051A00061636FF07F41A16300210222E163A4F8F3
:1051B00046206422C4E9121202F002FC284604B020
:1051C000A2E7F0B587B006000D465DD002F000FC06
:1051D0003046FCF738FD0446806CA84200DD0546E9
:1051E000E06CA84200DA0546A16AA94247D007DD73
:1051F00029462046FFF7F8FEADF81400A16A05E045
:105200002046FFF7F1FEADF8140029462046FFF7CF
:10521000EBFEADF818000020ADF8160040F6FF7068
:10522000ADF81A00B4F8400020BBE06AFCF71CFCA3
:10523000074603A92046FFF70AFF024601A92046B8
:10524000FFF724FF01AA05A905A8FCF7FDFA03A9A9
:105250002046A562FFF7FBFE024601A92046FFF7A4
:1052600015FF01AA05A905A8FCF7EEFA3846FCF7D8
:10527000FBFB00E0A56205A9304600F0B0FE07B0D8
:10528000BDE8F04002F09CBB07B0F0BD70B5040073
:105290000D460CD002F09CFB2046FCF7D4FCC56206
:1052A000204600F0D2FEBDE8704002F089BB70BD20
:1052B00070B505000C46164610D002F089FB284652
:1052C000FCF7C1FC022C05D200EB840006632846E3
:1052D00000F0BBFEBDE8704002F072BB70BD70B55F
:1052E00005000C46164610D002F072FB2846FCF76B
:1052F000AAFC022C05D200EB84008663284600F04D
:10530000A4FEBDE8704002F05BBB70BDF0B587B095
:1053100005000F46B8D002F05BFB2846FCF793FC73
:105320000446C06AFCF7A0FB064603A92046FFF727
:105330008EFE024605A92046FFF7A8FE394604F175
:10534000400001F033FE88B103A92046FFF77FFE3D
:10535000024601A92046FFF799FE01AA05A905A862
:10536000FCF772FA05A9284600F039FE3046FCF732
:105370007BFB02F025FB87E770B504000D460DD0DE
:1053800002F026FB2046FCF75EFCA0F846502046C3
:1053900000F05BFEBDE8704002F012BB70BD70B55E
:1053A00004000D4616460ED002F012FB2046FCF714
:1053B0004AFC20F8425F4680204600F046FEBDE8E9
:1053C000704002F0FDBA70BD70B506000C4615467F
:1053D00015D002F0FDFA3046FCF735FCA5420ADD97
:1053E000C16CA94202D1816CA14204D0C0E912452E
:1053F000304600F02AFEBDE8704002F0E1BA70BD10
:10540000F0B58BB0FCF71FFC044605A801F04DFA7F
:10541000206A05A9426907A801F0BBFD2046A16AE0
:10542000FFF7E2FD054601A92046FFF710FE0646FC
:10543000E06AFCF719FB324603A92046FFF726FE77
:105440000220FCF72DFB0746DDE90701CDE9090144
:10545000681EADF8280009A804F094FD0096BDF977
:105460000E30BDF90C2000212046FFF7D8FDDDE904
:105470000701CDE90901ADF8245009A804F082FD27
:105480000096BDF90E30BDF90C2001212046FFF732
:10549000C6FD002004F076FD3846FCF701FB05A9A7
:1054A000204604F063F80BB0F0BD00000D51000879
:1054B00090BE0108383D0108555555002DE9FF41C2
:1054C0001F460D4600230A990293CDE9003103934C
:1054D0003B462946FFF73AFE04B0BDE8F0812DE9CE
:1054E000FF410D461F460446DDE90B3116460A987A
:1054F00000228DE80F003B46324629462046FFF742
:1055000025FEE9E72DE9FF410D461F460446DDE98A
:105510000B3116460A980D9A8DE80F003B4632462D
:105520002946204603F0E1FC04B0BDE8F0811FB538
:105530000A46090703D5FE2340F28A5102E0FF2301
:1055400040F28A318DE80F0000231A4619461846AA
:1055500003F0CBFC0446062104F080FB204604B097
:1055600010BD00002DE9F04389B08946044605A925
:1055700003F082FE012205A907A801F00AFDBDF98A
:105580002000BDF91C10A66C421AB4F94C00121A86
:1055900000EBD07001EB6007D4E90E1002F10108B6
:1055A000451A00D10125484604F0DAFC20B9A06A6A
:1055B00002F004FCFCF726FFDDE907014FF00509C6
:1055C000CDE90301ADF80E90A26B216CB4F94C004B
:1055D000891A01FB08F1B1FBF5F1394400EBD072F7
:1055E000A1EB62010844ADF8100007EB0800ADF82C
:1055F0000800BDF91200ADF80C10401D00EBD07092
:105600004FF0FF3101EB6000ADF80470ADF806001B
:10561000C01CADF80A0001A9204603F0A7FF002E28
:1056200006DA98FBF9F06E1CB04201DA0B2601E0B5
:10563000012E13DD002002F0CDFB0025A6F10109AB
:105640000AE008FB05F090FBF9F0C11903230122E1
:10565000204603F058FF6D1CB542F2DB206B02F0D0
:10566000B9FB03A9204603F071FF002002F0B2FB52
:1056700003A9204603F098FFE08CC00707D0002064
:1056800002F0A8FB002205A9204603F02CFF09B078
:10569000BDE8F08370B505000C461BD002F098F908
:1056A0002846FCF7D0FA816BA14200DD0C46C16BA5
:1056B000A14200DA0C46016CA14207D004642846DE
:1056C00000F0C3FC0521284604F0C8FABDE870408C
:1056D00002F076B970BD2DE9F047824690680C461D
:1056E00000285BD0017A4FF48079002946D0D4E9B4
:1056F0000E218E1AB4F94C104FF0010801EBD17253
:10570000E18C08EB6207090701D5406800E00068FA
:10571000C51B504603F003FE794200EB4100002D0B
:1057200001DCA56B0FE0854201DBE56B0BE0414638
:1057300000B101466E4301EBD17006EB6000B0FB97
:10574000F1F0A16B4518504604F052FA10B15046E2
:1057500001F0A0FA0121504604F0C4FA294650464F
:10576000FFF798FFE08CC00518D44946504603F077
:1057700008FEA08B800711D501210AE0E08CC0054E
:105780000CD54946504603F013FEA08B800705D583
:1057900002215046BDE8F04704F060BABDE8F0874A
:1057A00010B5040015D002F013F92046FCF74BFAAF
:1057B000826B016C914208DD491E0164204600F0B5
:1057C00044FC0521204604F049FABDE8104002F0EF
:1057D000F7B810BD10B5040015D002F0F9F8204656
:1057E000FCF731FAD0E90F21914208DA491C016433
:1057F000204600F02AFC0521204604F02FFABDE8DF
:10580000104002F0DDB810BD70B5B0F90450044688
:105810002846FCF718FA06462146284603F0E5FD1F
:10582000002826D020680C2808D00E280CD00F287D
:105830001AD129463046BDE8704093E622463146EB
:105840002846FFF748FF0FE0A068D0E900100028C5
:105850000ADD102905D0122906D12846FFF7BAFF24
:1058600002E02846FFF79CFF2046BDE8704000F0AC
:10587000E3BE70BD2DE9FF5FDDE9109BDDE90EA8F9
:1058800004460D4616461F4602F0A2F81FFA88F09D
:1058900040F001013023544ACDE900A1CDE90223B3
:1058A0003B4632462946204600F0D1FB05001ED07B
:1058B0002846FCF7C8F9044610225FEA097000D5B3
:1058C00018225946204603F08AFD484808210068FE
:1058D000A0626FF07F40E062454820630020606373
:1058E000A4F84C106421C4E90E01401EA06402F02B
:1058F00067F8284604B0BDE8F09F70B505000C4677
:1059000011D002F065F82846FCF79DF9B0F94C106B
:10591000A14204D0A0F84C40284600F096FBBDE818
:10592000704002F04DB870BD70B506000C461546CB
:1059300018D002F04DF83046FCF785F9A54200DAA0
:105940002546C0E90E45016CA14200DA0464016CF1
:10595000A94200DD0564304600F077FBBDE87040E9
:1059600002F02EB870BD70B504000D460ED0002DAB
:105970000CDB02F02DF82046FCF765F98564204623
:1059800000F063FBBDE8704002F01AB870BD70B55E
:1059900005000C4615D002F01BF82846FCF753F919
:1059A0008462B4F1807F284602D204F0C0FA01E09C
:1059B00004F0A4FA284600F048FBBDE8704001F06E
:1059C000FFBF70BD09490860704770B504004FF013
:1059D000000507D001F0FCFF2046FCF734F9056C08
:1059E00001F0EEFF284670BD095800084C02002067
:1059F000C0C0C0007FB50446084616461D46B4F92F
:105A00000830628A00218DE80F00B4F90C00B4F967
:105A100010304119B4F90A00B4F90E203044FFF7F0
:105A200029FF04B070BDF0B50F4616461D4604466A
:105A3000B0F90820418A436885B00220CDE90070A2
:105A400002A80EC0B4F90C00B4F910304119B4F931
:105A50000A00B4F90E20304403F07FFB05B0F0BD1E
:105A6000B0F90010B0F90420914205DCB0F9021041
:105A7000B0F90600814201DD002070470120704727
:105A80007CB50D46FCF7DFF80446808B81071CD5FA
:105A900040F601010840012817D02846FFF7E0FF33
:105AA000002812D022462946684601F023FA6846AB
:105AB000FFF7D6FF002808D0A08B810606D504F199
:105AC00008016A460846FBF7BFFE7CBDDDE900120F
:105AD000C4E9021240F02000FB49A083C888401CA2
